:10000000000002206D170000A3170000A5170000D4
:10001000A7170000A9170000AB170000A1170000E8
:10002000A1170000A1170000A1170000AD170000E4
:10003000AF170000A1170000B1170000AD070000C6
:10004000B51700006D070000BD070000BB170000DA
:10005000BD170000BF170000C1170000C317000044
:10006000C5170000C5010000C91700008D0700007A
:10007000CD170000CF170000D117000019040000B1
:1000800071040000D7170000D9170000DB1700002B
:10009000DD170000DF170000E1170000E317000084
:1000A000E5170000E7170000E9170000EB17000054
:1000B000ED170000EF170000F1170000F317000024
:1000C000F5170000F7170000F9170000FB170000F4
:1000D000FD170000FF1700000118000000000000DD
:1000E0000000000000000000000000000000000010
:1000F0000000000000000000000000000000000000
:1001000010B5054C237833B9044810B10448AFF357
:1001100000800121217010BD90000020000000002F
:100120004025000008B5064B1BB106480649AFF351
:1001300000800648016811B1054A02B1904708BD28
:1001400000000000402500009400002090000020E6
:1001500000000000154B002B08BF134B9D46A3F574
:10016000803A00218B460F461348144A121A01F0B8
:1001700040FD0F4B002B00D098470E4B002B00D0BA
:1001800098470020002104460D4600200C4900221B
:10019000002301F0C9FC01F0FDFC2046294600F0D7
:1001A00015FB01F0CBFC00BF00000800000002209E
:1001B0000000000000000000900000200803002064
:1001C000691B00004FF4204008B5C4F2000001F0A4
:1001D00087F840F2E413C2F20003187008BD00BFB4
:1001E00070B5022000210422012301F01DF8012135
:1001F0000A460220002301F017F84FF4444440F26D
:100200000003C2F20003C4F200044FF416550022AA
:100210000526204619469D604FF480551A705A6095
:100220001A735E73DA811D829A74DA741A7501F09A
:100230001DFA41F6FF70A064E16C4FF46143CEF209
:1002400000034FF400454FF4803241F00400E064B5
:100250003146C3F880512046C3F880211D601A60E2
:1002600003236365BDE8704001F0F8B9094BD3F88A
:100270000821002AFBD0D3F80001185CD3F8001144
:100280004A1CD1B2C3F80011D3F80821511EC3F89B
:1002900008117047E80100200E4BD3F80821511CCB
:1002A000B1F5807FF9D8D3F804114FF44442585483
:1002B000D3F80401C4F20002411CC8B2C3F804011F
:1002C000D3F80811481CC3F80801D36C43F00201AD
:1002D000D1647047AC000020B1F5807F70B447D87E
:1002E000244BD3F808218A18B2F5807FF9D891B34E
:1002F0000246D3F8044112F8015B46181D55D3F8A5
:100300000441C04301348019E4B2B242C3F804414D
:1003100000F001001FD028B1D3F8040112F8014BFE
:100320001C5410E01046D3F8044110F8015B1D5531
:10033000D3F80441651CECB2C3F804415578D3F8F6
:100340000441421C1D55D3F804010130C0B2B24231
:10035000C3F80401E6D1D3F808014FF44442091868
:10036000C3F80811C4F20002D36C43F00200D06459
:1003700070BC7047AC000020264B30B4D3F8082185
:100380008A423BD319B9D3F8081100293FD0D3F8DA
:1003900000514C1E5A5D04F001050270D3F8004173
:1003A0000122A418E4B29142C3F800411ED92DB134
:1003B000D3F8004102221C5D44700FE0D3F80051D5
:1003C000541C5D5D8554D3F8005102320135EDB205
:1003D000C3F80051D3F800515D5D0555D3F80041D5
:1003E0000134E4B29142C3F80041E7D8D3F80841A0
:1003F0001046611AC3F8081130BC7047D3F80841A1
:10040000A142BFD9D3F80841A142F7D8BAE70A46BA
:10041000ECE700BFE80100204FF44440C4F20000C4
:1004200008B503691B0600D408BD01F093F90F4914
:10043000D1F804218854D1F80401431CDAB2C1F880
:100440000421D1F80801431CC1F80831D1F8082172
:10045000B2F5807F02D9012081F80C014FF44441AC
:10046000C4F2000104238B6408BD00BFE801002032
:100470004FF44440C4F20000036910B55A060ED58B
:10048000124CD4F8081159B9D4F808313BB94FF4DB
:100490004441C4F20001CA6C22F00200C86410BDDD
:1004A000D4F80021A15C01F05BF9D4F80001431CF1
:1004B000D9B2C4F80011D4F80821501EC4F80801BC
:1004C000D4F80831002BE2D0E9E700BFAC000020EF
:1004D00030B587B0FFF784FE6E4C40F24B45582094
:1004E000FFF7DAFE22682368981AA842FBD92B206E
:1004F000FFF7D2FE2B20FFF7CFFE2B20FFF7CCFE1D
:1005000064490A682368981AA842FBD90221684600
:10051000FFF732FF9DF800104F2903D09DF801200E
:100520004B2ADCD103A85C494F2201F06BFB5B49ED
:1005300004A801F098FB03A904A801F087FB04A814
:100540000621FFF7C9FE0D20FFF7A6FE20682368ED
:10055000191A1329FBD9022102A8FFF70DFF9DF8F4
:1005600008204F2AE3D19DF809004B28DFD103A8CA
:100570004949002201F046FB494904A801F073FBF8
:1005800003A904A801F062FB062104A8FFF7A4FE5A
:100590000D20FFF781FE216823685A1A132AFBD920
:1005A000022102A8FFF7E8FE9DF808004F28E3D1DA
:1005B0009DF809104B29DFD103A83749172201F014
:1005C00021FB384904A801F04EFB03A904A801F05F
:1005D0003DFB04A80621FFF77FFE0D20FFF75CFE20
:1005E00022682368981A1328FBD9022102A8FFF772
:1005F000C3FE9DF808104F29E3D19DF809204B2A2E
:10060000DFD103A82449012201F0FCFA264904A8FD
:1006100001F029FB03A904A801F018FB04A8062196
:10062000FFF75AFE0D20FFF737FE20682368191ADE
:100630001329FBD9022102A8FFF79EFE9DF808208E
:100640004F2AE3D19DF809004B28DFD103A81249B6
:100650004FF0FF3201F0D6FA144904A801F003FB71
:10066000042104A8FFF738FE0D20FFF715FE2168CE
:1006700023685A1A132AFBD9022102A8FFF77CFE2D
:100680009DF808004F28E7D19DF809104B29E3D1C8
:1006900007B030BDF80200205424000058240000A8
:1006A000602400006824000070240000782400000A
:1006B00000232DE9F0411360174688460546FFF7F1
:1006C000D5FDFFF7D3FD0446FFF7D0FD0646FFF743
:1006D000CDFDFFF7CBFD8019C6B2FFF7C7FD31187E
:1006E000CEB2FFF7C3FD621F3318B8F1000FD4B2CA
:1006F000DEB22CDD14B3E843A84408EB0001CB07BD
:100700000FD4FFF7B3FD294601F8010B3A68013C0D
:10071000531C301841450D46E4B2C6B23B6016D0BA
:1007200064B1FFF7A3FD05F8010B3A68013C531CC7
:10073000361814F0FF043B60F6B2E2D1FFF796FDE5
:10074000C6F1FF06864208D10120BDE8F081FFF71F
:100750008DFDC6F1FF06864202D00020BDE8F08183
:10076000002CF1D00020BDE8F08100BF4FF4C04262
:1007700040F2FD23C4F20002C2F200034FF4807184
:100780000120C2F81C111870704700BF4FF4C0421E
:1007900040F2FC23C4F20002C2F200034FF40071E5
:1007A0000120C2F81C111870704700BF40F2F823F6
:1007B000C2F200031A68501C186070470023C4F28C
:1007C0000103012200209A61D86370472DE9F04FA0
:1007D00048F2FC13C0F6E07391B01C6806A800F064
:1007E000B1FE200E102800F045812020C0F2040048
:1007F00000F0E6F944F6D353C1F26203A3FB0024F0
:10080000A009411EB1F1807F00D3FEE74EF2100532
:100810004FF46D4200260723CEF20002CEF200050F
:10082000E0276960304682F82370AE602B6001F0EB
:100830003DF901F043F94FF452400121C0F20200AA
:1008400000F040FC48F210100121C0F2020000F05C
:1008500039FC4FF4A4400121C0F2020000F032FC48
:100860004FF4C4400121C0F2020000F02BFC4FF411
:1008700090500121C0F2020000F024FC0422304616
:100880003146334600F0D0FC012104223046334685
:1008900000F0CAFC02200D210422334600F0C4FC03
:1008A00002200E2104223346012500F0BDFC082160
:1008B00001220220334600F0B7FC02202A4609211B
:1008C000334600F0B1FC0220082132462B46009549
:1008D00000F060FC2B46092132460220009500F012
:1008E00059FC4FF46141CEF200014FF40062022442
:1008F000C1F8804128460C60C1F880210A6001F0EF
:10090000FBF8FFF7E5FD204601F0F6F8724806789F
:10091000002EFCD0714F0F2001F0EEF83868796896
:1009200009AB03C30025C4F20105B7F808C097F866
:100930000AE00026DFF8A0814FF48064C4F20104CD
:100940002846314609AAA3F800C083F802E001272F
:1009500088F8006000F04EFE2046314609AA00F0FB
:1009600049FE2846394609AA8DF8267000F042FE55
:100970002046394609AA00F03DFEA96A48F2101047
:100980003943A962AA6AC0F2020042F00203AB62D4
:10099000A16A48F21F593943A162A26AC5F2EB1954
:1009A00042F00203A36200F00BF9A9FB002148F218
:1009B0001010CA09EA61C0F2020000F001F9A9FBB7
:1009C000003043F2B063C109E1612846EB630CA932
:1009D000EB64DFF81081E363E3640C960D960E96EA
:1009E0008DF83C608DF830708DF8317000F0BCFDF2
:1009F00020460CA900F0B8FDD8F80050D8F80060E7
:100A0000741BF92CFAD9DFF8D8B000269BF80070D7
:100A10004FF4806543F2B06443F66B1AC4F20106EA
:100A2000C4F2010546F6A42987B90397FFF71EFC17
:100A30007E28039B2ED0D8F80010D8F80020501A3A
:100A40000228FAD99BF80070002FEED0244B002129
:100A50000F2019704FF4806401F04EF8002043F22B
:100A6000B066C4F20100C4F20104C663C664E66362
:100A7000E664FEE79DF8191003297FF4B6AE48F24C
:100A8000C005C4F20C052A6822F0500646F0100793
:100A90002F60AAE604A8012108AA8DF81070089317
:100AA000FFF706FE0028C6D09DF81070752F0DD0F8
:100AB000642FC0D15445BEDDA4F52F74012001F090
:100AC0001BF8F463F464EC63EC64B4E74C45B2DC0B
:100AD00004F52F740F20F2E7FD02002080240000AF
:100AE000FC020020F802002000F00F00411E042943
:100AF00017D8DFE801F0182B3D4F03004FF40043F7
:100B0000C4F20C03DA6A02F46030B0F5803F4BD0D7
:100B1000B0F5003F4AD0B0F5004F0CBF08200120CF
:100B20007047002070474FF40042C4F20C02D16AB3
:100B300001F47050B0F5805F38D0B0F5005F33D06D
:100B4000B0F5006F0CBF0420052070474FF4004142
:100B5000C4F20C01886A00F00300022825D00328A3
:100B60002BD0012822D08B6AD80311D509207047D9
:100B70004FF40040C4F20C00816A01F00C03082B12
:100B800012D00C2B19D0042B10D0826AD102EDD4D4
:100B9000012070474FF40041C4F20C010B6813F0C0
:100BA000805205D10720704702207047032070470C
:100BB000002A14BF0820012070470620704700BF9C
:100BC00000F47810B0F5602F08B500F03E8111D91F
:100BD000B0F5B01F00F0F4803FD9B0F5D01F00F0A1
:100BE0008C80B0F5E01F00F00A81B0F5C01F79D00D
:100BF000002008BDB0F5C02F00F014815BD9B0F51E
:100C0000202F00F0BE80B0F5402F00F09480B0F5AA
:100C1000002FEDD14FF40040C4F20C00836A03F0C2
:100C20000302022A00F09481032A00F0CC81012AF9
:100C300000F00F824FF40041C4F20C01886A000CEE
:100C400001D000F0D9FE4FF40043C4F20C039A6EB9
:100C5000C2F3031120FA01F008BDB0F5901F00F0B7
:100C60003581B0F5A01F00F01481B0F5801FBFD111
:100C70004FF40042C4F20C02906A00F00301022912
:100C800000F05D81032900F0D681012900F0D081B8
:100C90004FF40043C4F20C039A6A100C01D000F028
:100CA000ABFE4FF40042C4F20C02916E01F003035C
:100CB00020FA03F008BDB0F5003F00F02081B0F548
:100CC000802F00F01881002892D100F01BFE4FF415
:100CD0000042C4F20C021168C1F382335A1CB0FB0B
:100CE000F2F008BD0420C0F21800FFF7FDFE07284F
:100CF00003D008287FF47CAFE7E74FF40040C4F24C
:100D00000C00416901F4E063B3F5007F00F0A481B9
:100D100040F20781B3F5C06F00F0A881B3F5E06F32
:100D200000F09F81B3F5407F7FF462AF44F2402032
:100D3000C0F20F0008BD4FF40043C4F20C03986AE0
:100D400000F00302022A00F0F780032A00F0668117
:100D5000012A00F06081996A0B0C40F09381002019
:100D60004FF40042C4F20C02916E1023B3FA83F2E6
:100D7000D3B2C3F11F02C1F30131531820FA03F0BB
:100D800008BD4FF40040C4F20C00826A02F0030177
:100D9000022900F0D780032900F02981012900F001
:100DA0002381836A180C01D000F026FE4FF4004125
:100DB000C4F20C018B6EC3F3032220FA02F008BDCB
:100DC0004FF40040C4F20C00826AC2F38101022990
:100DD00000F0BB80032900F01481012900F001819B
:100DE000836A180D01D000F007FE4FF40041C4F2F1
:100DF0000C010B6FC3F3011220FA02F008BD42F29E
:100E00000530C0F21C00FFF76FFE032800F0908051
:100E1000082800F0B18002287FF4EAAEBDE808405F
:100E200000F0EEBD4FF40043C4F20C03986A00F0EA
:100E300003010229F2D0032900F09380012977D021
:100E40009B6A180C3FF4D5AE51E04FF40040C4F259
:100E50000C00816A01F00303022B7FD0032B00F00A
:100E60009B80012B00F09580826A100C01D000F06D
:100E7000C3FD4FF40043C4F20C039A6ED96FC2F362
:100E8000013320FA03F001F00702511CB0FBF1F02E
:100E900008BD4FF40041C4F20C01886AC0F381021E
:100EA000022A58D0032A00F08480012A7ED08B6A5F
:100EB0001B0D40F0E48000204FF40042C4F20C020D
:100EC000136F03F0030120FA01F008BD4FF4004353
:100ED000C4F20C03986AC0F38102022A9ED0032A4E
:100EE0003FD0012A24D0996A080D3FF482AEBDE8B4
:100EF000084000F081BDBDE8084000F083BC00F070
:100F000001FD4FF40043C4F20C031A689968C2F360
:100F100082335A1CB0FBF2F001F00F0120FA01F00D
:100F200008BD002B2CD149F68070C0F2D50008BD59
:100F3000BDE8084000F05CBD00F062FD10E700F085
:100F40005FFDAEE600F05CFD30E700F059FD4CE7D8
:100F500000F056FD77E600F053FDADE700F050FDE0
:100F600087E75868C20503D41B685B0040F18380A3
:100F700000F048FC800808BDBDE8084000F0C2BC95
:100F8000B3F5807F7FF434AE4DF6C000C0F2A70009
:100F900008BD00F02DFD6CE74168CA0502D4006869
:100FA00043007ED500F02EFC800862E700F020FDB3
:100FB00082E74868C00502D40968490075D500F089
:100FC00021FC800878E74368D80506D44FF4004236
:100FD000C4F20C02116849006BD500F013FC8008C4
:100FE00031E600F005FD00E700F002FDDEE64268B4
:100FF000D20502D4006843005FD500F003FC8008EE
:10100000D4E64268D20502D4006843003DD500F022
:10101000F9FB8008E9E600F0EBFCA1E65868C005A2
:1010200002D41B68590034D500F0ECFB800897E629
:1010300000F0DEFC35E65068C00506D44FF40041F0
:10104000C4F20C010B68590027D500F0DBFB8008C7
:1010500027E600F0CDFCF6E54CF6C070C0F26A0061
:1010600008BD46F64070C0F2401008BD4FF47C50F9
:10107000C0F2AB1008BD00F0C5FB400808BD00F091
:10108000BBFC19E700F0B8FC6AE600F0BBFB4008C7
:10109000ABE600F0B7FB400862E600F0B3FB4008A7
:1010A000FFE500F0AFFB4008E3E600F0ABFB4008D3
:1010B00002E700F0A7FB4008C5E500F0A3FB4008ED
:1010C00074E600BF30B5C0F303230446581E83B056
:1010D00005280DD8DFE800F00E12172335034FF472
:1010E0007072C1F2E402C4F3043410198400216068
:1010F00003B030BD4022C1F2E402F4E74FF40872BD
:10110000C1F2E402EFE751200191FFF7EDFC042862
:1011100001991CD04FF40072C1F2E402E3E74FF4EE
:101120003072C1F2E40201204FF40045C4F20C0514
:101130006B6DC4F30434DB07D7D42B6D1842FCD19C
:10114000D3E74FF44072C1F2E4021020ECE70191C2
:1011500000F046FC4FF40041C4F20C014A6801253E
:1011600002F00F0305FA03F14FF49042B0FBF1F0E7
:10117000C0F2E81290420199CCD97820A023C4F2A1
:101180009030C4F290334FF400720560C1F2E40273
:101190001D60A8E70729F0B434D9A1F10804A6001E
:1011A0000F2505FA06F500FA06F04FF4C047C4F221
:1011B0000007D7F8044124EA05063043C7F80401C4
:1011C000012707FA01F74FF404654FF40664C1F2F2
:1011D0008305C1F283044D190C194FF40860C1F264
:1011E0008300AD00A4002A604FF4C04623600918B4
:1011F0009DF81030C4F200068800C6F81C71036028
:10120000F0BC70478F000F2505FA07F500FA07F0CC
:101210004FF4C044C4F20004D4F8006126EA050784
:101220003843C4F80001CBE7F0B4002A37D1C4003A
:101230008E00072920D84FF00F0707FA06FC02FAA4
:1012400006F72518AE0006F1804505F5C0456E6825
:1012500026EA0C063E436E6062B9002B35D10123AD
:1012600003FA01F1201846F210028300C4F20002D2
:1012700098184160F0BC7047203E4FF00F0C0CFAFC
:1012800006FC02FA06F72518AE0006F1804505F5C2
:10129000C045AE6826EA0C063E43AE60DCE7012698
:1012A00006FA01F6C4003BB12718BD0005F18047DE
:1012B00007F5C0452E61BBE7271846F21005BF00B1
:1012C000C4F200057D196E60B2E7012202FA01F155
:1012D0002318980000F1804202F5C0431961C9E764
:1012E0004FF42042C4F2000290422DE9F00303467D
:1012F00000F0DA804FF42440C4F20000834240F052
:10130000D0808E4A9468402505264FF0000C0327B4
:10131000996A11F4C06F40F0EC801078082817D853
:10132000DFE800F01B2E4C5C75839AA10500C9050F
:1013300024D54FF48071196350780921117040B29F
:1013400000210128596300F0B180BDE8F003704727
:10135000FB20092150701170F1E7618801F0100045
:1013600080B2002800F0A5802188080A00F006015C
:1013700041F0F00001211170586259600120E4E74A
:10138000080600F1C1804906F8D561881D6301F0A7
:10139000100080B2002840F0CA8001F0020188B23B
:1013A00000285ED01179072004EBC1042189107058
:1013B0000129E3D108225A600120C6E7080600F19E
:1013C000A3804906DAD561881D6301F0020081B26D
:1013D00000290CBF30463846107099E7608800F04D
:1013E000100189B2002970D02188090A01F0060194
:1013F00041F0F00100F0040080B208B141F00101B9
:101400000420107001225A60012059629DE70806ED
:101410007AD44906B2D561881D6301F0040081B217
:10142000F9B10723137001208FE71179508804EB7D
:10143000C108B8F8089081456FD80131C9B211715F
:101440006088A2F802C000F004081FFA88F8B8F11A
:10145000000F3ED017705BE7080655D449068DD5BE
:101460001D63167054E7880688D51579508804EBFB
:10147000C5042189DD69814236D96668441CA4B25D
:10148000A142355454802FD904200129586002D03C
:1014900001398C423DD0107809287FF46FAF507825
:1014A0004DE76FF0030050E7254A2BE751700846DF
:1014B0004BE7208801F0020189B200F0FE0000290C
:1014C0003FF458AF40F0010054E7218801F0FE01DD
:1014D00090E7C00702D401297FF61AAF08211170E6
:1014E00002225A60012030E70129F7D10821596012
:1014F000F4E7880502D5FD2050701EE749057FF509
:101500001BAFFE20507018E78021FF201963507038
:10151000E4E7082159601078BEE7D8F80440411C80
:10152000205C586206235180137001200DE721785A
:10153000022010705962012007E700BFC801002097
:10154000BC0100204FF6D073CEF20F031A6902F0EF
:101550003F0101709A69DB6902F0F001C3F30312E5
:1015600041EA0203437070470B78F0B40BB90222D2
:101570004260CE788D780C7A32048F7942EA056227
:10158000CE794D78224342EA87224C7A8F7A42EA1A
:101590000622002D14BF40250025CE7A2A43002CB8
:1015A00014BF802400240D792243002F14BF20276C
:1015B00000274C793A43002E14BF10260026097BE1
:1015C0003243002D14BF4FF4005500252A43002C50
:1015D00014BF4FF080540024002914BF08210021BB
:1015E00022430A430021416202600BB101234360A0
:1015F000F0BC7047F0B45778157894793E0693782C
:1016000046EA85672743D578147947EA0347D679B0
:10161000537947EA053747EA8427157A547A47EA27
:101620000327002E14BF4FF400160026937A002DD6
:1016300014BF4FF48015002547EA06022A43002C08
:1016400014BF10240024002B14BF042300232243C2
:1016500003311A430B01C250F0BC7047CB4303F077
:1016600005025300C360C160704700BF4FF44042A1
:10167000F8B5C4F200020446002340F6AA600D4605
:1016800041F6F97641F205019442E0602360616021
:10169000A3606361E364A664636557D04FF4444775
:1016A000C4F20007BC42A36547D04FF44842C4F2DD
:1016B0000002944241D0A87C18B1216841F08046D4
:1016C0002660EF7C1FB12A7D42F01003A365288AB3
:1016D000697BEE8940EA01076868374367602E7BC3
:1016E000AF6800B3402E26D004D9602E28D02878C9
:1016F000E060F8BD36BB102307FB03F322688000CF
:1017000000EB530122F060022260B1FBF3F320688A
:10171000191F4FF6C0728B01C0F21F021A40064318
:1017200026606261E3E748F21010C0F20200FFF7A2
:1017300047FA402ED8D10623DEE70023E365BAE757
:101740000423D9E7202ED2D10823D5E72365A3654A
:10175000B1E700BF03691A06FCD5C069C0B2704783
:1017600003695A06FCD54163704700BF07488047AC
:101770000749084A084B9B1A40F30580043BC858A8
:10178000D0503FF7FBAF054800470000ED190000BF
:101790004C250000000000209000002055010000B2
:1017A000FEE7FEE7FEE7FEE7FEE7FEE7FEE7FEE711
:1017B000FEE7FEE7FEE7FEE7FEE7FEE7FEE7FEE701
:1017C000FEE7FEE7FEE7FEE7FEE7FEE7FEE7FEE7F1
:1017D000FEE7FEE7FEE7FEE7FEE7FEE7FEE7FEE7E1
:1017E000FEE7FEE7FEE7FEE7FEE7FEE7FEE7FEE7D1
:1017F000FEE7FEE7FEE7FEE7FEE7FEE7FEE7FEE7C1
:10180000FEE700BF4FF40043C4F20C03DA6A02F4AF
:101810007050B0F5805F38D0B0F5005F32D0B0F5D1
:10182000006F1AD0D96801F4E063B3F5007F3AD0B5
:101830002ED8002B3CD148F2B013C0F6E073D86C20
:1018400044F240224FF49F41C0F20F02C0F2120155
:10185000B0F1985F28BF0A4601E0274B1A684FF4A1
:101860000041C4F20C010B684868C3F382314B1C81
:10187000B2FBF3F200F00F0022FA00F11F4B084612
:10188000196070471E480268E9E74FF40042E6E736
:10189000B3F5806F2BD0B3F5A06F1ED0B3F5407FAA
:1018A00020D00022DBE74DF6C002C0F2A702D6E747
:1018B000B3F5807FF5D148F2B012C0F6E072D06C7B
:1018C0004BF240514CF6C072C0F26A02C0F26401A1
:1018D000B0F1985F28BF0A46C1E74FF47C52C0F2CE
:1018E000AB12BCE749F68072C0F2D502B7E746F604
:1018F0004072C0F24012B2E71C000020000300203A
:10190000180000204FF40043C4F20C03DA6A02F41A
:101910007050B0F5805F2AD0B0F5005F24D0B0F5EC
:10192000006F1ED0D96801F4E063B3F5007F2CD0BE
:1019300020D8002B2ED0B3F5807F24D148F2B012EE
:10194000C0F6E072D06C4CF6C0714BF24053C0F25E
:101950006A01C0F26403B0F1985F34BF08461846CC
:1019600070471D4A106870471C48006870474FF464
:1019700000407047B3F5806F29D0B3F5A06F1CD03D
:10198000B3F5407F1ED0002070474DF6C000C0F276
:10199000A700704748F2B012C0F6E072D06C44F273
:1019A00040214FF49F43C0F20F01C0F21203B0F187
:1019B000985F34BF0846184670474FF47C50C0F219
:1019C000AB10704749F68070C0F2D500704746F6FC
:1019D0004070C0F2401070471C000020180000202A
:1019E00040F21C03C2F2000318687047704700BF42
:1019F0004FF40040704700BF4FF47A70704700BF4B
:101A000040F21803C2F200031868704730B542F282
:101A10008C4487B06D46C0F200040FCC0FC594E82B
:101A2000030040F2D41285E8030040F2D81348F2D4
:101A30001010C2F20002C2F2000300250121C0F220
:101A4000020015601D60FFF73DFB4FF4524001217D
:101A5000C0F20200FFF736FB4FF460444FF44850E9
:101A6000C4F200040121C0F20200FFF72BFB204664
:101A70006946FFF7FBFD0420024629460123FFF7D4
:101A8000D3FB01210A460B460420FFF7CDFB0520BE
:101A9000072104220123FFF7C7FB616D284641F4AB
:101AA000817242F00103636507B030BD08B543079A
:101AB00001D5FFF7ABFF002008BD00BF48F21010B2
:101AC00008B50121C0F20200FFF7FCFA4FF45240C2
:101AD0000121C0F20200FFF7F5FA042002460221BC
:101AE0000023FFF7A1FB0420024603210023FFF798
:101AF0009BFB002008BD00BF4FF4C0430422C4F28A
:101B00000003C10754BFC3F8A420C3F8A0204FF4BA
:101B1000C0430822C4F2000381074CBFC3F8A020D1
:101B2000C3F8A4200020704710B5034C14B1AFF3E4
:101B3000008010BD204610BD0000000008B5084B15
:101B400004461BB10021AFF3008001E000F00CF867
:101B500004480068816A01B18847204600F06CFCA7
:101B600000000000A824000070B5084B084C0025B8
:101B7000E01A841003EB8406043D1CB172599047AF
:101B8000013CF9E7BDE8704000F05EBC8C0000202D
:101B90009000002038B50E4D0E4B0024E81A851039
:101BA000AC4205D00B4951F8242090470134F7E7A7
:101BB00000F044FC0849094A541AA5100024AC421C
:101BC00005D0054B53F8240080470134F7E738BDB2
:101BD0008800002088000020880000208C00002061
:101BE00010B50023934203D0CC5CC4540133F9E711
:101BF00010BD82180346934202D003F8011BFAE796
:101C0000704700000EB400B59CB0029006906FF0D3
:101C100000401DAB049007904FF402710A4853F83E
:101C2000042BADF814104FF6FF71ADF816100068D4
:101C300002A9019300F07EF8029B00221A701CB0EA
:101C40005DF804EB03B070478400002010B5044633
:101C5000224613780134002BFAD1CC5CD4540133E2
:101C6000002CFAD110BD034611F8012B03F8012B0B
:101C7000002AF9D17047034613F8012B002AFBD143
:101C8000181A013870472DE9F843936806468946CB
:101C90001446002B41D1928912F4906F3DD06169B6
:101CA00003254D43236927680220FF1A95FBF0F5B1
:101CB000791C02F48062A94211B2A8BF3D183046D7
:101CC00079B1294600F008FB8046A0B13A46216967
:101CD000FFF786FFA38923F4906040F08002A28181
:101CE00013E019462A4600F04FFB804668B930469B
:101CF000216900F0ADFAA0890C2340F04002336066
:101D00004FF0FF30A281BDE8F88308EB0701656161
:101D1000ED1BC4F810802160A560A368002B06DDD0
:101D2000206800F8019BA2682060511EA16000207D
:101D3000BDE8F8832DE9F0479CB003938B890D46ED
:101D400003F0800114460AB2064662B12B6953B90A
:101D5000402100F0C1FA2860286110B90C213160DF
:101D6000D3E04020686100272021302209978DF8B8
:101D700029108DF82A2023461F4613F8010B28B995
:101D8000B7EB040A16D04FF000090DE02528F3D177
:101D9000F6E7304614F809102A46FFF774FF0130C1
:101DA00000F0AC8009F10109D145F2DB099901EBA2
:101DB0000A0209923B78002B00F0A08000244FF02B
:101DC000FF3004940794059006948DF853401A94BC
:101DD00007F101094F4F4C4638462178052200F0A3
:101DE000C5FA09F10109049B30B1C41B012707FAA8
:101DF00004F73B430493EDE7D90602D520218DF883
:101E000053101A0702D52B228DF8532020782A2848
:101E100002D0079B27460EE0039A1768101D002F7B
:101E2000039001DB079704E0794243F00203079136
:101E3000049301340AE03C462178013730390929FE
:101E400003D80A2404FB0313F5E7079322782E2A0C
:101E500019D160782A2809D1039802340368021D39
:101E6000002B0392B8BF4FF0FF330BE0671C002339
:101E70003C46217801373039092903D80A2404FB6C
:101E80000313F5E70593244F21783846032200F029
:101E90006DFA38B1C71B402101FA07F1049B0134E8
:101EA0000B43049314F8011B1C4806228DF82810DC
:101EB00000F05CFA88B11A4A32B9039FFB1D23F087
:101EC00007000830039014E003A90091304604A9EC
:101ED0002A46144BAFF3008007E003A8009004A942
:101EE00030462A460F4B00F08FF8B0F1FF3F804696
:101EF00004D0099A02EB080109913CE7AB8903F091
:101F0000400002B20AB9099801E04FF0FF301CB05E
:101F1000BDE8F087AC240000B2240000B624000025
:101F200000000000871C00002DE9F0471546994687
:101F30008A680B6980469A42A8BF13462B6091F8C5
:101F400043000C46DDF820A008B1591C2960266822
:101F5000B20602D52A68931C2B60206810F0060692
:101F600018D094F8437020683E1C18BF01268306E1
:101F70001AD5A119302281F8432094F84530023651
:101F800081F8443010E04046617E4A46D047013037
:101F900006D00136E1682A688B1A9E42F3DBE0E73F
:101FA0004FF0FF30BDE8F0870027B74209DAE119AA
:101FB000404691F843104A46D0470130F0D00137EF
:101FC000F3E721682868E66801F00602042A08BFE2
:101FD000C0EB06052369A6680CBF25EAE575002558
:101FE0009E42C4BFC3EB0603ED180026AE4207DADB
:101FF0004046A17E4A46D0470130D1D00136F5E7B0
:102000000020BDE8F08700002DE9F0430C46257E56
:1020100085B06E2D9046074699460C9904F143020F
:1020200000F0AA8012D8632D24D009D8002D00F02A
:10203000BB80582D40F0CB8084F84550824D57E04E
:10204000642D20D0692D40F0C2801CE0732D00F07B
:10205000AF8009D86F2D2FD0702D40F0B880256843
:1020600045F0200626603FE0752D25D0782D40F004
:10207000AE8039E0086804F14206021D0A6001687A
:1020800084F84210A7E020680B6810F0800F02D09F
:102090001E1D0E6008E003F1040510F0400F0D60F6
:1020A00002D0B3F9001000E0196800293CDA2D20B5
:1020B000494284F8430037E025680E6815F0800F28
:1020C00002D0331D0B6007E006F1040015F0400F4D
:1020D000086001D0318800E03168267E5A4D6F2EAD
:1020E00014BF0A2308231BE07820584D84F84500CC
:1020F00020680B6810F0800F03F104060E6003D116
:10210000410601D5198800E01968C60744BF40F0B0
:102110002000206019B9206820F0200323601023DC
:10212000002084F8430001E0474D0A236668002E32
:10213000A66003DB206820F00400206001B96EB1C6
:1021400004F14200B1FBF3FE03FB1E11695C06467D
:1021500000F8011971460029F4D100E01646921BDF
:10216000082B22613CD12368D80739D5606890429A
:1021700036DC511C616033E026680B6816F0800F76
:1021800005D01E1D0E601968606908600CE003F13F
:10219000040016F0400F086003D0186863690380DC
:1021A00002E061691E68316000232361164617E072
:1021B0000E68321D0A6036683046FFF75CFD6368C2
:1021C0002061984288BF23612069606005E004F1C6
:1021D000420684F8425001232361002184F8431011
:1021E000CDF800903846214603AA4346FFF79CFEEF
:1021F000013002D14FF0FF3022E0002522699542E4
:1022000007DA3846715D4246C8470130F2D00135E1
:10221000F4E72168890705D4E06803998842B8BFCC
:1022200008460DE00025E068039BC21A9542F3DAE8
:102230003846617E4246C8470130DBD00135F2E7BF
:1022400005B0BDE8F08300BFBD240000CE2400002F
:1022500030B500293CD051F8042C0B1F1D49002A31
:10226000B8BF9B180A6812B95A600B6030BD934220
:102270000ED219685818904203D15A5889184268EA
:10228000196014485A60036030BD994203D80A4669
:1022900051680029F9D1146815199D420AD11868AE
:1022A0002318D0188842136012D108681B181360D5
:1022B0004B680CE002D90C23036030BD18681C1871
:1022C0008C4203D10C68496800191860596053604A
:1022D00030BD00BFDC01002070B5CD1C25F003052A
:1022E00008350C2D38BF0C25002D06462DDB8D4200
:1022F0002BD31D4B1B681C469CB12268501B0DD470
:102300000B2802D92060241817E0A34203D160688B
:10231000154A10601DE0616859601AE02346646840
:10232000EAE72946304600F053F8431C01460CD03A
:10233000CC1C24F003048C4201D1256009E0304616
:10234000611A00F045F80130F7D10C203060002010
:1023500070BD04F10B01231D21F00700C31A02D048
:102360005A42E25070BD70BDDC01002010B5C9B208
:10237000034682189342184604D0047801338C42F5
:10238000F8D100E0002010BDF8B5064615460C4611
:1023900021B91146BDE8F840FFF79EBF1AB9FFF713
:1023A00057FF2C4612E000F023F8A8420ED2304628
:1023B0002946FFF791FF074638B121462A46FFF725
:1023C0000FFC30462146FFF743FF3C462046F8BD50
:1023D00038B5064C002305460846236000F012F885
:1023E000431C02D1216801B1296038BD04030020DB
:1023F00051F8040C002802DA04390B58C0180438CC
:1024000070470000094A13686BB118186946884282
:1024100002D8106018467047054B0C221A604FF026
:10242000FF3318467047034B1360EEE7E0010020CE
:102430000403002008030020FEE700BFF8B500BF3A
:10244000F8BC08BC9E467047F8B500BFF8BC08BC95
:102450009E467047255800004154444C000000003F
:10246000415444480000000041544D590000000010
:1024700041544150000000004154434E0000000010
:102480000002000000000300000000000500000042
:102490000000000000C20100000500000010000064
:1024A000000000004300000020000020232D302BFE
:1024B0002000686C4C006566674546470030313245
:1024C000333435363738394142434445460030319C
:1024D00032333435363738396162636465660000FB
:1024E00000000000000000000000000000000000EC
:1024F00000000000000000000000000000000000DC
:1025000000000000000000000000000000000000CB
:1025100000000000000000000000000000000000BB
:1025200000000000000000000000000000000000AB
:10253000000000000000000000000000000000009B
:042540000000000097
:0825440010DCFF7F0100000024
:10254C00050000000000000000C2010000050000B2
:10255C00001000000000000000800000006CDC0295
:10256C0000000000E02400000025000020250000F1
:10257C00000000000000000000000000000000004F
:10258C00A424000000000000000000000000000077
:10259C00000000000000000000000000000000002F
:1025AC00000000000000000000000000000000001F
:1025BC00000000000000000000000000000000000F
:1025CC000000000020000020250100000101000097
:040000030000176D75
:00000001FF
