:10000000000002203D3A0000733A0000753A0000FB
:10001000773A0000793A00007B3A0000713A00001C
:10002000713A0000713A0000713A00007D3A000018
:100030007F3A0000713A0000813A0000FD1500008F
:10004000853A0000BD1500000D1600006912000081
:10005000C11200008F3A0000913A0000933A00006C
:10006000953A0000973A0000C5010000DD15000038
:100070009D3A00009F3A0000A13A0000A33A000018
:10008000A53A0000A73A0000A93A0000AB3A0000E8
:10009000AD3A0000AF3A0000B13A0000B33A0000B8
:1000A000B53A0000B73A0000B93A0000BB3A000088
:1000B000BD3A0000BF3A0000C13A0000C33A000058
:1000C000C53A0000C73A0000C93A0000CB3A000028
:1000D000CD3A0000CF3A0000D13A00000000000005
:1000E0000000000000000000000000000000000010
:1000F0000000000000000000000000000000000000
:1001000010B5054C237833B9044810B10448AFF357
:1001100000800121217010BDA0000020000000001F
:10012000E85C000008B5064B1BB106480649AFF372
:1001300000800648016811B1054A02B1904708BD28
:1001400000000000E85C0000A40000209C000020EB
:1001500000000000154B002B08BF134B9D46A3F574
:10016000803A00218B460F461348144A121A05F0B4
:1001700016F80F4B002B00D098470E4B002B00D0E9
:1001800098470020002104460D4600200C4900221B
:10019000002304F09BFF04F0D3FF2046294601F022
:1001A0003DFA04F0A1FF00BF00000800000002209B
:1001B0000000000000000000A00000209C030020C0
:1001C000155100004FF4244008B5C4F2000002F0BD
:1001D00031FC40F27823C2F20003187008BD00BF62
:1001E000F0B545F60023022585B02F04C0F20003C8
:1001F0004FF4D4560FCBC0F206068DE80F0047F43B
:100200004240012102968DF80C5001F049FF042074
:1002100000210822012302F073FB012104200B4678
:10022000082202F06DFB4FF42440C4F2000040F2BB
:100230000321816369466C4602F0BEFB05B0F0BD48
:1002400030B589B008AC082504F81C2DADF80C10A9
:10025000012203A98DF808300DEB0503ADF80E500F
:100260000494ADF814200693ADF81C2002F014FDA0
:10027000054908704FF42440C4F2000002F0DAFB94
:100280000028F7D109B030BD7802002030B589B020
:1002900008AC1D46042304F8182DADF80C100122FB
:1002A00003A9ADF80E3000AB0494ADF8142006930A
:1002B000ADF81C2002F0F0FC074908704FF4244010
:1002C000C4F2000002F0B6FB0028F7D19DF8002030
:1002D0002A7009B030BD00BF7802002010B54FF47D
:1002E0002444C4F20004FFF77BFFD021192201232C
:1002F0002046FFF7A5FFD0211A2203232046FFF74F
:100300009FFFD0211B2204232046FFF799FFD02115
:100310001C2204232046FFF793FFD0211D22002337
:100320002046FFF78DFFD0211E2200232046FFF735
:1003300087FFD0211F2200232046FFF781FF2022C4
:1003400000232046D021FFF77BFFD0212046212229
:100350000023FFF775FFD021222200232046FFF75C
:100360006FFFD021232200232046FFF769FFD02111
:10037000242200232046FFF763FFD02125220023FB
:100380002046FFF75DFFD021262200232046FFF7FD
:1003900057FFD021272200232046FFF751FFD0210D
:1003A000002320462822FFF74BFFD0212046292298
:1003B0000023FFF745FFD0212A2200232046FFF724
:1003C0003FFFD0212B2200232046FFF739FFD02109
:1003D0002C2200232046FFF733FFD0212D220023BB
:1003E0002046FFF72DFFD0212E2200232046FFF7C5
:1003F00027FFD0212F2200232046FFF721FFD02105
:10040000302220460023FFF71BFFD0213122204657
:100410000023FFF715FFD021322200232046FFF7EB
:100420000FFFD021332200232046FFF709FFD02100
:10043000342200232046FFF703FFD021352200237A
:100440002046FFF7FDFED021372200232046FFF78C
:10045000F7FED021382200232046FFF7F1FED021FD
:10046000632200232046FFF7EBFE2046D0216422C2
:100470000023FFF7E5FED021652200232046FFF789
:10048000DFFED021662200232046FFF7D9FED021CF
:10049000672200232046FFF7D3FED02168220023E5
:1004A0002046FFF7CDFED021692200232046FFF72A
:1004B000C7FED0216A2200232046FFF7C1FED021CB
:1004C0006B2202232046FFF7BBFE6C22002320464E
:1004D000D021FFF7B5FED021204674220023BDE8CD
:1004E0001040FFF7ADBE00BF00B585B004AB0022E1
:1004F00001214FF4244003F8082DC4F200000091BC
:100500007522D021FFF7C2FE9DF80830682B00D07D
:10051000FEE705B000BD00BFF0B585B004AC002318
:1005200004F8083D01254FF42440D0211922234628
:100530000095C4F20000FFF7A9FE4FF42440D0213B
:100540001A220095C4F2000023469DF80860FFF7C8
:100550009DFE9DF80800032800F05E822E460125CE
:100560004FF42440D0211B2223460095C4F2000002
:10057000FFF78CFE9DF808704FF42440D0211C2218
:1005800023460095C4F20000FFF780FE042F18BF39
:100590002E464FF424409DF80870D0211D2223469A
:1005A0000095C4F20000FFF771FE042F18BF2E461D
:1005B0004FF424409DF80870D0211E222346009558
:1005C000C4F20000FFF762FE002F18BF2E464FF462
:1005D00024409DF80870D0211F2223460095C4F2C4
:1005E0000000FFF753FE002F18BF2E464FF42440A3
:1005F0009DF80870D021202223460095C4F2000007
:10060000FFF744FE002F18BF2E464FF424409DF8FC
:100610000870D021212223460095C4F20000FFF784
:1006200035FE002F18BF2E464FF424409DF8087069
:10063000D021234622220095C4F20000FFF726FEB7
:10064000002F18BF2E464FF424409DF80870D0218B
:10065000234623220095C4F20000FFF717FE002F67
:1006600018BF2E464FF424409DF80870D021242254
:1006700023460095C4F20000FFF708FE002F18BFC4
:100680002E464FF424409DF80870D02125222346A1
:100690000095C4F20000FFF7F9FD002F18BF2E46A9
:1006A0004FF424409DF80870D0212622234600955F
:1006B000C4F20000FFF7EAFD002F18BF2E464FF4EA
:1006C00024409DF80870D021272223460095C4F2CB
:1006D0000000FFF7DBFD002F18BF2E464FF424402B
:1006E0009DF80870D021282223460095C4F200000E
:1006F000FFF7CCFD002F18BF2E464FF424409DF885
:100700000870D021292223460095C4F20000FFF78B
:10071000BDFD002F18BF2E464FF424409DF80870F1
:10072000D0212A2223460095C4F20000FFF7AEFD37
:10073000002F18BF2E464FF424409DF80870D0219A
:100740002B2223460095C4F20000002F18BF2E462E
:10075000FFF79CFD9DF808704FF42440D0212C2217
:1007600023460095C4F20000FFF790FD002F18BF4C
:100770002E464FF424409DF80870D0212D222346A8
:100780000095C4F20000FFF781FD002F18BF2E4630
:100790004FF424409DF80870D0212E222346009566
:1007A000C4F20000FFF772FD002F18BF2E464FF471
:1007B00024409DF80870D0212F2223460095C4F2D2
:1007C0000000FFF763FD002F18BF2E464FF42440B2
:1007D0009DF80870D021302223460095C4F2000015
:1007E000FFF754FD002F18BF2E464FF424409DF80C
:1007F0000870D021312223460095C4F20000FFF793
:1008000045FD002F18BF2E464FF424409DF8087078
:10081000D021322223460095C4F20000FFF736FDB6
:10082000002F18BF2E464FF424409DF80870234631
:10083000D02133220095C4F20000002F18BF2E46AD
:10084000FFF724FD4FF424409DF80870D021342296
:1008500023460095C4F20000FFF718FD4FF4244032
:10086000002F18BF2E46D0219DF808703522234650
:100870000095C4F20000FFF709FD4FF42440002F5B
:1008800018BF2E46D0219DF80870372223460095C8
:10089000C4F20000FFF7FAFC4FF42440002F18BF09
:1008A0002E46D0219DF80870382223460095C4F2C8
:1008B0000000FFF7EBFC4FF42440002F18BF2E463A
:1008C000D0219DF80870632223460095C4F20000F1
:1008D000FFF7DCFC4FF42440002F18BF2E46D02138
:1008E0009DF80870642223460095C4F20000FFF7CB
:1008F000CDFC4FF42440002F18BF2E46D0219DF888
:100900000870652223460095C4F20000FFF7BEFC84
:100910004FF42440002F18BF2E4666229DF8087021
:100920002346D0210095C4F20000FFF7AFFC4FF43E
:100930002440002F18BF2E462346D0219DF8087072
:1009400067220095C4F20000FFF7A0FC4FF424409A
:10095000002F18BF2E46D0219DF80870682223462C
:100960000095C4F20000FFF791FC4FF42440002FE3
:1009700018BF2E46D0219DF80870692223460095A5
:10098000C4F20000FFF782FC4FF42440002F18BF90
:100990002E46D0219DF808706A2223460095C4F2A5
:1009A0000000FFF773FC4FF42440002F18BF2E46C1
:1009B000D0219DF808706B2223460095C4F20000F8
:1009C000FFF764FC4FF42440002F18BF2E46D021BF
:1009D0009DF808706C2223460095C4F20000FFF7D2
:1009E00055FC4FF42440022F18BF2E46D0219DF80D
:1009F0000870234600957422C4F20000FFF746FCFD
:100A00009DF80810002F0CBF34462C4600290CBF5F
:100A10002046284605B0F0BD761B18BF01269EE58E
:100A20002DE9F04FDFF874B1DFF874A1DFF87491AD
:100A300000220023CBE90023CAE90023C9E90023EF
:100A400083B041F2883801244FF42440D02143225E
:100A5000494B0094C4F20000FFF718FC4FF4244007
:100A6000D0214422454B0094C4F20000FFF70EFC55
:100A70004FF42440D0214522414B0094C4F20000A1
:100A8000FFF704FC4FF42440D02146223D4B009454
:100A9000C4F20000FFF7FAFB4FF42440D0214722B4
:100AA000394B0094C4F20000FFF7F0FB4FF42440F0
:100AB000D02148220094354BC4F20000FFF7E6FB3A
:100AC000DBE9002340F2210040F21C01C2F20000E9
:100AD000C2F2000140F2230640F21A0590F800C06D
:100AE0000F78C2F20006C2F2000540F21D0440F287
:100AF000190196F800E02878C2F20004C2F2000161
:100B000047EA0C2725780E78D21940EA0E2046EAEB
:100B1000052143EBE773DAE900673618D9E90045A8
:100B200047EBE077641845EBE175B8F10108CBE9D4
:100B30000023CAE90067C9E9004584D11046194677
:100B400041F28832002303F0CFFF114941F288328D
:100B5000088000233046394603F0C6FF0D490023C4
:100B6000088041F288322046294603F0BDFF0A4B37
:100B7000188003B0BDE8F08F210000201C00002089
:100B8000230000201A0000201D0000201900002072
:100B9000CE01002038020020F801002010020020C1
:100BA00020020020300200202DE9F04FDFF874B160
:100BB000DFF874A1DFF8749100220023CBE9002351
:100BC000CAE90023C9E9002383B041F2883801242F
:100BD0004FF42440D0213B22494B0094C4F2000042
:100BE000FFF754FB4FF42440D0213C22454B0094A6
:100BF000C4F20000FFF74AFB4FF42440D0213D220D
:100C0000414B0094C4F20000FFF740FB4FF4244036
:100C1000D0213E223D4B0094C4F20000FFF736FB8A
:100C20004FF42440D0213F22394B0094C4F20000FD
:100C3000FFF72CFB4FF42440D02140220094354B89
:100C4000C4F20000FFF722FBDBE9002340F22000A2
:100C500040F21B01C2F20000C2F2000140F21E0687
:100C600040F21F0590F800C00F78C2F20006C2F2F1
:100C7000000540F2180440F2220196F800E02878BE
:100C8000C2F20004C2F2000147EA0C2725780E7870
:100C9000D21940EA0E2046EA052143EBE773DAE970
:100CA00000673618D9E9004547EBE077641845EB53
:100CB000E175B8F10108CBE90023CAE90067C9E989
:100CC000004584D11046194641F28832002303F0D2
:100CD0000BFF114941F28832088000233046394623
:100CE00003F002FF0D490023088041F288322046BC
:100CF000294603F0F9FE0A4B188003B0BDE8F08FD7
:100D0000200000201B0000201E0000201F000020EB
:100D10001800002022000020CC0100202802002022
:100D2000F0010020D8010020E8010020000200208E
:100D30002DE9F04F4FF4244440F2200B83B0C4F26D
:100D400000040125C2F2000B40F21B0A5B46D021D1
:100D50003B22C2F2000A0095204640F21E09FFF72E
:100D600095FAC2F200095346D0213C220095204654
:100D700040F21F08FFF78AFAC2F200084B46D02162
:100D80003D220095204640F21807FFF77FFAC2F295
:100D900000074346D0213E220095204640F222061D
:100DA000FFF774FAC2F200063B46D0213F220095BD
:100DB0002046FFF76BFA334600952046D0214022AB
:100DC000FFF764FA40F2F011C2F2000140F2CC12D7
:100DD00040F22823B1F800C09BF80000C2F20002E4
:100DE00099F80040C2F2000396F800909AF800A02B
:100DF00098F800803F7815881E884AEA002B40F258
:100E0000D21140F2F21248EA042440F20823CCF551
:100E1000005049EA0727C2F20001C5EB0B05C2F2F8
:100E20000002A41BC2F20003C0190D8014801880B8
:100E300003B0BDE8F08F00BF2DE9F04F4FF424441C
:100E400040F2210B83B00125C4F20004C2F2000B72
:100E500040F21C0AD02143225B46C2F2000A0095F0
:100E6000204640F22309FFF711FAC2F20009D0210F
:100E7000442253460095204640F21A08FFF706FA2E
:100E8000C2F20008D02145224B460095204640F290
:100E90001D07FFF7FBF9C2F20007D02146224346A7
:100EA0000095204640F21906FFF7F0F9C2F200065D
:100EB000D02147223B4600952046FFF7E7F948221C
:100EC0003346D02100952046FFF7E0F940F2382262
:100ED00040F2F81398F800E099F800503C78307828
:100EE000C2F20002C2F2000317889AF800101A88B2
:100EF0009BF800604EEA052340EA0424DD1B41EA2A
:100F00000626A01A40F2402740F2D01240F2E0112B
:100F1000C2F2000284B2ADB2C2F20001C2F2000716
:100F200015803E800C8030B203F03AFC0021C4F200
:100F3000852103F03DFD40F2E413C2F20003804638
:100F4000C3F8008028B203F02BFC0021C4F28521F5
:100F500003F02EFD40F248260746C2F20006376035
:100F600020B203F01DFC0021C4F2832103F020FD18
:100F700040F2182940F23C22C2F200020646C2F2B8
:100F800000091660D9F8000003F09AF804464046BC
:100F90000D4603F095F824A3D3E9002303F0E4F809
:100FA00002460B462046294602F02CFF03F0EEFADB
:100FB00040F24428C2F20008C9F80000D8F8000046
:100FC00003F07EF8044638460D4603F079F816A380
:100FD000D3E9002303F0C8F802460B462046294611
:100FE00002F010FF03F0D2FA40F2F417C2F2000749
:100FF000C8F80000386803F063F8044630460D4630
:1010000003F05EF808A3D3E9002303F0ADF802462D
:101010000B462046294602F0F5FE03F0B7FA386089
:1010200003B0BDE8F08F00BF7B14AE47E17A643FA8
:1010300070B5022000210422012301F061FC01218E
:101040000A460220002301F05BFC4FF4404440F2CA
:101050000003C2F20003C4F200044FF4165500224C
:101060000526204619469D604FF480551A705A6037
:101070001A735E73DA811D829A74DA741A7502F03B
:1010800071F841F6FF70A064E16C4FF46143CEF259
:1010900000030825102241F00400E0643146C3F843
:1010A00080512046C3F880211D601A6040F203532E
:1010B0006365BDE8704002F04DB800BF094BD3F83E
:1010C0000821002AFBD0D3F80001185CD3F80011E6
:1010D0004A1CD1B2C3F80011D3F80821511EC3F83D
:1010E000081170477C0200200E4BD3F80821511CD8
:1010F000B1F5807FF9D8D3F804114FF44042585429
:10110000D3F80401C4F20002411CC8B2C3F80401C0
:10111000D3F80811481CC3F80801D36C43F002014E
:10112000D1647047BC000020B1F5807F70B447D80F
:10113000244BD3F808218A18B2F5807FF9D891B3EF
:101140000246D3F8044112F8015B46181D55D3F846
:101150000441C04301348019E4B2B242C3F80441EF
:1011600000F001001FD028B1D3F8040112F8014BA0
:101170001C5410E01046D3F8044110F8015B1D55D3
:10118000D3F80441651CECB2C3F804415578D3F898
:101190000441421C1D55D3F804010130C0B2B242D3
:1011A000C3F80401E6D1D3F808014FF4404209180E
:1011B000C3F80811C4F20002D36C43F00200D064FB
:1011C00070BC7047BC000020264B30B4D3F8082117
:1011D0008A423BD319B9D3F8081100293FD0D3F87C
:1011E00000514C1E5A5D04F001050270D3F8004115
:1011F0000122A418E4B29142C3F800411ED92DB1D6
:10120000D3F8004102221C5D44700FE0D3F8005176
:10121000541C5D5D8554D3F8005102320135EDB2A6
:10122000C3F80051D3F800515D5D0555D3F8004176
:101230000134E4B29142C3F80041E7D8D3F8084141
:101240001046611AC3F8081130BC7047D3F8084142
:10125000A142BFD9D3F80841A142F7D8BAE70A465C
:10126000ECE700BF7C0200204FF44040C4F20000D5
:1012700008B503691B0600D408BD01F0E7FF0F495C
:10128000D1F804218854D1F80401431CDAB2C1F822
:101290000421D1F80801431CC1F80831D1F8082114
:1012A000B2F5807F02D9012081F80C014FF4404152
:1012B000C4F2000104238B6408BD00BF7C0200203F
:1012C0004FF44040C4F20000036910B55A060ED531
:1012D000124CD4F8081159B9D4F808313BB94FF47D
:1012E0004041C4F20001CA6C22F00200C86410BD83
:1012F000D4F80021A15C01F0AFFFD4F80001431C39
:10130000D9B2C4F80011D4F80821501EC4F808015D
:10131000D4F80831002BE2D0E9E700BFBC00002080
:1013200030B587B0FFF784FE6E4C40F24B45582035
:10133000FFF7DAFE22682368981AA842FBD92B200F
:10134000FFF7D2FE2B20FFF7CFFE2B20FFF7CCFEBE
:1013500064490A682368981AA842FBD902216846A2
:10136000FFF732FF9DF800104F2903D09DF80120B0
:101370004B2ADCD103A85C494F2203F019FF5B49DB
:1013800004A803F046FF03A904A803F035FF04A84E
:101390000621FFF7C9FE0D20FFF7A6FE206823688F
:1013A000191A1329FBD9022102A8FFF70DFF9DF896
:1013B00008204F2AE3D19DF809004B28DFD103A86C
:1013C0004949002203F0F4FE494904A803F021FF33
:1013D00003A904A803F010FF062104A8FFF7A4FE48
:1013E0000D20FFF781FE216823685A1A132AFBD9C2
:1013F000022102A8FFF7E8FE9DF808004F28E3D17C
:101400009DF809104B29DFD103A83749172203F0B3
:10141000CFFE384904A803F0FCFE03A904A803F09A
:10142000EBFE04A80621FFF77FFE0D20FFF75CFE10
:1014300022682368981A1328FBD9022102A8FFF713
:10144000C3FE9DF808104F29E3D19DF809204B2ACF
:10145000DFD103A82449012203F0AAFE264904A8EB
:1014600003F0D7FE03A904A803F0C6FE04A80621D2
:10147000FFF75AFE0D20FFF737FE20682368191A80
:101480001329FBD9022102A8FFF79EFE9DF8082030
:101490004F2AE3D19DF809004B28DFD103A8124958
:1014A0004FF0FF3203F084FE144904A803F0B1FEAC
:1014B000042104A8FFF738FE0D20FFF715FE216870
:1014C00023685A1A132AFBD9022102A8FFF77CFECF
:1014D0009DF808004F28E7D19DF809104B29E3D16A
:1014E00007B030BD8C030020105A0000145A0000D1
:1014F0001C5A0000245A00002C5A0000345A0000E4
:1015000000232DE9F0411360174688460546FFF792
:10151000D5FDFFF7D3FD0446FFF7D0FD0646FFF7E4
:10152000CDFDFFF7CBFD8019C6B2FFF7C7FD31181F
:10153000CEB2FFF7C3FD621F3318B8F1000FD4B26B
:10154000DEB22CDD14B3E843A84408EB0001CB075E
:101550000FD4FFF7B3FD294601F8010B3A68013CAF
:10156000531C301841450D46E4B2C6B23B6016D05C
:1015700064B1FFF7A3FD05F8010B3A68013C531C69
:10158000361814F0FF043B60F6B2E2D1FFF796FD87
:10159000C6F1FF06864208D10120BDE8F081FFF7C1
:1015A0008DFDC6F1FF06864202D00020BDE8F08125
:1015B000002CF1D00020BDE8F08100BF4FF4C04204
:1015C00040F29033C4F20002C2F200034FF4806193
:1015D0000120C2F81C111870704700BF4FF4C042C0
:1015E00040F29133C4F20002C2F200034FF40071E2
:1015F0000120C2F81C111870704700BF40F28C33F4
:10160000C2F200031A68501C186070470023C4F22D
:101610000103012200209A61D86370472DE9F04F41
:1016200048F2FC13C0F6E07391B01C6806A801F004
:1016300005FDB4F1805F04D39DF81800032800F085
:10164000F2812020C0F2040000F0A8FA44F6D3573B
:10165000C1F26207A7FB00239C09601EB0F1807FE6
:1016600000D3FEE74EF210064FF46D420027CEF293
:101670000002E021CEF200060725706082F82310F8
:101680003846B760356002F079FB02F07FFB4FF41B
:1016900052400121C0F2020000F002FD48F2101099
:1016A0000121C0F2020000F0FBFC4FF4A440012134
:1016B000C0F2020000F0F4FC4FF4C4400121C0F27B
:1016C000020000F0EDFC4FF400700121C0F20200B6
:1016D00000F0E6FC0320012104223B4601F010F952
:1016E0000320022104223B4601F00AF903200621CF
:1016F00004223B4601F004F90320042229463B461C
:1017000001F0FEF80120024609213B4601F0F8F8FD
:101710000120044602460A213B4601F0F1F820462A
:1017200009213A462346009401F0A0F80A213A46DE
:1017300023462046009401F099F84FF46143CEF21D
:1017400000034FF400620226C3F8806138461E6031
:10175000C3F880211A6001F033FE01F083FDC54813
:1017600002F0A0F8204602F02FFB032001F086FED5
:10177000FEF7B4FD01F076FD204601F07FFEFEF796
:10178000B3FE01F06FFD304601F078FEFEF7C4FEB7
:10179000002800F0428101F065FD042001F06EFE9A
:1017A000FFF73EF9FFF700FAFFF7BAFD01F05AFD27
:1017B000022002F009FBDFF8F0B2AF4CDFF8ECA238
:1017C000DFF8EC92DFF8EC82AC4FAD4EAD4DFFF799
:1017D00033FBFFF7ADFAAC4802F064F8BBF9000048
:1017E00001F04CFE206840F2E73123681A1A8A4261
:1017F000FBD901F037FDA54802F054F8BAF9000012
:1018000001F03CFE9C4840F2E73201682368581A18
:101810009042FBD901F026FD9D4802F043F8B9F94A
:10182000000001F02BFE944940F2E732086823687B
:10183000191A9142FBD901F015FD964802F032F8D1
:10184000B8F9000001F01AFE8B4840F2E732016857
:101850002368581A9042FBD901F004FD8E4802F02B
:1018600021F8B7F9000001F009FE834940F2E732A0
:1018700008682368191A9142FBD901F0F3FC8748E4
:1018800002F010F8B6F9000001F0F8FD7A4840F2D5
:10189000E73201682368581A9042FBD901F0E2FC54
:1018A0002978002993D07E4D0F2002F08DFA286808
:1018B000696809AB03C30026C4F20106B5F808C085
:1018C00095F80AE000274FF48065DFF8B8A1C4F26C
:1018D00001053046394609AAA3F800C083F802E0A2
:1018E0004FF0010B8AF8007001F000FC39462846E1
:1018F00009AA01F0FBFB3046594609AA8DF826B02B
:1019000001F0F4FB2846594609AA01F0EFFBB26A40
:1019100048F2101042F4403141EA0B03B362B26A5C
:10192000C0F2020042F4403141F00203B362AA6AFD
:1019300048F21F5942F4802141EA0B03AB62AA6AC4
:10194000C5F2EB1942F4802141F00203AB6200F0D2
:1019500025F9A9FB002148F21010CA09F261C0F272
:10196000020000F01BF9A9FB003043F2B063C1098B
:10197000E9613046F3630CA9F364EB633E4EEB641C
:101980000C970D970E978DF83C708DF830B08DF850
:1019900031B001F065FB28460CA901F061FB376806
:1019A0002568EA1BF92AFBD9DFF8F8B000279BF875
:1019B00000804FF4806643F2B06543F66B1AC4F2C0
:1019C0000107C4F2010646F6A429B8F1000F10D1B0
:1019D000CDF80C80FFF772FB7E28039B2ED0216888
:1019E0002268531A022BFBD99BF80080B8F1000F34
:1019F000EED02C4B0F2000241C704FF4806502F0B9
:101A0000E3F9002143F2B062C4F20101C4F201051E
:101A1000CA63CA64EA63EA64FEE701F023FC0520B6
:101A200001F02CFDBCE648F2C001C4F20C010A68CA
:101A300022F0500545F010060E6002E604A80121D0
:101A400008AA8DF810800893FFF75AFD0028C6D029
:101A50009DF8100075282FD06428C0D15545BEDDF3
:101A6000A5F52F75012002F0AFF9FD63FD64F56364
:101A7000F564B4E7485A00008C030020F20100200E
:101A80000802002091030020505A0000585A00001C
:101A9000605A0000685A0000705A0000785A00002E
:101AA0003C5A00009003002040020020D00100209A
:101AB000E0010020D20100204D4590DC05F52F7596
:101AC0000F20D0E700F00F00411E042917D8DFE8EF
:101AD00001F0182B3D4F03004FF40043C4F20C03F8
:101AE000DA6A02F46030B0F5803F4BD0B0F5003FC9
:101AF0004AD0B0F5004F0CBF0820012070470020ED
:101B000070474FF40042C4F20C02D16A01F47050E5
:101B1000B0F5805F38D0B0F5005F33D0B0F5006F1E
:101B20000CBF0420052070474FF40041C4F20C01A3
:101B3000886A00F00300022825D003282BD0012852
:101B400022D08B6AD80311D5092070474FF400408A
:101B5000C4F20C00816A01F00C03082B12D00C2B8C
:101B600019D0042B10D0826AD102EDD40120704725
:101B70004FF40041C4F20C010B6813F0805205D100
:101B8000072070470220704703207047002A14BFC7
:101B90000820012070470620704700BF00F478102D
:101BA000B0F5602F08B500F03E8111D9B0F5B01F37
:101BB00000F0F4803FD9B0F5D01F00F08C80B0F574
:101BC000E01F00F00A81B0F5C01F79D0002008BDE9
:101BD000B0F5C02F00F014815BD9B0F5202F00F0D4
:101BE000BE80B0F5402F00F09480B0F5002FEDD10D
:101BF0004FF40040C4F20C00836A03F00302022A8F
:101C000000F09481032A00F0CC81012A00F00F82B9
:101C10004FF40041C4F20C01886A000C01D002F0BC
:101C200053F84FF40043C4F20C039A6EC2F303114D
:101C300020FA01F008BDB0F5901F00F03581B0F535
:101C4000A01F00F01481B0F5801FBFD14FF40042F7
:101C5000C4F20C02906A00F00301022900F05D81D9
:101C6000032900F0D681012900F0D0814FF4004310
:101C7000C4F20C039A6A100C01D002F025F84FF45C
:101C80000042C4F20C02916E01F0030320FA03F04B
:101C900008BDB0F5003F00F02081B0F5802F00F0C6
:101CA0001881002892D101F095FF4FF40042C4F250
:101CB0000C021168C1F382335A1CB0FBF2F008BD6C
:101CC0000420C0F21800FFF7FDFE072803D0082803
:101CD0007FF47CAFE7E74FF40040C4F20C004169A9
:101CE00001F4E063B3F5007F00F0A48140F20781C6
:101CF000B3F5C06F00F0A881B3F5E06F00F09F81ED
:101D0000B3F5407F7FF462AF44F24020C0F20F0091
:101D100008BD4FF40043C4F20C03986A00F00302BC
:101D2000022A00F0F780032A00F06681012A00F001
:101D30006081996A0B0C40F0938100204FF40042BF
:101D4000C4F20C02916E1023B3FA83F2D3B2C3F142
:101D50001F02C1F30131531820FA03F008BD4FF4FC
:101D60000040C4F20C00826A02F00301022900F074
:101D7000D780032900F02981012900F02381836A9B
:101D8000180C01D001F0A0FF4FF40041C4F20C0187
:101D90008B6EC3F3032220FA02F008BD4FF400401B
:101DA000C4F20C00826AC2F38101022900F0BB80F8
:101DB000032900F01481012900F00181836A180DC4
:101DC00001D001F081FF4FF40041C4F20C010B6F10
:101DD000C3F3011220FA02F008BD42F20530C0F24E
:101DE0001C00FFF76FFE032800F09080082800F029
:101DF000B18002287FF4EAAEBDE8084001F068BF78
:101E00004FF40043C4F20C03986A00F00301022966
:101E1000F2D0032900F09380012977D09B6A180C37
:101E20003FF4D5AE51E04FF40040C4F20C00816A9B
:101E300001F00303022B7FD0032B00F09B80012BCA
:101E400000F09580826A100C01D001F03DFF4FF444
:101E50000043C4F20C039A6ED96FC2F3013320FA27
:101E600003F001F00702511CB0FBF1F008BD4FF484
:101E70000041C4F20C01886AC0F38102022A58D0E2
:101E8000032A00F08480012A7ED08B6A1B0D40F06B
:101E9000E48000204FF40042C4F20C02136F03F000
:101EA000030120FA01F008BD4FF40043C4F20C0313
:101EB000986AC0F38102022A9ED0032A3FD0012AE9
:101EC00024D0996A080D3FF482AEBDE8084001F0C5
:101ED000FBBEBDE8084001F0FDBD01F07BFE4FF404
:101EE0000043C4F20C031A689968C2F382335A1C87
:101EF000B0FBF2F001F00F0120FA01F008BD002B59
:101F00002CD149F68070C0F2D50008BDBDE808406C
:101F100001F0D6BE01F0DCFE10E701F0D9FEAEE61E
:101F200001F0D6FE30E701F0D3FE4CE701F0D0FE21
:101F300077E601F0CDFEADE701F0CAFE87E758680D
:101F4000C20503D41B685B0040F1838001F0C2FD31
:101F5000800808BDBDE8084001F03CBEB3F5807FB5
:101F60007FF434AE4DF6C000C0F2A70008BD01F00A
:101F7000A7FE6CE74168CA0502D4006843007ED51D
:101F800001F0A8FD800862E701F09AFE82E7486848
:101F9000C00502D40968490075D501F09BFD800891
:101FA00078E74368D80506D44FF40042C4F20C0227
:101FB000116849006BD501F08DFD800831E601F014
:101FC0007FFE00E701F07CFEDEE64268D20502D427
:101FD000006843005FD501F07DFD8008D4E64268CB
:101FE000D20502D4006843003DD501F073FD80089E
:101FF000E9E601F065FEA1E65868C00502D41B6859
:10200000590034D501F066FD800897E601F058FECE
:1020100035E65068C00506D44FF40041C4F20C0107
:102020000B68590027D501F055FD800827E601F01F
:1020300047FEF6E54CF6C070C0F26A0008BD46F6F1
:102040004070C0F2401008BD4FF47C50C0F2AB109D
:1020500008BD01F03FFD400808BD01F035FE19E75D
:1020600001F032FE6AE601F035FD4008ABE601F012
:1020700031FD400862E601F02DFD4008FFE501F06A
:1020800029FD4008E3E601F025FD400802E701F0E4
:1020900021FD4008C5E501F01DFD400874E600BFC4
:1020A00030B5C0F303230446581E83B005280DD86D
:1020B000DFE800F00E12172335034FF47072C1F2FF
:1020C000E402C4F3043410198400216003B030BD6D
:1020D0004022C1F2E402F4E74FF40872C1F2E402D4
:1020E000EFE751200191FFF7EDFC042801991CD086
:1020F0004FF40072C1F2E402E3E74FF43072C1F230
:10210000E40201204FF40045C4F20C056B6DC4F3EA
:102110000434DB07D7D42B6D1842FCD1D3E74FF43E
:102120004072C1F2E4021020ECE7019101F0C0FD21
:102130004FF40041C4F20C014A68012502F00F037C
:1021400005FA03F14FF49042B0FBF1F0C0F2E8124F
:1021500090420199CCD97820A023C4F29030C4F2E7
:1021600090334FF400720560C1F2E4021D60A8E7ED
:1021700010B5C0F30313013B82B0042B5BD8DFE83A
:1021800013F05C006C00B000D80005000020C4F221
:102190000C00436803F00702052A0AD8012404FA58
:1021A00002F010F02C0F00F04E8123F0070242F0F5
:1021B00005030024C4F20C044FF400406360C4F231
:1021C0000C000268013922F4E03343EA81320260F4
:1021D00001F080FC4FF49041C0F2E811884263683E
:1021E0000AD903F007018A1E23F00703012A94BFCE
:1021F00043F0050343F004034DF6FF32CFF60B72B4
:1022000042F2FF318218C0F2F4018A4200F2BB8030
:1022100003F00700052823F0070306D8012202FA7D
:1022200000F111F02C0F40F0AB8043F001030020CF
:10223000C4F20C00436002B010BDB1FA81F14FF45A
:102240000043C4F20C039A68C8B2C0F11F0122F027
:102250000F0241EA02009860EDE70023C4F20C038C
:102260005B6803F00702052A0AD8012000FA02F28F
:1022700012F02C0F00F0DE8023F0070040F0050381
:102280000022C4F20C02536051200191FFF71AFCA6
:102290000428019900F017817820A0230022C4F2BD
:1022A0009030C4F2903302601A60B1FA81F14FF4B9
:1022B0000040C4F20C004368CAB2C2F11F0123F00F
:1022C0000F0341EA0302426001F004FC4FF4904224
:1022D0000021C0F2E812C4F20C0190424B688BD985
:1022E0007FE742F23042C0F20A02904200F0D18011
:1022F00060D841F23043C0F2080398429BD14FF4BA
:102300000042C4F20C02506DC30702D4136D58078B
:10231000FCD4B1FA81F14FF40040C4F20C00826E9B
:10232000CBB2C3F11F0122F0F00242EA011383662F
:1023300081E74FF4A863C0F21403984260D04FF4D1
:10234000AA52C0F2160290427FF475AF4FF40042D9
:10235000C4F20C02506DC30702D4136D5806FCD4AE
:10236000B1FA81F14FF40040C4F20C00026FCBB21D
:10237000C3F11F0122F0300242EA011303675AE75A
:1023800043F0030353E74FF41051C0F2F4018842C5
:102390003FF64DAF03F00700052823F007033FF693
:1023A00046AF012202FA00F111F02C0F18BF43F0E2
:1023B00002033CE73022C0F20C0290424CD04FF4B2
:1023C0008663C0F2100398427FF435AF4FF40042A9
:1023D000C4F20C02506DC30702D4136D5807FCD42D
:1023E000B1FA81F14FF40040C4F20C00826ECBB21E
:1023F000C3F11F0122F0030241EA020383661AE7D8
:102400004FF40042C4F20C02506DC30702D4136DA6
:102410005806FCD4B1FA81F14FF40040C4F20C002C
:10242000026FCBB2C3F11F0122F0030241EA0203A3
:10243000036700E712F0130F3FF422AF23F0070306
:1024400043F004031CE710F0130F3FF4B2AE23F087
:10245000070343F00403ACE64FF40042C4F20C025D
:10246000506DC30702D4136D5807FCD4B1FA81F143
:102470004FF40043C4F20C039A6E1020B0FA80F0BF
:10248000C0B2C9B2411A22F4405242EA0130986601
:10249000D1E64FF40042C4F20C02536DDB0702D4C4
:1024A000106D4007FCD4B1FA81F14FF40043C4F23F
:1024B0000C039A6EC8B2C0F11F0122F4706242EAA6
:1024C00001209866B7E6019101F0F2FB01994FF403
:1024D0009043B0FBF1F0C0F2E81398427FF6DCAE17
:1024E0007820A0230122C4F29030C4F2903302601D
:1024F0001A60DAE638B500F00F04631E042B0AD820
:10250000DFE803F03017170A0300032949D0082930
:1025100072D002295AD038BD072939D00829FAD1FA
:102520004FF40040C4F20C00026842F08051016098
:1025300038BD01390829EED801A252F821F000BFB8
:10254000D3260000F7260000AB2700001725000067
:10255000172500006B270000172500001725000035
:102560009F2700008A1E072AD5D801A353F822F01E
:1025700017270000232700002B27000067270000F3
:102580001725000017250000172500000D26000064
:102590004FF40043C4F20C03186820F080521A6014
:1025A00038BD4FF40042C4F20C0240241462D06AD9
:1025B0004FF400440106C4F20C04F8D500F04AF9C7
:1025C00060216162E36A9A03FCD538BD4FF4004292
:1025D000C4F20C024FF480701062D16A4FF40044D0
:1025E0008B05C4F20C04F8D500F034F94023636283
:1025F000E26AD003FCD538BD4FF40040C4F20C00B1
:1026000020214162C36A1904FCD538BD032501208D
:1026100002224FF40044C4F20C042062E36A1A421E
:10262000FCD000F017F90021C4F20C014B6803F054
:10263000070005280DD8012202FA00F414F02C0F2F
:1026400040F0D98014F0130F03D023F0070343F0B8
:10265000040300244FF40040C4F20C00C4F20C0444
:102660006360456200F0F6F801F034FA4FF49042EE
:10267000C0F2E812904263680AD903F007018A1E8B
:1026800023F00703012A94BF43F0050343F004033A
:102690004DF6FF32CFF60B7242F2FF318218C0F2D4
:1026A000F4018A4200F2908003F00700052823F02D
:1026B000070300F2B280012202FA00F111F02C0FA0
:1026C00000F0AB8043F003030020C4F20C00436031
:1026D00038BD002003460146022C00F091804FF4E3
:1026E0000042C4F20C02916A21F4801323F00C0121
:1026F0000843906238BD4FF40041C4F20C014FF41E
:1027000080730B62C86A8305FCD500F0A3F808202B
:1027100000230221E0E704254FF480704FF400729B
:1027200077E703254020802273E701F0C1FA4FF4D8
:102730009045C0F2E8154FF40044C4F20C04A842DE
:10274000236871D943F0804242F060052560246C13
:10275000E20604D5A023C4F29033012119600225BA
:102760000420082255E7012551E74FF40163C4F224
:10277000903301251D6001F0ADF94FF49042C0F295
:10278000E81290424CD97822A023C4F29033C4F2CC
:10279000903215600C201D60032100239CE74FF44C
:1027A00080104FF48033002196E74FF40041C4F2CB
:1027B0000C0140200862CA6A1006FCD500F04AF8F5
:1027C00004200023012187E74FF41051C0F2F401E7
:1027D00088423FF679AF03F00700052823F007038E
:1027E0003FF672AF012202FA00F111F02C0F18BF70
:1027F00043F0020368E723F0070141F0050328E7EF
:102800004FF40042C4F20C02906A0B4320F4803172
:1028100021F003000343936238BD43F0010353E703
:102820000C200023032157E723F0600141F0200032
:10283000206094E74FF40043C4F20C039A6D110733
:1028400006D4D96F00F0070021F007021043D867C3
:10285000704700BF4FF40043C4F20C03DA6A40F241
:102860004C20C2F200000280704700BF0729F0B47C
:1028700034D9A1F10804A6000F2505FA06F500FADF
:1028800006F04FF4C047C4F20007D7F8044124EA29
:1028900005063043C7F80401012707FA01F74FF492
:1028A00004654FF40664C1F28305C1F283044D1937
:1028B0000C194FF40860C1F28300AD00A4002A6037
:1028C0004FF4C046236009189DF81030C4F200068A
:1028D0008800C6F81C710360F0BC70478F000F259C
:1028E00005FA07F500FA07F04FF4C044C4F20004FB
:1028F000D4F8006126EA05073843C4F80001CBE7A5
:10290000F0B4002A37D1C4008E00072920D84FF038
:102910000F0707FA06FC02FA06F72518AE0006F1C3
:10292000804505F5C0456E6826EA0C063E436E609C
:1029300062B9002B35D1012303FA01F1201846F2C8
:1029400010028300C4F2000298184160F0BC704786
:10295000203E4FF00F0C0CFA06FC02FA06F7251881
:10296000AE0006F1804505F5C045AE6826EA0C06C6
:102970003E43AE60DCE7012606FA01F6C4003BB137
:102980002718BD0005F1804707F5C0452E61BBE75C
:10299000271846F21005BF00C4F200057D196E60CD
:1029A000B2E7012202FA01F12318980000F18042F7
:1029B00002F5C0431961C9E7F0B50446487804F14F
:1029C00004764FF6CF7380F0010700257201C0F244
:1029D00001036563236357608D6883B048680F7B8C
:1029E000A5B1236823F440722260236843EA0722DA
:1029F0002260A0B10E4AA0EB8500D25D236805FBE2
:102A000002F59A07B0FBF5F005D42061097876014C
:102A1000316003B0F0BD002808BF0120F5E748F29F
:102A20001010C0F202000191FFF7B8F80199E1E738
:102A3000805A00004FF42042C4F2000290422DE977
:102A4000F003034600F0DA804FF42440C4F20000A3
:102A5000834240F0D0808E4A9468402505264FF08E
:102A6000000C0327996A11F4C06F40F0EC801078D5
:102A7000082817D8DFE800F01B2E4C5C75839AA15C
:102A80000500C90524D54FF48071196350780921D8
:102A9000117040B200210128596300F0B180BDE8F7
:102AA000F0037047FB20092150701170F1E7618835
:102AB00001F0100080B2002800F0A5802188080AEB
:102AC00000F0060141F0F0000121117058625960D8
:102AD0000120E4E7080600F1C1804906F8D56188C5
:102AE0001D6301F0100080B2002840F0CA8001F0A0
:102AF000020188B200285ED01179072004EBC104DE
:102B0000218910700129E3D108225A600120C6E70B
:102B1000080600F1A3804906DAD561881D6301F03B
:102B2000020081B200290CBF30463846107099E788
:102B3000608800F0100189B2002970D02188090A4C
:102B400001F0060141F0F00100F0040080B208B18C
:102B500041F001010420107001225A6001205962E5
:102B60009DE708067AD44906B2D561881D6301F055
:102B7000040081B2F9B10723137001208FE71179A6
:102B8000508804EBC108B8F8089081456FD801312E
:102B9000C9B211716088A2F802C000F004081FFADF
:102BA00088F8B8F1000F3ED017705BE7080655D4DF
:102BB00049068DD51D63167054E7880688D51579AA
:102BC000508804EBC5042189DD69814236D96668E5
:102BD000441CA4B2A142355454802FD904200129A9
:102BE000586002D001398C423DD0107809287FF41A
:102BF0006FAF50784DE76FF0030050E7254A2BE7A1
:102C0000517008464BE7208801F0020189B200F0BC
:102C1000FE0000293FF458AF40F0010054E721883E
:102C200001F0FE0190E7C00702D401297FF61AAF38
:102C30000821117002225A60012030E70129F7D1E2
:102C400008215960F4E7880502D5FD2050701EE781
:102C500049057FF51BAFFE20507018E78021FF204B
:102C600019635070E4E7082159601078BEE7D8F87E
:102C70000440411C205C58620623518013700120DF
:102C80000DE72178022010705962012007E700BF8C
:102C90005C020020500200204FF42042C4F20002E7
:102CA000904210B4034635D04FF42440C4F20000E3
:102CB00083422BD1184A9C68E00701D52020586038
:102CC000488800F00204A4B20CB10C89F4B100F001
:102CD000040080B208B1088AC0B1002091600124CC
:102CE000C021107110705080547059609A6A4FF66C
:102CF000CF71900648BFD869C0F201014FF4FC6261
:102D0000184619635A6310BCFFF794BE6FF00300B6
:102D100010BC7047014ACEE75C0200205002002040
:102D20004FF42043C4F20803F0B45C684268C16801
:102D300024F48305077A25F01F041143467A2143C2
:102D4000058A1A6839430078314322F00104294387
:102D50001C60596018B1196841F001021A60F0BC9A
:102D6000704700BF4FF42043C4F208035968B0F520
:102D7000803F21F480334FF4204208BF43F4803376
:102D8000C4F20802536070474FF42043C4F20803B2
:102D90009A6819B922EA0000986070471043986059
:102DA000704700BF07280ED8DFE800F00E18243067
:102DB0003A4652041F295FDD4FF4BC63C1F2C503DC
:102DC000C81881000A6070471F294DDC4FF400735A
:102DD000C1F2C503C81881000A6070471F29D4BF1B
:102DE0004FF408734FF42073C1F2C503C818810073
:102DF0000A6070471F29D4BF4FF410734FF4287333
:102E0000C1F2C503C81881000A6070471F292BDD75
:102E10004FF43073C1F2C503C81881000A607047CF
:102E20001F29D4BF4FF4CC634FF4B063C1F2C50384
:102E3000C81881000A6070471F29D4BF4FF4D063BF
:102E40004FF4B463C1F2C503C81881000A6070472B
:102E50001F29D4BF4FF4D4634FF4B863C1F2C50344
:102E6000C81881000A6070474FF41873C1F2C50397
:102E7000C81881000A6070474FF4D863C1F2C503D7
:102E8000C81881000A607047072811D8DFE800F0F1
:102E9000111C27323D4A57044FF42043C4F2080363
:102EA000D3F8D8000A4020EA01010A43C3F8D82029
:102EB00070474FF42043C4F20803186C0A4020EA1C
:102EC00001010A431A6470474FF42043C4F2080317
:102ED000586C0A4020EA01010A435A6470474FF4D3
:102EE0002043C4F20803986C0A4020EA01010A4317
:102EF0009A6470474FF42043C4F20803D86C0A4028
:102F000020EA01010A43DA6470474FF42043C4F217
:102F10000803D3F8CC000A4020EA01010A43C3F8B1
:102F2000CC2070474FF42043C4F20803D3F8D000FC
:102F30000A4020EA01010A43C3F8D02070474FF449
:102F40002043C4F20803D3F8D4000A4020EA010168
:102F50000A43C3F8D4207047072811D8DFE800F0EF
:102F6000111C27323D4A57044FF42043C4F2080392
:102F7000D3F8C0000A4020EA01010A43C3F8C02088
:102F800070474FF42043C4F20803186D0A4020EA4A
:102F900001010A431A6570474FF42043C4F2080345
:102FA000586D0A4020EA01010A435A6570474FF400
:102FB0002043C4F20803986D0A4020EA01010A4345
:102FC0009A6570474FF42043C4F20803D86D0A4055
:102FD00020EA01010A43DA6570474FF42043C4F246
:102FE0000803D3F8B4000A4020EA01010A43C3F8F9
:102FF000B42070474FF42043C4F20803D3F8B8005C
:103000000A4020EA01010A43C3F8B82070474FF490
:103010002043C4F20803D3F8BC000A4020EA0101AF
:103020000A43C3F8BC2070474FF42043C4F208039E
:103030005A6822F4E0110843586070474FF6D07385
:10304000CEF20F031A6902F03F0101709A69DB6941
:1030500002F0F001C3F3031241EA02034370704728
:103060000B78F0B40BB902224260CE788D780C7ADE
:1030700032048F7942EA0562CE794D78224342EAE2
:1030800087224C7A8F7A42EA0622002D14BF40250F
:103090000025CE7A2A43002C14BF802400240D7909
:1030A0002243002F14BF202700274C793A43002EDB
:1030B00014BF10260026097B3243002D14BF4FF4A5
:1030C000005500252A43002C14BF4FF080540024E3
:1030D000002914BF0821002122430A430021416234
:1030E00002600BB101234360F0BC7047F0B4577825
:1030F000157894793E06937846EA85672743D57814
:10310000147947EA0347D679537947EA053747EAFE
:103110008427157A547A47EA0327002E14BF4FF408
:1031200000160026937A002D14BF4FF48015002559
:1031300047EA06022A43002C14BF10240024002B67
:1031400014BF04230023224303311A430B01C2504E
:10315000F0BC7047CB4303F005025300C360C1606D
:10316000704700BF4FF44042F8B5C4F20002044675
:10317000002340F6AA600D4641F6F97641F20501BA
:103180009442E06023606160A3606361E364A664CD
:10319000636557D04FF44447C4F20007BC42A365AF
:1031A00047D04FF44842C4F20002944241D0A87C78
:1031B00018B1216841F080462660EF7C1FB12A7D5E
:1031C00042F01003A365288A697BEE8940EA010773
:1031D0006868374367602E7BAF6800B3402E26D007
:1031E00004D9602E28D02878E060F8BD36BB1023C3
:1031F00007FB03F32268800000EB530122F060021A
:103200002260B1FBF3F32068191F4FF6C0728B01E7
:10321000C0F21F021A40064326606261E3E748F2EB
:103220001010C0F20200FEF7B9FC402ED8D10623E0
:10323000DEE70023E365BAE70423D9E7202ED2D1E5
:103240000823D5E72365A365B1E700BF03691A0624
:10325000FCD5C069C0B2704703695A06FCD541630A
:10326000704700BF10B54FF47044CFF20F04002038
:1032700002462146FFF708FE012021460022FFF703
:1032800003FE022021460022FFF7FEFD0320214617
:103290000022FFF7F9FD042021460022FFF7F4FD8C
:1032A000052021460022FFF7EFFD062021460022DF
:1032B000FFF7EAFD072021460022FFF7E5FD002089
:1032C0000246FF21FFF748FE0120FF210022FFF701
:1032D00043FE0220FF210022FFF73EFE0320FF21D4
:1032E0000022FFF739FE0420FF210022FFF734FE01
:1032F0000520FF210022FFF72FFE0620FF210022DC
:10330000FFF72AFE0720FF210022BDE81040FFF74B
:1033100023BE00BF4FF4604110B50C46CFF20F043E
:1033200007200022C5F20F01FFF7AEFD062021465F
:103330000022FFF7A9FD052021460022FFF7A4FD8A
:10334000042021460022FFF79FFD03202146002292
:10335000FFF79AFD022021460022FFF795FD01208C
:1033600021460022FFF790FD002002464FF0204149
:10337000FFF78AFD072001460022FFF7EDFD06203A
:1033800007210022FFF7E8FD052007210022FFF7B3
:10339000E3FD042007210022FFF7DEFD03200721C3
:1033A0000022FFF7D9FD022007210022FFF7D4FDFC
:1033B000012007210022BDE81040FFF7CDBD00BF6E
:1033C00010B504464FF48640C0F204000121FEF718
:1033D00067FE0220C0F206000321FFF78BF83020C1
:1033E0004021C0F20C00FEF7C3FE0120FFF722FAD5
:1033F0004FF450500121C0F20E00FEF751FE4FF481
:103400002043C4F208039A6A00229A621A48FFF71E
:1034100087FC08200121FFF7B7FC10200121FFF7EE
:10342000B3FC80200121FFF7AFFC4FF48070012135
:10343000FFF7AAFC4FF400700121FFF7A5FC4CB97F
:10344000FFF710FF4FF42042C4F20802506E00282C
:10345000FCD110BD4FF44020FFF7E6FD4FF4803063
:10346000FFF780FC4FF40040C4F20C00C16F41F044
:103470000803C367E4E700BFC85B000042F20E73B5
:1034800098422DE9F041054600F337814FF6194087
:10349000CFF6FF708542B8BF054680F2FB81284613
:1034A00001F01EFE012605464FF42042C4F2080238
:1034B000546E4FF42043C4F20803002CF8D10127C6
:1034C0001F66384678212246FFF746FD0220782104
:1034D0002246FFF741FD032078212246FFF73CFDFD
:1034E000042078212246FFF737FD05207821224667
:1034F000FFF732FD062078212246FFF72DFD072039
:1035000078212246FFF728FD46F26761C6F2666120
:1035100081FB05104FEAE578C8EBA00202EB8204BC
:10352000A5EB4403CB4F99B237F81140E30700F104
:10353000E88004F0020082B2002A40F0ED8004F03E
:10354000040399B2002940F0F28004F0080082B22E
:10355000002A40F0F78004F0100399B2002940F0EF
:10356000FC8004F0200082B2002A40F0018104F0C7
:103570004004A3B2002B40F0068146F26760C6F219
:10358000666080FB0512C8EBA20480FB0413E11700
:10359000C1EBA30000EB8002A4EB4204A3B237F816
:1035A0001340E00700F1708104F0020188B20028A6
:1035B00040F0648104F0040293B2002B40F0588183
:1035C00004F0080188B2002840F04C8104F0100299
:1035D00093B2002B40F0408104F0200188B2002813
:1035E00040F0318104F04004A2B2002A40F025816D
:1035F00048F21F53C5F2EB1383FB052146F26760C7
:10360000C8EB6114C6F2666080FB0412E317C3EBDB
:10361000A20101EB8100A4EB4004A2B237F81240F2
:10362000E10700F1048104F0020399B2002940F09F
:10363000F88004F0040082B2002A40F0EC8004F02C
:10364000080399B2002940F0E08004F0100082B233
:10365000002A40F0D48004F0200399B2002940F001
:10366000C88004F04004A0B2002840F0BC8044F6BA
:10367000D352C1F2620282FB052546F26763C8EBB2
:10368000A518C6F2666383FB08144FEAE871C1EB24
:10369000A40000EB8002A8EB4203002E40F0FF8064
:1036A0009CB237F81440E20700F1978004F0020161
:1036B00088B2002840F08B8004F0040293B2002B03
:1036C0007FD104F0080188B2002874D104F0100200
:1036D00093B2002B69D104F0200188B200285ED19A
:1036E00004F04004A4B2002C53D14FF42043C4F2A0
:1036F000080300221A66BDE8F081002642F20F7529
:10370000D2E6072001222321FFF74CFB04F0020040
:1037100082B2002A3FF413AF232105200122FFF7D4
:1037200041FB04F0040399B200293FF40EAF0220DC
:1037300001222321FFF736FB04F0080082B2002AA1
:103740003FF409AF012023210246FFF72BFB04F0D1
:10375000100399B200293FF404AF03200122232172
:10376000FFF720FB04F0200082B2002A3FF4FFAEF6
:1037700006202321012204F04004FFF713FBA3B22B
:10378000002B3FF4FAAE042023210122FFF70AFBAD
:10379000F3E6042026210122FFF704FBA5E706201B
:1037A00026210122FFF7FEFA9AE7032026210122B3
:1037B000FFF7F8FA8FE7012026210246FFF7F2FA19
:1037C00084E7022026210122FFF7ECFA79E70520A1
:1037D00026210122FFF7E6FA6EE7072026210122C3
:1037E000FFF7E0FA62E7042025210122FFF7DAFA69
:1037F0003DE7062025210122FFF7D4FA31E7032017
:1038000025210122FFF7CEFA25E7012025210246D6
:10381000FFF7C8FA19E7022025210122FFF7C2FAB3
:103820000DE7052025210122FFF7BCFA01E707205B
:1038300025210122FFF7B6FAF5E604202421012212
:10384000FFF7B0FAD4E6062024210122FFF7AAFAF6
:10385000C8E600BF845A0000032024210122FFF79C
:10386000A1FAB9E6012024210246FFF79BFAADE652
:10387000022024210122FFF795FAA1E60520242148
:103880000122FFF78FFA95E6072024210122FFF796
:1038900089FA89E60026002DBFF606AEFFE5102462
:1038A000FFE600BF2DE9F843804601F0BAFC4FF473
:1038B00020420746C4F20802566E4FF42043C4F279
:1038C0000803002EF8D101201866FFF723FD594C9C
:1038D000DFF8649166E018F80610203939F81150C5
:1038E0002078EA07A17B00F1A08005F0020293B2E4
:1038F000E17B6078002B40F0948005F0040082B2F8
:10390000217CA078002A40F0888005F008018BB265
:10391000E078617C002B7CD105F0100082B2A17CA4
:103920002079002A71D105F020018BB26079E17C09
:10393000002B66D105F0400082B2217DA079002ADB
:103940005BD105F080018BB2E079617D002B50D115
:1039500005F4807082B2A17D207A002A45D105F459
:1039600000718BB2607AE17D002B3AD105F4806062
:1039700082B2217EA07A82BB05F400618BB2E07A2C
:10398000617E33BB05F4805082B2A17E207BE2B918
:1039900005F40055ADB2E17E607B3DB901361C34C3
:1039A000072E0AD0B74296DC002197E701220136A4
:1039B000FFF7F8F91C34072EF4D14FF42041C4F27C
:1039C000080100230B66BDE8F8830122FFF7EAF93E
:1039D000DEE70122FFF7E6F9D4E70122FFF7E2F97B
:1039E000CAE70122FFF7DEF9C0E70122FFF7DAF9A3
:1039F000B5E70122FFF7D6F9AAE70122FFF7D2F9CE
:103A00009FE70122FFF7CEF994E70122FFF7CAF9F9
:103A100089E70122FFF7C6F97EE70122FFF7C2F925
:103A200073E70122FFF7BEF967E70122FFF7BAF952
:103A30005BE700BFA85A0000DC5B00000748804736
:103A40000749084A084B9B1A40F30580043BC858B5
:103A5000D0503FF7FBAF054800470000BD3C0000D9
:103A6000F45C0000000000209C00002055010000D4
:103A7000FEE7FEE7FEE7FEE7FEE7FEE7FEE7FEE71E
:103A8000FEE7FEE7FEE7FEE7FEE7FEE7FEE7FEE70E
:103A9000FEE7FEE7FEE7FEE7FEE7FEE7FEE7FEE7FE
:103AA000FEE7FEE7FEE7FEE7FEE7FEE7FEE7FEE7EE
:103AB000FEE7FEE7FEE7FEE7FEE7FEE7FEE7FEE7DE
:103AC000FEE7FEE7FEE7FEE7FEE7FEE7FEE7FEE7CE
:103AD000FEE700BF4FF40043C4F20C03DA6A02F4BD
:103AE0007050B0F5805F38D0B0F5005F32D0B0F5DF
:103AF000006F1AD0D96801F4E063B3F5007F3AD0C3
:103B00002ED8002B3CD148F2B013C0F6E073D86C2D
:103B100044F240224FF49F41C0F20F02C0F2120162
:103B2000B0F1985F28BF0A4601E0274B1A684FF4AE
:103B30000041C4F20C010B684868C3F382314B1C8E
:103B4000B2FBF3F200F00F0022FA00F11F4B08461F
:103B5000196070471E480268E9E74FF40042E6E743
:103B6000B3F5806F2BD0B3F5A06F1ED0B3F5407FB7
:103B700020D00022DBE74DF6C002C0F2A702D6E754
:103B8000B3F5807FF5D148F2B012C0F6E072D06C88
:103B90004BF240514CF6C072C0F26A02C0F26401AE
:103BA000B0F1985F28BF0A46C1E74FF47C52C0F2DB
:103BB000AB12BCE749F68072C0F2D502B7E746F611
:103BC0004072C0F24012B2E72800002094030020A7
:103BD000240000204FF40043C4F20C03DA6A02F41C
:103BE0007050B0F5805F2AD0B0F5005F24D0B0F5FA
:103BF000006F1ED0D96801F4E063B3F5007F2CD0CC
:103C000020D8002B2ED0B3F5807F24D148F2B012FB
:103C1000C0F6E072D06C4CF6C0714BF24053C0F26B
:103C20006A01C0F26403B0F1985F34BF08461846D9
:103C300070471D4A106870471C48006870474FF471
:103C400000407047B3F5806F29D0B3F5A06F1CD04A
:103C5000B3F5407F1ED0002070474DF6C000C0F283
:103C6000A700704748F2B012C0F6E072D06C44F280
:103C700040214FF49F43C0F20F01C0F21203B0F194
:103C8000985F34BF0846184670474FF47C50C0F226
:103C9000AB10704749F68070C0F2D500704746F609
:103CA0004070C0F24010704728000020240000201F
:103CB00040F22803C2F2000318687047704700BF43
:103CC0004FF40040704700BF4FF47A70704700BF58
:103CD00040F22403C2F200031868704730B545F67D
:103CE000944487B06D46C0F200040FCC0FC594E831
:103CF000030040F2682285E8030040F26C2348F29A
:103D00001010C2F20002C2F2000300250121C0F22D
:103D1000020015601D60FEF7C3F94FF45240012107
:103D2000C0F20200FEF7BCF94FF460444FF4485073
:103D3000C4F200040121C0F20200FEF7B1F92046EE
:103D40006946FFF70FFA0420024629460123FEF7D1
:103D5000D7FD01210A460B460420FEF7D1FD0520C0
:103D6000072104220123FEF7CBFD616D284641F4B3
:103D7000817242F00103636507B030BD08B54307A7
:103D800001D5FFF7ABFF002008BD00BF48F21010BF
:103D900008B50121C0F20200FEF782F94FF452404B
:103DA0000121C0F20200FEF77BF904200246022145
:103DB0000023FEF7A5FD0420024603210023FEF7A1
:103DC0009FFD002008BD00BF4FF4C0430422C4F291
:103DD0000003C10754BFC3F8A420C3F8A0204FF4C8
:103DE000C0430822C4F2000381074CBFC3F8A020DF
:103DF000C3F8A4200020704781F0004102E000BF1A
:103E000083F0004330B54FEA41044FEA430594EA9A
:103E1000050F08BF90EA020F1FBF54EA000C55EAD5
:103E2000020C7FEA645C7FEA655C00F0E2804FEAA6
:103E30005454D4EB5555B8BF6D420CDD2C4480EA88
:103E4000020281EA030382EA000083EA010180EAB8
:103E5000020281EA0303362D88BF30BD11F0004F06
:103E60004FEA01314FF4801C4CEA113102D040423C
:103E700061EB410113F0004F4FEA03334CEA133377
:103E800002D0524263EB430394EA050F00F0A7808F
:103E9000A4F10104D5F1200E0DDB02FA0EFC22FA8A
:103EA00005F2801841F1000103FA0EF2801843FA7E
:103EB00005F359410EE0A5F120050EF1200E012A6F
:103EC00003FA0EFC28BF4CF0020C43FA05F3C018AD
:103ED00051EBE37101F0004507D54FF0000EDCF126
:103EE000000C7EEB00006EEB0101B1F5801F1BD3CF
:103EF000B1F5001F0CD349085FEA30004FEA3C0CD3
:103F000004F101044FEA445212F5800F80F09A80C8
:103F1000BCF1004F08BF5FEA500C50F1000041EBCC
:103F2000045141EA050130BD5FEA4C0C404141EBD0
:103F3000010111F4801FA4F10104E9D191F0000FF7
:103F400004BF01460020B1FA81F308BF2033A3F17A
:103F50000B03B3F120020CDA0C3208DD02F1140C71
:103F6000C2F10C0201FA0CF021FA02F10CE002F1AC
:103F70001402D8BFC2F1200C01FA02F120FA0CFCA5
:103F8000DCBF41EA0C019040E41AA2BF01EB0451EE
:103F9000294330BD6FEA04041F3C1CDA0C340EDCEC
:103FA00004F11404C4F1200220FA04F001FA02F32F
:103FB00040EA030021FA04F345EA030130BDC4F1ED
:103FC0000C04C4F1200220FA02F001FA04F340EAE2
:103FD0000300294630BD21FA04F0294630BD94F093
:103FE000000F83F4801306BF81F480110134013D7A
:103FF0004EE77FEA645C18BF7FEA655C29D094EAEB
:10400000050F08BF90EA020F05D054EA000C04BF68
:104010001946104630BD91EA030F1EBF0021002053
:1040200030BD5FEA545C05D14000494128BF41F0F2
:10403000004130BD14F580043CBF01F5801130BD56
:1040400001F0004545F0FE4141F470014FF00000E1
:1040500030BD7FEA645C1ABF194610467FEA655C92
:104060001CBF0B46024650EA013406BF52EA033534
:1040700091EA030F41F4002130BD00BF90F0000F22
:1040800004BF0021704730B54FF4806404F132045E
:104090004FF000054FF0000150E700BF90F0000F17
:1040A00004BF0021704730B54FF4806404F132043E
:1040B00010F0004548BF40424FF000013EE700BF0E
:1040C00042004FEAE2014FEA31014FEA02701FBF9E
:1040D00012F07F4393F07F4F81F06051704792F070
:1040E000000F14BF93F07F4F704730B54FF46074EA
:1040F00001F0004521F0004120E700BF50EA010235
:1041000008BF704730B54FF000050AE050EA0102E1
:1041100008BF704730B511F0004502D5404261EB51
:1041200041014FF4806404F132045FEA915C3FF492
:10413000DCAE4FF003025FEADC0C18BF03325FEA2B
:10414000DC0C18BF033202EBDC02C2F1200300FAE0
:1041500003FC20FA02F001FA03FE40EA0E0021FA05
:1041600002F11444C1E600BF70B54FF0FF0C4CF4EF
:10417000E06C1CEA11541DBF1CEA135594EA0C0FA5
:1041800095EA0C0F00F0DEF82C4481EA030621EAE0
:104190004C5123EA4C5350EA013518BF52EA03351B
:1041A00041F4801143F4801338D0A0FB02CE4FF0CD
:1041B0000005E1FB02E506F00042E0FB03E54FF0FD
:1041C0000006E1FB03569CF0000F18BF4EF0010EF5
:1041D000A4F1FF04B6F5007F64F5407404D25FEAF1
:1041E0004E0E6D4146EB060642EAC62141EA5551A4
:1041F0004FEAC52040EA5E504FEACE2EB4F1FD0CE6
:1042000088BFBCF5E06F1ED8BEF1004F08BF5FEA63
:10421000500E50F1000041EB045170BD06F0004615
:1042200046EA010140EA020081EA0301B4EB5C04C2
:10423000C2BFD4EB0C0541EA045170BD41F48011BA
:104240004FF0000E013C00F3AB8014F1360FDEBFDF
:10425000002001F0004170BDC4F10004203C35DABB
:104260000C341BDC04F11404C4F1200500FA05F33E
:1042700020FA04F001FA05F240EA020001F00042DF
:1042800021F0004110EBD37021FA04F642EB060155
:104290005EEA430E08BF20EAD37070BDC4F10C047F
:1042A000C4F1200500FA04F320FA05F001FA04F243
:1042B00040EA020001F0004110EBD37041F100012F
:1042C0005EEA430E08BF20EAD37070BDC4F120053A
:1042D00000FA05F24EEA020E20FA04F301FA05F2A2
:1042E00043EA020321FA04F001F0004121FA04F24A
:1042F00020EA020000EBD3705EEA430E08BF20EA1A
:10430000D37070BD94F0000F0FD101F00046400053
:1043100041EB010111F4801F08BF013CF7D041EAD5
:10432000060195F0000F18BF704703F000465200D9
:1043300043EB030313F4801F08BF013DF7D043EAAA
:104340000603704794EA0C0F0CEA135518BF95EA60
:104350000C0F0CD050EA410618BF52EA4306D1D1E7
:1043600081EA030101F000414FF0000070BD50EA06
:10437000410606BF1046194652EA430619D094EA90
:104380000C0F02D150EA013613D195EA0C0F05D17A
:1043900052EA03361CBF104619460AD181EA0301CE
:1043A00001F0004141F0FE4141F470014FF0000086
:1043B00070BD41F0FE4141F4780170BD70B54FF021
:1043C000FF0C4CF4E06C1CEA11541DBF1CEA1355A1
:1043D00094EA0C0F95EA0C0F00F0A7F8A4EB050483
:1043E00081EA030E52EA03354FEA013100F088807A
:1043F0004FEA03334FF0805545EA131343EA126343
:104400004FEA022245EA111545EA10654FEA0026F7
:104410000EF000419D4208BF964244F1FD0404F5B0
:10442000407402D25B084FEA3202B61A65EB03050C
:104430005B084FEA32024FF480104FF4002CB6EBC9
:10444000020E75EB030E22BFB61A754640EA0C0049
:104450005B084FEA3202B6EB020E75EB030E22BF89
:10446000B61A754640EA5C005B084FEA3202B6EBCA
:10447000020E75EB030E22BFB61A754640EA9C0089
:104480005B084FEA3202B6EB020E75EB030E22BF59
:10449000B61A754640EADC0055EA060E18D04FEA17
:1044A000051545EA16754FEA06164FEAC30343EAB7
:1044B00052734FEAC2025FEA1C1CC0D111F4801F84
:1044C0000BD141EA00014FF000004FF0004CB6E77D
:1044D00011F4801F04BF01430020B4F1FD0C88BF1C
:1044E000BCF5E06F3FF6AFAEB5EB030C04BFB6EB27
:1044F000020C5FEA500C50F1000041EB045170BD1A
:104500000EF0004E4EEA113114EB5C04C2BFD4EB46
:104510000C0541EA045170BD41F480114FF0000ECA
:10452000013C90E645EA060E8DE60CEA135594EA46
:104530000C0F08BF95EA0C0F3FF43BAF94EA0C0F49
:104540000AD150EA01347FF434AF95EA0C0F7FF4BE
:1045500025AF104619462CE795EA0C0F06D152EA12
:1045600003353FF4FDAE1046194622E750EA4106F6
:1045700018BF52EA43067FF4C5AE50EA41047FF407
:104580000DAF52EA43057FF4EBAE12E74FEA41026A
:10459000B2F1E04324BFB3F5001CDCF1FE5C0DD9A1
:1045A00001F0004C4FEAC0024CEA5070B2F1004FEB
:1045B00040EB830008BF20F00100704711F0804FEE
:1045C00021D113F13872BCBF01F00040704741F4B3
:1045D00080114FEA5252C2F11802C2F1200C10FAB7
:1045E0000CF320FA02F018BF40F001004FEAC1239B
:1045F0004FEAD32303FA0CFC40EA0C0023FA02F33F
:104600004FEA4303CCE77FEA625307D150EA013314
:104610001EBF4FF0FE4040F44000704701F00040E4
:1046200040F0FE4040F40000704700BF80F00040C2
:1046300002E000BF81F0004142001FBF5FEA41037A
:1046400092EA030F7FEA226C7FEA236C6AD04FEA7A
:104650001262D2EB1363C1BFD218414048404140BF
:10466000B8BF5B42192B88BF704710F0004F40F471
:10467000000020F07F4018BF404211F0004F41F48D
:10468000000121F07F4118BF494292EA030F3FD059
:10469000A2F1010241FA03FC10EB0C00C3F120036C
:1046A00001FA03F100F0004302D5494260EB4000FB
:1046B000B0F5000F13D3B0F1807F06D340084FEA66
:1046C000310102F10102FE2A51D2B1F1004F40EB5B
:1046D000C25008BF20F0010040EA030070474900C3
:1046E00040EB000010F4000FA2F10102EDD1B0FA8E
:1046F00080FCACF1080CB2EB0C0200FA0CF0AABF83
:1047000000EBC25052421843BCBFD0401843704720
:1047100092F0000F81F4000106BF80F40000013226
:10472000013BB5E74FEA41037FEA226C18BF7FEAFD
:10473000236C21D092EA030F04D092F0000F08BF3F
:104740000846704790EA010F1CBF0020704712F026
:104750007F4F04D1400028BF40F00040704712F165
:1047600000723CBF00F50000704700F0004343F0CA
:10477000FE4040F4000070477FEA226216BF084600
:104780007FEA23630146420206BF5FEA412390EAC3
:10479000010F40F4800070474FF0000304E000BFB9
:1047A00010F0004348BF40425FEA000C08BF70476A
:1047B00043F0964301464FF000001CE050EA01022E
:1047C00008BF70474FF000030AE000BF50EA010243
:1047D00008BF704711F0004302D5404261EB410130
:1047E0005FEA010C02BF84460146002043F0B64355
:1047F00008BFA3F18053A3F50003BCFA8CF2083A7A
:10480000A3EBC25310DB01FA02FC634400FA02FC82
:10481000C2F12002BCF1004F20FA02F243EB020089
:1048200008BF20F00100704702F1200201FA02FCEB
:10483000C2F1200250EA4C0021FA02F243EB0200DE
:1048400008BF20EADC7070474FF0FF0C1CEAD05222
:104850001EBF1CEAD15392EA0C0F93EA0C0F6FD0E3
:104860001A4480EA010C400218BF5FEA41211ED0C1
:104870004FF0006343EA501043EA5111A0FB0131AD
:104880000CF00040B1F5000F3EBF490041EAD37182
:104890005B0040EA010062F17F02FD2A1DD8B3F1FE
:1048A000004F40EBC25008BF20F00100704790F06D
:1048B000000F0CF0004C08BF49024CEA502040EABF
:1048C00051207F3AC2BFD2F1FF0340EAC250704785
:1048D00040F400004FF00003013A5DDC12F1190FC3
:1048E000DCBF00F000407047C2F10002410021FA35
:1048F00002F1C2F1200200FA02FC5FEA310040F14D
:10490000000053EA4C0308BF20EADC70704792F0C5
:10491000000F00F0004C02BF400010F4000F013AFD
:10492000F9D040EA0C0093F0000F01F0004C02BFF8
:10493000490011F4000F013BF9D041EA0C018FE767
:104940000CEAD15392EA0C0F18BF93EA0C0F0AD06D
:1049500030F0004C18BF31F0004CD8D180EA010093
:1049600000F00040704790F0000F17BF90F0004F2C
:10497000084691F0000F91F0004F14D092EA0C0F0E
:1049800001D142020FD193EA0C0F03D14B0218BFA1
:10499000084608D180EA010000F0004040F0FE40E7
:1049A00040F40000704740F0FE4040F44000704783
:1049B0004FF0FF0C1CEAD0521EBF1CEAD15392EA02
:1049C0000C0F93EA0C0F69D0A2EB030280EA010CF2
:1049D00049024FEA402037D04FF0805343EA11118B
:1049E00043EA10130CF000408B4238BF5B0042F1E9
:1049F0007D024FF4000C8B4224BF5B1A40EA0C008E
:104A0000B3EB510F24BFA3EB510340EA5C00B3EBBF
:104A1000910F24BFA3EB910340EA9C00B3EBD10FAD
:104A200024BFA3EBD10340EADC001B0118BF5FEAFF
:104A30001C1CE0D1FD2A3FF650AF8B4240EBC25028
:104A400008BF20F0010070470CF0004C4CEA5020E9
:104A50007F32C2BFD2F1FF0340EAC250704740F438
:104A600000004FF00003013A37E792F0000F00F02A
:104A7000004C02BF400010F4000F013AF9D040EAA8
:104A80000C0093F0000F01F0004C02BF490011F43C
:104A9000000F013BF9D041EA0C0195E70CEAD15334
:104AA00092EA0C0F08D142027FF47DAF93EA0C0F1B
:104AB0007FF470AF084676E793EA0C0F04D14B02FF
:104AC0003FF44CAF08466EE730F0004C18BF31F0B1
:104AD000004CCAD130F000427FF45CAF31F00043AB
:104AE0007FF43CAF5FE700BF73B96AB9002908BF24
:104AF0000028BCBF00204FF00041C4BF6FF0004150
:104B00004FF0FF3000F03CB882B0EC462DE9005089
:104B100000F006F8DDF804E002B00CBC704700BFFE
:104B20002DE9F0411646984604460D4600F02AF855
:104B300006FB01FCA6FB002300FB08C7FB18A21A1A
:104B400065EB0303069CC4E90023BDE8F08100BFC8
:104B50002DE9F041904606460F461D4600F070F9DB
:104B600000FB05F3A0FB084508FB0138069B454404
:104B7000341B67EB0505C3E90045BDE8F08100BFC4
:104B8000704700BF00292DE9F00F1D46C0F29D803F
:104B90000024002DC0F2948080460F4694461E46A5
:104BA000E3BB8A4255D9B2FA82F747B1C7F1200573
:104BB00020FA05F601FA07F1BA40B8403143170C64
:104BC000B1FBF7F61FFA82FC07FB16110CFB06F58A
:104BD000030C43EA01439D4208D9711E9B1880F0E3
:104BE00013819D4240F21081023E9B18591BB1FB7C
:104BF000F7F507FB15130CFB05FC80B240EA0341F7
:104C00008C4507D96B1E8A1880F00081944540F2CC
:104C1000FD80023D45EA0641002503E08B420CD9A8
:104C2000002529460A462B4614B1524263EB430342
:104C300010461946BDE8F00F7047B3FA83F5002D12
:104C400040F087808B4201D38242EAD800250121BF
:104C5000E8E712B90126B6FBF2F2B2FA82F6002EAC
:104C600039D18E1A130C1FFA82FC0125B6FBF3F71B
:104C700003FB17610CFB07F84FEA104949EA0146AC
:104C8000B04506D9791EB61802D2B04500F2D380DD
:104C90000F46C8EB0606B6FBF3F103FB11630CFBF2
:104CA00001FC80B240EA03439C4506D94E1E9A1887
:104CB00002D2944500F2C280314641EA0741B1E791
:104CC000E443524263EB430366E7404261EB410138
:104CD0004FF0FF345DE7B240C6F1200921FA09F731
:104CE00020FA09F901FA06F1130CB7FBF3F81FFAE1
:104CF00082FC03FB18770CFB08F549EA01094FEA2F
:104D0000194141EA0747B040BD420AD9BF1808F12E
:104D1000FF3680F08E80BD4240F28B80A8F1020801
:104D2000BF18791BB1FBF3F503FB15170CFB05F658
:104D30001FFA89F949EA07418E4206D96F1E891880
:104D400071D28E426FD9023D89188E1B45EA084503
:104D50008CE7C5F1200122FA01F306FA05F627FADD
:104D600001F207FA05F720FA01F11E434FEA16494E
:104D7000B2FBF9F81FFA86FA09FB18220AFB08FBB6
:104D80000F433B0C43EA024293450CFA05FC08D959
:104D9000921908F1FF314AD2934548D9A8F1020887
:104DA0009219CBEB0203B3FBF9F109FB11320AFBB9
:104DB00001FABFB247EA02439A4506D94A1E9B1937
:104DC00033D29A4531D902399B1941EA08410F0C77
:104DD0001FFA8CF808FB07F68AB24FEA1C4C08FB56
:104DE00002F80CFB02620CFB07FC02EB1842964235
:104DF00088BF0CF5803CCAEB03030CEB124C6345F7
:104E00000ED305D000250DE70E46EFE61D4601E75F
:104E100000FA05F01FFA88F808EB0245A842F1D223
:104E200001390025FEE63D468FE71146CDE788466D
:104E3000B7E7B04675E7023FB6182AE702393CE704
:104E40002DE9F007144605460E46002B3DD18A4257
:104E500049D9B2FA82F747B1C7F1200120FA01F22D
:104E600006FA07F6BC40BD401643220CB6FBF2F032
:104E7000A1B202FB106601FB00F32F0C47EA0646C5
:104E8000B34208D9471E361980F0FA80B34240F287
:104E9000F78002383619F61AB6FBF2F302FB1362FA
:104EA00001FB03F1ADB245EA0242914207D95E1E11
:104EB000121980F0E780914240F2E480023B43EA1D
:104EC00000400021BDE8F00770478B4243D8B3FA99
:104ED00083F4002C42D18B4202D3824200F2E18063
:104EE00000210120EEE712B90127B7FBF2F4B4FA72
:104EF00084F2002A40F089800A1B230CA7B201210A
:104F0000B2FBF3F603FB162207FB06F04FEA154C43
:104F10004CEA0242904207D9121906F1FF3C02D234
:104F2000904200F2D0806646121AB2FBF3F003FB07
:104F3000102307FB00F7ADB245EA03439F4207D9B0
:104F4000421E1B1980F0A0809F4240F29D800238D3
:104F500040EA0640B6E700210846B3E7C4F1200660
:104F600022FA06F703FA04F321FA06F501FA04F12E
:104F700020FA06F63B434FEA134CB5FBFCF71FFA49
:104F800083F80CFB175508FB07F946EA010A4FEABC
:104F90001A4141EA0545A94502FA04F204D97E1EE8
:104FA000ED18C0F081803746C9EB0501B1FBFCF676
:104FB0000CFB161508FB06F81FFA8AFA4AEA0541A7
:104FC000884503D9751EC91874D32E4646EA07468C
:104FD000370C1FFA82FC0CFB07F5120CB3B20CFB6A
:104FE00003FC02FB035302FB07F203EB1C439D424D
:104FF00088BF02F58032C8EB010102EB13429142F7
:105000004CD343D0304600215CE79440C2F12005E8
:1050100021FA05F620FA05F501FA02F1230CB6FB98
:10502000F3FCA7B203FB1C6607FB0CF829430D0C2D
:1050300045EA0646B04500FA02F508D936190CF1E2
:10504000FF303ED2B0453CD9ACF1020C3619C8EB6A
:105050000602B2FBF3F003FB102607FB00F889B24F
:1050600041EA0642904506D9461E121927D29045BC
:1050700025D902381219C8EB020240EA0C413FE779
:10508000384608E733461AE7104661E700FA04F0AD
:105090001FFA8CFC0CEB03439842B3D2701E002124
:1050A00010E7214620460DE7A9457FF67CAF023F79
:1050B000ED1879E7884588D9023EC91886E7304659
:1050C000D9E78446C3E7023E12192DE710B5034C19
:1050D00014B1AFF3008010BD204610BD00000000E9
:1050E0000028B8BF4042704708B5084B04461BB1C2
:1050F0000021AFF3008001E000F00CF804480068E4
:10510000816A01B18847204600F06CFC0000000075
:10511000B05C000070B5084B084C0025E01A841004
:1051200003EB8406043D1CB172599047013CF9E73A
:10513000BDE8704000F05EBC980000209C0000209C
:1051400038B50E4D0E4B0024E81A8510AC4205D040
:105150000B4951F8242090470134F7E700F044FC54
:105160000849094A541AA5100024AC4205D0054B41
:1051700053F8240080470134F7E738BD940000203D
:1051800094000020940000209800002010B5002317
:10519000934203D0CC5CC4540133F9E710BD8218AC
:1051A0000346934202D003F8011BFAE77047000060
:1051B0000EB400B59CB0029006906FF000401DAB9D
:1051C000049007904FF402710A4853F8042BADF88D
:1051D00014104FF6FF71ADF81610006802A9019384
:1051E00000F07EF8029B00221A701CB05DF804EB00
:1051F00003B070479000002010B504462246137893
:105200000134002BFAD1CC5CD4540133002CFAD1F8
:1052100010BD034611F8012B03F8012B002AF9D128
:105220007047034613F8012B002AFBD1181A0138E6
:1052300070472DE9F8439368064689461446002BCB
:1052400041D1928912F4906F3DD0616903254D439D
:10525000236927680220FF1A95FBF0F5791C02F4F8
:105260008062A94211B2A8BF3D18304679B12946E3
:1052700000F008FB8046A0B13A462169FFF786FF9F
:10528000A38923F4906040F08002A28113E01946C4
:105290002A4600F04FFB804668B93046216900F08D
:1052A000ADFAA0890C2340F0400233604FF0FF308C
:1052B000A281BDE8F88308EB07016561ED1BC4F826
:1052C00010802160A560A368002B06DD206800F82F
:1052D000019BA2682060511EA1600020BDE8F883F8
:1052E0002DE9F0479CB003938B890D4603F08001B4
:1052F00014460AB2064662B12B6953B9402100F048
:10530000C1FA2860286110B90C213160D3E0402037
:10531000686100272021302209978DF829108DF827
:105320002A2023461F4613F8010B28B9B7EB040ABD
:1053300016D04FF000090DE02528F3D1F6E73046EE
:1053400014F809102A46FFF774FF013000F0AC8012
:1053500009F10109D145F2DB099901EB0A02099231
:105360003B78002B00F0A08000244FF0FF30049425
:105370000794059006948DF853401A9407F101099B
:105380004F4F4C4638462178052200F0C5FA09F106
:105390000109049B30B1C41B012707FA04F73B4302
:1053A0000493EDE7D90602D520218DF853101A0792
:1053B00002D52B228DF8532020782A2802D0079B73
:1053C00027460EE0039A1768101D002F039001DB9B
:1053D000079704E0794243F00203079104930134F4
:1053E0000AE03C46217801373039092903D80A24DC
:1053F00004FB0313F5E7079322782E2A19D160786E
:105400002A2809D1039802340368021D002B039255
:10541000B8BF4FF0FF330BE0671C00233C462178F8
:1054200001373039092903D80A2404FB0313F5E7AF
:105430000593244F21783846032200F06DFA38B1E5
:10544000C71B402101FA07F1049B01340B4304936D
:1054500014F8011B1C4806228DF8281000F05CFA95
:1054600088B11A4A32B9039FFB1D23F007000830A8
:10547000039014E003A90091304604A92A46144B76
:10548000AFF3008007E003A8009004A930462A4645
:105490000F4B00F08FF8B0F1FF3F804604D0099A1F
:1054A00002EB080109913CE7AB8903F0400002B22E
:1054B0000AB9099801E04FF0FF301CB0BDE8F08751
:1054C000B45C0000BA5C0000BE5C0000000000009C
:1054D000335200002DE9F047154699468A680B695A
:1054E00080469A42A8BF13462B6091F843000C46B1
:1054F000DDF820A008B1591C29602668B20602D543
:105500002A68931C2B60206810F0060618D094F8C7
:10551000437020683E1C18BF012683061AD5A119C6
:10552000302281F8432094F84530023681F8443027
:1055300010E04046617E4A46D047013006D0013631
:10554000E1682A688B1A9E42F3DBE0E74FF0FF30F8
:10555000BDE8F0870027B74209DAE119404691F823
:1055600043104A46D0470130F0D00137F3E72168B5
:105570002868E66801F00602042A08BFC0EB0605A9
:105580002369A6680CBF25EAE57500259E42C4BFC5
:10559000C3EB0603ED180026AE4207DA4046A17EB3
:1055A0004A46D0470130D1D00136F5E70020BDE8AA
:1055B000F08700002DE9F0430C46257E85B06E2D66
:1055C0009046074699460C9904F1430200F0AA80E0
:1055D00012D8632D24D009D8002D00F0BB80582D9F
:1055E00040F0CB8084F84550824D57E0642D20D0A8
:1055F000692D40F0C2801CE0732D00F0AF8009D807
:105600006F2D2FD0702D40F0B880256845F0200612
:1056100026603FE0752D25D0782D40F0AE8039E032
:10562000086804F14206021D0A60016884F842100D
:10563000A7E020680B6810F0800F02D01E1D0E60DE
:1056400008E003F1040510F0400F0D6002D0B3F93B
:10565000001000E0196800293CDA2D20494284F846
:10566000430037E025680E6815F0800F02D0331D27
:105670000B6007E006F1040015F0400F086001D050
:10568000318800E03168267E5A4D6F2E14BF0A2300
:1056900008231BE07820584D84F8450020680B68EB
:1056A00010F0800F03F104060E6003D1410601D50E
:1056B000198800E01968C60744BF40F02000206048
:1056C00019B9206820F0200323601023002084F8FB
:1056D000430001E0474D0A236668002EA66003DB05
:1056E000206820F00400206001B96EB104F142008E
:1056F000B1FBF3FE03FB1E11695C064600F80119BD
:1057000071460029F4D100E01646921B082B226155
:105710003CD12368D80739D56068904236DC511CEB
:10572000616033E026680B6816F0800F05D01E1DFF
:105730000E601968606908600CE003F1040016F05F
:10574000400F086003D018686369038002E0616954
:105750001E68316000232361164617E00E68321D73
:105760000A6036683046FFF75CFD63682061984246
:1057700088BF23612069606005E004F1420684F877
:10578000425001232361002184F84310CDF800909A
:105790003846214603AA4346FFF79CFE013002D15A
:1057A0004FF0FF3022E000252269954207DA3846A3
:1057B000715D4246C8470130F2D00135F4E72168F7
:1057C000890705D4E06803998842B8BF08460DE010
:1057D0000025E068039BC21A9542F3DA3846617EE1
:1057E0004246C8470130DBD00135F2E705B0BDE8DD
:1057F000F08300BFC55C0000D65C000030B5002916
:105800003CD051F8042C0B1F1D49002AB8BF9B182F
:105810000A6812B95A600B6030BD93420ED2196803
:105820005818904203D15A58891842681960144890
:105830005A60036030BD994203D80A465168002976
:10584000F9D1146815199D420AD118682318D01887
:105850008842136012D108681B1813604B680CE073
:1058600002D90C23036030BD18681C188C4203D188
:105870000C684968001918605960536030BD00BF5A
:105880007002002070B5CD1C25F0030508350C2DE5
:1058900038BF0C25002D06462DDB8D422BD31D4B2A
:1058A0001B681C469CB12268501B0DD40B2802D9E2
:1058B0002060241817E0A34203D16068154A1060E5
:1058C0001DE0616859601AE023466468EAE72946EA
:1058D000304600F053F8431C01460CD0CC1C24F099
:1058E00003048C4201D1256009E03046611A00F0C2
:1058F00045F80130F7D10C203060002070BD04F174
:105900000B01231D21F00700C31A02D05A42E250B6
:1059100070BD70BD7002002010B5C9B20346821878
:105920009342184604D0047801338C42F8D100E049
:10593000002010BDF8B5064615460C4621B91146A3
:10594000BDE8F840FFF79EBF1AB9FFF757FF2C4696
:1059500012E000F023F8A8420ED230462946FFF7A5
:1059600091FF074638B121462A46FFF70FFC304623
:105970002146FFF743FF3C462046F8BD38B5064CAC
:10598000002305460846236000F012F8431C02D1AC
:10599000216801B1296038BD9803002051F8040C3A
:1059A000002802DA04390B58C01804387047000088
:1059B000094A13686BB118186946884202D810600A
:1059C00018467047054B0C221A604FF0FF331846FB
:1059D0007047034B1360EEE7740200209803002029
:1059E000A0030020FEE700BFF8B500BFF8BC08BC6C
:1059F0009E467047F8B500BFF8BC08BC9E4670478D
:105A000001010000000000003C6D010000000000EA
:105A1000255800004154444C0000000041544448C3
:105A20000000000041544D59000000004154415015
:105A3000000000004154434E00000000000200003E
:105A400000000300000000002048656C6C6F20001F
:105A500020475958200000002047595920000000D5
:105A60002047595A2000000020414343582000009D
:105A70002041434359200000204143435A20000065
:105A8000080911083F0006005B004F0066006D002A
:105A90007D0007007F006F0077007C0039005E000A
:105AA00079007100400000000101050707030402AE
:105AB0000302040605060D0E0E0E0D0D0D0D0E0E45
:105AC0000E0E0D0D01010507070304020302040673
:105AD00005060F1010100F0F0F0F101010100F0FE2
