:1000000000400020B50F0000EB0F0000ED0F0000D6
:10001000EF0F0000F10F0000F30F0000E90F0000E8
:10002000E90F0000E90F0000E90F0000F50F0000E4
:10003000F70F0000E90F0000F90F0000FB0F0000B0
:10004000FD0F0000FF0F0000C904000003100000B6
:100050000510000007100000091000000B10000040
:100060000D1000000F100000111000001310000010
:100070001510000017100000191000001B100000E0
:100080001D1000001F1000002110000023100000B0
:100090002510000027100000291000002B10000080
:1000A0002D1000002F100000311000003310000050
:1000B00035100000371000000000000000000000B4
:1000C0000000000000000000000000000000000030
:1000D0000000000000000000000000000000000020
:1000E0000000000000000000000000000000000010
:1000F0000000000000000000000000000000000000
:1001000010B5054C237833B9044810B10448AFF357
:1001100000800121217010BD74000020000000004B
:10012000D812000008B5064B1BB106480649AFF3CC
:1001300000800648016811B1054A02B1904708BD28
:1001400000000000D8120000780000207400002099
:1001500000000000154B002B08BF134B9D46A3F574
:10016000803A00218B460F461348144A121A01F0B8
:100170008DF80F4B002B00D098470E4B002B00D072
:1001800098470020002104460D4600200C4900221B
:10019000002301F01FF801F053F82046294600F033
:1001A000CDF901F021F800BF000008000040002058
:1001B00000000000000000007400002094000020F7
:1001C0001512000080B483B000AF0346FB714FF4FA
:1001D0006143CEF2000397F907204FEA5212F979F2
:1001E00001F01F014FF0010000FA01F143F8221065
:1001F00007F10C07BD4680BC704700BF80B400AF5C
:100200004FF46D43CEF200034FF46D42CEF2000284
:10021000126922F004021A6130BFBD4680BC7047EB
:1002200080B483B000AF786039607A683B6803F1CE
:1002300003034FEA0313D3185B68184607F10C0752
:10024000BD4680BC704700BF80B485B000AFF86089
:10025000B9607A60FA68BB684FEA0313D31803F1F8
:1002600038037A685A6007F11407BD4680BC7047AE
:1002700080B483B000AF786039607B683A689A6177
:1002800007F10C07BD4680BC704700BF80B483B047
:1002900000AF786039607B68DA683B681A437B6836
:1002A000DA6007F10C07BD4680BC704780B483B0AC
:1002B00000AF78607B68DB69184607F10C07BD4624
:1002C00080BC704780B483B000AF786039607B68D1
:1002D0003A68DA6107F10C07BD4680BC704700BF81
:1002E00080B584B000AF48F2FC13C0F6E0731B6821
:1002F000FB60FB684FEA1363002B1BD14AF20C032F
:10030000C4F20C03BB60BB681B6823F07002BB68BF
:100310001A6046F22003C4F20C03BB60BB681B6882
:1003200023F06042BB681A60BB681B6863F06062C0
:10033000BB681A60FB684FEA1363032B37D846F299
:100340002003C4F20C03BB60BB681B6823F4FC529F
:10035000BB681A6048F24003C4F20C03BB60BB6880
:100360004FF000021A6048F24403C4F20C03BB6071
:10037000BB684FF000021A6048F25803C4F20C0345
:10038000BB60BB684FF000021A6048F26003C4F221
:100390000C03BB60BB684FF000021A6048F27803A0
:1003A000C4F20C03BB60BB684FF000021A603B460E
:1003B000184600F0E1FC7B78012B1BD13B78002B29
:1003C0000AD148F24003C4F20C03BB60BB681B684F
:1003D00043F00202BB681A603B78012B0AD848F24E
:1003E0004403C4F20C03BB60BB681B6843F001020A
:1003F000BB681A6048F2F013C0F6E0731B68FB603C
:10040000FA684BF6FF13C4F68A439A4257D848F26B
:100410004403C4F20C03BB60BB681B6843F4904206
:10042000BB681A6048F2B413C0F6E0731B6803F4AB
:10043000FE434FEA13234FEA03637B6048F2B41391
:10044000C0F6E0731B6803F07F034FEA03437A684A
:1004500013437B6048F2B413C0F6E0731B6803F4E7
:10046000FE437A6813437B6048F2B413C0F6E0732E
:100470001B6803F07F037A6813437B6042F2340306
:10048000C4F20003BB60BB687A681A6044F22C03B4
:10049000C4F20003BB6048F2C813C0F6E0731B68E7
:1004A0007B60BB687A681A6048F24403C4F20C03AC
:1004B000BB60BB681B6823F49042BB681A6007F1FD
:1004C0001007BD4680BD00BF80B582B000AF4FF0C1
:1004D0000000C4F201004FF00101FFF7C9FE4FF028
:1004E0000000C4F201004FF00001FFF799FE7860B0
:1004F0004FF00000C4F20100FFF7D8FE02467B680F
:100500009A420AD14FF00000C4F201004FF00001FE
:100510004FF00002FFF798FE0CE07B6803F1010347
:100520007B604FF00000C4F201004FF000017A68D8
:10053000FFF78AFE07F10807BD4680BD80B588B089
:1005400000AFFFF7CDFE4FF44240C0F202004FF083
:10055000010100F051F94FF48440C0F202004FF065
:10056000010100F049F94FF003004FF001014FF095
:1005700004024FF0000300F023FB41F2B822C0F266
:10058000000207F110031068516803C31189927AC1
:1005900019809A7007F110034FF00000C4F20100B7
:1005A0004FF000011A4600F095FC4FF00003C4F232
:1005B00001034FF00002C4F20102926A42F4403299
:1005C00042F001029A6248F21010C0F2020000F0FC
:1005D00077F9024641F25973CDF2B713A3FB021328
:1005E0004FEA5333FB6148F21010C0F2020000F0F2
:1005F00067F9024641F25973CDF2B713A3FB021318
:100600004FEA53334FF00000C4F201001946FFF7E0
:1006100059FE4FF00000C4F201004FF000014FF00E
:100620000002FFF711FE41F2C422C0F2000207F1FE
:1006300004031068516803C31189927A19809A7073
:100640004FF00000C4F201004FF00101FFF71EFE61
:100650004FF00200FFF7B6FD07F104034FF0000072
:10066000C4F20100194600F0B5FBFFF7C7FDFCE737
:1006700080B487B000AFF860B9607A60FB6803F1BE
:1006800004734FEAC302BB68D3184FEA83037B614C
:100690007B697A681A6007F11C07BD4680BC704709
:1006A00090B486B000AF78607B68002B02D07B6886
:1006B000B3F5004F7B683B613B69B3FA83F4FC60A0
:1006C000FB68DBB2C3F11F037B617B69184607F14E
:1006D0001807BD4690BC704780B483B000AF49F6A0
:1006E0008073C0F2D5037B607B68184607F10C0766
:1006F000BD4680BC704700BF80B582B000AF4FF0F0
:100700000400C0F2180000F0D1F90346FB70FB783A
:10071000072B05D0082B07D100F0BAFC786007E062
:10072000FFF7DAFF786003E04FF000037B6000BF63
:100730007B68184607F10807BD4680BD80B584B0C8
:1007400000AF78607B68002B01D07B68012B4FF4F1
:100750000043C4F20C039A6A7B684FEA430322FA0F
:1007600003F303F00303032B1DD801A252F823F077
:100770009F07000081070000890700009107000023
:1007800000F014FDF86012E000F018FDF8600EE0D3
:1007900000F060FC03464FEA5303FB6007E04FF0B4
:1007A0000003FB6003E04FF00003FB6000BFFB6849
:1007B000184607F11007BD4680BD00BF80B483B066
:1007C00000AF78604FF40043C4F20C035B6D03F09C
:1007D0000103002B0AD100BF4FF40043C4F20C0305
:1007E0001A6D7B681340002BF6D100E000BF07F1C3
:1007F0000C07BD4680BC704780B586B000AF7860FE
:100800000B46FB704FF000033B617B684FEA1323FC
:1008100003F00F0303F1FF33052B4CD801A252F86C
:1008200023F000BF3D080000490800005508000003
:1008300061080000730800008508000048F2080302
:10084000C4F20C037B6123E048F24403C4F20C03BE
:100850007B611DE048F24003C4F20C037B6117E0AA
:1008600048F25803C4F20C037B614FF001033B6173
:100870000EE048F26003C4F20C037B614FF01003FA
:100880003B6105E048F27803C4F20C037B6100BFD2
:100890007B684FEA133303F01F03FB603B69002BB7
:1008A00002D03869FFF78AFFFB787869F9681A4641
:1008B000FFF7DEFE00E000BF07F11807BD4680BD70
:1008C00090B585B000AF78607B6803F47813B3F51A
:1008D000402F75D0B3F5402F15D8B3F5802F41D0F8
:1008E000B3F5802F05D8002B29D0B3F5003F2AD0CF
:1008F000D1E0B3F5002F3FD0B3F5202F4DD0B3F5A5
:10090000C02F33D0C7E0B3F5A01F00F09880B3F537
:10091000A01F07D8B3F5602F6BD0B3F5901F00F080
:100920008880B8E0B3F5C01F00F0AD80B3F5D01FEC
:1009300000F0AD80B3F5B01F00F09280ABE000F0A6
:10094000A7FBF860ABE000F0A3FBF8604FF40043B6
:10095000C4F20C039B6803F00F03FA6822FA03F356
:10096000FB609CE000F076FBF86098E04FF0000040
:10097000FFF7E4FEF86092E04FF00000FFF7DEFEC4
:10098000F8604FF40043C4F20C039B6E03F00F03B6
:10099000FA6822FA03F3FB6081E04FF00000FFF7F2
:1009A000CDFEF8604FF40043C4F20C039B6E03F0DD
:1009B000F0034FEA1313FA6822FA03F3FB606EE0C8
:1009C0004FF00000FFF7BAFEF8604FF40043C4F2A6
:1009D0000C039B6E03F440734FEA13244FF0100096
:1009E000FFF75EFE0346E318FA6822FA03F3FB60A2
:1009F00055E04FF00000FFF7A1FEF8604FF4004310
:100A0000C4F20C039B6E03F440734FEA1323FA689D
:100A100022FA03F3FB604FF40043C4F20C03DB6FD4
:100A200003F0070303F10103FA68B2FBF3F3FB6081
:100A300035E04FF00100FFF781FEF8602FE04FF046
:100A40000100FFF77BFEF8604FF40043C4F20C0393
:100A50001B6F03F00303FA6822FA03F3FB601EE046
:100A60004FF00100FFF76AFEF8604FF40043C4F254
:100A70000C031B6F03F030034FEA1313FA6822FADA
:100A800003F3FB600BE0FFF737FEF86007E0FFF7CA
:100A900023FEF86003E04FF00003FB6000BFFB683B
:100AA000184607F11407BD4690BD00BF80B485B05D
:100AB00000AF78604FF00103FB737B6803F00F0316
:100AC000BB60BB6803F1FF33032B6DD801A252F862
:100AD00023F000BFE50A0000290B0000650B0000B1
:100AE000A10B00004FF40043C4F20C03DB6A03F4D3
:100AF0007053B3F5805F0AD0B3F5005F03D0B3F550
:100B0000006F08D00BE04FF00203FB730BE04FF0D7
:100B10000303FB7307E04FF00403FB7303E04FF0A4
:100B20000503FB7300BF43E04FF40043C4F20C0322
:100B30009B6A03F00303022B07D0032B09D0012B80
:100B40000BD14FF00303FB730BE04FF00203FB7379
:100B500007E04FF00603FB7303E04FF00103FB7364
:100B600000BF25E04FF40043C4F20C039B6A03F07E
:100B70000C03082B07D00C2B09D0042B0BD14FF002
:100B80000303FB730BE04FF00203FB7307E04FF02E
:100B90000603FB7303E04FF00103FB7300BF07E0A4
:100BA0004FF00703FB7303E04FF00003FB7300BF3C
:100BB000FB7B184607F11407BD4680BC704700BF99
:100BC00090B484B000AFB9607B600346FB731346FA
:100BD000BB73FB7B052B01D8BB680F2BBB7B002BAA
:100BE0002DD07B68002B15D04FF4C042C4F2000218
:100BF000F97BBB684FF0010000FA03F318460B467F
:100C00004FEAC3035B184FEA8303D31803F11003C1
:100C1000186014E04FF4C042C4F20002F97BBB68D4
:100C20004FF0010000FA03F318460B464FEAC303E6
:100C30005B184FEA8303D31803F110035860BB68B5
:100C4000072B2BD84FF4C042C4F20002F87B4FF4BC
:100C5000C041C4F20001FC7B23464FEAC3031B19C9
:100C60004FEA8303CB185968BB684FEA83034FF000
:100C70000F0404FA03F36FEA03031940BC7BBB685B
:100C80004FEA830304FA03F3194303464FEAC3030D
:100C90001B184FEA8303D318596036E04FF4C04263
:100CA000C4F20002F87B4FF4C041C4F20001FC7BA7
:100CB00023464FEAC3031B194FEA8303CB1803F102
:100CC00008031968BB6803F18043A3F108034FEAE6
:100CD00083034FF00F0404FA03F36FEA0303194090
:100CE000BC7BBB6803F18043A3F108034FEA830395
:100CF00004FA03F3194303464FEAC3031B184FEAF0
:100D00008303D31803F108031960BB7B002B2DD19B
:100D10007B68002B15D04FF4C042C4F20002F97B6F
:100D2000BB684FF0010000FA03F318460B464FEA88
:100D3000C3035B184FEA8303D31803F11003186051
:100D400014E04FF4C042C4F20002F97BBB684FF0DC
:100D5000010000FA03F318460B464FEAC3035B1881
:100D60004FEA8303D31803F11003586007F110070B
:100D7000BD4690BC704700BF80B485B000AF7860BE
:100D80004FF6D073CEF20F031B69DBB203F03F03C3
:100D9000DAB27B685A704FF6D073CEF20F039B69BC
:100DA000DBB223F00F03FB734FF6D073CEF20F03C9
:100DB000DB6903F0F0034FEA1313DAB2FB7B134352
:100DC000FB737B68FA7B1A7007F11407BD4680BC81
:100DD000704700BF80B483B000AF786039607A6834
:100DE0004FF00003C4F201039A420CD07A684FF42A
:100DF0008063C4F201039A4205D07A684FF400631D
:100E0000C4F201039A423B681B7883F00103DBB212
:100E1000002B03D07B684FF002025A607B684FF0D2
:100E200000025A623B689B784FEA03623B68DB78BA
:100E30004FEA03431A433B681B794FEA83231A4363
:100E40003B685B794FEA03231A433B689B791A435B
:100E50003B685B78002B02D04FF0400301E04FF07D
:100E600000031A433B68DB79002B02D04FF080036C
:100E700001E04FF000031A433B681B7A002B02D0BD
:100E80004FF0200301E04FF000031A433B685B7A08
:100E9000002B02D04FF0100301E04FF000031A4383
:100EA0003B689B7A002B02D04FF0080301E04FF023
:100EB00000031A437B681A603B681B78002B03D041
:100EC0007B684FF001025A6007F10C07BD4680BCF9
:100ED000704700BF80B485B000AFF860B9607A6039
:100EE000FA684FF00003C4F201039A420CD0FA688A
:100EF0004FF48063C4F201039A4205D0FA684FF4BC
:100F00000063C4F201039A427B681B784FEA836254
:100F10007B685B784FEA03631A437B689B784FEAF0
:100F200003431A437B68DB784FEA03331A437B6839
:100F30001B794FEA83231A437B685B794FEA0323CB
:100F40001A437B689B791A437B68DB79002B02D0BC
:100F50004FF4001301E04FF000031A437B681B7A43
:100F6000002B02D04FF4801301E04FF000031A432E
:100F70007B685B7A002B02D04FF0100301E04FF04A
:100F800000031A437B689B7A002B02D04FF00403C6
:100F900001E04FF000031A43F968BB6803F1030353
:100FA0004FEA0313CB181A6007F11407BD4680BC43
:100FB000704700BF074880470749084A084B9B1AFB
:100FC00040F30580043BC858D0503FF7FBAF0548BD
:100FD00000470000A1110000E41200000000002002
:100FE0007400002055010000FEE7FEE7FEE7FEE783
:100FF000FEE7FEE7FEE7FEE7FEE7FEE7FEE7FEE7C9
:10100000FEE7FEE7FEE7FEE7FEE7FEE7FEE7FEE7B8
:10101000FEE7FEE7FEE7FEE7FEE7FEE7FEE7FEE7A8
:10102000FEE7FEE7FEE7FEE7FEE7FEE7FEE7FEE798
:10103000FEE7FEE7FEE7FEE780B400AF48F2B0133C
:10104000C0F6E073DB6C4FEA1363DBB21846BD46B3
:1010500080BC704780B582B000AF00F019F87860AE
:101060004FF40043C4F20C035B6803F00F037A688B
:1010700022FA03F37B6040F29003C2F200037A6825
:101080001A607B68184607F10807BD4680BD00BF9F
:1010900080B582B000AF4FF40043C4F20C03DB6AAA
:1010A00003F47053B3F5805F0DD0B3F5005F03D048
:1010B000B3F5006F0BD011E040F20403C2F200035D
:1010C0001B687B6066E04FF400437B6062E040F2A7
:1010D0000003C2F200031B687B605BE04FF4004337
:1010E000C4F20C03DB6803F4E063B3F5007F24D0A3
:1010F000B3F5007F05D8002B36D0B3F5807F22D022
:1011000043E0B3F5806F0CD0B3F5A06F03D0B3F517
:10111000407F0CD039E04FF47C53C0F2AB137B60BE
:1011200037E046F64073C0F240137B6031E049F689
:101130008073C0F2D5037B602BE04DF6C003C0F294
:10114000A7037B6025E0FFF777FF0346122B05D945
:101150004BF24053C0F264037B601AE04CF6C0735C
:10116000C0F26A037B6014E0FFF766FF0346122BB0
:1011700005D94FF49F43C0F212037B6009E044F2AB
:101180004023C0F20F037B6003E04FF000037B605D
:1011900000BF00BF7B68184607F10807BD4680BD49
:1011A00080B400AFBD4680BC704700BF80B400AFC4
:1011B0004FF400431846BD4680BC704780B400AF72
:1011C00040F20403C2F200031B681846BD4680BC0F
:1011D000704700BF10B5034C14B1AFF3008010BDD1
:1011E000204610BD0000000008B5084B04461BB1A6
:1011F0000021AFF3008001E000F00CF80448006823
:10120000816A01B18847204600F048F800000000DC
:10121000D412000070B5084B084C0025E01A841069
:1012200003EB8406043D1CB172599047013CF9E779
:10123000BDE8704000F03AB8700000207400002053
:1012400038B50E4D0E4B0024E81A8510AC4205D07F
:101250000B4951F8242090470134F7E700F020F8BB
:101260000849094A541AA5100024AC4205D0054B80
:1012700053F8240080470134F7E738BD6C000020A4
:101280006C0000206C0000207000002082180346D3
:10129000934202D003F8011BFAE77047FEE700BF54
:1012A000F8B500BFF8BC08BC9E467047F8B500BF53
:1012B000F8BC08BC9E467047000200000001030015
:1012C0000000000001010600000000000000000016
:0C12D000430000000800002000000000A7
:0812DC0078EEFF7F0100000025
:1012E4000048E80100800000000000000000000049
:1012F40000000000000000000000000000000000EA
:101304000000000000000000D012000000000000F7
:1013140000000000000000000000000000000000C9
:1013240000000000000000000000000000000000B9
:1013340000000000000000000000000000000000A9
:101344000000000000000000000000002501000073
:041354000101000093
:0400000300000FB535
:00000001FF
