:1000000000400020B91D0000EF1D0000F11D0000A0
:10001000F31D0000F51D0000F71D0000ED1D0000A0
:10002000ED1D0000ED1D0000ED1D0000F91D00009C
:10003000FB1D0000ED1D0000FD1D0000FF1D000068
:10004000011E0000031E0000051E0000071E000028
:10005000091E00000B1E00000D1E00000F1E0000F8
:10006000B9080000131E0000151E0000171E000036
:10007000191E00001B1E00001D1E00001F1E000098
:10008000211E0000231E0000251E0000271E000068
:10009000291E00002B1E00002D1E00002F1E000038
:1000A00081080000331E0000351E0000371E0000CE
:1000B000391E00003B1E0000000000000000000090
:1000C0000000000000000000000000000000000030
:1000D0000000000000000000000000000000000020
:1000E0000000000000000000000000000000000010
:1000F0000000000000000000000000000000000000
:1001000010B5054C237833B9044810B10448AFF357
:1001100000800121217010BD80000020000000003F
:10012000DC20000008B5064B1BB106480649AFF3BA
:1001300000800648016811B1054A02B1904708BD28
:1001400000000000DC20000084000020800000206F
:1001500000000000154B002B08BF134B9D46A3F574
:10016000803A00218B460F461348144A121A01F0B8
:100170008FFF0F4B002B00D098470E4B002B00D069
:1001800098470020002104460D4600200C4900221B
:10019000002301F021FF01F055FF2046294600F021
:1001A00043FB01F023FF00BF0000080000400020D7
:1001B000000000000000000080000020C0000020BF
:1001C0001920000080B483B000AF0346FB714FF4E8
:1001D0006143CEF2000397F907204FEA5212F979F2
:1001E00001F01F014FF0010000FA01F143F8221065
:1001F00007F10C07BD4680BC704700BF80B483B0D8
:1002000000AF0346FB714FF46143CEF2000397F950
:1002100007204FEA5212F97901F01F014FF0010057
:1002200000FA01F102F1200243F8221007F10C0755
:10023000BD4680BC704700BF80B584B000AF48F2B7
:10024000FC13C0F6E0731B68FB60FB684FEA1363A6
:10025000002B1BD14AF20C03C4F20C03BB60BB6839
:100260001B6823F07002BB681A6046F22003C4F2D8
:100270000C03BB60BB681B6823F06042BB681A605C
:10028000BB681B6863F06062BB681A60FB684FEA7A
:100290001363032B37D846F22003C4F20C03BB6070
:1002A000BB681B6823F4FC52BB681A6048F2400329
:1002B000C4F20C03BB60BB684FF000021A6048F246
:1002C0004403C4F20C03BB60BB684FF000021A6029
:1002D00048F25803C4F20C03BB60BB684FF0000245
:1002E0001A6048F26003C4F20C03BB60BB684FF0B5
:1002F00000021A6048F27803C4F20C03BB60BB68CA
:100300004FF000021A603B46184601F027FD3B788B
:10031000012B1BD17B78002B0AD148F24003C4F299
:100320000C03BB60BB681B6843F00202BB681A6029
:100330007B78012B0AD848F24403C4F20C03BB605B
:10034000BB681B6843F00102BB681A6048F2F013F7
:10035000C0F6E0731B68FB60FA684BF6FF13C4F647
:100360008A439A4257D848F24403C4F20C03BB6054
:10037000BB681B6843F49042BB681A6048F2B41330
:10038000C0F6E0731B6803F4FE434FEA13234FEA01
:1003900003637B6048F2B413C0F6E0731B6803F09C
:1003A0007F034FEA03437A6813437B6048F2B41338
:1003B000C0F6E0731B6803F4FE437A6813437B6066
:1003C00048F2B413C0F6E0731B6803F07F037A6849
:1003D00013437B6042F23403C4F20003BB60BB688A
:1003E0007A681A6044F22C03C4F20003BB6048F23E
:1003F000C813C0F6E0731B687B60BB687A681A603C
:1004000048F24403C4F20C03BB60BB681B6823F4CE
:100410009042BB681A6007F11007BD4680BD00BF5F
:1004200080B483B000AF786039607B683A681A6343
:1004300007F10C07BD4680BC704700BF80B483B095
:1004400000AF786039607B685A6B3B686FEA0303E2
:100450001A407B685A6307F10C07BD4680BC7047A1
:1004600080B483B000AF786039607B685A6B3B68BA
:100470001A437B685A6307F10C07BD4680BC70477E
:1004800080B483B000AF78604FF00003C4F208037B
:100490007A689A6107F10C07BD4680BC704700BFBF
:1004A00080B483B000AF78604FF00003C4F208035B
:1004B0004FF00002C4F20802D1697A680A43DA6197
:1004C00007F10C07BD4680BC704700BF80B400AF89
:1004D0004FF46D43CEF200034FF46D42CEF20002B2
:1004E000126922F004021A6130BFBD4680BC704719
:1004F00080B483B000AF03463960FB714FF4C04253
:10050000C4F20002F9793B684FF0010000FA03F3EE
:1005100018460B464FEAC3035B184FEA8303D31810
:1005200003F11003586007F10C07BD4680BC70470B
:1005300080B483B000AF03463960FB714FF4C04212
:10054000C4F20002F9793B684FF0010000FA03F3AE
:1005500018460B464FEAC3035B184FEA8303D318D0
:1005600003F11003186007F10C07BD4680BC70470B
:1005700080B500AF4FF47240C0F202004FF00101AD
:1005800000F040FB4FF44240C0F202004FF0010186
:1005900000F038FB4FF40C50C0F204004FF00101A2
:1005A00000F030FB4FF40070C0F202004FF0010188
:1005B00000F028FB4FF000004FF001014FF0010266
:1005C00000F0D0FD4FF00200C0F206004FF0020133
:1005D00000F0FCFC4FF48660C0F208004FF001010F
:1005E00000F010FB80BD00BF80B500AF4FF420408D
:1005F000C4F200004FF02401C0F20101FFF710FF28
:100600004FF42040C4F200004FF02401C0F2010179
:10061000FFF726FF4FF00800FFF7D4FD80BD00BFB5
:1006200080B500AF4FF00800FFF7E8FD4FF4204021
:10063000C4F200004FF02401C0F20101FFF7FEFEFA
:100640004FF42040C4F200004FF02401C0F2010139
:10065000FFF7E6FE80BD00BF90B585B000AF42F267
:10066000BC03C0F200033C460FCB84E80F004FF000
:1006700003004FF007014FF00B024FF0010300F0B1
:10068000C3FE4FF003004FF006014FF00B024FF096
:10069000010300F0B9FE4FF002004FF000014FF0EF
:1006A00004024FF0000300F0AFFE4FF42043C4F209
:1006B000000340F203129A633B464FF42040C4F219
:1006C0000000194600F0D8FF40F2AD03C2F200036B
:1006D0004FF000021A7040F2AE03C2F200034FF076
:1006E00000021A7040F2AC03C2F200034FF00002A5
:1006F0001A704FF42043C4F200034FF0E2025A6133
:100700004FF42043C4F200034FF42042C4F200022D
:10071000126842F016021A60FFF766FF07F114072D
:10072000BD4690BD80B500AF01E0FFF7CFFE40F2BF
:10073000AD03C2F200031B78DBB2002BF5D180BD04
:1007400080B586B000AF4FF002004FF00001FFF718
:10075000EFFE4FF0E203BB804FF00103FB8040F25D
:100760000003C2F20003BB6040F20803C2F20003C0
:100770001B78BB8140F2B003C2F200033B614FF033
:100780000A03BB8207F104034FF42040C4F20000C7
:10079000194601F005FA00BF4FF42040C4F20000F2
:1007A00000F0A0FF0346012BF6D04FF002004FF0FF
:1007B0000001FFF79DFEFFF717FF07F11807BD4681
:1007C00080BD00BF80B582B000AF42F2CC03C0F262
:1007D00000033A4619889B781180937048F2F01311
:1007E000C0F6E0731B68FB80FA8847F6FF439A4225
:1007F00003D8FB8803F5FA43FB80FB884FF0000029
:10080000194601F055FA4FF00200FFF749FE4FF08C
:100810001800FFF7D7FC3B46184601F071FA07F1C4
:100820000807BD4680BD00BF80B500AFFFF704FDDF
:10083000FFF79EFEFFF710FFFFF7C4FF40F2AD0386
:10084000C2F200031B78DBB2002B02D0FFF76AFF75
:1008500010E040F2AE03C2F200031B78DBB2002BC3
:1008600008D0FFF76DFF40F2AE03C2F200034FF075
:1008700000021A704FF0000000F084FDDEE700BFB8
:1008800080B500AF4FF00200FFF7FAFD40F2AD0374
:10089000C2F200031B78DBB283F00103DBB2002B52
:1008A00008D0FFF7BDFE40F2AE03C2F200034FF0E6
:1008B00001021A7080BD00BF80B582B000AF4FF456
:1008C0002043C4F200039B6A7B607B6803F004034F
:1008D000002B14D040F2AD03C2F200034FF001022E
:1008E0001A704FF42043C4F20003DB694FF4204038
:1008F000C4F200004FF00401FFF792FD22E07B6894
:1009000003F02003002B1DD040F2AC03C2F2000321
:100910001B781A464FF42043C4F20003DB69D9B2B6
:1009200040F2B003C2F20003995440F2AC03C2F2A9
:1009300000031B7803F10103DAB240F2AC03C2F208
:1009400000031A707B6803F48033002B15D04FF43A
:100950002040C4F200004FF48031FFF761FD40F207
:10096000AD03C2F200034FF000021A7040F2AC0374
:10097000C2F200034FF000021A7007F10807BD46EB
:1009800080BD00BF80B487B000AFF860B9607A6006
:10099000FB6803F104734FEAC302BB68D3184FEA44
:1009A00083037B617B697A681A6007F11C07BD4687
:1009B00080BC704780B483B000AF4FF00003C4F236
:1009C0000C035B687B607B6803F00703032B19D87B
:1009D00001A252F823F000BFE9090000E909000074
:1009E000F7090000F70900007B6823F0070343F0D4
:1009F00001037B6006E07B6823F0070343F00303F9
:100A00007B6000BF4FF00003C4F20C037A685A60A9
:100A100007F10C07BD4680BC704700BF90B486B09C
:100A200000AF78607B683B613B69B3FA83F4FC609C
:100A3000FB68DBB2C3F11F037B617B69184607F1DA
:100A40001807BD4690BC704780B485B000AF786091
:100A50004FF00003C4F20C035B68FB607A684FF44C
:100A60001053C0F2F4039A421BD97A684FF49043B2
:100A7000C0F2E8139A4214D8FB6803F00703A3F10D
:100A80000203012B06D8FB6823F0070343F003039E
:100A9000FB6006E0FB6823F0070343F00103FB6003
:100AA00000BF7A684FF41053C0F2F4039A4212D890
:100AB000FB6803F00703A3F10203012B06D8FB68D0
:100AC00023F0070343F00203FB6004E0FB6823F01C
:100AD0000703FB6000BF4FF00003C4F20C03FA6889
:100AE0005A6007F11407BD4680BC704780B483B0DC
:100AF00000AF49F68073C0F2D5037B607B6818466F
:100B000007F10C07BD4680BC704700BF80B582B0BE
:100B100000AF4FF00400C0F2180000F0CDF903461A
:100B2000FB70FB78072B05D0082B07D101F0B2F939
:100B3000786007E0FFF7DAFF786003E04FF000032A
:100B40007B6000BF7B68184607F10807BD4680BD83
:100B500080B584B000AF78604FF40043C4F20C035A
:100B60009A6A7B684FEA430322FA03F303F0030314
:100B7000032B1ED801A252F823F000BFAB0B0000DC
:100B80008D0B0000950B00009D0B000001F010FA8A
:100B9000F86012E001F014FAF8600EE001F05CF980
:100BA00003464FEA5303FB6007E04FF00003FB608E
:100BB00003E04FF00003FB6000BFFB68184607F13D
:100BC0001007BD4680BD00BF80B483B000AF786021
:100BD0004FF40043C4F20C035B6D03F00103002BE0
:100BE0000AD100BF4FF40043C4F20C031A6D7B68B6
:100BF0001340002BF6D100E000BF07F10C07BD4603
:100C000080BC704780B586B000AF78600B46FB7043
:100C10004FF000033B617B684FEA132303F00F039F
:100C200003F1FF33052B4CD801A252F823F000BF8B
:100C3000490C0000550C0000610C00006D0C000018
:100C40007F0C0000910C000048F20803C4F20C0372
:100C50007B6123E048F24403C4F20C037B611DE096
:100C600048F24003C4F20C037B6117E048F25803DA
:100C7000C4F20C037B614FF001033B610EE048F2CC
:100C80006003C4F20C037B614FF010033B6105E08D
:100C900048F27803C4F20C037B6100BF7B684FEA23
:100CA000133303F01F03FB603B69002B02D038694C
:100CB000FFF78AFFFB787869F9681A46FFF762FE4A
:100CC00000E000BF07F11807BD4680BD90B585B0B4
:100CD00000AF78607B6803F47813B3F5402F75D0CC
:100CE000B3F5402F15D8B3F5802F41D0B3F5802F41
:100CF00005D8002B29D0B3F5003F2AD0D1E0B3F5B9
:100D0000002F3FD0B3F5202F4DD0B3F5C02F33D0F7
:100D1000C7E0B3F5A01F00F09880B3F5A01F07D877
:100D2000B3F5602F6BD0B3F5901F00F08880B8E06A
:100D3000B3F5C01F00F0AD80B3F5D01F00F0AD805B
:100D4000B3F5B01F00F09280ABE001F0A3F8F860BB
:100D5000ABE001F09FF8F8604FF40043C4F20C03DD
:100D60009B6803F00F03FA6822FA03F3FB609CE030
:100D700001F072F8F86098E04FF00000FFF7E8FE2D
:100D8000F86092E04FF00000FFF7E2FEF8604FF4E9
:100D90000043C4F20C039B6E03F00F03FA6822FABF
:100DA00003F3FB6081E04FF00000FFF7D1FEF86035
:100DB0004FF40043C4F20C039B6E03F0F0034FEAC0
:100DC0001313FA6822FA03F3FB606EE04FF00000A1
:100DD000FFF7BEFEF8604FF40043C4F20C039B6EB5
:100DE00003F440734FEA13244FF01000FFF716FE90
:100DF0000346E318FA6822FA03F3FB6055E04FF06C
:100E00000000FFF7A5FEF8604FF40043C4F20C03A6
:100E10009B6E03F440734FEA1323FA6822FA03F33C
:100E2000FB604FF40043C4F20C03DB6F03F00703D5
:100E300003F10103FA68B2FBF3F3FB6035E04FF016
:100E40000100FFF785FEF8602FE04FF00100FFF78B
:100E50007FFEF8604FF40043C4F20C031B6F03F0F5
:100E60000303FA6822FA03F3FB601EE04FF001006F
:100E7000FFF76EFEF8604FF40043C4F20C031B6FE3
:100E800003F030034FEA1313FA6822FA03F3FB600E
:100E90000BE0FFF73BFEF86007E0FFF727FEF86086
:100EA00003E04FF00003FB6000BFFB68184607F14A
:100EB0001407BD4690BD00BF80B485B000AF786018
:100EC0004FF00103FB737B6803F00F03BB60BB684B
:100ED00003F1FF33032B6DD801A252F823F000BFBA
:100EE000F10E0000350F0000710F0000AD0F000083
:100EF0004FF40043C4F20C03DB6A03F47053B3F500
:100F0000805F0AD0B3F5005F03D0B3F5006F08D05F
:100F10000BE04FF00203FB730BE04FF00303FB7396
:100F200007E04FF00403FB7303E04FF00503FB738E
:100F300000BF43E04FF40043C4F20C039B6A03F08C
:100F40000303022B07D0032B09D0012B0BD14FF049
:100F50000303FB730BE04FF00203FB7307E04FF05A
:100F60000603FB7303E04FF00103FB7300BF25E0B2
:100F70004FF40043C4F20C039B6A03F00C03082BEC
:100F800007D00C2B09D0042B0BD14FF00303FB73BC
:100F90000BE04FF00203FB7307E04FF00603FB7317
:100FA00003E04FF00103FB7300BF07E04FF00703BE
:100FB000FB7303E04FF00003FB7300BFFB7B18469D
:100FC00007F11407BD4680BC704700BF80B588B0EC
:100FD00000AF78600B46FB704FF00303FB614FF0EE
:100FE0000303FB767B6803F00F033B613B69012B36
:100FF00006D0012BC0F0AD80032B00F2AA8046E0A2
:10100000FB78A3F10203032B00F2A58001A252F8A2
:1010100023F000BF25100000331000004110000035
:101020004F1000004FF00403FB614FF00003FB760C
:1010300014E04FF00303FB614FF00103FB760DE07A
:101040004FF00203FB614FF00203FB7606E04FF026
:101050000103FB614FF00303FB7600BFFB7E1846E4
:101060004FF001014FF0010200F07CF8FFF7A2FC05
:101070004FF40043C4F20C03FA695A6200F0B4F969
:1010800000F0EAFEF860F868FFF7DEFC66E0FB7847
:1010900003F1FF33052B60D801A252F823F000BF03
:1010A000B9100000C1100000D91000005B11000051
:1010B0005B110000F11000004FF000037B6125E0A0
:1010C0004FF000004FF001014FF0010200F04AF82C
:1010D0004FF002037B6119E04FF001004FF0010176
:1010E0004FF0010200F03EF84FF001037B610DE08C
:1010F00048F24000C4F20C004FF002014FF0010230
:10110000FFF740FC4FF003037B6100BF3B69022BFC
:101110000ED14FF40043C4F20C034FF40042C4F26A
:101120000C02926A22F003017A690A439A6215E07E
:101130004FF40043C4F20C034FF40042C4F20C021B
:10114000926A22F00C017A694FEA82020A439A629B
:1011500004E000BF02E000BF00E000BF07F120078D
:10116000BD4680BD80B586B000AF13460246FA7119
:101170000A46BA717B71FB79042B5FD801A252F841
:1011800023F000BFE9110000D5110000AD110000EF
:1011900099110000C11100004FF001033B614FF0B5
:1011A0000203FB604FF002037B6127E04FF0040372
:1011B0003B614FF00803FB604FF008037B611DE0CB
:1011C0004FF010033B614FF02003FB604FF0200312
:1011D0007B6113E04FF040033B614FF08003FB6005
:1011E0004FF080037B6109E04FF480733B614FF463
:1011F0000073FB604FF400737B6100BFBB79002B71
:1012000013D04FF40043C4F20C033A691A627B799D
:10121000002B10D000BF4FF40043C4F20C03DA6A75
:101220007B691340002BF6D005E04FF40043C4F275
:101230000C03FA681A6200F0D7F800E000BF07F16B
:101240001807BD4680BD00BF80B500AF00F004FEAA
:1012500080BD00BF80B400AF4FF40043C4F20C0364
:101260004FF00002C3F88420BD4680BC704700BF29
:1012700080B400AF4FF40043C4F20C0345F60E02F5
:10128000C3F88420BD4680BC704700BF80B582B0E3
:1012900000AF4FF40043C4F20C03D3F8843003F0E2
:1012A00001037B60FFF7E4FF4FF40043C4F20C033B
:1012B00040F29C02C2F20002128802F4AA721A6280
:1012C00040F29C03C2F200031B8803F47053B3F591
:1012D000805F06D0B3F5005F15D0B3F5006F24D062
:1012E00035E000BF4FF40043C4F20C03DB6A03F0A7
:1012F0008003002BF6D04FF40043C4F20C034FF0F0
:1013000003025A6224E000BF4FF40043C4F20C030E
:10131000DB6A03F40073002BF6D04FF40043C4F2F1
:101320000C034FF004025A6212E000BF4FF4004376
:10133000C4F20C03DB6A03F00803002BF6D04FF471
:101340000043C4F20C034FF002025A6200E000BFF7
:1013500040F29C03C2F200031B8803F00103002B40
:1013600006D14FF40043C4F20C034FF002021A629C
:101370007B68002B01D0FFF76DFF07F10807BD4622
:1013800080BD00BF80B582B000AF0346FB714FF453
:101390000043C4F20C03DB6A9AB240F29C03C2F22F
:1013A00000031A804FF46D43CEF200034FF46D42F8
:1013B000CEF20002126942F004021A6130BFFB79DA
:1013C000002B02D0FFF762FF0AE040F29C03C2F25A
:1013D00000031B8803F48063002B01D1FFF734FF67
:1013E00007F10807BD4680BD80B400AF4FF400434D
:1013F000C4F20C03DB6A9AB240F29C03C2F200030F
:101400001A80BD4680BC704790B484B000AFB9600C
:101410007B600346FB731346BB73BB7B002B2DD055
:101420007B68002B15D04FF4C042C4F20002F97B58
:10143000BB684FF0010000FA03F318460B464FEA71
:10144000C3035B184FEA8303D31803F1100318603A
:1014500014E04FF4C042C4F20002F97BBB684FF0C5
:10146000010000FA03F318460B464FEAC3035B186A
:101470004FEA8303D31803F110035860BB68072BAE
:101480002BD84FF4C042C4F20002F87B4FF4C041A5
:10149000C4F20001FC7B23464FEAC3031B194FEA49
:1014A0008303CB185968BB684FEA83034FF00F04DE
:1014B00004FA03F36FEA03031940BC7BBB684FEAED
:1014C000830304FA03F3194303464FEAC3031B18CB
:1014D0004FEA8303D318596036E04FF4C042C4F298
:1014E0000002F87B4FF4C041C4F20001FC7B2346AC
:1014F0004FEAC3031B194FEA8303CB1803F1080318
:101500001968BB6803F18043A3F108034FEA830322
:101510004FF00F0404FA03F36FEA03031940BC7B96
:10152000BB6803F18043A3F108034FEA830304FA85
:1015300003F3194303464FEAC3031B184FEA83031F
:10154000D31803F108031960BB7B002B2DD17B68F6
:10155000002B15D04FF4C042C4F20002F97BBB68E7
:101560004FF0010000FA03F318460B464FEAC3039D
:101570005B184FEA8303D31803F11003186014E0DB
:101580004FF4C042C4F20002F97BBB684FF0010087
:1015900000FA03F318460B464FEAC3035B184FEA01
:1015A0008303D31803F11003586007F11007BD46F9
:1015B00090BC704780B487B000AFF860B9607A60C3
:1015C000FB6803F104734FEAC302BB68D3184FEA08
:1015D00083037B617B697A681A6007F11C07BD464B
:1015E00080BC704780B586B000AFF860B9607A60A3
:1015F000FB707B68002B3AD0FB681B6823F44072B9
:10160000FB681A60FB681A68FB784FEA03231A43E9
:10161000FB681A60BB68002B06D148F21010C0F2BC
:101620000200FFF753FBB860FA7842F2D003C0F231
:1016300000039B5C3B617B684FEA8303BA68D21A64
:101640003B69796801FB03F3B2FBF3F37B61FB6851
:101650001B6803F00203002B05D07B69002B02D12D
:101660004FF001037B61FB687A691A6100E000BFFB
:1016700007F11807BD4680BD80B582B000AF786025
:1016800039607B684FF000025A637A684FF6CF7377
:10169000C0F2010313637A683B685B78002B02D0C9
:1016A0004FF0000301E04FF0010310464FF001013D
:1016B0001A46FFF77FFF3B6859683B689A683B68AA
:1016C0001B7B7868FFF78EFF7A683B681B781046B3
:1016D0004FF000011A46FFF76DFF07F10807BD46FE
:1016E00080BD00BF80B489B000AF78607A684FF4E5
:1016F0002043C4F200039A4208D140F2A003C2F290
:101700000003BB61BB699B687B6102E04FF0FC0397
:101710003FE27B689B6A3B613B6903F4C063002B3B
:1017200017D03B6903F40073002B04D0BB694FF062
:10173000FD025A7008E03B6903F48063002B03D07C
:10174000BB694FF0FE025A70BB694FF009021A7074
:1017500008E2BB691B78082B00F2EE8101A252F867
:1017600023F000BF89170000E11700007D1800007A
:10177000DD1800003519000095190000311A00002D
:10178000791A00001D1B00007B695B8803F01003C1
:10179000002B0AD07B691B884FEA13239BB203F00E
:1017A000060343F0F003FB610EE07B691B8803F046
:1017B000FE03FB617B695B8803F00203002B03D00F
:1017C000FB6943F00103FB61BB694FF001021A7032
:1017D0007B68FA695A627B684FF001025A60C1E186
:1017E0003B6903F08003002B10D07B684FF0800230
:1017F0001A63BB694FF0FF025A70BB694FF00802D1
:101800001A707B684FF002025A60A0E13B6903F056
:101810004003002B00F09B817B684FF040021A636D
:101820007B695B8803F01003002B09D0BB694FF084
:1018300002021A707B691B88DAB27B685A6286E101
:101840007B695B8803F00203002B12D0BB694FF069
:1018500007021A70BB691B797A694FEAC303D31870
:101860001B89012B40F073817B684FF008025A609E
:101870006DE1BB694FF005021A7067E13B6903F047
:101880008003002B10D07B684FF080021A63BB6985
:101890004FF0FF025A70BB694FF008021A707B6864
:1018A0004FF002025A6054E13B6903F04003002B01
:1018B00000F04F817B684FF040021A637B695B88C0
:1018C00003F00203002B04D0BB694FF003021A702F
:1018D0003CE1BB694FF005021A7037E17B695B8818
:1018E00003F01003002B0AD07B691B884FEA1323F7
:1018F0009BB203F0060343F0F003FB6104E07B6955
:101900001B8803F0FE03FB617B695B8803F0040323
:10191000002B03D0FB6943F00103FB61BB694FF06F
:1019200004021A707B684FF001025A607B68FA6902
:101930005A6217E13B6903F08003002B10D07B68EB
:101940004FF080021A63BB694FF0FF025A70BB6907
:101950004FF008021A707B684FF002025A60FAE0FA
:101960003B6903F04003002B00F0F5807B684FF0EB
:1019700040021A637B695B8803F00403002B04D0E8
:10198000BB694FF007021A70E5E0BB694FF0050232
:101990001A70DBE0BB695A88BB691B7979694FEA29
:1019A000C303CB181B899A4229D3BB694FF00002AD
:1019B0005A80BB691B7903F10103DAB2BB691A7162
:1019C0007B695B8803F00403002B04D0BB694FF0F4
:1019D00003021A70BAE07B695B8803F00103002BF5
:1019E00004D1BB691B79012B40F2AF80BB694FF07A
:1019F00008021A707B684FF002025A60B2E0BB69BD
:101A00001B797A694FEAC303D3185968BB695B88AD
:101A10001A468A18127811467A68516203F1010356
:101A20009AB2BB695A80BB694FF006021A7099E0FE
:101A30003B6903F08003002B10D07B684FF08002DD
:101A40001A63BB694FF0FF025A70BB694FF008027E
:101A50001A707B684FF002025A607EE03B6903F027
:101A60004003002B79D07B684FF040021A63BB69BA
:101A70004FF005021A7069E03B6903F02003002B68
:101A80006DD0BB691B797A694FEAC303D3181B89F0
:101A9000FB607B68DB69FB72BB695B881A46FB688D
:101AA0009A4211D2BB691B797A694FEAC303D318F2
:101AB0005968BB695B881A468A18F97A117003F174
:101AC00001039AB2BB695A80BB695B881A46FB68FE
:101AD0009A420FD3FB68012B03D17B684FF00802B9
:101AE0005A60BB694FF008021A707B684FF002021F
:101AF0005A6034E07B684FF004025A60FB68012BA7
:101B00002DD9BB695B881A46FB6803F1FF339A4203
:101B100025D17B684FF008025A6020E03B6903F44E
:101B20008073002B1DD07B684FF480721A63BB69F1
:101B30004FF009021A7014E0BB694FF0FB025A70B3
:101B4000BB694FF009021A700CE000BFE1E500BF6D
:101B500008E000BF06E000BF04E000BF02E000BFF5
:101B600000E000BFBB691B78092B0DD17B684FF0EB
:101B700000025A63BB695B785BB2012B07D1BB697A
:101B80004FF000025A7002E04FF0010301E0BB6920
:101B90005B785BB2184607F12407BD4680BC7047EE
:101BA00080B584B000AF786039607A684FF4204324
:101BB000C4F200039A420BD140F2A003C2F2000328
:101BC000FB607B689B6803F00103002B03D106E0F8
:101BD0004FF0FC0347E07B684FF020025A603B68FF
:101BE0005B8803F00203002B03D03B681B89002BAA
:101BF00009D03B685B8803F00403002B06D03B68E8
:101C00001B8A002B02D14FF0FC032CE0FB684FF045
:101C100000021A70FB684FF001025A70FB684FF027
:101C200000025A80FB684FF000021A71FB683A68A4
:101C30009A607B684FF0C0025A607B689B6A03F031
:101C40002003002B01D07B68DB697A684FF6CF73E5
:101C5000C0F2010313637B684FF4FC625A63786837
:101C6000FFF740FD03465BB2184607F11007BD467B
:101C700080BD00BF80B483B000AF78604FF0000338
:101C8000C4F208031B6A03F00103002B0AD100BF52
:101C90004FF00003C4F208035A6A7B681340002B1C
:101CA000F6D100E000BF07F10C07BD4680BC7047CD
:101CB00080B584B000AF786039607B68002B02D0BB
:101CC000012B09D011E04FF00803C4F20803FB60B8
:101CD0004FF00203BB6009E04FF00C03C4F20803AD
:101CE000FB604FF00403BB6000E005E0B868FFF75D
:101CF000C1FFFB683A681A6007F11007BD4680BD56
:101D000080B584B000AF78607B681B78002B03D06F
:101D10004FF00103FB6002E04FF00003FB607B68C3
:101D20005B78002B03D0FB6843F00203FB607B6809
:101D30009B78002B03D0FB6843F00403FB604FF05B
:101D40000100FFF797FF4FF00003C4F20803FA68A1
:101D50001A6007F11007BD4680BD00BF80B485B092
:101D600000AF78604FF6D073CEF20F031B69DBB281
:101D700003F03F03DAB27B681A704FF6D073CEF2ED
:101D80000F039B69DBB223F00F03FB734FF6D07395
:101D9000CEF20F03DB6903F0F0034FEA1313DAB25C
:101DA000FB7B1343FB737B68FA7B5A7007F11407C4
:101DB000BD4680BC704700BF074880470749084AB6
:101DC000084B9B1A40F30580043BC858D0503FF79E
:101DD000FBAF054800470000A51F0000E8200000F9
:101DE000000000208000002055010000FEE7FEE713
:101DF000FEE7FEE7FEE7FEE7FEE7FEE7FEE7FEE7BB
:101E0000FEE7FEE7FEE7FEE7FEE7FEE7FEE7FEE7AA
:101E1000FEE7FEE7FEE7FEE7FEE7FEE7FEE7FEE79A
:101E2000FEE7FEE7FEE7FEE7FEE7FEE7FEE7FEE78A
:101E3000FEE7FEE7FEE7FEE7FEE7FEE780B400AF61
:101E400048F2B013C0F6E073DB6C4FEA1363DBB209
:101E50001846BD4680BC704780B582B000AF00F028
:101E600019F878604FF40043C4F20C035B6803F088
:101E70000F037A6822FA03F37B6040F2BC03C2F2DC
:101E800000037A681A607B68184607F10807BD46A8
:101E900080BD00BF80B582B000AF4FF40043C4F2F4
:101EA0000C03DB6A03F47053B3F5805F0DD0B3F518
:101EB000005F03D0B3F5006F0BD011E040F21003C8
:101EC000C2F200031B687B6066E04FF400437B6056
:101ED00062E040F20C03C2F200031B687B605BE02F
:101EE0004FF40043C4F20C03DB6803F4E063B3F582
:101EF000007F24D0B3F5007F05D8002B36D0B3F592
:101F0000807F22D043E0B3F5806F0CD0B3F5A06F93
:101F100003D0B3F5407F0CD039E04FF47C53C0F2CE
:101F2000AB137B6037E046F64073C0F240137B6032
:101F300031E049F68073C0F2D5037B602BE04DF6AB
:101F4000C003C0F2A7037B6025E0FFF777FF0346DD
:101F5000122B05D94BF24053C0F264037B601AE0A8
:101F60004CF6C073C0F26A037B6014E0FFF766FFB3
:101F70000346122B05D94FF49F43C0F212037B6036
:101F800009E044F24023C0F20F037B6003E04FF00E
:101F900000037B6000BF00BF7B68184607F108079D
:101FA000BD4680BD80B400AFBD4680BC704700BF59
:101FB00080B400AF4FF400431846BD4680BC704764
:101FC00080B400AF40F21003C2F200031B68184651
:101FD000BD4680BC704700BF10B5034C14B1AFF3D1
:101FE000008010BD204610BD0000000008B5084B61
:101FF00004461BB10021AFF3008001E000F00CF8B3
:1020000004480068816A01B18847204600F048F81A
:1020100000000000D820000070B5084B084C0025D7
:10202000E01A841003EB8406043D1CB172599047FA
:10203000013CF9E7BDE8704000F03AB87C000020B0
:102040008000002038B50E4D0E4B0024E81A851094
:10205000AC4205D00B4951F8242090470134F7E7F2
:1020600000F020F80849094A541AA5100024AC428F
:1020700005D0054B53F8240080470134F7E738BDFD
:102080007800002078000020780000207C000020EC
:1020900082180346934202D003F8011BFAE7704707
:1020A000FEE700BFF8B500BFF8BC08BC9E4670470D
:1020B000F8B500BFF8BC08BC9E467047010100009F
:1020C000000000003C6D0100000000000100010064
:1020D000080911084300000014000020000000005F
:0820E00074E0FF7F0100000025
:1020E8004765636B6F000000060000000048E801C8
:1020F8000080000000000000000000000000000058
:1021080000000000000000000000000000000000C7
:1021180000000000D42000000000000000000000C3
:1021280000000000000000000000000000000000A7
:102138000000000000000000000000000000000097
:102148000000000000000000000000000000000087
:10215800000000000000000025010000010100004F
:0400000300001DB923
:00000001FF
