:1000000000000220012400003724000039240000F1
:100010003B2400003D2400003F2400003524000064
:100020003524000035240000352400004124000060
:10003000432400003524000045240000472400002C
:1000400049240000E50100004D2400004F24000079
:100050005124000053240000552400006D020000CC
:10006000592400005B2400005D240000C50100004D
:100070006124000063240000652400006724000060
:10008000692400006B2400006D2400006F24000030
:100090007124000073240000752400007724000000
:1000A000792400007B2400007D2400007F240000D0
:1000B0008124000083240000ED1A00008724000042
:1000C000892400008B2400008D2400008F24000070
:1000D00091240000932400009524000000000000FB
:1000E0000000000000000000000000000000000010
:1000F0000000000000000000000000000000000000
:1001000010B5054C237833B9044810B10448AFF357
:1001100000800121217010BD780000200000000047
:10012000AC40000008B5064B1BB106480649AFF3CA
:1001300000800648016811B1054A02B1904708BD28
:1001400000000000AC4000007C000020780000208F
:1001500000000000154B002B08BF134B9D46A3F574
:10016000803A00218B460F461348144A121A03F0B6
:10017000F3F90F4B002B00D098470E4B002B00D00B
:1001800098470020002104460D4600200C4900221B
:10019000002303F081F903F0B9F92046294600F065
:1001A000BBF803F087F900BF000008000000022040
:1001B000000000000000000078000020B4000020D3
:1001C000E13400004FF4C04240F29403C4F2000254
:1001D000C2F200034FF400710120C2F81C11186034
:1001E000704700BF4FF4C04240F29403C4F20002D3
:1001F000C2F200034FF480610020C2F81C111860A5
:10020000704700BF10B54FF4524082B0C0F20200F8
:10021000012100F0BDFD012002460921002301F06B
:100220004BFA0120044602460A21002301F044FA59
:100230002046092100222346009401F0F3F90A2107
:10024000002223462046009401F0ECF94FF461436C
:10025000CEF2000302214FF40062C3F8801119604E
:10026000C3F880211A6002B010BD00BF4FF40053E4
:10027000C4F2000301221A62704700BF30B50024A7
:1002800087B01F2320468DF807308DF804408DF885
:1002900005408DF806408DF808408DF809408DF82E
:1002A0000C408DF80D408DF80E408DF80F408DF804
:1002B00010408DF811408DF812408DF813408DF8E4
:1002C000144000F055FA8DF807004FF4D450214641
:1002D000C0F2060000F01EFA4FF40055C4F200050B
:1002E0008DF8080001A9284600F086F90822284662
:1002F00003A98DF810208DF80E4000F099F9686977
:100300004FF4614140F00103CEF2000180226B61A5
:100310000A6007B030BD00BF2DE9F04F48F2FC1372
:10032000C0F6E07387B01C6804A801F0CDFB200E76
:10033000102800F0448102F0B3F948F21010C0F226
:100340000200012100F024FD4FF400700121C0F2F1
:10035000030000F01DFD002001F0FCFC01F04CFC4E
:1003600048F2B013C0F6E073DC6C4FF400564FEA6D
:100370001469A9F11000012894BF4FF070094FF0E3
:100380000009DFF86C82FFF73DFFC4F20006FFF7BB
:1003900075FF012782E002F0B5FE25688246C5F3AD
:1003A000074002F0ABFED4F80CB005464FEA1B50F4
:1003B00002F0A4FE514602F0EFFD4AF2D731CCF232
:1003C000C80102F0A7FF0146284602F0E5FD02F051
:1003D00029FB83A3D3E9002302F078FB002300224A
:1003E000C4F2400302F0C0F902F082FD0021C4F221
:1003F000201102F0DBFE03F029F846F26762C6F234
:100400006662034682FB0020D917C1EBA00505EB0D
:100410008502A3EB420003F049F8734A08212B46FA
:10042000009004A803F0A0F82368E568C3F3074030
:1004300002F064FE0446280D02F060FE514602F010
:10044000ABFD4AF2D731CCF2C80102F063FF01469E
:10045000204602F0A1FD0021C4F2201102F0A6FE08
:1004600002F0F4FF00EB8000400001F0D1FC01211C
:10047000102001F0E1FE0920012101F0DDFE0A203B
:10048000002101F0D9FE04A801F0EEFE4FF4FA605D
:10049000002101F03FFB012001F054F84FF46D41C1
:1004A0007760CEF200010D6925F004020A6130BFC9
:1004B000736AD8F8005048F2B01409EB0300C0F694
:1004C000E074002D7FF467AFD4F800A0E1680391D9
:1004D00002F018FE8346CAF3074002F00FFE824680
:1004E0000398000D02F00AFE594602F055FD4AF24B
:1004F000D731CCF2C80102F00DFF0146504602F0A0
:100500004BFD0021C4F2201102F050FE02F09EFFCC
:1005100046F26762C6F2666282FB0031C317C3EB24
:10052000A10A0AEB8A02A0EB420002F0BFFF534689
:100530002E4A0821009004A803F016F82068D4F889
:100540000CA0C0F3074002F0D9FD04464FEA1A5050
:1005500002F0D4FD594602F01FFD4AF2D731CCF229
:10056000C80102F0D7FE0146204602F015FD02F058
:1005700059FA1BA3D3E9002302F0A8FA00230022B2
:10058000C4F2400302F0F0F802F0B2FC0021C4F221
:10059000201102F00BFE02F059FF00EB8001480031
:1005A00001F036FC0121102001F046FE0920294609
:1005B00001F042FE0A20012101F03EFE63E79DF8B2
:1005C000111003297FF4B7AE48F2C005C4F20C0540
:1005D0002A6822F0500646F010072F60ABE600BFF5
:1005E000CDCCCCCCCCCCFC3FC03D0000CC3D000001
:1005F00094000020AFF3008070B40A2343604A786F
:100600000E78CD7813010C798A7843EA06632D04BD
:10061000134305F4F81524024A792B4304F4FE41F0
:100620000B430AB143F00803036070BC704700BF7E
:100630008A78022370B44360062A18D8DFE802F0F3
:10064000440457611717370048F2B013C0F6E0733F
:10065000466B5D685C6826F4FE4626F07F06C4F3B0
:1006600006443443C5F3066544EA052343630D7825
:100670004C782B0743EA04540D7944EA0242CB78C4
:100680008C7942EA052242EA03130CB143F08073ED
:10069000CA790AB143F004034A790AB143F002036C
:1006A000097A09B143F00103C36070BC704748F296
:1006B000B015C0F6E075446BEB6824F07F0503F0DD
:1006C0007F042C434463D2E748F2B014456BC0F674
:1006D000E0746668646825F4FE4525F07F0506F43D
:1006E000FE432B4304F07F0423434363BFE7456B82
:1006F00048F2B013C0F6E0739E6825F4FE459C688E
:10070000EBE748F2B013C0F6E073466B9D689C6857
:10071000A1E700BF38B545F64053C0F2C603984282
:1007200004460DD847F6FF45A8421ED84FF4FA44B8
:1007300069B14919B1FBF4F4ACB1013CE0B238BD88
:1007400045F63F55C0F2C6051C460029F1D148F2D6
:100750001010C0F2020000F099F801464919B1FBEF
:10076000F4F4002CE9D1204638BD451EE0E700BF77
:1007700008B538B14FF49043C0F2E81398420AD953
:100780001F2008BD48F21010C0F2020000F07EF8F1
:100790000028EFD108BD00F574204DF6836100F20A
:1007A0003F22C4F21B31A1FB0223980C411EC8B2A8
:1007B00008BD00BF00F00F00411E042917D8DFE874
:1007C00001F0182B3D4F03004FF40043C4F20C031B
:1007D000DA6A02F46030B0F5803F4BD0B0F5003FEC
:1007E0004AD0B0F5004F0CBF082001207047002010
:1007F00070474FF40042C4F20C02D16A01F4705009
:10080000B0F5805F38D0B0F5005F33D0B0F5006F41
:100810000CBF0420052070474FF40041C4F20C01C6
:10082000886A00F00300022825D003282BD0012875
:1008300022D08B6AD80311D5092070474FF40040AD
:10084000C4F20C00816A01F00C03082B12D00C2BAF
:1008500019D0042B10D0826AD102EDD40120704748
:100860004FF40041C4F20C010B6813F0805205D123
:10087000072070470220704703207047002A14BFEA
:100880000820012070470620704700BF00F4781050
:10089000B0F5602F08B500F03E8111D9B0F5B01F5A
:1008A00000F0F4803FD9B0F5D01F00F08C80B0F597
:1008B000E01F00F00A81B0F5C01F79D0002008BD0C
:1008C000B0F5C02F00F014815BD9B0F5202F00F0F7
:1008D000BE80B0F5402F00F09480B0F5002FEDD130
:1008E0004FF40040C4F20C00836A03F00302022AB2
:1008F00000F09481032A00F0CC81012A00F00F82DD
:100900004FF40041C4F20C01886A000C01D001F0E0
:10091000BDFE4FF40043C4F20C039A6EC2F3031100
:1009200020FA01F008BDB0F5901F00F03581B0F558
:10093000A01F00F01481B0F5801FBFD14FF400421A
:10094000C4F20C02906A00F00301022900F05D81FC
:10095000032900F0D681012900F0D0814FF4004333
:10096000C4F20C039A6A100C01D001F08FFE4FF410
:100970000042C4F20C02916E01F0030320FA03F06E
:1009800008BDB0F5003F00F02081B0F5802F00F0E9
:100990001881002892D101F0FFFD4FF40042C4F20B
:1009A0000C021168C1F382335A1CB0FBF2F008BD8F
:1009B0000420C0F21800FFF7FDFE072803D0082826
:1009C0007FF47CAFE7E74FF40040C4F20C004169CC
:1009D00001F4E063B3F5007F00F0A48140F20781E9
:1009E000B3F5C06F00F0A881B3F5E06F00F09F8110
:1009F000B3F5407F7FF462AF44F24020C0F20F00B5
:100A000008BD4FF40043C4F20C03986A00F00302DF
:100A1000022A00F0F780032A00F06681012A00F024
:100A20006081996A0B0C40F0938100204FF40042E2
:100A3000C4F20C02916E1023B3FA83F2D3B2C3F165
:100A40001F02C1F30131531820FA03F008BD4FF41F
:100A50000040C4F20C00826A02F00301022900F097
:100A6000D780032900F02981012900F02381836ABE
:100A7000180C01D001F00AFE4FF40041C4F20C0141
:100A80008B6EC3F3032220FA02F008BD4FF400403E
:100A9000C4F20C00826AC2F38101022900F0BB801B
:100AA000032900F01481012900F00181836A180DE7
:100AB00001D001F0EBFD4FF40041C4F20C010B6FCB
:100AC000C3F3011220FA02F008BD42F20530C0F271
:100AD0001C00FFF76FFE032800F09080082800F04C
:100AE000B18002287FF4EAAEBDE8084001F0D2BD33
:100AF0004FF40043C4F20C03986A00F0030102298A
:100B0000F2D0032900F09380012977D09B6A180C5A
:100B10003FF4D5AE51E04FF40040C4F20C00816ABE
:100B200001F00303022B7FD0032B00F09B80012BED
:100B300000F09580826A100C01D001F0A7FD4FF4FF
:100B40000043C4F20C039A6ED96FC2F3013320FA4A
:100B500003F001F00702511CB0FBF1F008BD4FF4A7
:100B60000041C4F20C01886AC0F38102022A58D005
:100B7000032A00F08480012A7ED08B6A1B0D40F08E
:100B8000E48000204FF40042C4F20C02136F03F023
:100B9000030120FA01F008BD4FF40043C4F20C0336
:100BA000986AC0F38102022A9ED0032A3FD0012A0C
:100BB00024D0996A080D3FF482AEBDE8084001F0E8
:100BC00065BDBDE8084001F067BC01F0E5FC4FF4ED
:100BD0000043C4F20C031A689968C2F382335A1CAA
:100BE000B0FBF2F001F00F0120FA01F008BD002B7C
:100BF0002CD149F68070C0F2D50008BDBDE8084090
:100C000001F040BD01F046FD10E701F043FDAEE606
:100C100001F040FD30E701F03DFD4CE701F03AFD09
:100C200077E601F037FDADE701F034FD87E758685E
:100C3000C20503D41B685B0040F1838001F02CFCEB
:100C4000800808BDBDE8084001F0A6BCB3F5807F70
:100C50007FF434AE4DF6C000C0F2A70008BD01F02D
:100C600011FD6CE74168CA0502D4006843007ED5D7
:100C700001F012FC800862E701F004FD82E7486899
:100C8000C00502D40968490075D501F005FC80084B
:100C900078E74368D80506D44FF40042C4F20C024A
:100CA000116849006BD501F0F7FB800831E601F0CF
:100CB000E9FC00E701F0E6FCDEE64268D20502D47A
:100CC000006843005FD501F0E7FB8008D4E6426886
:100CD000D20502D4006843003DD501F0DDFB800859
:100CE000E9E601F0CFFCA1E65868C00502D41B6814
:100CF000590034D501F0D0FB800897E601F0C2FC22
:100D000035E65068C00506D44FF40041C4F20C012A
:100D10000B68590027D501F0BFFB800827E601F0DA
:100D2000B1FCF6E54CF6C070C0F26A0008BD46F6AC
:100D30004070C0F2401008BD4FF47C50C0F2AB10C0
:100D400008BD01F0A9FB400808BD01F09FFC19E7B0
:100D500001F09CFC6AE601F09FFB4008ABE601F065
:100D60009BFB400862E601F097FB4008FFE501F0BD
:100D700093FB4008E3E601F08FFB400802E701F037
:100D80008BFB4008C5E501F087FB400874E600BF17
:100D900030B5C0F303230446581E83B005280DD890
:100DA000DFE800F00E12172335034FF47072C1F222
:100DB000E402C4F3043410198400216003B030BD90
:100DC0004022C1F2E402F4E74FF40872C1F2E402F7
:100DD000EFE751200191FFF7EDFC042801991CD0A9
:100DE0004FF40072C1F2E402E3E74FF43072C1F253
:100DF000E40201204FF40045C4F20C056B6DC4F30E
:100E00000434DB07D7D42B6D1842FCD1D3E74FF461
:100E10004072C1F2E4021020ECE7019101F02AFCDB
:100E20004FF40041C4F20C014A68012502F00F039F
:100E300005FA03F14FF49042B0FBF1F0C0F2E81272
:100E400090420199CCD97820A023C4F29030C4F20A
:100E500090334FF400720560C1F2E4021D60A8E710
:100E600010B5C0F30313013B82B0042B5BD8DFE85D
:100E700013F05C006C00B000D80005000020C4F244
:100E80000C00436803F00702052A0AD8012404FA7B
:100E900002F010F02C0F00F04E8123F0070242F018
:100EA00005030024C4F20C044FF400406360C4F254
:100EB0000C000268013922F4E03343EA8132026017
:100EC00001F0EAFA4FF49041C0F2E81188426368F9
:100ED0000AD903F007018A1E23F00703012A94BFF1
:100EE00043F0050343F004034DF6FF32CFF60B72D7
:100EF00042F2FF318218C0F2F4018A4200F2BB8054
:100F000003F00700052823F0070306D8012202FAA0
:100F100000F111F02C0F40F0AB8043F001030020F2
:100F2000C4F20C00436002B010BDB1FA81F14FF47D
:100F30000043C4F20C039A68C8B2C0F11F0122F04A
:100F40000F0241EA02009860EDE70023C4F20C03AF
:100F50005B6803F00702052A0AD8012000FA02F2B2
:100F600012F02C0F00F0DE8023F0070040F00503A4
:100F70000022C4F20C02536051200191FFF71AFCC9
:100F80000428019900F017817820A0230022C4F2E0
:100F90009030C4F2903302601A60B1FA81F14FF4DC
:100FA0000040C4F20C004368CAB2C2F11F0123F032
:100FB0000F0341EA0302426001F06EFA4FF49042DF
:100FC0000021C0F2E812C4F20C0190424B688BD9A8
:100FD0007FE742F23042C0F20A02904200F0D18034
:100FE00060D841F23043C0F2080398429BD14FF4DD
:100FF0000042C4F20C02506DC30702D4136D5807AF
:10100000FCD4B1FA81F14FF40040C4F20C00826EBE
:10101000CBB2C3F11F0122F0F00242EA0113836652
:1010200081E74FF4A863C0F21403984260D04FF4F4
:10103000AA52C0F2160290427FF475AF4FF40042FC
:10104000C4F20C02506DC30702D4136D5806FCD4D1
:10105000B1FA81F14FF40040C4F20C00026FCBB240
:10106000C3F11F0122F0300242EA011303675AE77D
:1010700043F0030353E74FF41051C0F2F4018842E8
:101080003FF64DAF03F00700052823F007033FF6B6
:1010900046AF012202FA00F111F02C0F18BF43F005
:1010A00002033CE73022C0F20C0290424CD04FF4D5
:1010B0008663C0F2100398427FF435AF4FF40042CC
:1010C000C4F20C02506DC30702D4136D5807FCD450
:1010D000B1FA81F14FF40040C4F20C00826ECBB241
:1010E000C3F11F0122F0030241EA020383661AE7FB
:1010F0004FF40042C4F20C02506DC30702D4136DCA
:101100005806FCD4B1FA81F14FF40040C4F20C004F
:10111000026FCBB2C3F11F0122F0030241EA0203C6
:10112000036700E712F0130F3FF422AF23F0070329
:1011300043F004031CE710F0130F3FF4B2AE23F0AA
:10114000070343F00403ACE64FF40042C4F20C0280
:10115000506DC30702D4136D5807FCD4B1FA81F166
:101160004FF40043C4F20C039A6E1020B0FA80F0E2
:10117000C0B2C9B2411A22F4405242EA0130986624
:10118000D1E64FF40042C4F20C02536DDB0702D4E7
:10119000106D4007FCD4B1FA81F14FF40043C4F262
:1011A0000C039A6EC8B2C0F11F0122F4706242EAC9
:1011B00001209866B7E6019101F05CFA01994FF4BD
:1011C0009043B0FBF1F0C0F2E81398427FF6DCAE3A
:1011D0007820A0230122C4F29030C4F29033026040
:1011E0001A60DAE638B500F00F04631E042B0AD843
:1011F000DFE803F03017170A0300032949D0082954
:1012000072D002295AD038BD072939D00829FAD11D
:101210004FF40040C4F20C00026842F080510160BB
:1012200038BD01390829EED801A252F821F000BFDB
:10123000C3130000E71300009B1400000712000016
:10124000071200005B1400000712000007120000E4
:101250008F1400008A1E072AD5D801A353F822F064
:1012600007140000131400001B14000057140000A2
:10127000071200000712000007120000FD12000014
:101280004FF40043C4F20C03186820F080521A6037
:1012900038BD4FF40042C4F20C0240241462D06AFC
:1012A0004FF400440106C4F20C04F8D500F0AEF986
:1012B00060216162E36A9A03FCD538BD4FF40042B5
:1012C000C4F20C024FF480701062D16A4FF40044F3
:1012D0008B05C4F20C04F8D500F098F94023636242
:1012E000E26AD003FCD538BD4FF40040C4F20C00D4
:1012F00020214162C36A1904FCD538BD03250120B1
:1013000002224FF40044C4F20C042062E36A1A4241
:10131000FCD000F07BF90021C4F20C014B6803F013
:10132000070005280DD8012202FA00F414F02C0F52
:1013300040F0D98014F0130F03D023F0070343F0DB
:10134000040300244FF40040C4F20C00C4F20C0467
:101350006360456200F05AF901F09EF84FF4904244
:10136000C0F2E812904263680AD903F007018A1EAE
:1013700023F00703012A94BF43F0050343F004035D
:101380004DF6FF32CFF60B7242F2FF318218C0F2F7
:10139000F4018A4200F2908003F00700052823F050
:1013A000070300F2B280012202FA00F111F02C0FC3
:1013B00000F0AB8043F003030020C4F20C00436054
:1013C00038BD002003460146022C00F091804FF406
:1013D0000042C4F20C02916A21F4801323F00C0144
:1013E0000843906238BD4FF40041C4F20C014FF441
:1013F00080730B62C86A8305FCD500F007F90820EA
:1014000000230221E0E704254FF480704FF40072BE
:1014100077E703254020802273E701F02BF94FF492
:101420009045C0F2E8154FF40044C4F20C04A84201
:10143000236871D943F0804242F060052560246C36
:10144000E20604D5A023C4F29033012119600225DD
:101450000420082255E7012551E74FF40163C4F247
:10146000903301251D6001F017F84FF49042C0F24F
:10147000E81290424CD97822A023C4F29033C4F2EF
:10148000903215600C201D60032100239CE74FF46F
:1014900080104FF48033002196E74FF40041C4F2EE
:1014A0000C0140200862CA6A1006FCD500F0AEF8B4
:1014B00004200023012187E74FF41051C0F2F4010A
:1014C00088423FF679AF03F00700052823F00703B1
:1014D0003FF672AF012202FA00F111F02C0F18BF93
:1014E00043F0020368E723F0070141F0050328E712
:1014F0004FF40042C4F20C02906A0B4320F4803196
:1015000021F003000343936238BD43F0010353E726
:101510000C200023032157E723F0600141F0200055
:10152000206094E74FF40043C4F20C039A6D110756
:1015300006D4D96F00F0070021F007021043D867E6
:10154000704700BF4FF400424FF46D43CEF20003EA
:10155000C4F20C0230B4D16A1C692B4D44F004046F
:1015600029801C6130BF40B901F4806082B20AB1A9
:1015700030BC704730BC00F08FBFD2F8844001F41B
:10158000705301F4AA7045F60E05B3F5805FC2F8FA
:10159000845004F00104106217D0B3F5005F1ED030
:1015A000B3F5006F25D0CB0705D44FF40041C4F24A
:1015B0000C0102200862002CDAD04FF40043C4F280
:1015C0000C030022C3F88420D2E7D06A4FF4004312
:1015D0000006C4F20C03F8D503225A62E3E7D06A8E
:1015E0004FF400438005C4F20C03F8D504225A627C
:1015F000D9E7D06A4FF400430007C4F20C03F8D5D2
:1016000002225A62CFE700BF980000204FF4004347
:10161000C4F20C03DA6A40F29800C2F200000280C1
:10162000704700BF0729F0B434D9A1F10804A6001F
:101630000F2505FA06F500FA06F04FF4C047C4F28C
:101640000007D7F8044124EA05063043C7F804012F
:10165000012707FA01F74FF404654FF40664C1F25D
:101660008305C1F283044D190C194FF40860C1F2CF
:101670008300AD00A4002A604FF4C046236009181F
:101680009DF81030C4F200068800C6F81C71036093
:10169000F0BC70478F000F2505FA07F500FA07F038
:1016A0004FF4C044C4F20004D4F8006126EA0507F0
:1016B0003843C4F80001CBE7F0B4002A37D1C400A6
:1016C0008E00072920D84FF00F0707FA06FC02FA10
:1016D00006F72518AE0006F1804505F5C0456E6891
:1016E00026EA0C063E436E6062B9002B35D1012319
:1016F00003FA01F1201846F210028300C4F200023E
:1017000098184160F0BC7047203E4FF00F0C0CFA67
:1017100006FC02FA06F72518AE0006F1804505F52D
:10172000C045AE6826EA0C063E43AE60DCE7012603
:1017300006FA01F6C4003BB12718BD0005F1804749
:1017400007F5C0452E61BBE7271846F21005BF001C
:10175000C4F200057D196E60B2E7012202FA01F1C0
:101760002318980000F1804202F5C0431961C9E7CF
:101770004FF42043C4F20803F0B45C684268C168C7
:1017800024F48305077A25F01F041143467A214388
:10179000058A1A6839430078314322F0010429434D
:1017A0001C60596018B1196841F001021A60F0BC60
:1017B000704700BF4FF42043C4F208035968B0F5E6
:1017C000803F21F480334FF4204208BF43F480333C
:1017D000C4F20802536070474FF42043C4F2080378
:1017E0009A6819B922EA000098607047104398601F
:1017F000704700BF07280ED8DFE800F00E1824302D
:101800003A4652041F295FDD4FF4BC63C1F2C503A1
:10181000C81881000A6070471F294DDC4FF400731F
:10182000C1F2C503C81881000A6070471F29D4BFE0
:101830004FF408734FF42073C1F2C503C818810038
:101840000A6070471F29D4BF4FF410734FF42873F8
:10185000C1F2C503C81881000A6070471F292BDD3B
:101860004FF43073C1F2C503C81881000A60704795
:101870001F29D4BF4FF4CC634FF4B063C1F2C5034A
:10188000C81881000A6070471F29D4BF4FF4D06385
:101890004FF4B463C1F2C503C81881000A607047F1
:1018A0001F29D4BF4FF4D4634FF4B863C1F2C5030A
:1018B000C81881000A6070474FF41873C1F2C5035D
:1018C000C81881000A6070474FF4D863C1F2C5039D
:1018D000C81881000A607047072811D8DFE800F0B7
:1018E000111C27323D4A57044FF42043C4F2080329
:1018F000D3F8D8000A4020EA01010A43C3F8D820EF
:1019000070474FF42043C4F20803186C0A4020EAE1
:1019100001010A431A6470474FF42043C4F20803DC
:10192000586C0A4020EA01010A435A6470474FF498
:101930002043C4F20803986C0A4020EA01010A43DC
:101940009A6470474FF42043C4F20803D86C0A40ED
:1019500020EA01010A43DA6470474FF42043C4F2DD
:101960000803D3F8CC000A4020EA01010A43C3F877
:10197000CC2070474FF42043C4F20803D3F8D000C2
:101980000A4020EA01010A43C3F8D02070474FF40F
:101990002043C4F20803D3F8D4000A4020EA01012E
:1019A0000A43C3F8D4207047072811D8DFE800F0B5
:1019B000111C27323D4A57044FF42043C4F2080358
:1019C000D3F8C0000A4020EA01010A43C3F8C0204E
:1019D00070474FF42043C4F20803186D0A4020EA10
:1019E00001010A431A6570474FF42043C4F208030B
:1019F000586D0A4020EA01010A435A6570474FF4C6
:101A00002043C4F20803986D0A4020EA01010A430A
:101A10009A6570474FF42043C4F20803D86D0A401A
:101A200020EA01010A43DA6570474FF42043C4F20B
:101A30000803D3F8B4000A4020EA01010A43C3F8BE
:101A4000B42070474FF42043C4F20803D3F8B80021
:101A50000A4020EA01010A43C3F8B82070474FF456
:101A60002043C4F20803D3F8BC000A4020EA010175
:101A70000A43C3F8BC2070474FF42043C4F2080364
:101A80005A6822F4E01108435860704720B90823CF
:101A9000C4F20803196070470128FCD10C23C4F27A
:101AA0000803F7E74FF086431860704742780378E1
:101AB0000AB143F00203807808B143F00403002127
:101AC000C4F208010B6070474FF6D073CEF20F03DB
:101AD0001A6902F03F0101709A69DB6902F0F001B6
:101AE000C3F3031241EA02034370704708B50020B4
:101AF000FFF7D8FF0023C4F2080302229A610448CA
:101B0000D969026821F00201D96102B1904708BD8C
:101B1000A00000202DE9F041064682B000200F46CB
:101B2000FFF7C0FF314A1478F4B1314D314A002437
:101B3000C4F2080402201760A061296844F6D35358
:101B400001FB06F6C1F26203A3FB0621002089090E
:101B5000FFF79CFF0120FFF7A5FFE26942F00200BA
:101B6000E06102B0BDE8F0814FF001084FF486401B
:101B7000C0F20400414682F80080FFF709F9022014
:101B8000C0F206000321FFF72DFB41F23040202177
:101B9000C0F20800FFF764F941F23040C0F20800DB
:101BA000FEF774FE124D4146286041F23040C0F20B
:101BB0000800FFF7EDF801A88DF804408DF8054006
:101BC0008DF80640FFF772FF0022C4F20802D069C8
:101BD0004FF46143CEF200034FF0804120F0070440
:101BE000D461C3F880111960A0E700BF9A000020FB
:101BF0009C000020A000002010B54FF47044CFF2EC
:101C00000F04002002462146FFF766FE0120214610
:101C10000022FFF761FE022021460022FFF75CFE52
:101C2000032021460022FFF757FE04202146002210
:101C3000FFF752FE052021460022FFF74DFE062049
:101C400021460022FFF748FE072021460022FFF729
:101C500043FE00200246FF21FFF7A6FE0120FF21E0
:101C60000022FFF7A1FE0220FF210022FFF79CFEC9
:101C70000320FF210022FFF797FE0420FF2100220E
:101C8000FFF792FE0520FF210022FFF78DFE0620C0
:101C9000FF210022FFF788FE0720FF210022BDE878
:101CA0001040FFF781BE00BF4FF4604110B50C46F5
:101CB000CFF20F0407200022C5F20F01FFF70CFE40
:101CC000062021460022FFF707FE052021460022BC
:101CD000FFF702FE042021460022FFF7FDFD03204E
:101CE00021460022FFF7F8FD022021460022FFF7DF
:101CF000F3FD012021460022FFF7EEFD0020024601
:101D00004FF02041FFF7E8FD072001460022FFF7D2
:101D10004BFE062007210022FFF746FE0520072183
:101D20000022FFF741FE042007210022FFF73CFEBE
:101D3000032007210022FFF737FE0220072100229F
:101D4000FFF732FE012007210022BDE81040FFF717
:101D50002BBE00BF10B504464FF48640C0F204000D
:101D60000121FFF715F80220C0F206000321FFF75A
:101D700039FA30204021C0F20C00FFF771F8012041
:101D8000FFF7D0FB4FF450500121C0F20E00FEF7D8
:101D9000FFFF4FF42043C4F208039A6A00229A62BC
:101DA0001A48FFF7E5FC08200121FFF715FD102078
:101DB0000121FFF711FD80200121FFF70DFD4FF4F8
:101DC00080700121FFF708FD4FF400700121FFF73B
:101DD00003FD4CB9FFF710FF4FF42042C4F2080294
:101DE000506E0028FCD110BD4FF44020FFF744FE98
:101DF0004FF48030FFF7DEFC4FF40040C4F20C00DB
:101E0000C16F41F00803C367E4E700BFA43F0000CF
:101E100042F20E7398422DE9F041054600F33781F6
:101E20004FF61940CFF6FF708542B8BF054680F2E5
:101E3000FB81284601F03AFB012605464FF420427B
:101E4000C4F20802546E4FF42043C4F20803002C7D
:101E5000F8D101271F66384678212246FFF7A4FDF6
:101E6000022078212246FFF79FFD03207821224699
:101E7000FFF79AFD042078212246FFF795FD052003
:101E800078212246FFF790FD062078212246FFF7B1
:101E90008BFD072078212246FFF786FD46F2676119
:101EA000C6F2666181FB05104FEAE578C8EBA00237
:101EB00002EB8204A5EB4403CB4F99B237F81140F3
:101EC000E30700F1E88004F0020082B2002A40F04B
:101ED000ED8004F0040399B2002940F0F28004F090
:101EE000080082B2002A40F0F78004F0100399B293
:101EF000002940F0FC8004F0200082B2002A40F06B
:101F0000018104F04004A3B2002B40F0068146F2A8
:101F10006760C6F2666080FB0512C8EBA20480FB16
:101F20000413E117C1EBA30000EB8002A4EB420411
:101F3000A3B237F81340E00700F1708104F002010A
:101F400088B2002840F0648104F0040293B2002BB0
:101F500040F0588104F0080188B2002840F04C811C
:101F600004F0100293B2002B40F0408104F02001F5
:101F700088B2002840F0318104F04004A2B2002A67
:101F800040F0258148F21F53C5F2EB1383FB052176
:101F900046F26760C8EB6114C6F2666080FB04120B
:101FA000E317C3EBA20101EB8100A4EB4004A2B252
:101FB00037F81240E10700F1048104F0020399B2FE
:101FC000002940F0F88004F0040082B2002A40F0BA
:101FD000EC8004F0080399B2002940F0E08004F09E
:101FE000100082B2002A40F0D48004F0200399B29D
:101FF000002940F0C88004F04004A0B2002840F05E
:10200000BC8044F6D352C1F2620282FB052546F23F
:102010006763C8EBA518C6F2666383FB08144FEA32
:10202000E871C1EBA40000EB8002A8EB4203002E94
:1020300040F0FF809CB237F81440E20700F197802F
:1020400004F0020188B2002840F08B8004F0040202
:1020500093B2002B7FD104F0080188B2002874D11C
:1020600004F0100293B2002B69D104F0200188B271
:1020700000285ED104F04004A4B2002C53D14FF4E8
:102080002043C4F2080300221A66BDE8F08100264E
:1020900042F20F75D2E6072001222321FFF7AAFBA7
:1020A00004F0020082B2002A3FF413AF232105207E
:1020B0000122FFF79FFB04F0040399B200293FF4CB
:1020C0000EAF022001222321FFF794FB04F0080049
:1020D00082B2002A3FF409AF012023210246FFF714
:1020E00089FB04F0100399B200293FF404AF0320E8
:1020F00001222321FFF77EFB04F0200082B2002A98
:102100003FF4FFAE06202321012204F04004FFF734
:1021100071FBA3B2002B3FF4FAAE0420232101226D
:10212000FFF768FBF3E6042026210122FFF762FB9C
:10213000A5E7062026210122FFF75CFB9AE7032092
:1021400026210122FFF756FB8FE7012026210246B8
:10215000FFF750FB84E7022026210122FFF74AFB0C
:1021600079E7052026210122FFF744FB6EE70720CF
:1021700026210122FFF73EFB62E7042025210122F0
:10218000FFF738FB3DE7062025210122FFF732FB50
:1021900031E7032025210122FFF72CFB25E7012051
:1021A00025210246FFF726FB19E7022025210122FF
:1021B000FFF720FB0DE7052025210122FFF71AFB81
:1021C00001E7072025210122FFF714FBF5E6042093
:1021D00024210122FFF70EFBD4E606202421012250
:1021E000FFF708FBC8E600BFD83D0000032024210C
:1021F0000122FFF7FFFAB9E6012024210246FFF78A
:10220000F9FAADE6022024210122FFF7F3FAA1E654
:10221000052024210122FFF7EDFA95E6072024216D
:102220000122FFF7E7FA89E60026002DBFF606AE89
:10223000FFE51024FFE600BF102803460A4608D831
:10224000074951F82000074951F823102AB9FFF730
:10225000D1BA00210846002AF9D00122FFF7CABAF4
:102260001C3F0000603F00002DE9F843804601F06C
:10227000ADF94FF420420746C4F20802566E4FF4FF
:102280002043C4F20803002EF8D101201866FFF79E
:102290000BFD594CDFF8649166E018F80610203900
:1022A00039F811502078EA07A17B00F1A08005F0F1
:1022B000020293B2E17B6078002B40F0948005F03D
:1022C000040082B2217CA078002A40F0888005F0CA
:1022D00008018BB2E078617C002B7CD105F0100006
:1022E00082B2A17C2079002A71D105F020018BB245
:1022F0006079E17C002B66D105F0400082B2217D3F
:10230000A079002A5BD105F080018BB2E079617D74
:10231000002B50D105F4807082B2A17D207A002A72
:1023200045D105F400718BB2607AE17D002B3AD182
:1023300005F4806082B2217EA07A82BB05F4006140
:102340008BB2E07A617E33BB05F4805082B2A17E0D
:10235000207BE2B905F40055ADB2E17E607B3DB96A
:1023600001361C34072E0AD0B74296DC002197E7CD
:1023700001220136FFF73EFA1C34072EF4D14FF448
:102380002041C4F2080100230B66BDE8F883012256
:10239000FFF730FADEE70122FFF72CFAD4E701223B
:1023A000FFF728FACAE70122FFF724FAC0E7012263
:1023B000FFF720FAB5E70122FFF71CFAAAE701228E
:1023C000FFF718FA9FE70122FFF714FA94E70122BA
:1023D000FFF710FA89E70122FFF70CFA7EE70122E6
:1023E000FFF708FA73E70122FFF704FA67E7012213
:1023F000FFF700FA5BE700BFFC3D0000B83F0000BC
:10240000074880470749084A084B9B1A40F3058054
:10241000043BC858D0503FF7FBAF054800470000C9
:1024200081260000B8400000000000207800002055
:1024300055010000FEE7FEE7FEE7FEE7FEE7FEE7E8
:10244000FEE7FEE7FEE7FEE7FEE7FEE7FEE7FEE764
:10245000FEE7FEE7FEE7FEE7FEE7FEE7FEE7FEE754
:10246000FEE7FEE7FEE7FEE7FEE7FEE7FEE7FEE744
:10247000FEE7FEE7FEE7FEE7FEE7FEE7FEE7FEE734
:10248000FEE7FEE7FEE7FEE7FEE7FEE7FEE7FEE724
:10249000FEE7FEE7FEE700BF4FF40043C4F20C0383
:1024A000DA6A02F47050B0F5805F38D0B0F5005FA2
:1024B00032D0B0F5006F1AD0D96801F4E063B3F5FB
:1024C000007F3AD02ED8002B3CD148F2B013C0F692
:1024D000E073D86C44F240224FF49F41C0F20F02E7
:1024E000C0F21201B0F1985F28BF0A4601E0274B05
:1024F0001A684FF40041C4F20C010B684868C3F33A
:1025000082314B1CB2FBF3F200F00F0022FA00F113
:102510001F4B0846196070471E480268E9E74FF4F0
:102520000042E6E7B3F5806F2BD0B3F5A06F1ED065
:10253000B3F5407F20D00022DBE74DF6C002C0F2A9
:10254000A702D6E7B3F5807FF5D148F2B012C0F606
:10255000E072D06C4BF240514CF6C072C0F26A028D
:10256000C0F26401B0F1985F28BF0A46C1E74FF49A
:102570007C52C0F2AB12BCE749F68072C0F2D502C1
:10258000B7E746F64072C0F24012B2E704000020FE
:10259000AC000020000000204FF40043C4F20C0304
:1025A000DA6A02F47050B0F5805F2AD0B0F5005FAF
:1025B00024D0B0F5006F1ED0D96801F4E063B3F504
:1025C000007F2CD020D8002B2ED0B3F5807F24D1D3
:1025D00048F2B012C0F6E072D06C4CF6C0714BF20B
:1025E0004053C0F26A01C0F26403B0F1985F34BF97
:1025F0000846184670471D4A106870471C48006816
:1026000070474FF400407047B3F5806F29D0B3F5A1
:10261000A06F1CD0B3F5407F1ED0002070474DF650
:10262000C000C0F2A700704748F2B012C0F6E072D6
:10263000D06C44F240214FF49F43C0F20F01C0F22E
:102640001203B0F1985F34BF0846184670474FF444
:102650007C50C0F2AB10704749F68070C0F2D500D4
:10266000704746F64070C0F24010704704000020EA
:102670000000002040F20403C2F200031868704713
:10268000704700BF4FF40040704700BF4FF47A70AE
:10269000704700BF40F20003C2F2000318687047A1
:1026A0004FF07E631868F0B408B9F0BC70474FF47F
:1026B0000041C4F20C014A6C4FF4C04442F4005093
:1026C0004864C4F20004D4F820510A4645F00406D8
:1026D000C4F82061D4F8207127F44073C4F8203185
:1026E000D4F8B80020F47065C4F8B850D4F8B860D5
:1026F00046F48067C4F8B87010240C62D16A890669
:10270000FCD54EF6F052CEF20002D0684FF480565F
:1027100040F0807041F2FF370023D060CEF2040316
:102720000F22CEF20006C4F2010737604CF6556561
:102730001A6109240222C3F8F0204FF06041CCF264
:10274000AC55C0F201044FF48072C3F80423012099
:10275000C1F8B05FC1F8804EA7E700BF81F000412B
:1027600002E000BF83F0004330B54FEA41044FEA76
:10277000430594EA050F08BF90EA020F1FBF54EA11
:10278000000C55EA020C7FEA645C7FEA655C00F0AD
:10279000E2804FEA5454D4EB5555B8BF6D420CDD7E
:1027A0002C4480EA020281EA030382EA000083EA01
:1027B000010180EA020281EA0303362D88BF30BDA1
:1027C00011F0004F4FEA01314FF4801C4CEA1131F7
:1027D00002D0404261EB410113F0004F4FEA033356
:1027E0004CEA133302D0524263EB430394EA050FE1
:1027F00000F0A780A4F10104D5F1200E0DDB02FA50
:102800000EFC22FA05F2801841F1000103FA0EF2E3
:10281000801843FA05F359410EE0A5F120050EF1A9
:10282000200E012A03FA0EFC28BF4CF0020C43FADA
:1028300005F3C01851EBE37101F0004507D54FF0E7
:10284000000EDCF1000C7EEB00006EEB0101B1F537
:10285000801F1BD3B1F5001F0CD349085FEA30007D
:102860004FEA3C0C04F101044FEA445212F5800F88
:1028700080F09A80BCF1004F08BF5FEA500C50F125
:10288000000041EB045141EA050130BD5FEA4C0C08
:10289000404141EB010111F4801FA4F10104E9D191
:1028A00091F0000F04BF01460020B1FA81F308BF88
:1028B0002033A3F10B03B3F120020CDA0C3208DD54
:1028C00002F1140CC2F10C0201FA0CF021FA02F12F
:1028D0000CE002F11402D8BFC2F1200C01FA02F19F
:1028E00020FA0CFCDCBF41EA0C019040E41AA2BFC4
:1028F00001EB0451294330BD6FEA04041F3C1CDA8C
:102900000C340EDC04F11404C4F1200220FA04F0AB
:1029100001FA02F340EA030021FA04F345EA030155
:1029200030BDC4F10C04C4F1200220FA02F001FA17
:1029300004F340EA0300294630BD21FA04F0294699
:1029400030BD94F0000F83F4801306BF81F4801132
:102950000134013D4EE77FEA645C18BF7FEA655CA5
:1029600029D094EA050F08BF90EA020F05D054EA77
:10297000000C04BF1946104630BD91EA030F1EBF7C
:102980000021002030BD5FEA545C05D14000494180
:1029900028BF41F0004130BD14F580043CBF01F573
:1029A000801130BD01F0004545F0FE4141F4700159
:1029B0004FF0000030BD7FEA645C1ABF1946104634
:1029C0007FEA655C1CBF0B46024650EA013406BF35
:1029D00052EA033591EA030F41F4002130BD00BFF4
:1029E00090F0000F04BF0021704730B54FF48064B1
:1029F00004F132044FF000054FF0000150E700BF32
:102A000090F0000F04BF0021704730B54FF4806490
:102A100004F1320410F0004548BF40424FF000017D
:102A20003EE700BF42004FEAE2014FEA31014FEAC0
:102A300002701FBF12F07F4393F07F4F81F060510F
:102A4000704792F0000F14BF93F07F4F704730B57E
:102A50004FF4607401F0004521F0004120E700BF11
:102A600050EA010208BF704730B54FF000050AE098
:102A700050EA010208BF704730B511F0004502D599
:102A8000404261EB41014FF4806404F132045FEA9B
:102A9000915C3FF4DCAE4FF003025FEADC0C18BF40
:102AA00003325FEADC0C18BF033202EBDC02C2F136
:102AB000200300FA03FC20FA02F001FA03FE40EAC8
:102AC0000E0021FA02F11444C1E600BF70B54FF0C8
:102AD000FF0C4CF4E06C1CEA11541DBF1CEA1355AA
:102AE00094EA0C0F95EA0C0F00F0DEF82C4481EA12
:102AF000030621EA4C5123EA4C5350EA013518BF32
:102B000052EA033541F4801143F4801338D0A0FB1E
:102B100002CE4FF00005E1FB02E506F00042E0FBCB
:102B200003E54FF00006E1FB03569CF0000F18BFD1
:102B30004EF0010EA4F1FF04B6F5007F64F5407479
:102B400004D25FEA4E0E6D4146EB060642EAC6210C
:102B500041EA55514FEAC52040EA5E504FEACE2E79
:102B6000B4F1FD0C88BFBCF5E06F1ED8BEF1004F7C
:102B700008BF5FEA500E50F1000041EB045170BDF8
:102B800006F0004646EA010140EA020081EA03013C
:102B9000B4EB5C04C2BFD4EB0C0541EA045170BD38
:102BA00041F480114FF0000E013C00F3AB8014F1B2
:102BB000360FDEBF002001F0004170BDC4F10004FB
:102BC000203C35DA0C341BDC04F11404C4F120057C
:102BD00000FA05F320FA04F001FA05F240EA0200D7
:102BE00001F0004221F0004110EBD37021FA04F60D
:102BF00042EB06015EEA430E08BF20EAD37070BDC7
:102C0000C4F10C04C4F1200500FA04F320FA05F025
:102C100001FA04F240EA020001F0004110EBD37027
:102C200041F100015EEA430E08BF20EAD37070BD97
:102C3000C4F1200500FA05F24EEA020E20FA04F370
:102C400001FA05F243EA020321FA04F001F000411F
:102C500021FA04F220EA020000EBD3705EEA430E90
:102C600008BF20EAD37070BD94F0000F0FD101F0BF
:102C70000046400041EB010111F4801F08BF013CF8
:102C8000F7D041EA060195F0000F18BF704703F036
:102C90000046520043EB030313F4801F08BF013DBD
:102CA000F7D043EA0603704794EA0C0F0CEA135579
:102CB00018BF95EA0C0F0CD050EA410618BF52EA33
:102CC0004306D1D181EA030101F000414FF0000039
:102CD00070BD50EA410606BF1046194652EA430647
:102CE00019D094EA0C0F02D150EA013613D195EABB
:102CF0000C0F05D152EA03361CBF104619460AD103
:102D000081EA030101F0004141F0FE4141F470010C
:102D10004FF0000070BD41F0FE4141F4780170BDFC
:102D200070B54FF0FF0C4CF4E06C1CEA11541DBF61
:102D30001CEA135594EA0C0F95EA0C0F00F0A7F863
:102D4000A4EB050481EA030E52EA03354FEA013190
:102D500000F088804FEA03334FF0805545EA1313A3
:102D600043EA12634FEA022245EA111545EA10656B
:102D70004FEA00260EF000419D4208BF964244F102
:102D8000FD0404F5407402D25B084FEA3202B61A21
:102D900065EB03055B084FEA32024FF480104FF4F5
:102DA000002CB6EB020E75EB030E22BFB61A754669
:102DB00040EA0C005B084FEA3202B6EB020E75EBFC
:102DC000030E22BFB61A754640EA5C005B084FEA64
:102DD0003202B6EB020E75EB030E22BFB61A754631
:102DE00040EA9C005B084FEA3202B6EB020E75EB3C
:102DF000030E22BFB61A754640EADC0055EA060EFD
:102E000018D04FEA051545EA16754FEA06164FEA3F
:102E1000C30343EA52734FEAC2025FEA1C1CC0D1EB
:102E200011F4801F0BD141EA00014FF000004FF078
:102E3000004CB6E711F4801F04BF01430020B4F139
:102E4000FD0C88BFBCF5E06F3FF6AFAEB5EB030CF1
:102E500004BFB6EB020C5FEA500C50F1000041EBEE
:102E6000045170BD0EF0004E4EEA113114EB5C04BB
:102E7000C2BFD4EB0C0541EA045170BD41F480118E
:102E80004FF0000E013C90E645EA060E8DE60CEA96
:102E9000135594EA0C0F08BF95EA0C0F3FF43BAFB3
:102EA00094EA0C0F0AD150EA01347FF434AF95EA6A
:102EB0000C0F7FF425AF104619462CE795EA0C0F4E
:102EC00006D152EA03353FF4FDAE1046194622E71B
:102ED00050EA410618BF52EA43067FF4C5AE50EAF5
:102EE00041047FF40DAF52EA43057FF4EBAE12E7E5
:102EF0004FEA4102B2F1E04324BFB3F5001CDCF11C
:102F0000FE5C0DD901F0004C4FEAC0024CEA507053
:102F1000B2F1004F40EB830008BF20F00100704782
:102F200011F0804F21D113F13872BCBF01F0004085
:102F3000704741F480114FEA5252C2F11802C2F1B7
:102F4000200C10FA0CF320FA02F018BF40F0010038
:102F50004FEAC1234FEAD32303FA0CFC40EA0C00EA
:102F600023FA02F34FEA4303CCE77FEA625307D127
:102F700050EA01331EBF4FF0FE4040F4400070475E
:102F800001F0004040F0FE4040F40000704700BFF8
:102F900080F0004002E000BF81F0004142001FBF0E
:102FA0005FEA410392EA030F7FEA226C7FEA236C17
:102FB0006AD04FEA1262D2EB1363C1BFD21841400C
:102FC00048404140B8BF5B42192B88BF704710F0A2
:102FD000004F40F4000020F07F4018BF404211F045
:102FE000004F41F4000121F07F4118BF494292EAAD
:102FF000030F3FD0A2F1010241FA03FC10EB0C00D9
:10300000C3F1200301FA03F100F0004302D5494265
:1030100060EB4000B0F5000F13D3B0F1807F06D312
:1030200040084FEA310102F10102FE2A51D2B1F10A
:10303000004F40EBC25008BF20F0010040EA0300FF
:103040007047490040EB000010F4000FA2F10102AC
:10305000EDD1B0FA80FCACF1080CB2EB0C0200FA36
:103060000CF0AABF00EBC25052421843BCBFD04084
:103070001843704792F0000F81F4000106BF80F4FE
:1030800000000132013BB5E74FEA41037FEA226CC1
:1030900018BF7FEA236C21D092EA030F04D092F08C
:1030A000000F08BF0846704790EA010F1CBF0020C0
:1030B000704712F07F4F04D1400028BF40F000401D
:1030C000704712F100723CBF00F50000704700F03D
:1030D000004343F0FE4040F4000070477FEA226264
:1030E00016BF08467FEA23630146420206BF5FEA35
:1030F000412390EA010F40F4800070474FF0000335
:1031000004E000BF10F0004348BF40425FEA000CFB
:1031100008BF704743F0964301464FF000001CE0A3
:1031200050EA010208BF70474FF000030AE000BFF9
:1031300050EA010208BF704711F0004302D5404237
:1031400061EB41015FEA010C02BF844601460020A9
:1031500043F0B64308BFA3F18053A3F50003BCFAC4
:103160008CF2083AA3EBC25310DB01FA02FC634471
:1031700000FA02FCC2F12002BCF1004F20FA02F278
:1031800043EB020008BF20F00100704702F120026B
:1031900001FA02FCC2F1200250EA4C0021FA02F2CC
:1031A00043EB020008BF20EADC7070474FF0FF0CD1
:1031B0001CEAD0521EBF1CEAD15392EA0C0F93EACC
:1031C0000C0F6FD01A4480EA010C400218BF5FEA6E
:1031D00041211ED04FF0006343EA501043EA5111E1
:1031E000A0FB01310CF00040B1F5000F3EBF4900DB
:1031F00041EAD3715B0040EA010062F17F02FD2ADF
:103200001DD8B3F1004F40EBC25008BF20F00100C1
:10321000704790F0000F0CF0004C08BF49024CEAD8
:10322000502040EA51207F3AC2BFD2F1FF0340EA6A
:10323000C250704740F400004FF00003013A5DDCDB
:1032400012F1190FDCBF00F000407047C2F100021C
:10325000410021FA02F1C2F1200200FA02FC5FEA09
:10326000310040F1000053EA4C0308BF20EADC7053
:10327000704792F0000F00F0004C02BF400010F4C5
:10328000000F013AF9D040EA0C0093F0000F01F072
:10329000004C02BF490011F4000F013BF9D041EA94
:1032A0000C018FE70CEAD15392EA0C0F18BF93EA96
:1032B0000C0F0AD030F0004C18BF31F0004CD8D1C0
:1032C00080EA010000F00040704790F0000F17BF47
:1032D00090F0004F084691F0000F91F0004F14D08D
:1032E00092EA0C0F01D142020FD193EA0C0F03D1E5
:1032F0004B0218BF084608D180EA010000F00040E8
:1033000040F0FE4040F40000704740F0FE4040F4C2
:10331000400070474FF0FF0C1CEAD0521EBF1CEA61
:10332000D15392EA0C0F93EA0C0F69D0A2EB03027F
:1033300080EA010C49024FEA402037D04FF0805319
:1033400043EA111143EA10130CF000408B4238BFDE
:103350005B0042F17D024FF4000C8B4224BF5B1AEC
:1033600040EA0C00B3EB510F24BFA3EB510340EA3A
:103370005C00B3EB910F24BFA3EB910340EA9C00E8
:10338000B3EBD10F24BFA3EBD10340EADC001B0158
:1033900018BF5FEA1C1CE0D1FD2A3FF650AF8B42FC
:1033A00040EBC25008BF20F0010070470CF0004C09
:1033B0004CEA50207F32C2BFD2F1FF0340EAC25034
:1033C000704740F400004FF00003013A37E792F0F5
:1033D000000F00F0004C02BF400010F4000F013A53
:1033E000F9D040EA0C0093F0000F01F0004C02BF4E
:1033F000490011F4000F013BF9D041EA0C0195E7B7
:103400000CEAD15392EA0C0F08D142027FF47DAF4F
:1034100093EA0C0F7FF470AF084676E793EA0C0F3F
:1034200004D14B023FF44CAF08466EE730F0004C3D
:1034300018BF31F0004CCAD130F000427FF45CAFCD
:1034400031F000437FF43CAF5FE700BF4FEA40023A
:10345000B2F1FE4F0FD34FF09E03B3EB12620DD9C2
:103460004FEA002343F0004310F0004F23FA02F02C
:1034700018BF404270474FF00000704712F1610FD3
:1034800001D1420205D110F0004008BF6FF00040AA
:1034900070474FF00000704710B5034C14B1AFF304
:1034A000008010BD204610BD000000000028B8BFFD
:1034B0004042704708B5084B04461BB10021AFF3EA
:1034C000008001E000F00CF804480068816A01B156
:1034D0008847204600F066FC0000000074400000B1
:1034E00070B5084B084C0025E01A841003EB8406E5
:1034F000043D1CB172599047013CF9E7BDE87040AA
:1035000000F058BC740000207800002038B50E4D43
:103510000E4B0024E81A8510AC4205D00B4951F837
:10352000242090470134F7E700F03EFC0849094A9F
:10353000541AA5100024AC4205D0054B53F82400C2
:1035400080470134F7E738BD70000020700000208C
:10355000700000207400002082180346934202D0BD
:1035600003F8011BFAE770470CB430B5164B0C1E7C
:103570009DB01D6804DA8B2028604FF0FF301EE0FC
:103580004FF40271ADF814100290069001D0601E45
:1035900000E020464FF6FF7204900790ADF8162029
:1035A00021AB209A284602A9019300F06FF8421C33
:1035B00001DA8B232B6014B1029A002111701DB027
:1035C000BDE8304002B070476C000020034613F89D
:1035D000012B002AFBD1181A013870472DE9F84356
:1035E0009368064689461446002B41D1928912F40D
:1035F000906F3DD0616903254D4323692768022000
:10360000FF1A95FBF0F5791C02F48062A94211B211
:10361000A8BF3D18304679B1294600F009FB804625
:10362000A0B13A46216900F05BFBA38923F49060C6
:1036300040F08002A28113E019462A4600F059FBAF
:10364000804668B93046216900F0AEFAA0890C23A3
:1036500040F0400233604FF0FF30A281BDE8F883B4
:1036600008EB07016561ED1BC4F810802160A560BF
:10367000A368002B06DD206800F8019BA26820608B
:10368000511EA1600020BDE8F88300002DE9F0473D
:103690009CB003938B890D4603F0800114460AB257
:1036A000064662B12B6953B9402100F0C1FA286087
:1036B000286110B90C213160D3E0402068610027F7
:1036C0002021302209978DF829108DF82A202346D1
:1036D0001F4613F8010B28B9B7EB040A16D04FF0B8
:1036E00000090DE02528F3D1F6E7304614F809105B
:1036F0002A46FFF773FF013000F0AC8009F10109A1
:10370000D145F2DB099901EB0A0209923B78002BC3
:1037100000F0A08000244FF0FF300494079405903F
:1037200006948DF853401A9407F101094F4F4C4607
:1037300038462178052200F0C5FA09F10109049BF9
:1037400030B1C41B012707FA04F73B430493EDE7AC
:10375000D90602D520218DF853101A0702D52B2245
:103760008DF8532020782A2802D0079B27460EE0A8
:10377000039A1768101D002F039001DB079704E0E0
:10378000794243F002030791049301340AE03C4676
:10379000217801373039092903D80A2404FB03139F
:1037A000F5E7079322782E2A19D160782A2809D1C3
:1037B000039802340368021D002B0392B8BF4FF038
:1037C000FF330BE0671C00233C462178013730397A
:1037D000092903D80A2404FB0313F5E70593244FB2
:1037E00021783846032200F06DFA38B1C71B40211A
:1037F00001FA07F1049B01340B43049314F8011BF5
:103800001C4806228DF8281000F05CFA88B11A4A8C
:1038100032B9039FFB1D23F007000830039014E02A
:1038200003A90091304604A92A46144BAFF3008047
:1038300007E003A8009004A930462A460F4B00F089
:103840008FF8B0F1FF3F804604D0099A02EB0801DF
:1038500009913CE7AB8903F0400002B20AB909982C
:1038600001E04FF0FF301CB0BDE8F0877840000069
:103870007E4000008240000000000000DD350000B6
:103880002DE9F047154699468A680B6980469A42A9
:10389000A8BF13462B6091F843000C46DDF820A02A
:1038A00008B1591C29602668B20602D52A68931C03
:1038B0002B60206810F0060618D094F8437020683A
:1038C0003E1C18BF012683061AD5A119302281F8A3
:1038D000432094F84530023681F8443010E04046E9
:1038E000617E4A46D047013006D00136E1682A6839
:1038F0008B1A9E42F3DBE0E74FF0FF30BDE8F08724
:103900000027B74209DAE119404691F843104A46C8
:10391000D0470130F0D00137F3E721682868E66826
:1039200001F00602042A08BFC0EB06052369A66859
:103930000CBF25EAE57500259E42C4BFC3EB060314
:10394000ED180026AE4207DA4046A17E4A46D0472F
:103950000130D1D00136F5E70020BDE8F087000046
:103960002DE9F0430C46257E85B06E2D9046074626
:1039700099460C9904F1430200F0AA8012D8632DF5
:1039800024D009D8002D00F0BB80582D40F0CB800A
:1039900084F84550824D57E0642D20D0692D40F0C9
:1039A000C2801CE0732D00F0AF8009D86F2D2FD09E
:1039B000702D40F0B880256845F0200626603FE075
:1039C000752D25D0782D40F0AE8039E0086804F1DF
:1039D0004206021D0A60016884F84210A7E02068D0
:1039E0000B6810F0800F02D01E1D0E6008E003F17E
:1039F000040510F0400F0D6002D0B3F9001000E094
:103A0000196800293CDA2D20494284F8430037E048
:103A100025680E6815F0800F02D0331D0B6007E09B
:103A200006F1040015F0400F086001D0318800E075
:103A30003168267E5A4D6F2E14BF0A2308231BE0DF
:103A40007820584D84F8450020680B6810F0800FEE
:103A500003F104060E6003D1410601D5198800E088
:103A60001968C60744BF40F02000206019B92068DB
:103A700020F0200323601023002084F8430001E09D
:103A8000474D0A236668002EA66003DB206820F0FD
:103A90000400206001B96EB104F14200B1FBF3FEF5
:103AA00003FB1E11695C064600F8011971460029E6
:103AB000F4D100E01646921B082B22613CD123680A
:103AC000D80739D56068904236DC511C616033E01C
:103AD00026680B6816F0800F05D01E1D0E60196851
:103AE000606908600CE003F1040016F0400F086004
:103AF00003D018686369038002E061691E68316061
:103B000000232361164617E00E68321D0A603668EE
:103B10003046FFF75BFD63682061984288BF2361F0
:103B20002069606005E004F1420684F842500123F8
:103B30002361002184F84310CDF8009038462146D7
:103B400003AA4346FFF79CFE013002D14FF0FF303D
:103B500022E000252269954207DA3846715D424627
:103B6000C8470130F2D00135F4E72168890705D450
:103B7000E06803998842B8BF08460DE00025E06878
:103B8000039BC21A9542F3DA3846617E4246C84723
:103B90000130DBD00135F2E705B0BDE8F08300BFAE
:103BA000894000009A40000030B500293CD051F80F
:103BB000042C0B1F1D49002AB8BF9B180A6812B9B4
:103BC0005A600B6030BD93420ED21968581890426B
:103BD00003D15A5889184268196014485A60036022
:103BE00030BD994203D80A4651680029F9D11468BA
:103BF00015199D420AD118682318D01888421360FD
:103C000012D108681B1813604B680CE002D90C2312
:103C1000036030BD18681C188C4203D10C684968D9
:103C2000001918605960536030BD00BFA400002027
:103C300070B5CD1C25F0030508350C2D38BF0C25BB
:103C4000002D06462DDB8D422BD31D4B1B681C46D9
:103C50009CB12268501B0DD40B2802D92060241877
:103C600017E0A34203D16068154A10601DE0616847
:103C700059601AE023466468EAE72946304600F0B6
:103C80005DF8431C01460CD0CC1C24F003048C428C
:103C900001D1256009E03046611A00F04FF801308B
:103CA000F7D10C203060002070BD04F10B01231D02
:103CB00021F00700C31A02D05A42E25070BD70BD15
:103CC000A400002010B5C9B20346821893421846DA
:103CD00004D0047801338C42F8D100E0002010BDFC
:103CE00010B50023934203D0CC5CC4540133F9E7F0
:103CF00010BDF8B5064615460C4621B91146BDE87B
:103D0000F840FFF795BF1AB9FFF74EFF2C4612E0B7
:103D100000F024F8A8420ED230462946FFF788FF6B
:103D2000074638B121462A46FFF7DAFF30462146DA
:103D3000FFF73AFF3C462046F8BD000038B5064C78
:103D4000002305460846236000F012F8431C02D108
:103D5000216801B1296038BDB000002051F8040C81
:103D6000002802DA04390B58C018043870470000E4
:103D7000094A13686BB118186946884202D8106066
:103D800018467047054B0C221A604FF0FF33184657
:103D90007047034B1360EEE7A8000020B00000203E
:103DA000B8000020FEE700BFF8B500BFF8BC08BCB3
:103DB0009E467047F8B500BFF8BC08BC9E467047E9
:103DC0002532642C25316425254600002532642CDB
:103DD00025316425254300003F0006005B004F00AD
:103DE00066006D007D0007007F006F0077007C009B
:103DF00039005E00790071004000000001010507F4
:103E0000070304020302040605060D0E0E0E0D0D37
:103E10000D0D0E0E0E0E0D0D010105070703040218
:103E20000302040605060F1010100F0F0F0F1010DD
:103E300010100F0F01010507070304020302040617
:103E40000506111212121111111112121212111172
:103E50000101050707030402030204060506131CFB
:103E60001C1C131313131C1C1C1C1313000105072B
:103E7000060203010302040604051D1E1E1E1D1D6D
:103E80001D1D1E1E1E1E1D1D00010507060203012D
:103E90000302040604051F2020201F1F1F1F2020CF
:103EA00020201F1F01010507070304020302040667
:103EB0000506212222222121212122222222212122
:103EC00007050201030604232323232323230705D5
:103ED00002010306042424242424242407050201C7
:103EE00003060425252525252525070502010306AA
:103EF000042626262626262600010702062727272F
:103F000027270000000000000000131211100F0E00
:103F10000D0C0000000021252426000001000000F7
:103F2000000000000300000002000000000000008C
:103F30000300000004000000000000000500000075
:103F40000000000000000000070000000500000065
:103F50000600000007000000070000000400000049
:103F60000C00000020000000270000000C000000F2
:103F70001C0000000C0000000C0000001E000000EF
:103F80002700000022000000230000000C000000B9
:103F90000C0000000C0000001D0000001F000000CD
:103FA0002700000001000000030040000C0000009A
:103FB000000000000000000000000011800200006E
:103FC000000002060000200039000F00000040152C
:103FD00000204004001000223F0006005B044F0454
:103FE00066046D047D0407007F046F040000000078
:103FF000000A000080200000FFFF7704790A3900E2
:10400000B020790071007D04760406000E00700A6D
:104010003800B602B6083F0073043F08730C6D0405
:1040200001113E0030223628802A6E040922390010
:1040300080080F0001000800000158107C0458009F
:104040005E04582071040C0C740404000E00700C03
:104050003800541454045C04730467045004080CBE
:1040600078001C0010201428802A0C08482000002A
:104070004300000008000020232D302B2000686C36
:104080004C0065666745464700303132333435367B
:1040900037383941424344454600303132333435B4
:1040A00036373839616263646566000000000000DD
:0840B000A4C0FF7F0100000025
:1040B80000800000006CDC0200000000000000002E
:1040C80000000000000000000000000000000000E8
:1040D8000000000000000000704000000000000028
:1040E80000000000000000000000000000000000C8
:1040F80000000000000000000000000000000000B8
:1041080000000000000000000000000000000000A7
:10411800000000000000000000000000080000206F
:08412800250100000101000067
:0400000300002401D4
:00000001FF
