:100000000010002081320000B3320000B532000041
:10001000B1320000B1320000B1320000B132000054
:10002000B1320000B1320000B1320000B73200003E
:10003000B1320000B1320000B932000009120000F4
:10004000BD320000BF320000C1320000C3320000E8
:10005000C5320000D5010000C9320000CB320000DB
:10006000CD320000CF320000D1320000D332000088
:1000700099260000D7320000D9320000DB320000A0
:10008000DD32000000000000000000000000000061
:100090000000000000000000000000000000000060
:1000A0000000000000000000000000000000000050
:1000B0000000000000000000000000000000000040
:1000C0000000000000000000000000000000000030
:1000D0000000000000000000000000000000000020
:1000E0000000000000000000000000000000000010
:1000F0000000000000000000000000000000000000
:1001000010B5064C2378002B07D10548002802D0F3
:10011000044800E000BF0121217010BD98000020BC
:1001200000000000D065000008B5084B002B03D08C
:100130000748084900E000BF07480168002903D0CC
:10014000064A002A00D0904708BDC04600000000C3
:10015000D06500009C0000209800002000000000F6
:10016000164B002B00D1144B9D46402292029A1A46
:10017000924600218B460F461348144A121A04F087
:1001800066FA0F4B002B00D098470E4B002B00D087
:1001900098470020002104460D4600200C4900220B
:1001A000002304F0BBF804F0D9F92046294601F0F9
:1001B00033F804F0BFF8C04600000800001000202B
:1001C000000000000000000098000020EC03002068
:1001D0003145000008B5034801F024FD024B1870BA
:1001E00008BDC04600A000404C02002030B5164BB0
:1001F00085B06A4623CB23C21B686C461360134B41
:100200001348029301210223237301F0C3F911481B
:10021000012101F0BFF91048012101F0BBF90420D0
:100220000C210822012301F037FC082204200D21B3
:10023000012301F031FC0948094B6946836301F051
:1002400095FC05B030BDC04658530000801A06002A
:10025000007202001081020000B2020000A0004003
:100260000306000010B588B003AC2180082161802E
:1002700001A90A7002AA04911370211C0123238191
:100280002382069201F058FE044B1870044801F0D6
:10029000C9FC0028FAD108B010BDC0464C020020AD
:1002A00000A0004030B589B003AC21801D1C02A91C
:1002B00004230A706380012200AB0491211C069381
:1002C0002281228201F038FE054B1870054801F0AA
:1002D000A9FC0028FAD16A4613782B7009B030BD0A
:1002E0004C02002000A0004010B5814CFFF77EFFBB
:1002F000D02119220123201CFFF7B4FFD0211A229C
:100300000323201CFFF7AEFFD0211B220423201C57
:10031000FFF7A8FFD0211C220423201CFFF7A2FF17
:10032000D0211D220023201CFFF79CFFD0211E227C
:100330000023201CFFF796FFD0211F220023201C42
:10034000FFF790FFD02120220023201CFFF78AFF17
:10035000D02121220023201CFFF784FFD02122225C
:100360000023201CFFF77EFFD02123220023201C26
:10037000FFF778FFD02124220023201CFFF772FF13
:10038000D02125220023201CFFF76CFFD02126223C
:100390000023201CFFF766FFD02127220023201C0A
:1003A000FFF760FFD02128220023201CFFF75AFF0F
:1003B000D02129220023201CFFF754FFD0212A221C
:1003C0000023201CFFF74EFFD0212B220023201CEE
:1003D000FFF748FFD0212C220023201CFFF742FF0B
:1003E000D0212D220023201CFFF73CFFD0212E22FC
:1003F0000023201CFFF736FFD0212F220023201CD2
:10040000FFF730FFD02130220023201CFFF72AFF06
:10041000D02131220023201CFFF724FFD0213222DB
:100420000023201CFFF71EFFD02133220023201CB5
:10043000FFF718FFD02134220023201CFFF712FF02
:10044000D02135220023201CFFF70CFFD0213722BA
:100450000023201CFFF706FFD02138220023201C98
:10046000FFF700FFD02163220023201CFFF7FAFED4
:10047000D02164220023201CFFF7F4FED021652246
:100480000023201CFFF7EEFED02166220023201C53
:10049000FFF7E8FED02167220023201CFFF7E2FED1
:1004A000D02168220023201CFFF7DCFED021692226
:1004B0000023201CFFF7D6FED0216A220023201C37
:1004C000FFF7D0FED0216B220223201CFFF7CAFECB
:1004D000D0216C220023201CFFF7C4FED0217422FF
:1004E0000023201CFFF7BEFE024804F0B9F810BD3F
:1004F00000A000406853000010B584B06C46002393
:10050000E3730F34012300930948231CD021752283
:10051000FFF7C8FE2378682B03D0064804F0A0F844
:10052000FEE76821044804F09BF804B010BDC04603
:1005300000A00040B053000080530000F0B585B02B
:1005400002AC0023237001230093D021E948192233
:10055000231CFFF7A7FE2178012900D123E2E648FA
:1005600004F07EF80125012601230093D021E14803
:100570001A22231CFFF796FE2178032904D0DF48B6
:1005800004F06EF80125012601230093D021D948FB
:100590001B22231CFFF786FE2178042904D0D848AB
:1005A00004F05EF80125012601230093D021D148F3
:1005B0001C22231CFFF776FE2178042904D0D148A1
:1005C00004F04EF80125012601230093D021C948EB
:1005D0001D22231CFFF766FE2178002900D0E5E1EB
:1005E00001230093D021C3481E22231CFFF75AFE8B
:1005F0002178002900D0FDE101230093D021BD48DE
:100600001F22231CFFF74EFE2178002900D0EBE1CA
:1006100001230093D021B7482022231CFFF742FE7C
:100620002178002900D0FDE101230093D021B148B9
:100630002122231CFFF736FE2178002900D0EBE1B0
:1006400001230093D021AB482222231CFFF72AFE6E
:100650002178002900D0D9E101230093D021A548B9
:100660002322231CFFF71EFE2178002900D0C7E1BA
:1006700001230093D0219F482422231CFFF712FE60
:100680002178002900D0FDE101230093D021994871
:100690002522231CFFF706FE2178002900D0EBE17C
:1006A00001230093D02193482622231CFFF7FAFD53
:1006B0002178002900D0D9E101230093D0218D4871
:1006C0002722231CFFF7EEFD2178002900D0C7E187
:1006D00001230093D02187482822231CFFF7E2FD45
:1006E0002178002900D0B5E101230093D021814871
:1006F0002922231CFFF7D6FD2178002900D0A3E191
:1007000001230093D0217B482A22231CFFF7CAFD36
:100710002178002900D091E101230093D021754870
:100720002B22231CFFF7BEFD2178002900D07FE19A
:1007300001230093D0216F482C22231CFFF7B2FD28
:100740002178002900D0FDE101230093D0216948E0
:100750002D22231CFFF7A6FD2178002900D0EBE114
:1007600001230093D02163482E22231CFFF79AFD1A
:100770002178002900D0D9E101230093D0215D48E0
:100780002F22231CFFF78EFD2178002900D0C7E11E
:1007900001230093D02157483022231CFFF782FD0C
:1007A0002178002900D0B5E101230093D0215148E0
:1007B0003122231CFFF776FD2178002900D0A3E128
:1007C00001230093D0214B483222231CFFF76AFDFE
:1007D0002178002900D091E101230093D0214548E0
:1007E0003322231CFFF75EFD2178002900D07FE132
:1007F00001230093D0213F483422231CFFF752FDF0
:100800002178002900D06DE101230093D0213948DF
:100810003522231CFFF746FD2178002900D05BE13B
:1008200001230093D02133483722231CFFF73AFDE0
:100830002178002900D049E101230093D0212D48DF
:100840003822231CFFF72EFD2178002900D037E144
:1008500001230093D02127486322231CFFF722FDA8
:100860002178002900D025E101230093D0212148DF
:100870006422231CFFF716FD2178002900D013E124
:1008800001230093D0211B486522231CFFF70AFD9A
:100890002178002900D001E101230093D0211548DF
:1008A0006622231CFFF7FEFC2178002900D0EFE030
:1008B00001230093D0210F486722231CFFF7F2FC8D
:1008C0002178002900D089E001230093D021094834
:1008D0006822231CFFF7E6FC2178002900D077E08E
:1008E00001230093D02103486922231CFFF7DAFC7F
:1008F000217809E000A00040D85300001454000003
:10090000505400009054000000295BD10123009353
:10091000D0218F486A22231CFFF7C4FC21780029CC
:100920004AD101230093D02189486B22231CFFF771
:10093000B9FC2178022904D0864803F091FE0125F4
:1009400001260127D021009781486C22231CFFF744
:10095000A9FC217800290FD1D02100977C4874226E
:10096000231CFFF79FFC2178002912D1002E14D1FF
:10097000794803F075FE13E0784803F071FED0214A
:10098000009773487422231CFFF78CFC2178002900
:1009900002D0734803F064FE0125724803F060FE44
:1009A000281C05B0F0BD00250026DDE56E4803F0EB
:1009B00057FE0125012613E66C4803F051FE012580
:1009C0000126AEE76A4803F04BFE012501269DE7AC
:1009D000684803F045FE0125012681E7664803F0DB
:1009E0003FFE012501266FE7644803F039FE01252B
:1009F00001260DE6624803F033FE01250126FBE5E2
:100A0000604803F02DFE0125012631E65E4803F023
:100A100027FE012501261FE65C4803F021FE012583
:100A200001260DE65A4803F01BFE01250126FBE5D1
:100A3000584803F015FE0125012679E6564803F0D3
:100A40000FFE0125012667E6544803F009FE012543
:100A5000012655E6524803F003FE0125012643E630
:100A6000504803F0FDFD0125012631E64E4803F014
:100A7000F7FD012501261FE64C4803F0F1FD012595
:100A800001260DE64A4803F0EBFD01250126FBE5B2
:100A9000484803F0E5FD0125012609E7464803F033
:100AA000DFFD01250126F7E6444803F0D9FD0125C5
:100AB0000126E5E6424803F0D3FD01250126D3E6F1
:100AC000404803F0CDFD01250126C1E63E4803F074
:100AD000C7FD01250126AFE63C4803F0C1FD012515
:100AE00001269DE63A4803F0BBFD012501268BE671
:100AF000384803F0B5FD0125012679E6364803F0B4
:100B0000AFFD0125012667E6344803F0A9FD012564
:100B1000012655E6324803F0A3FD0125012643E6F0
:100B2000304803F09DFD0125012631E62E4803F0F3
:100B300097FD012501261FE62C4803F091FD0125B4
:100B400001260DE62A4803F08BFD01250126FBE571
:100B500000A00040045D0000B85D0000405D0000A2
:100B60007C5D0000D85D0000D0540000C85C00002F
:100B70008C5C0000505C0000145C000048550000D4
:100B80000C55000038560000FC550000C055000010
:100B90008455000018580000DC570000A0570000E2
:100BA0006457000028570000EC560000B0560000C3
:100BB00074560000D85B00009C5B0000605B000086
:100BC000245B0000E85A0000AC5A0000705A000094
:100BD000345A0000F8590000BC5900008059000048
:100BE0004459000008590000CC58000090580000FB
:100BF0005458000000000000F0B5644B624A5646AD
:100C00004D465F464446F0B46349644E644D0A6005
:100C10004B602A606B6032607360624A012385B06A
:100C20008B46B2469146984644460094D0214322D2
:100C30005D4B5E48FFF736FB0094D02144225C4BAD
:100C40005A48FFF72FFB0094D0214522594B5748B3
:100C5000FFF728FB0094D0214622574B5348FFF75B
:100C600021FB0094D0214722544B5048FFF71AFB38
:100C700048220094D021524B4C48FFF713FB4A4EB8
:100C80004B4C307823780002184303F0EFFA2A68BF
:100C90006B6802F02BFC474E474C02900391286092
:100CA000696030782378000218435E4603F0DEFA6C
:100CB0003268736802F01AFC404C061C2078404CE5
:100CC0000F1C237859460002544618430E604F60AB
:100CD00003F0CCFA2268636802F008FC01235B424F
:100CE0009944206061604C46002C9DD1029C039D7C
:100CF000274A284B02900391201C291C02F0A6FFD2
:100D000003F080FA2F4B3049814688461880391C01
:100D10001F4A204B301C02F099FF03F073FA424641
:100D200010801B4A1B4B0298039902F08FFF03F0BF
:100D300069FA264E291C3080201C03F063FA4B46CA
:100D40001AB2011C5C46224803F08AFC20686168E4
:100D500003F058FA434600229A5E011C54461D488F
:100D600003F07EFC2068616803F04CFA0023F25E19
:100D7000011C194803F074FC05B03CBC9046994630
:100D8000A246AB46F0BDC0460000000000000000D7
:100D9000000000000088B340F80000200801002097
:100DA000F0000020881300000800002000A0004090
:100DB0000B000020000000200100002003000020A4
:100DC00004000020B60000201001002014010020C3
:100DD000F85D0000245E0000505E0000C046C04682
:100DE000F0B5644B624A56464D465F464446F0B401
:100DF0006349644E644D0A604B602A606B603260E8
:100E00007360624A012385B08B46B246914698468C
:100E100044460094D0213B225D4B5E48FFF742FAE6
:100E20000094D0213C225C4B5A48FFF73BFA0094D7
:100E3000D0213D22594B5748FFF734FA0094D02176
:100E40003E22574B5348FFF72DFA0094D0213F2202
:100E5000544B5048FFF726FA40220094D021524BC1
:100E60004C48FFF71FFA4A4E4B4C3078237800026B
:100E7000184303F0FBF92A686B6802F037FB474E12
:100E8000474C029003912860696030782378000213
:100E900018435E4603F0EAF93268736802F026FBF5
:100EA000404C061C2078404C0F1C23785946000209
:100EB000544618430E604F6003F0D8F92268636807
:100EC00002F014FB01235B429944206061604C46B0
:100ED000002C9DD1029C039D274A284B0290039130
:100EE000201C291C02F0B2FE03F08CF92F4B304974
:100EF000814688461880391C1F4A204B301C02F05E
:100F0000A5FE03F07FF9424610801B4A1B4B029856
:100F1000039902F09BFE03F075F9264E291C3080E0
:100F2000201C03F06FF94B461AB2011C5C462248A4
:100F300003F096FB2068616803F064F943460022E1
:100F40009A5E011C54461D4803F08AFB20686168C4
:100F500003F058F90023F25E011C194803F080FBEE
:100F600005B03CBC90469946A246AB46F0BDC04693
:100F70000000000000000000000000000088B340F6
:100F8000D0000020E0000020C000002088130000F6
:100F90000700002000A00040020000200500002003
:100FA00006000020090000200A000020B4000020F4
:100FB00000010020D8000020F85D0000245E000041
:100FC000505E0000C046C046F0B55F4656464D46EE
:100FD0004446F0B43648374C83B00125834600952B
:100FE0005B46201CD0213B22FFF75CF9324A00957A
:100FF00092465346201CD0213C22FFF753F92F4B39
:101000000095201CD0213D229946FFF74BF92C4832
:10101000009580464346201CD0213E22FFF742F92E
:10102000284F00953B1C201CD0213F22FFF73AF9A6
:10103000254E0095331C201CD0214022FFF732F9A9
:101040005A46117850460378090219431F4B4A4605
:101050001B884046C91A1E4B89B219801378027842
:101060001B0213431B4A1C4D12881C4C9B1A2B80DD
:101070001B4B8022188892013B78121A30781B0291
:101080000343D31809B21748238003F0E9FA00227A
:10109000A95E154803F0E4FA0023E15E134803F06B
:1010A000DFFA03B03CBC90469946A246AB46F0BD81
:1010B0000700002000A000400200002005000020E2
:1010C00006000020090000200A000020B4000020D3
:1010D000BA00002000010020DA000020E800002013
:1010E000D80000207C5E0000905E0000A45E00003E
:1010F000F0B55F4656464D464446F0B43348344C4E
:1011000083B00125834600955B46201CD0214322F5
:10111000FFF7C8F82F4A009592465346201CD0216D
:101120004422FFF7BFF82C4B0095201CD02145220C
:101130009946FFF7B7F82948009580464346201C9A
:10114000D0214622FFF7AEF8254F00953B1C201C0E
:10115000D0214722FFF7A6F8224E0095331C201C11
:10116000D0214822FFF79EF85A461178504603785E
:10117000090219431C4B4A461980404613780278ED
:101180001B021343194A1A4D12881A4C9B1A2B80C2
:101190003B7832781B021343174A09B2128817486A
:1011A0009B1A238003F05CFA0022A95E144803F026
:1011B00057FA0023E15E134803F052FA03B03CBC37
:1011C00090469946A246AB46F0BDC04608000020B6
:1011D00000A000400B0000200000002001000020C3
:1011E0000300002004000020120100201001002054
:1011F000B8000020C800002014010020BC5E0000E0
:10120000C85E0000D45E0000024B1A6801321A600A
:101210007047C0465002002070B5234800F0FEF928
:10122000FA21890002F012F9204B0138984200D9C6
:10123000FEE71F4B1F4A5860106AC0210002000AD7
:1012400009060143116200229A6007221A6000F029
:101250009FFF01F0A7FA002800D0FEE7164803F030
:10126000FFF9164C164B22682168891A9942FBDD5A
:10127000144E154D301C03F0F3F9FFF735F8FFF766
:101280003BF9FFF75BF9FFF7B7FCFFF7A9FDFFF7A5
:101290002FFFFFF799FE226823689B1AAB42FBDD04
:1012A000301C03F0DDF9F2E720000400FFFFFF002F
:1012B00010E000E000ED00E0E05E000050020020E1
:1012C000CF070000005F0000F301000000B5FEE75B
:1012D00008B50F2203091340022B1FD008D8012B99
:1012E00022D0B8211A488900FFF7F0FF012008BD7D
:1012F000032B0AD0042BF4D1164B984220D014486B
:101300001549FFF7E3FF0120F1E7144B984211D094
:101310000F481349FFF7DAFF0120E8E7114B58683F
:10132000024001209040E2E70E4988680240181C04
:101330009040DCE70B4B986E024001209040D6E7CE
:10134000084B03201B6F184001238340181CCEE775
:10135000885F000040051400D90200003004080036
:10136000BF02000000800C40030670B51B0F0C1C70
:10137000022B1DD006D8012B50D076487649FFF7B6
:10138000A5FF70BD032B09D0042BF6D1734B9842F7
:1013900072D070487249FFF799FFF2E7714B98429B
:1013A00000D18DE0E3216B488900FFF78FFFE8E76C
:1013B00080239B00994200D9ADE06B4B07225B680C
:1013C000111C1940012940D9674A5360674B621EBE
:1013D0009A4200D99AE0002C00DAA8E080231B068C
:1013E00000225B0801322342FBD01F20801A604B91
:1013F0000F215A688A4302435A6001F071FF5D4A27
:10140000594B81185C4A5B68914200D988E00722F9
:10141000934301221343544A5360B2E7574B4D1E86
:101420009D421CD8002C00DA83E080231B0600229A
:101430005B0801322342FBD01F20801A4C4B0F2146
:101440009A688A4302439A609BE7934301221343BD
:10145000454A5360454B621E9A42BCD956E03D4E08
:101460004749301CFFF732FF404B9D42DAD9301C10
:101470008821FFF72BFFD5E7082903D935484149D3
:10148000FFF724FF3A494B6DDA0703D440220B6D76
:101490001A42FCD1354B621E9A424CD8002C56DBC6
:1014A00080231B0600225B0801322342FBD01F2051
:1014B000801A2F4B03211A6F8A4302431A6760E791
:1014C00080231B02994203D922482F49FFF7FEFED1
:1014D00027494B6DDA0703D404220B6D1A42FCD165
:1014E000224B621E9A422BD8002C2EDB80231B0637
:1014F00000225B0801322342FBD01F20801A1C4BC4
:101500000F219A6E8A4302439A663AE7114888216E
:10151000FFF7DCFE5FE70F481C49FFF7D7FE4CE7FB
:101520001B4A904200D976E70722934373E71F20B6
:101530005DE71F2082E707488821FFF7C7FEADE778
:1015400004488821FFF7C2FECEE71F20D7E71F20FF
:10155000AFE7C046885F0000B903000040051400F3
:10156000B30300003004080000000C40FF7F0000BF
:1015700000800C40FFDB0BFFFF23F400FF010000A5
:101580001B03000096030000520300002303000029
:101590000024F400030570B51B0F062B04D9154871
:1015A0001549FFF793FE70BD144A9B00D3589F4620
:1015B000134AC003C00E136801248440A343814032
:1015C000181C08431060EEE70E4AF2E70E4AF0E7F7
:1015D0000E4AEEE70E4A01240E4DC0036B6DC00E9D
:1015E000DE07E8D42B6D2342FCD1E4E710240A4A3D
:1015F000F2E7C046885F00000E040000045F0000B0
:1016000078800C4008800C4044800C4040800C40A6
:1016100058800C4000800C4060800C4008B5F823D6
:101620009B03184080231B03984200D187E022D9F6
:10163000A0235B0398424AD027D9C0235B0398427A
:1016400000D16EE0D0235B03984222D15D4BE021B4
:101650005B69C90080220B409200934200D1ACE04C
:1016600000D882E0C0229200934200D1A3E08B42D6
:1016700014D1554808E080239B02984257D00FD8D8
:10168000002806D101F084FE08BD90235B03984238
:1016900033D097214D48C900FFF718FE0020F3E72B
:1016A0008023DB02984239D0C023DB029842F0D17C
:1016B000444A0321936A0B40022B6BD0032B65D065
:1016C000012B5AD0936A00201B0CDDD023E03D4A49
:1016D000936A1B079B0F022B5FD0032B60D0012B5B
:1016E0004ED0936A00201B0D01D001F0A5FE354BB2
:1016F00003221B6F1340D840C6E7324A936A1B0788
:101700009B0F022B46D0032B40D0012B35D0936A80
:1017100000201B0DB8D001F08FFEB5E701F0E0FD11
:10172000B2E72A482A49FFF7D1FD0020ACE701F0D3
:101730002FFE244B0F229B681340D840A4E7214A78
:101740000321936A0B40022B32D0032B2CD0012BA8
:1017500019D0936A00201B0C01D001F06DFE194BCB
:101760000F229B6E1340D8408EE7002B27D080229B
:101770005200934292D1174886E701F059FE83E761
:1017800001F056FEB3E701F053FEE8E701F0A8FDD3
:10179000400879E701F054FE76E701F051FEA6E734
:1017A00001F09EFD4008A2E701F09AFD4008D6E74F
:1017B00001F046FED3E7084866E7084864E70848B2
:1017C00062E7C04600800C40406F4001885F000027
:1017D00061010000C0D8A70040420F00C0CF6A00DE
:1017E000809FD50008B50F23184002281DD007D8C8
:1017F000012829D021482249FFF768FD002008BDB3
:10180000032803D00428F5D10120F8E71D4A0C2154
:10181000936A0B40082B2DD00C2B2DD0042B27D0F6
:10182000936A0920DA02EAD4EEE7164A0321936AA2
:101830000B40022B1ED0032B1ED0012B18D0936A15
:101840000920DA03DBD4DFE70E4BF020DB6A8001EE
:10185000184080235B0198420AD080239B01984264
:1018600008D0094A8018434243410520C01AC6E700
:101870000320C4E70220C2E70620C0E7885F00001B
:101880005605000000800C4000F8FFFF38B50F241B
:101890000440012C0FD0002C04D14F484F49FFF7D2
:1018A00015FD38BD032CF8D809290FD94A484C49F1
:1018B000FFF70CFDF5E7092904D947484949FFF727
:1018C00005FDEEE7484B89005B589F46474B890072
:1018D0005B589F46464B042219680A431A6003214D
:1018E0000C220023022C6FD0424B4349986A0140DE
:1018F0000A439A62D5E73F4940230B628022CB6AB4
:101900001A42FCD000F0BEF8042200230121E9E7CE
:101910008022802352035B020021E3E72E483749EF
:10192000FFF7D4FC03250123022232490B62CB6A64
:101930001342FCD000F0A6F8314B07225B68111C63
:101940001940012902D89343012213432C4C6360B0
:10195000284B5D6200F096F801F0C2FC294A6368EA
:101960008118294A914229D807229343012213431F
:10197000234A536095E71F4980235B0080220B6256
:101980009200CB6A1342FCD000F07CF808220023BE
:101990000221A7E7002200230021A3E70125C2E7D7
:1019A000022504230822C0E7032540238022BCE748
:1019B0008023802204255B009200B6E7134A904200
:1019C000D6D807229343D3E70A4A0B43906A1049BB
:1019D00008400343936264E7885F000073060000D9
:1019E00011060000C7050000205F0000485F0000EE
:1019F00040800C4000800C40F3FFEFFFC205000068
:101A000000000C40FFDB0BFFFF23F4000024F40078
:101A1000FCFFFEFF08B5052804D916481649FFF754
:101A200055FC08BD154B80001B589F4610232020F5
:101A3000002910D012490B62002A03D00A1CD36A75
:101A40000342FCD000F01EF8EBE7802380205B000F
:101A500080000029EED10A4B186200F013F8E0E78D
:101A600040238020E4E704230820E1E7012302204B
:101A7000DEE7C046885F0000F7070000705F0000E7
:101A800000800C40024BDA6A024B1A807047C04655
:101A900000800C4016010020F8B54F464646C0B401
:101AA000041C0D1C161C1F1C052833D80F2931D807
:101AB000E200002E09D0E20001211319A9409B0089
:101AC000002F42D025481B18196113199B00072DC0
:101AD00025D822495B185868A90081460F20884004
:101AE0008846494681438C46301C414688406146C1
:101AF00001435960002E09D10123AB4012191D1C6E
:101B00009200002F25D11648121853600CBC904645
:101B10009946F8BD1348CC21FFF7D8FBC8E70F481A
:101B20001B189968894610496818800080460F2064
:101B3000011C404681404846884384464146301C4B
:101B40008840614601439960D4E705481B185960F5
:101B5000BBE7024BD2181561D8E7C04600600040D1
:101B6000106000409C5F0000F8FFFF3FF8B5264B77
:101B7000041C0D1C984204D08F2124484900FFF713
:101B8000A5FB00236363224B022223632368697849
:101B9000934301224A40520013432360AE686868B1
:101BA0002F7B002E27D022681A4B13402360236816
:101BB0003A0213432360002822D0B300C01A164B08
:101BC000D95D714301F042FC2368061C9A070AD5CF
:101BD000002808D1012626612368012293432A7830
:101BE00013432360F8BD0D4B9E42F4D90748F821FA
:101BF000FFF76CFBEFE70548DC21FFF767FBEBE73E
:101C00000748FFF70BFDD8E700A00040D85F0000B1
:101C1000CFFF0100FFFCFFFFD45F0000FF010000C9
:101C200010810200F0B55F4656464D464446F0B47A
:101C3000BC4B83B098420CD0BB48BC49FFF746FB75
:101C40000420404203B03CBC90469946A246AB46B5
:101C5000F0BDB74BB7495E888946B446802240261E
:101C600004219F681C781D799246B0468B46826A93
:101C7000C021C900114000D008E1082C0BD96246F0
:101C80005A80FB225A7009221D711A70A54B05203B
:101C900059634042D6E7A1004E467658B746072121
:101CA000644619705C801D71960619D5ED007F1988
:101CB0009C483A895988C4698A4200D8DCE07D682A
:101CC0006C54013189B259808A4200D8D4E004238F
:101CD0004360012A04D0013A914201D108234360B4
:101CE0000120AFE75146114200D0E2E044461442E1
:101CF00000D0A6E0062266461A705E801D710120A3
:101D0000A0E7EA00BA181189614500D9E2E07988B4
:101D100001358C4662465946EDB2114000D09FE035
:101D20000126324000D0F9E0012D00D8ABE05A8006
:101D30001D7108221A707B4B02225A60012081E734
:101D40005646164200D0C2E04146114200D1CEE0D4
:101D5000424602637A887349D40600D5D5E09407D9
:101D600070D51D7166460722ED005E801A707F19DE
:101D70003B89012BB4D108234B60012062E7604608
:101D800058801D717988CA065ED53A880620120AE5
:101D90000240F02002434C0701D501210A430421EF
:101DA0001970604B0121596001205A624AE70821ED
:101DB000197080216046490058801D710A428FD0F9
:101DC000584A1163587809221A705649002240B2C5
:101DD0004A63012800D035E75A70002032E7604698
:101DE00058801D717A88D10632D539880622090AB1
:101DF0001140F022114301221A704A4B012059620E
:101E00005A601FE75646164261D14146114275D0CD
:101E100001637A885E46164214D0604607225880D5
:101E20001D711A7001200DE75146114241D14446FF
:101E3000144219D1022266461A705E801D7101207B
:101E400000E70463052412E73A88FE200240A2E777
:101E50003988FE2001409407CDD501221143CAE7FD
:101E600000218C46032402E704637A880324960742
:101E700000D5FCE60524FAE6012A00D059E7294AF4
:101E80000821516055E700229446F0E664465C80E4
:101E90001D71960505D5FD225A70FD2009221A7084
:101EA00093E7500501D45878F8E7FE225A70FE20D7
:101EB000F4E762465A801B4A80211D711163FF219D
:101EC000597008211970022353600120BAE6604658
:101ED0005880F0E752686046115C124A1D715162E9
:101EE000624601325A8006221A700120AAE60122B7
:101EF0001A7062465A801D710120A3E604221A70EE
:101F000062465A801D7101209CE6664602225E8070
:101F10001D711A703B7801204B6293E659801D7148
:101F200007E7C04600A00040D85F00007101000034
:101F300018010020B05F000038B51F4B051C0C1CB9
:101F4000984203D01D481E49FFF7C0F9002C2ED03F
:101F5000194B9D4229D1AB68D90701D520236B606D
:101F600063889A0702D52289002A1ED0590702D514
:101F7000238A002B19D0134B002201211A711A70E9
:101F80005A8059709C600C4BC0225A609A6A910624
:101F900009D409480C4B0363FC23DB004363FFF7C0
:101FA00041FE40B238BDDB69F3E7FC20F9E70348A6
:101FB0000649FFF78BF9CBE700A00040D85F00008F
:101FC000EA02000018010020CFFF0100EB02000030
:101FD00038B5041C0D1C01280CD90848A721FFF7AF
:101FE00075F9002C02D1064B1D6038BD012CFCD1C7
:101FF000044BF9E70B0EF4D0EFE7C046EC5F0000AE
:10200000080008400C000840034B01211A688A436D
:10201000104318607047C0460000084000B5002813
:1020200002D1034B186200BD014B01221A62FAE78C
:1020300000000840427800B50378002A01D002224F
:1020400013438278002A01D004221343014A13600B
:1020500000BDC04600000840F8B53A4B041C0D1CFA
:10206000984255D0384E3949301CFFF72FF9301CB3
:102070003749FFF72BF9374B374AE36000232360DA
:102080006260364AA3606361E364A2646365A3652A
:102090002A8A01231343AA7B2168501E824192029F
:1020A0000B4313432360AB7C21685A1E93412A7D66
:1020B0001B01501E824152070B43134323602A7BAE
:1020C00080235B01AE68134363606F68002E34D0D9
:1020D000002F2DD0701E7F00311CC01901F0B6F901
:1020E0008601403EFF23321C9A431D4B9A4204D97D
:1020F000F22115484900FFF7E9F81A4B1E406661C6
:102100006B7B002B01D01023E3602B78E360F8BDDC
:10211000104B114AC3600023036042600F4A836082
:102120004361C3648264436503658365C365AFE748
:102130000D48FFF773FA071CCCE703480B49FFF77C
:10214000C5F8C5E700C4004000600000620200005E
:102150002E030000AA0E000005100000F91F000069
:10216000C0FF1F0000FF1F0010810200B50100002A
:1021700000B5402203691A42FCD0416300BDC0464D
:1021800000B5402203691A42FCD0C16300BDC046BD
:102190000A4B10B51A78002A0ED1094C01221A7088
:1021A0002368002B08D0043402E008CC002B03D0B5
:1021B00098470028F9D010BD0020FCE75801002006
:1021C0000C00002008B50A4B1B78002B01D10948F0
:1021D00008BD002801DD0848FAE72C235843074BC7
:1021E0002C221B18081C191C02F028FA0020EFE70B
:1021F0005801002005001180020011802C010020F0
:1022000008B50C4B011C1B78002B01D10A4808BDF6
:102210000A4A1368002B01DD0948F8E7581C1060D2
:102220002C20434307482C22C01802F007FA002054
:10223000EDE7C0465801002005001180280100206C
:10224000010011802C01002010B5802901D009481F
:1022500010BD0949094C0868120182188034A24255
:1022600003D900221A600648F2E718600A600020CD
:10227000EEE7C04602001180140000205C0100203F
:1022800001001180004870470400118008B500F07B
:1022900045F900F0FDF8002008BDC046F0B55746EE
:1022A0004E464546E0B4042082B00D1C0B210B9F26
:1022B00000F058F9062000F037F90A9B6E4601330A
:1022C0009BB206361A029A4601231343301C0221A0
:1022D000338000F003F9002F25D07A1E90460123A9
:1022E000FF2200249A4491460DE0524613191B0226
:1022F0004A4613439BB2301C02210134338000F064
:10230000EDF8BC420FD0281C102100F0E7F8103582
:10231000A045EAD10B4B301C02210134338000F080
:10232000DDF8BC42EFD1022000F0FEF80B210420C2
:1023300000F038F9002002B01CBC90469946A24635
:10234000F0BDC046FFFF000070B51E1C0D1C002430
:10235000002B08D0281C00211022013402F077F94C
:102360001035B442F6D1002070BDC04608B500203B
:10237000002908D10A2100F015F90020082100F0F9
:1023800011F9002008BD082100F0ECF80A21002016
:1023900000F0E8F8F5E7C04610B58CB000F0BEF8E4
:1023A00000F076F800F0C6F80F210022002302208A
:1023B00000F0CAF8072100220023032000F0C4F82F
:1023C0000B2100220023042000F0BEF80821002287
:1023D0000023002000F0B8F80A210022002300208A
:1023E00000F0B2F8002100220023002000F0ACF839
:1023F00004200A21402200F0F5F8041E02D0201C1F
:102400000CB010BD1B4A01A8019201220274802267
:102410004260C2608260184A44744261174A826115
:10242000174AC261174A0262174A4262174A826219
:10243000FFF7E6FE041EE2D10821002000F092F82A
:102440000A21002000F08EF80B21042000F08AF809
:10245000062000F069F86846042302210230038058
:1024600000F03CF8022000F05FF80B21042000F09F
:1024700099F8C4E7146000006D23000049220000B1
:10248000852200009D220000492300008D220000CB
:1024900030B50D4A87B06B4623CA23C323CA23C372
:1024A0000A480121FFF776F8094D0A4B281C0293D0
:1024B0006C460D2369462373FFF7CEFD064B0020C3
:1024C0006B6507B030BDC0462C60000000320200D2
:1024D00000C40040E06735000A03000070B5041C2A
:1024E0000D1C0126012D09D934420ED021780A484D
:1024F000013DFFF73DFE0134012DF5D806492022AC
:102500000B691A42FCD0002070BD21880248FFF7F9
:1025100037FE023D0234E5E700C4004008B500F094
:10252000A3FD002008BDC04608B500F099FE0020BC
:1025300008BDC04608B503480121FFF72BF800206D
:1025400008BDC0460072020008B5002A05D1C0B21D
:102550000422FFF7A1FA002008BD0148FCE7C046AD
:102560000100138038B5C3B2041C0D1C052B01D823
:102570000F2903D908480949FEF7A8FEFF231C408C
:102580000123AB401D1CE3001C19054BA400E418FB
:102590002561002038BDC046486000000B020000E5
:1025A0000060004038B5C3B2041C0D1C052B01D8D7
:1025B0000F2903D908480949FEF788FEFF231C406C
:1025C0000123AB401D1CE3001C19054BA400E418BB
:1025D0006560002038BDC04648600000DF01000093
:1025E0001060004030B5234B83B01860224BC0B25E
:1025F0001960151C00230422FFF74EFA1F4901AC95
:10260000201C1831032202F019F81D4B1B6C5A07CD
:1026100003D41C480121FEF7BDFF1B480921FFF729
:1026200035F91A480121FEF79FFE01211748FEF7F0
:10263000B1FF002323706370201C0123A370FFF7F8
:10264000F9FC1248FEF7EAFF291C00F0FFFE411ECC
:102650000020FFF7BDFC0E4B802252011A600D4B8B
:102660000222D96901200A43DA61FFF7CDFC00207C
:1026700003B030BDE0010020DC0100202C60000030
:1026800000800C4000230400020006003004080013
:1026900000E100E00000084038B50E4B02229A61CC
:1026A0000D4B1C680D4B1D68E3B2052B01D80F2D97
:1026B00003D90B480B49FEF709FEFF231C400123F9
:1026C000AB401D1CE3001C19074BA400E418A561D6
:1026D00038BDC04600000840E0010020DC010020B9
:1026E00048600000220200000060004000207047A7
:1026F00000B5FEE780239B0100204B607047C04679
:10270000012070470020704770B50E1C151C002476
:10271000002A04D10BE030550134A54205D000F069
:1027200063F8431CF7D1002C01D0201C70BD01249C
:102730006442FAE770B50C1C161C8D18002A05DDE2
:102740002078013400F054F8AC42F9D1301C70BD4F
:10275000104A38B51368002B07D01818EFF308811A
:10276000884205D81060181C38BD0B4B1360F4E785
:102770000A4B1B68986801F0F5FD094C051C201CEC
:1027800002F06EF8211C021C281CFFF7D3FF012069
:1027900001F0D0FDE4010020F00300208C000020B7
:1027A0009860000010B58EB0002003A9FFF70AFD65
:1027B000041E02D0201C0EB010BD01A80123084940
:1027C00001940471437100F061FB041EF2D1054BCA
:1027D00000211B6802229868002301F06DFFE9E7E1
:1027E000E80100208C000020012040427047C046D4
:1027F000064B10B5041C1868002804D0211C00F0FA
:10280000DFFB201C10BD01204042FBE7E801002057
:10281000F0B556464D4644465F46F0B487B0059144
:102820008900061CC56B8846006BA64982460027B6
:10283000894601245146002900D13EE1337D002222
:102840009C4660460023BC46039006E0012800D168
:10285000A7E00132063352457ED2776C40463958A4
:10286000CB46885CE3445F46385C049003980028BC
:10287000ECD1049F3C4200D09BE0DF10EF19072011
:10288000039718403F78211C814003988F430770BD
:10289000049F591C78088B46044200D09CE0C91064
:1028A0008A465F4607210F40AA44211CB94057467B
:1028B0003F7840088F4351460F70C0B29F1CBB4603
:1028C000044200D09BE0FF10BA4659460727394022
:1028D000AA44271C8F40514609784008B9435746FF
:1028E0003970D91C8B46044200D09AE0C9108A4640
:1028F0005F4607210F40AA44211CB94057463F7844
:1029000040088F4351460F701F1DBB46044200D044
:1029100099E0FF10BA46594607273940AA44271CB8
:102920008F4051460978B943574639700227591DDF
:10293000074200D098E0C810072739402818271C04
:102940008F400178B9430170316B307D8A46013286
:1029500003900633524580D3039B67469C466346EB
:10296000012B00D18AE0F0686437C308ED18C82352
:102970009B009F4200D05DE7059F5446FA0063002C
:102980000092534408220192301DF16B5B00746A7F
:102990000022A04707B03CBC90469946A246AB46F1
:1029A000F0BD0499C843C0B20490049F3C4200D1DA
:1029B00063E7DF10EF1903970398072119400078A8
:1029C000271C8F4038430399049F0870591C7808CE
:1029D0008B46044200D162E7CF10BA460727394040
:1029E000AA44271C8F405146097840080F4351469E
:1029F0000F70C0B29F1CBB46044200D163E7F910C0
:102A00008A4607210F40AA44211CB94057463F7807
:102A10004008394357463970D91C8B46044200D1CF
:102A200064E7CF10BA4607273940AA44271C8F40D5
:102A30005146097840080F4351460F701F1DBB4691
:102A4000044200D165E7F9108A4607210F40AA44E5
:102A5000211CB94057463F78394357463970022701
:102A6000591D074200D166E70F1CC81007210F400F
:102A70002818211CB9400778394364E753009A1895
:102A80005200072313400DD06046D11098404919D9
:102A90000138824608788B46514601400832584634
:102AA0000170D21AB168D0108A1AD2082818FF21F2
:102AB00001F0CDFD326B924655E7327D94460022FF
:102AC0004DE7C046CC600000F0B5474680B45423C3
:102AD000C35C82B0041C012B3BD0002B06D000202D
:102AE000022B3ED002B004BC9046F0BD437D002BCB
:102AF00037D1436B002B08D00025291C201CFFF781
:102B000087FE636B0135AB42F7D82269DB00934245
:102B10001FD2237D002B26D1A368E06BDA080021A9
:102B200001F095FD626B2369D5009D4211D201260B
:102B3000271DB046424601920095381CE16B0022E9
:102B4000A368666AB0470028CCD122690135AA4241
:102B5000F0D8637D002B04D1216D201CFFF758FEB7
:102B6000C0E70548BEE7012BFBD1A668E06BF20881
:102B7000FF2101F06CFDD5E704001280F0B5474657
:102B800080B40E1C071C5F4C1B2950D023780020FA
:102B90001B2B02D004BC9046F0BD631C1D1C0133EE
:102BA0005A1E1278002AF9D12E70201C01F058FE0E
:102BB000554E051C311C201C2A1C01F058FE002813
:102BC00040D0321D9046111C201C2A1C01F04FFEE3
:102BD00000284CD008239B19201C191C2A1C98463D
:102BE00001F045FE00285FD00C2292199046111C7E
:102BF000201C2A1C01F03BFE002863D010239B19E7
:102C0000201C191C2A1C984601F031FE002869D0AE
:102C10001436201C311C2A1C01F029FE002835D056
:102C2000201C0021042201F012FD0020B2E7042242
:102C3000201C002101F00BFD032254232670FA54BE
:102C40000120A7E7301C03225423FA5401F008FEA8
:102C5000A8420ED0032D01D001209BE7201C0021AB
:102C6000042201F0F4FC5423FD54012092E7404675
:102C7000E9E700233B65FB640422201C002101F0EE
:102C8000E6FC03225423FA54012083E70322542351
:102C9000FA54301C01F0E4FDA842DBD1FB6C002BA0
:102CA000EAD0013BFB64E7E703225423FA54404691
:102CB00001F0D6FDA842CDD13B6D002BDCD0013B0D
:102CC0003B65D9E703225423FA54404601F0C8FD7E
:102CD000A842BFD17A6B3B6D013A9342CCD201330B
:102CE0003B65C9E703225423FA54404601F0B8FD7E
:102CF000A842AFD13A6BFB6C013A9342BCD201338C
:102D0000FB64B9E7EC010020B4600000F0B5474671
:102D100080B4041C0D1E0A2D5AD00D2955D0082947
:102D200047D0201C291CFFF729FF00283ED1564B15
:102D300068221B6800215B195B788846934302D0A8
:102D4000203DEDB2A846E36C226B93426BD2216D1D
:102D5000606B884222D83825655D002D00D17BE06C
:102D6000012800D18DE000260027636C0136D85978
:102D7000B700D95901F062FC636B226B013B9E42A4
:102D8000F3D3666C9B009859002101F060FC616BE5
:102D9000002301395422E3642165A354626C890045
:102DA00052584146D154E36C0133E36404BC90466D
:102DB000F0BD037D012BB4D94923C25CFF2A46D064
:102DC000FF22C2544A23C254F0E70023C364EDE754
:102DD000036D0022C264426B013303659342E5D365
:102DE0003823C55C002D24D0012A48D000250026B8
:102DF000636C01359859AE009959226B01F01EFCA5
:102E0000636B013B9D42F3D3616C9B005858226B6E
:102E1000002101F01CFC626B0023013A2265542260
:102E2000E364A354C2E7216D00230131E36421650B
:102E30008EE7436C002BB9D0066B00217243006C07
:102E400001F005FC5423E5642565E554AEE7002256
:102E5000C2544A23C254A9E7666C002E0CD04243E8
:102E60000021206C01F0F3FB5423E554E564256553
:102E7000626C0023002193E78900002290E7002381
:102E8000C2E700237DE7C04624000020F0B5474696
:102E900080B4444C5523E35C051C0E1C002B03D06E
:102EA000414804BC9046F0BD221D111C00689046AC
:102EB000FFF788F9021EF4D1637D002B5ED0E26338
:102EC00021697F2901D83948EBE7A2687D2AFAD920
:102ED00010236363152323632F68354B35486364E0
:102EE0002064276029793822A15469793922A154B4
:102EF000021C15325A60021C2A329A60021C3F32B0
:102F0000DA60021C54321A61021C69325A61021CD6
:102F10007E329A61021C9332DA61021CA8321A6274
:102F2000021CBD325A62021CD2329A62021CE73283
:102F3000DA622149021CFC3293271A637F0042188F
:102F40001E495A63C2199A634218DA63186048220C
:102F5000FF23A3544922A3544A22A354A822520077
:102F6000002101F074FB00235422A354E364236581
:102F700001225523E2540020346092E7231C3C33A5
:102F80004046A1680822E769B847002800D088E7D2
:102F90004046E16BA2680823A76AB84700288FD093
:102FA0007FE7C046F0010020050012800200128079
:102FB000A403002054020020110100003B01000086
:102FC00038B55523C35C041C0D1C002B01D12548CA
:102FD00038BD427D531E9A4101325423C2543822D7
:102FE000825C002A1CD0C26C002A04D1416B006DA7
:102FF000013988421AD00C2D1AD03923E35C002BFA
:1030000001D00A2D28D0201C291CFFF77FFE542355
:10301000E35C0020032BDBD0201CFFF755FDD7E736
:10302000C16C0029E7D1026D002AE4D1E254E2E745
:10303000626C002A09D0236B626B206C5A4300211A
:1030400001F005FB0023E364236500225423E254CE
:10305000201CFFF739FDBBE7201C0D21FFF756FEB2
:10306000D1E7C04606001280F0B55F464D46564691
:103070004446F0B489B007AD7049281C032201F022
:10308000DDFA6F4B00211B6C8B465A0700D4CEE053
:103090006C48FEF7A7FB6A4C4022E36A03211A4002
:1030A000019068489046FEF7F1FB6748FEF710F97B
:1030B0008021824649006448FEF756F9A36D002737
:1030C000D90700D4ADE072B6604C23685A1C01D019
:1030D000013323605E4B1A68D10700D47EE01A6882
:1030E00099680292DA680391D969049200220591E5
:1030F0001A60DA6107229A618021564AC023490189
:103100005B00D150012291460023281CAB70FEF7D2
:1031100091FF514980235B014D4A0B600B685B00B6
:103120000B600BD0506853689842FCD0484B5868ED
:103130000B68013BFDD853689842EFD00B68444AB6
:103140005B080B600E680825760814D00B683343C3
:103150000B60506853689842FCD03D4B58680B6830
:10316000013BFDD85368984202D00B68B3430B6013
:10317000013D002DE8D12368002B03D0013B2360E3
:10318000002B4CD04A46002A31D051462E48FEF73B
:10319000EBF80120FEF742FF03992D4B049A99604A
:1031A000DA600299059A19600020DA61FEF736FFAD
:1031B000002F21D1019B032B25D14146002929D085
:1031C0005A46002A03D025480021FEF7E3F909B04A
:1031D0003CBC90469946A246AB46F0BD0023002178
:1031E0000022059304910392029399468CE70020F4
:1031F000FEF70AFF002FDDD013480021FEF7CAF9C1
:10320000019B032BD9D0191C0E48FEF73FFB41460A
:103210000029D5D101200022FEF7FCFBD0E762B6E1
:10322000B0E709480121FEF7B5F901274BE70B4844
:103230000121FEF7AFF901239B4629E7EC6300006B
:1032400000800C4002000600300408002401002029
:103250000000084000E100E0180000200023040006
:10326000064B88221202003250431A68C00AD20A62
:103270005043800901D00138FDD870471800002064
:10328000064880470649074A074B9B1A03DD043B63
:10329000C858D050FBDC0548004700002D34000022
:1032A000DC650000000000209800002061010000A3
:1032B000FEE7FEE7FEE7FEE7FEE7FEE7FEE7FEE7E6
:1032C000FEE7FEE7FEE7FEE7FEE7FEE7FEE7FEE7D6
:1032D000FEE7FEE7FEE7FEE7FEE7FEE7FEE7C046A5
:1032E000224AF023D16A9B010B40802100B549019D
:1032F0008B4226D0802189018B421FD08021090179
:103300008B4210D0D268E023DB0013408022920071
:10331000934223D018D8002B22D08022520093420F
:103320001AD1134A01E0134B1A68104B0F205B6847
:103330001840114BC240101C1A6000BD0F4B1A6898
:10334000F3E780221202F0E7C022920093420BD0F2
:103350008022D200934205D00022E6E7084AE4E743
:10336000084AE2E7084AE0E7084ADEE700800C4046
:1033700040B5640020000020E40300201C00002071
:10338000C0D8A700804F1200406F4001809FD50039
:103390001E4AF023D16A9B010B40802100B54901F0
:1033A0008B421ED0802189018B4217D080210901D8
:1033B0008B4210D0D268E023DB00134080229200C1
:1033C00093421BD010D8002B1AD080225200934277
:1033D00012D10F4801E00F4B186800BD0E4B186862
:1033E000FBE780200002F8E7C022920093420BD056
:1033F0008022D200934205D00020EEE70748ECE798
:103400000748EAE70748E8E70748E6E700800C4096
:1034100040B56400200000201C000020C0D8A70098
:10342000804F1200406F4001809FD5007047C0461A
:10343000802000027047C046FA2080007047C046D6
:10344000014B18687047C0461C000020002934D08A
:103450000123002210B488422CD301242407A14266
:1034600004D2814202D209011B01F8E7E400A14223
:1034700004D2814202D249005B00F8E7884201D3BE
:10348000401A1A434C08A04202D3001B5C08224396
:103490008C08A04202D3001B9C082243CC08A04207
:1034A00002D3001BDC082243002803D01B0901D0F3
:1034B0000909E3E7101C10BC7047002801D0002068
:1034C000C04307B4024802A14018029003BDC046A1
:1034D000190000000029F0D003B5FFF7B9FF0EBCBA
:1034E0004243891A1847C0467047C046F8B55F4640
:1034F00056464D464446F0B40C03460F640A344326
:10350000A3465E001C03DB0F9C46630A98464D00F1
:10351000530F44461C436D0DC90F760DD2000F1C8E
:10352000C000A1469246AB1B614500D1A4E0002B30
:1035300000DCF5E0002E0CD1261C164300D1C2E0C1
:10354000013B002B00D046E15C464B46821AE71A4D
:1035500021E0D24EB54200D1CDE080244A46270476
:103560003A439146382B00DD0FE11F2B00DD50E17F
:103570002026F61A4C4652465746B440B740DA4029
:1035800022433E1C4C46771EBE41DC403243261C83
:103590005B46821A9F1B904280414642BB1B141C13
:1035A0002E1C0F1C180200D4AEE05D02690A88468A
:1035B0004246002A00D1D9E0404600F091FE051CA9
:1035C000083D1F2D00DDDAE02822131A201C414699
:1035D000D840A940031C0B43AC40AE4200DD90E054
:1035E000AE1B711C1F2900DD00E11F20851B1A1C6A
:1035F000201CAA40C840AC401043661EB44104439E
:10360000CB40012200260F202040042864D0201D3A
:10361000A042A441654280215B1901240D041D4094
:103620002740002D07D09D4EB24200D19AE09C4920
:10363000161C0B4001325C07C00852050443DB082E
:10364000550D012D62DD1B0376051B0B760D002049
:103650000021090D201C0A05924C134376057508BC
:103660001C402C436300FF07590839433CBC90467B
:103670009946A246AB46F8BD002B00DC91E0002E37
:1036800031D0864EB54200D1A9E080244E462204B6
:103690001643B146382B00DD18E11F2B00DD73E126
:1036A0002026F61A4A46B240904652464446DA4030
:1036B00022435446B440261C741EA6414C46324355
:1036C000DC401218F6E0041C0F206A1C5B462E1C1E
:1036D0000F1C204004289AD180252D0401211D4073
:1036E0000F40201C9DE7144300D0DDE06A1C5B46C0
:1036F000041C2E1C87E780215B46041C0A012E1C3B
:1037000081E7761B664D2B40721C7CE7211C194318
:1037100000D167E2002E41D080200203134392E7DC
:10372000002B00D088E0691C4E05740D012C00DCD4
:103730001AE15B46161C4C46821A191B90429B41AB
:103740005B42C91A88460B0200D49EE0371ABA457C
:1037500092415E46A41B5342E11A88463C1C2E1C33
:10376000674625E7161C0023002470E7201C00F0A4
:10377000B7FD2030051C083D1F2D00DC24E7031C8D
:10378000283B9C40231C002427E74A4653461A4303
:103790000026002A00D1FBE60122F9E61D032B0BCF
:1037A00055E7002B00D004E16E1C7405630D012B5E
:1037B00000DCAAE039498E4200D130E11118814283
:1037C00080414B4642425B449B18DC0749080C434E
:1037D0005B08AA1C17E7314FBD4200D0C2E6041CAB
:1037E00080205B460F1C02012E1C0CE7301C1F388A
:1037F0001A1CC240151C202900D182E03F218E1BDB
:10380000B3401C43631E9C412C430122002300262D
:10381000F9E61C1C203C4F46E7403E1C202B72D092
:103820004022D41A4B46A3401A1C57463A43531E13
:103830009A4132430026ABE65F42002D50D0174D2F
:10384000AE4200D155E180245A4621040A439346F2
:10385000382F00DDDAE01F2F00DD78E12021CC1BBE
:10386000051C5A46A240FD40A04015435B46421E3F
:1038700090412843FB4057463C1AA2459241484696
:10388000C11A55424B1B67468CE6081C104330D1C9
:1038900000270122002304200026CCE6FF070000B9
:1038A000FFFF7FFFFFFF0F80013B002B24D153461A
:1038B0001A184C46824280415C444342E3182E1C55
:1038C000141C18023ED4721C0F1C9CE64A46534638
:1038D0001A430024002A00D1F3E601221218E9E776
:1038E0005B46034300D083E0231C721C54466746AA
:1038F00089E6141C2E1C5BE6CD4EB54200D0C9E60D
:103900006DE700237DE700228FE75E460643002D2A
:1039100000D0F4E0002E00D14CE14B46134300D11F
:103920007EE115184E46854280415E444242B318FE
:103930001E0200D482E1BF4F2C1C3B4002220F1C10
:10394000012660E6BA4D701CA8424BD0B94F012544
:10395000254062083B402C1CDF0714433C43B21C4B
:103960005B08061C0F1C4EE65E460643002D2CD15C
:10397000002E00D07DE04E46141C164388D04B46E6
:103980006746012200263EE61E1C203E4C46F440BF
:10399000261C202B00D1D8E04022D41A4B46A3404D
:1039A0001A1C54462243531E9A41324300241218D3
:1039B00080E75B42002D37D15C46044300D0D7E05E
:1039C000721C4B4654460F1C1DE6002E6ED14B4612
:1039D000141C134300D1DCE080254B4667462A01C6
:1039E000934E10E68021061C0A010023042022E6E3
:1039F000013F002F79D1171A5B46BA45AD414946C0
:103A0000CA1A68423C1C131A6746CBE55F46074357
:103A100000230020002F00D12DE701202BE7802577
:103A20002A010023042006E6814DAE4200D1D3E0F6
:103A300080245D4622041543AB46382B00DDB0E000
:103A40001F2B00DDDBE02025ED1A021C5C46AC409C
:103A5000DA40A840451EA841224302435846D840B8
:103A6000031C55465419544592414B4450421B186F
:103A700027E74A465646324300D185E0851B5B4620
:103A80004C46A8429241191B56428B1B1E0200D481
:103A9000ADE057463D1A5B46AA458941E41A4A42C1
:103AA000A31A67462C1C01220026ACE54D46161CC5
:103AB000154344D05C468021C0086207E3080D032B
:103AC00010432B4200D181E04C46E10829427DD1D0
:103AD000F70866073E430B1C6746700FDB00802229
:103AE000F40003431201524E8DE5514DAE4200D019
:103AF000AEE680204B4654466746020183E5002E21
:103B00005ED04C4614431AD0C70880255846430758
:103B10002C03C0081F43204208D04E46F30823421E
:103B200004D15246D5087707181C2F43C300FC0068
:103B3000780F0F1C802103430A013D4E63E5802668
:103B400032015B46041C3A4E5DE5002229E7391C30
:103B500020395C46CC40221C202F67D04023DF1B3D
:103B60005D46BD402843431E98411043002382E632
:103B7000013B002B2CD150445C469042AD414C445B
:103B80006A42A318041C9CE65B46041C0122002622
:103B900039E58024042100272201274B4842244E86
:103BA00049E55D46054300230022002D00D158E77A
:103BB000012256E7141C4B460F1C0122002622E569
:103BC000141C80224B461201194E1CE5061C84E78A
:103BD000174A964200D030E70F1C80214B465446CE
:103BE0000A0110E57405660D002300242FE5181C5A
:103BF000284300D14CE62C1C0122002603E51C1CA6
:103C0000203C5D46E5402C1C202B1CD04022D31AC2
:103C10005A469A400243501E82412243002320E725
:103C20005B46041C0F1C01220026ECE4002599E7EA
:103C3000FF070000FFFF7FFFFFFF7F002C1C0F1C12
:103C400001220026DFE40022E4E7C046F0B54D463D
:103C500044465F465646F0B41D1C4B00141C0E0330
:103C60005B0DCA0F87B0071C360B98469146002B98
:103C70001DD1321C024300D181E1002E00D104E2AB
:103C8000301C00F02DFB272800DDF8E12821031C63
:103C9000083B0A1A391C9E40D1400E439F40C14B3D
:103CA0000021181A002280468A4600920FE0BE4882
:103CB000834231D080214B031E43BC487A0FF6006B
:103CC000002100231643FF0080448A460093291CEC
:103CD000201C251C4A000C03CB0F240B520D9B46C5
:103CE00025D1211C014300D150E1002C00D1C2E1BB
:103CF000201C00F0F5FA272800DDB6E1031C28227D
:103D0000083B291C121A9C40D1400C439D40A54BF6
:103D10001A1A0020029019E0321C3A4300D029E11F
:103D200008270223BA46002600270093CFE79E48C3
:103D3000824200D113E180214B031C439B49680F51
:103D4000E40000230443ED005218029348465B460A
:103D5000434002985146019301430F2900D8DFE008
:103D600043469A1A0492A64200D86EE171087B0875
:103D7000F6073343FA07894698460292280E240232
:103D800004432D022704390CAB46250C009148460C
:103D9000291CFFF75BFB009F061C4743291C484674
:103DA000FFF798FB434608041A0C1043874207D9D3
:103DB0000019013E844203D8874201D9013E00190F
:103DC000C11B8A46081C291CFFF740FB009B071CEF
:103DD0004343291C50469946FFF77CFB424610049A
:103DE0000B04010C0B43994504D91B19013F9C425C
:103DF00000D864E136043E435F464A46390C8946A2
:103E00009B1A59463204170C0A0449467943120C8E
:103E100003928C460399300C7A4341434F467843D2
:103E20008C44170C6744B94202D9802149024018DA
:103E3000390C120440183F04110C7F18834200D241
:103E400027E100D141E102991B1ACF1BB942804101
:103E500041425A1A9046A24200D15FE1101C291C2F
:103E6000FFF7F4FA009B02904343291C40469A4610
:103E7000FFF730FB380C090401438A450AD9029A3E
:103E80000919013A02928C4204D88A4502D9013AB2
:103E9000029209195346C81A291C0590FFF7D6FA51
:103EA000009A291C4243804605989246FFF712FB70
:103EB0003F040D043A0C2A43924509D901214B4293
:103EC00012199844944203D8924501D99844121982
:103ED000029D43462F041F435046111A3804030C19
:103EE0004D465D430398AC46039D3A0C58435543F9
:103EF0004B465A43AC44030C63449D4202D980258F
:103F00006D0252191D0C000452191B04050C5B199B
:103F1000914200D2E6E000D13DE1012217435AE090
:103F2000890023488C46604401688F46019B1E4AE5
:103F30000026002700200021381C0F0D3C051D4DD8
:103F400034431205254015436E00DB077108194301
:103F500007B03CBC90469946A246AB46F0BD211C3A
:103F600003202943029000D0F0E60223002400251C
:103F70000293EBE60C20032182460091A7E604277A
:103F80000123BA46002600270093A0E60121002461
:103F900000250291DAE601270023074E7F42024AFC
:103FA000C8E7C0460DFCFFFFFF07000001FCFFFF54
:103FB000F0630000FFFF0F80FFFF0F002F1C5A4629
:103FC000029D261C0192022DB0D0032D00D101E1EB
:103FD000012D00D19CE0049B82481A18002A00DCC5
:103FE0008CE00F243C40042C05D03B1DBB42BF415C
:103FF0007D4276191F1CF10105D57B4A049980206A
:10400000C40016400A19794B9A4200DD8EE7750705
:10401000FF08760251052F43360B4A0D019B89E7B5
:1040200000220026002785E7802001030E4216D0DB
:104030000C4214D10C432603360B5B462F1C6C4AF2
:1040400078E74C460194009DBDE7A64243D0049812
:10405000B846013800270490B14602978EE60E4319
:1040600033031E0B624A4B4664E7041C283CA54000
:104070002C1C00254BE600F033F920303BE6061CF3
:10408000283EB7403E1C002709E600F029F9203001
:10409000F9E5029A013E111C594459459241524298
:1040A0001219D3189C4204D298426BD816D01B1A0E
:1040B000CBE6A342FBD18B45F6D9231AC5E6994539
:1040C00000D897E6013F1B1994E6029ABA42E0D362
:1040D00002990023B9E6AF42B9D947E68F4251D8D9
:1040E0000023B2E60919013F58468C4219D9914282
:1040F00000D012E7984200D00FE76CE73D4C049DDA
:10410000631B382B1CDD019B00220026002711E7D2
:10411000019B00222B40002600270BE701277F424E
:1041200059E78A4203D800D0F7E69842E2D25D46CA
:1041300068005845AD416D422C19013F0919D6E779
:104140001F2B34DC049C2C4A381CA518311CAF40B2
:10415000D840A9403C1C0143671EBC410F1C2743AB
:10416000DE400F233B40042B05D03A1DBA42BF412D
:104170007D427619171C320211D5019B01220026BF
:104180000027D7E659445945924152421219D31893
:10419000013E1B1A59E6002BA4D10020AAE77007A4
:1041A000FF08710207430E0B019B0022C2E6134970
:1041B000049C301C0A1BD040051C202B08D0104B3F
:1041C000E1188E4037437B1E9F412F430026C8E7EE
:1041D0000026F7E780221003064331030E0B019BF4
:1041E000034AA7E6FF030000FFFFFFFEFE070000F3
:1041F000FF07000002FCFFFF1E040000E2FBFFFFC0
:104200003E040000134A0B0330B5051C48001C0B8C
:10421000C90F430D0020934211DD0F4883420FDC8C
:10422000802250030D4A0443D01A1F280BDD0C4D89
:10423000EB1ADC40221C5042002900D1101C30BD7A
:10424000084C0819FBE7C54007482A1C1D18AC405C
:104250002243F0E7FE0300001D04000033040000C9
:1042600013040000FFFFFF7FEDFBFFFFF8B5041E06
:104270002DD0C50F00D04442201C00F031F8164963
:104280000A1A0A2816DD0B388440570526037A0DD2
:10429000360B002700200021381C0F0D3B050F4C6A
:1042A00033431C401605344361004A08ED07111CD6
:1042B0002943F8BD0B26011C301A1531231CC440BC
:1042C0008B40520521031F1C0E0B520DE2E7002507
:1042D000002200260027DDE71E040000FFFF0F80FC
:1042E0001C2101231B04984201D3000C10391B0A26
:1042F000984201D3000A08391B09984201D30009EA
:10430000043902A2105C40187047C0460403020240
:1043100001010101000000000000000010B5044C84
:10432000002C02D000E000BF00E0201C10BDC04601
:1043300000000000094B10B5041C002B03D0002125
:1043400000E000BF01E000F0F3F805480068816A72
:10435000002900D08847201CFEF7CAF900000000A1
:104360009865000038B50F4D041C2868002804D05B
:104370008369002B01D100F071F80B48844202D10F
:104380002B685C680AE009498C4202D12D68AC6850
:1043900004E0074A944201D12C68E4680E23E05EF1
:1043A00038BDC0468C000020346500005465000014
:1043B00074650000F8B5041C071C4C34002C13D0A5
:1043C000A5686668013E0DD40C22AB5E002B07D0B9
:1043D0000E22A85E431C03D0381C291C00F00CFEE2
:1043E0006835EFE72468E9E7F8BD000010B5002361
:1043F000041C03604360836081814366C281036162
:1044000043618361191C08225C3000F020F90548E3
:104410000549064A064B24626062A162E262236398
:1044200010BDC046C9470000F14700002948000000
:104430005548000070B568254D430E1C291C0C31F1
:1044400000F0B2F8041E07D00C3000212160666035
:10445000A0602A1C00F0FBF8201C70BD70B58569B7
:10446000041C002D20D1114B012683628661C56496
:104470000565456500F01CF86060201C00F018F828
:10448000A060201C00F014F80421E0602A1C606881
:10449000FFF7ACFFA0680921321CFFF7A7FFE06817
:1044A00012210222FFF7A2FF70BDC046B5430000F3
:1044B000F8B51E4B071C1E68B269002A02D1301CD9
:1044C000FFF7CCFF4C36B4687368013B05D40C226F
:1044D000A55E002D11D06834F7E73068002801D0C0
:1044E0003668F0E7381C0421FFF7A4FF306000288D
:1044F000F6D10C213960041C15E001225042E08104
:104500000126201CA68165662560A5606560256181
:104510006561A5615C30291C082200F098F865638C
:10452000A563A564E564201CF8BDC046986500003D
:1045300038B5084B084C1D1CE01A8410002C06D01E
:10454000A1006A18043A13689847013CF6E700F0A6
:10455000FDFE38BD940000209800002070B50E4B81
:104560000E4D0024E81A85101E1CAC4204D0A10098
:10457000725890470134F8E700F0E2FE0849094A12
:104580000E1C541AA5100024AC4204D0A300F0580D
:1045900080470134F8E770BD9000002090000020B3
:1045A000900000209400002070B50323CD1C9D4393
:1045B0000835061C0C2D01D20C2501E0002D2DDB49
:1045C0008D422BD31C4A1368111C1C1C002C12D0CA
:1045D0002068421B0CD40B2A02D92260A41815E0D3
:1045E000A34202D166680E601CE065685D6019E058
:1045F000231C6468EAE7301C291C00F04BF8421CBD
:104600000CD0C41C03218C43844201D1256009E0F5
:10461000211A301C00F03EF80130F7D10C24346030
:10462000002008E0201C0B300722211D9043431A74
:1046300001D05D42E55070BD4802002010B5002356
:10464000934203D0CC5CC4540133F9E710BD00B5EC
:104650008218031C934202D019700133FAE700BD9F
:104660000FB40B4B13B51C68002C05D0A0690028B3
:1046700002D1201CFFF7F2FE05ABA168201C049AB2
:10468000019300F021F916BC08BC04B01847C046DD
:104690008C00002038B5074C0023051C081C236043
:1046A000FEF756F8431C03D12168002900D0296089
:1046B00038BDC046E8030020F7B53E4F041C3868FB
:1046C0000E1C01921D1C002804D08269002A01D111
:1046D000FFF7C4FE384B9C4202D13B685C680AE09D
:1046E0003648844202D13A68946804E034498C42E6
:1046F00001D13C68E4680198022858D8002D56DBA7
:10470000211C386800F078FCA28900216160A16159
:10471000120603D53868216900F018FDA3898320AB
:1047200001998343A381022913D0002E25D1002DA6
:1047300001D18025ED00281C00F0B4FD061E18D123
:104740008026F00000F0AEFD061E10D10125684263
:1047500000E00020A3890227211C47313B430026AB
:104760000122A381A66021602161626121E0802293
:10477000D500A38980200343A3810199012904D195
:10478000A2896B420A43A281A3613F680D48B862C7
:1047900026602661A68965610020320709D50321BC
:1047A0000E407242564172421540A56001E001245C
:1047B0006042FEBD8C00002034650000546500009E
:1047C00074650000B543000038B50C1C0E25495F28
:1047D00000F07EFD002803DB616D0D18656503E0C8
:1047E000A289024B1340A38138BDC046FFEFFFFFF3
:1047F000F8B51E1C8B89051C0C1C171CDA0505D589
:104800000E23C95E0022022300F0E8FCA2890548BD
:10481000331C1040A0810E22A15E281C3A1C00F01F
:1048200059FBF8BDFFEFFFFF38B50C1C0E25495FA3
:1048300000F0D4FCA389421C03D1054D2B40A38179
:1048400004E0802251010B43A381606538BDC0465E
:10485000FFEFFFFF08B50E23C95E00F0BBFB08BDEC
:104860000023C25C0133002AFBD1581E7047031C91
:10487000002010B5824211D01C780878A04201D1E6
:10488000012A03D11A780978501A07E0013A002862
:10489000F8D001330131002AEED1F3E710BD93685F
:1048A00010B5013B9360002B05DA9469A34208DB45
:1048B000CBB20A2B05D01468C8B221700134146041
:1048C00001E000F0A9FA10BDF0B5A1B0061C0491FA
:1048D000171C0793002804D08169002901D1FFF734
:1048E000BDFD804B049A9A4202D1726804920BE09B
:1048F0007D48049C844201D1B36804E07B4D049957
:10490000A94201D1F36804930498848922070AD547
:104910000569002D07D008AD0021202330226961F0
:104920006B76AA7640E0301C049900F0E7FA002884
:10493000F1D001204042D2E0079F3A68381D07902D
:10494000002A00DA82E00B92013423782E2B00D16A
:104950008DE0674F2178381C032200F0ADFC002861
:1049600006D0C11B2B6840208840184328600134C2
:104970002178604806222976671C00F09DFC0028FB
:1049800000D199E05C4A002A00D08CE02A68079C9C
:104990000723D10500D484E0E4189C43083407942D
:1049A0000D9905980C180D943C1C2078002804D112
:1049B000E11B069118D003970EE02528F8D00134AA
:1049C000F3E70399301C0978049AFFF768FF039B0B
:1049D0000133039301307CD0039B069AD81B90428D
:1049E000EFDB0D9FB9180D912378002B71D00122B8
:1049F000694600205742633101342860E8606F60E7
:104A0000A8600870A8653D4F2178381C052200F089
:104A100053FC002807D02A68C71B0123BB4013435F
:104A20002B600134EFE72B68D90603D56A462020B6
:104A3000633210701A0703D56F462B216337397024
:104A400020782A2800D177E70B9B05E00227514206
:104A50003B43E9602B6077E72278303A092A04D893
:104A60000A214B4301349B18F6E70B936DE76078FE
:104A70002A2809D1079B02341F68181D0790002FB0
:104A80000DDA012257420AE0013400272278303A39
:104A9000092A04D80A214F430134BF18F6E70997C1
:104AA00057E7073479E707A90091301C291C049ABD
:104AB000134B00E000BF07E007AC0094301C291C3A
:104AC000049A0F4B00F08EF805900598421C00D018
:104AD00066E7049DAE89720600D52AE70D9821B0DD
:104AE000F0BDC046346500005465000074650000E8
:104AF000A2650000A6650000000000009C650000A3
:104B00009F480000F7B5151C01930A698B68009057
:104B10000C1C934200DA131C201C2B6043300178DC
:104B2000002901D001332B602668B00602D52F681A
:104B300002372F602268062616401CD0261C4336FA
:104B4000377822683E1C731E9E4192061CD5A3191D
:104B5000181C40303021271CC17045373A7841334A
:104B6000DA70023610E0617E0098019A089FB8471B
:104B7000013006D00136E3682868191A8E42F2DB4C
:104B8000DCE7012040422CE00027B7420ADAE119B5
:104B9000433109780098019A089B98470130F0D07A
:104BA0000137F2E72B68256806212940E6680025D1
:104BB000042903D1F01AC743FD170540A2682669EE
:104BC000B24201DD931BED180027AF4208DAA17E47
:104BD0000098019A089EB0470130D2D00137F4E71F
:104BE0000020FEBDF0B50D1C8BB04335079305903A
:104BF000069204950A7E0C1C109B6E2A00D1A8E038
:104C000012D8632A24D009D8002A00D1B1E0582A4A
:104C100000D0C1E045310A707D4D51E0642A1FD0BB
:104C2000692A00D0B8E01BE0732A00D1A5E009D8BA
:104C30006F2A2BD0702A00D0AEE00A6820261643D7
:104C40000E6038E0752A21D0782A00D0A4E032E046
:104C500018680E1C051D1D600368423633709EE007
:104C600026681F68300606D4750604D5381D1860FE
:104C700000203D5E02E03D1D1D603D68644B002D3F
:104C80003BDA04992D226D420A7036E027681E68CF
:104C90003D0605D4780603D5351D1D60358802E034
:104CA000311D196035685A4B207E039308276F2801
:104CB0001ED00A271CE0271C45377820554D387038
:104CC0001A682668111D03951960300603D475060D
:104CD00001D5158800E01568F00702D520231E4392
:104CE00026601027002D03D12668202086432660E9
:104CF000261C43360022327001E003930A276168C4
:104D0000A160002903DB2068042398432060002D64
:104D100002D1049E00290ED0049E281C391CFEF7E7
:104D2000D9FB039A013E515C281C3170391CFEF7F7
:104D30008DFB051EF1D1049B9A1B2261082F33D1F4
:104D40002768F80730D5606890422DDC0132626038
:104D50002AE008681E684969050606D4450604D598
:104D6000351D1D603368198003E0321D1A603768F5
:104D7000396000202061049E16E01E68311D196014
:104D80003668301CFFF76CFD65682061A84200D9C9
:104D900025612369636004E0261C423632700121DC
:104DA0002161049F00223A7007990598009109AA91
:104DB000211C069BFFF7A6FE01300CD0351C226992
:104DC000AB1B93420ADA29780598069A079FB847E1
:104DD00001350130F3D10122504217E02668B107B6
:104DE00005D4099BE068984210DA181C0EE00025F3
:104DF000E7680998391A8D42F3DA617E0598069AB8
:104E0000079EB0470130E6D00135F1E70BB0F0BDA9
:104E1000AD650000BE65000070B5051C0E1C141CBD
:104E2000002804D08169002901D1FFF717FB264B28
:104E30009C4201D16C6808E02448844201D1AC68EE
:104E400003E0234A944200D1EC68A169A389A160E0
:104E5000190702D5206900280CD1281C211C00F05C
:104E60004DF8002806D0A68940210E43A6810924CA
:104E70002C600DE0216822696069F6B28B1A8342CA
:104E800009DB281C211C00F0B7F80023984202D04F
:104E900001256E4215E0A16822680139A1601670F3
:104EA0006069013201332260834204D0A389D907AB
:104EB00007D50A2E05D1281C211C00F09DF80028DA
:104EC000E6D1301C70BDC04634650000546500005A
:104ED0007465000038B5084C051C00202060081CD3
:104EE000111C1A1CFDF726FC431C03D12368002B60
:104EF00000D02B6038BDC046E803002070B5314DAE
:104F0000061C28680C1C002804D08169002901D1E6
:104F1000FFF7A4FA2C4B9C4202D129684C680AE0A6
:104F20002A48844202D12D68AC6804E0284A9442A1
:104F300001D12C68E468A3891A071ED4D90602D4CB
:104F4000012148423CE05A0713D5616B002908D083
:104F5000201C4430814202D0301C00F0F7F80022BF
:104F60006263A589242120698D430023A5816360A4
:104F70002060A58908221543A581216900290BD14C
:104F8000A389A020850080221D4091008D4203D07E
:104F9000301C211C00F036F9A6890123334005D0CE
:104FA000656900206A42A060A26103E0B10700D4F5
:104FB0006369A36024690020844201D13206BFD412
:104FC00070BDC0468C0000203465000054650000B0
:104FD0007465000038B5074C0023051C081C2360CD
:104FE000FDF784FB431C03D12168002900D0296010
:104FF00038BDC046E8030020F7B50C1C0969051C44
:1050000000293ED0002804D08269002A01D1FFF790
:1050100025FA4B4B9C4201D16C6808E04948844218
:1050200001D1AC6803E0484EB44200D1EC68A389DA
:10503000002B26D01F0766D4802210016768184312
:10504000A081002F02DC266C002E1ADDE76A002FFB
:1050500017D08022002152012E681A40296001D009
:10506000626D16E0281C216A0123B847021C431C0C
:105070000FD12B68002B0CD01D2B01D0162B02D189
:105080002E6000205BE0A58940200543A581101C0F
:1050900055E0A7897F0706D56168636B521A002B1C
:1050A00001D0206C121A216A281C0023E76AB84735
:1050B000411C0DD12A68002A0AD01D2A08D0162AC0
:1050C00006D0A68940252E43A6810124604236E001
:1050D0002369A789002161602360FF0405D5411C75
:1050E00002D12A68002A00D16065616B2E60002918
:1050F000C7D0201C4430814202D0281C00F026F882
:10510000002060631BE02669002EBAD027680022C9
:10511000B91B01912660990700D16269A2600198CC
:105120000028AEDD281C216A321C019BA76AB84703
:105130000028C6DD019B3618191A0191EFE7FEBD64
:1051400034650000546500007465000030B5002926
:1051500040D004390B68002B00DAC9181E4A1368C6
:10516000141C002B02D14B60116033E099420FD226
:105170000D684A199A4205D110682B1855680B60C2
:105180004D6000E04B60216024E08A4203D8131C8C
:105190005A68002AF9D11D685C198C420BD10C6841
:1051A0002D1958191D60904214D1116852686C185D
:1051B0001C605A600EE08C4202D90C21016009E0AB
:1051C00008680D18954203D11468526800190860E8
:1051D0004A60596030BDC0464802002038B5084CCE
:1051E000051C00202060081C111C1A1CFDF78AFAFF
:1051F000431C03D12368002B00D02B6038BDC04670
:10520000E8030020F0B58B8991B0051C0C1C9A07AF
:1052100025D40E23C95E002906DAA78980263740E7
:105220000FD0002740260EE001AA00F065F8002804
:10523000F3DBF02702983902184A01408F187B42AD
:105240005F418023DE00281C311CFFF7ADF90028E8
:105250000CD1A789BA051FD402263743A781211C88
:105260004731012321602161636115E00C498022EF
:10527000A962A38920601343A38120616661002F86
:105280000AD00E23E15E281C00F048F8002803D065
:10529000A58901200543A58111B0F0BD00E0FFFF05
:1052A000B543000008B5034B011C1868FFF77CF9F3
:1052B00008BDC0468C00002000B5C9B282189042DB
:1052C00004D003788B4202D00130F8E7002000BD03
:1052D00038B5084C051C00202060081C111C1A1C45
:1052E000FDF712FA431C03D12368002B00D02B607A
:1052F00038BDC046E803002038B5074C0023051C24
:10530000081C111C2360FDF7F5F9431C03D121682B
:10531000002900D0296038BDE803002038B5074CCB
:105320000023051C081C2360FDF7EAF9431C03D188
:105330002168002900D0296038BDC046E80300205C
:10534000F8B5C046F8BC08BC9E467047F8B5C046E4
:10535000F8BC08BC9E467047010100000000000038
:105360003C6D0100000000000A4D505536303530CC
:1053700020536574757020436F6D706C65746500A3
:105380000A49324320526561642054657374205089
:1053900061737365642C204D505536303530204193
:1053A0006464726573733A203078257800000000D9
:1053B0004552524F523A204932432052656164208F
:1053C00054657374204661696C65642C2053746F56
:1053D0007070696E670000000A52656769737465D2
:1053E0007220636865636B2031206661696C656457
:1053F0002C2076616C75652073686F756C64206213
:105400006520307830312C20776173203078257812
:10541000000000000A526567697374657220636852
:1054200065636B2032206661696C65642C2076614F
:105430006C75652073686F756C64206265203078C8
:1054400030332C20776173203078257800000000FD
:105450000A526567697374657220636865636B20BF
:1054600033206661696C65642C2076616C756520FB
:1054700073686F756C642062652030623030303044
:10548000313030302C20776173203078257800005F
:105490000A526567697374657220636865636B207F
:1054A00034206661696C65642C2076616C756520BA
:1054B00073686F756C642062652030623030303004
:1054C000313030302C20776173203078257800001F
:1054D0000A526567697374657220636865636B203F
:1054E00035206661696C65642C2076616C75652079
:1054F00073686F756C6420626520307830302C20C2
:105500007761732030782578000000000A526567C3
:10551000697374657220636865636B203620666109
:10552000696C65642C2076616C75652073686F7595
:105530006C6420626520307830302C2077617320D5
:1055400030782578000000000A5265676973746539
:105550007220636865636B2037206661696C6564DF
:105560002C2076616C75652073686F756C642062A1
:105570006520307830302C207761732030782578A2
:10558000000000000A5265676973746572206368E1
:1055900065636B2038206661696C65642C207661D8
:1055A0006C75652073686F756C6420626520307857
:1055B00030302C207761732030782578000000008F
:1055C0000A526567697374657220636865636B204E
:1055D00039206661696C65642C2076616C75652084
:1055E00073686F756C6420626520307830302C20D1
:1055F0007761732030782578000000000A526567D3
:10560000697374657220636865636B20313020664E
:1056100061696C65642C2076616C75652073686FB8
:10562000756C6420626520307830302C207761738F
:1056300020307825780000000A5265676973746528
:105640007220636865636B203131206661696C6527
:10565000642C2076616C75652073686F756C6420AE
:10566000626520307830302C2077617320307825C7
:10567000780000000A526567697374657220636878
:1056800065636B203132206661696C65642C20761D
:10569000616C75652073686F756C6420626520307D
:1056A0007830302C20776173203078257800000026
:1056B0000A526567697374657220636865636B205D
:1056C0003133206661696C65642C2076616C756588
:1056D0002073686F756C6420626520307830302CE0
:1056E0002077617320307825780000000A526567C2
:1056F000697374657220636865636B20313420665A
:1057000061696C65642C2076616C75652073686FC7
:10571000756C6420626520307830302C207761739E
:1057200020307825780000000A5265676973746537
:105730007220636865636B203135206661696C6532
:10574000642C2076616C75652073686F756C6420BD
:10575000626520307830302C2077617320307825D6
:10576000780000000A526567697374657220636887
:1057700065636B203136206661696C65642C207628
:10578000616C75652073686F756C6420626520308C
:105790007830302C20776173203078257800000035
:1057A0000A526567697374657220636865636B206C
:1057B0003137206661696C65642C2076616C756593
:1057C0002073686F756C6420626520307830302CEF
:1057D0002077617320307825780000000A526567D1
:1057E000697374657220636865636B203138206665
:1057F00061696C65642C2076616C75652073686FD7
:10580000756C6420626520307830302C20776173AD
:1058100020307825780000000A5265676973746546
:105820007220636865636B203139206661696C653D
:10583000642C2076616C75652073686F756C6420CC
:10584000626520307830302C2077617320307825E5
:10585000780000000A526567697374657220636896
:1058600065636B203230206661696C65642C20763C
:10587000616C75652073686F756C6420626520309B
:105880007830302C20776173203078257800000044
:105890000A526567697374657220636865636B207B
:1058A0003231206661696C65642C2076616C7565A7
:1058B0002073686F756C6420626520307830302CFE
:1058C0002077617320307825780000000A526567E0
:1058D000697374657220636865636B203232206679
:1058E00061696C65642C2076616C75652073686FE6
:1058F000756C6420626520307830302C20776173BD
:1059000020307825780000000A5265676973746555
:105910007220636865636B203233206661696C6551
:10592000642C2076616C75652073686F756C6420DB
:10593000626520307830302C2077617320307825F4
:10594000780000000A5265676973746572206368A5
:1059500065636B203234206661696C65642C207647
:10596000616C75652073686F756C642062652030AA
:105970007830302C20776173203078257800000053
:105980000A526567697374657220636865636B208A
:105990003235206661696C65642C2076616C7565B2
:1059A0002073686F756C6420626520307830302C0D
:1059B0002077617320307825780000000A526567EF
:1059C000697374657220636865636B203236206684
:1059D00061696C65642C2076616C75652073686FF5
:1059E000756C6420626520307830302C20776173CC
:1059F00020307825780000000A5265676973746565
:105A00007220636865636B203237206661696C655C
:105A1000642C2076616C75652073686F756C6420EA
:105A2000626520307830302C207761732030782503
:105A3000780000000A5265676973746572206368B4
:105A400065636B203238206661696C65642C207652
:105A5000616C75652073686F756C642062652030B9
:105A60007830302C20776173203078257800000062
:105A70000A526567697374657220636865636B2099
:105A80003239206661696C65642C2076616C7565BD
:105A90002073686F756C6420626520307830302C1C
:105AA0002077617320307825780000000A526567FE
:105AB000697374657220636865636B203330206698
:105AC00061696C65642C2076616C75652073686F04
:105AD000756C6420626520307830302C20776173DB
