:1000000000800020694100009F410000A1410000E4
:10001000A3410000A5410000A74100009D41000050
:100020009D4100009D4100009D410000A94100004C
:10003000AB4100009D410000AD4100001D170000D4
:10004000B1410000DD1600002D17000081130000F3
:10005000D9130000BB410000BD410000BF410000BA
:10006000C1410000C3410000C5010000FD160000B1
:10007000C9410000CB410000CD410000CF4100004C
:10008000D1410000D3410000D5410000D74100001C
:10009000D9410000DB410000DD410000DF410000EC
:1000A000E1410000E3410000E5410000E7410000BC
:1000B000E9410000EB410000ED410000EF4100008C
:1000C000F1410000F3410000F5410000F74100005C
:1000D000F9410000FB410000FD410000FF4100002C
:1000E0000000000000000000000000000000000010
:1000F0000000000000000000000000000000000000
:1001000010B5054C237833B9044810B10448AFF357
:1001100000800121217010BDA80000200000000017
:100120009861000008B5064B1BB106480649AFF3BD
:1001300000800648016811B1054A02B1904708BD28
:100140000000000098610000AC000020A400002026
:1001500000000000154B002B08BF134B9D46A3F574
:10016000803A00218B460F461348144A121A05F0B4
:1001700002FA0F4B002B00D098470E4B002B00D0FB
:1001800098470020002104460D4600200C4900221B
:10019000002305F087F905F0BFF92046294601F054
:1001A000D9FA05F08DF900BF00000800008000209A
:1001B0000000000000000000A8000020A4030020B0
:1001C000ED5400004FF4244008B5C4F2000002F0E2
:1001D00055FE40F28023C2F20003187008BD00BF34
:1001E00045F6D853F0B5C0F200030FCB022585B019
:1001F0002F044FF4D4568DE80F00C0F2060647F4E2
:100200004240012102968DF80C5002F05FF8042064
:1002100000210822012302F06FFD012104200B467A
:10022000082202F069FD4FF42440C4F2000040F2BD
:100230000321816369466C4602F0C2FD05B0F0BD42
:1002400030B589B008AC082504F81C2DADF80C10A9
:10025000012203A98DF808300DEB0503ADF80E500F
:100260000494ADF814200693ADF81C2002F040FF72
:10027000054908704FF42440C4F2000002F0FEFD6E
:100280000028F7D109B030BD8002002030B589B018
:1002900008AC1D4604F8182D04230122ADF80C10FB
:1002A000ADF80E3003A900AB0494ADF8142006930A
:1002B000ADF81C2002F01CFF074908704FF42440E1
:1002C000C4F2000002F0DAFD0028F7D19DF800200A
:1002D0002A7009B030BD00BF8002002010B54FF475
:1002E0002444C4F20004FFF77BFFD021192201232C
:1002F0002046FFF7A5FFD0211A2203232046FFF74F
:100300009FFFD0211B2204232046FFF799FFD02115
:100310001C2204232046FFF793FFD0211D22002337
:100320002046FFF78DFFD0211E2200232046FFF735
:1003300087FFD0211F2200232046FFF781FF2022C4
:1003400000232046D021FFF77BFFD0212046212229
:100350000023FFF775FFD021222200232046FFF75C
:100360006FFFD021232200232046FFF769FFD02111
:10037000242200232046FFF763FFD02125220023FB
:100380002046FFF75DFFD021262200232046FFF7FD
:1003900057FFD021272200232046FFF751FFD0210D
:1003A000002320462822FFF74BFFD0212046292298
:1003B0000023FFF745FFD0212A2200232046FFF724
:1003C0003FFFD0212B2200232046FFF739FFD02109
:1003D0002C2200232046FFF733FFD0212D220023BB
:1003E0002046FFF72DFFD0212E2200232046FFF7C5
:1003F00027FFD0212F2200232046FFF721FFD02105
:10040000302220460023FFF71BFFD0213122204657
:100410000023FFF715FFD021322200232046FFF7EB
:100420000FFFD021332200232046FFF709FFD02100
:10043000342200232046FFF703FFD021352200237A
:100440002046FFF7FDFED021372200232046FFF78C
:10045000F7FED021382200232046FFF7F1FED021FD
:10046000632200232046FFF7EBFE2046D0216422C2
:100470000023FFF7E5FED021652200232046FFF789
:10048000DFFED021662200232046FFF7D9FED021CF
:10049000672200232046FFF7D3FED02168220023E5
:1004A0002046FFF7CDFED021692200232046FFF72A
:1004B000C7FED0216A2200232046FFF7C1FED021CB
:1004C0006B2202232046FFF7BBFE6C22002320464E
:1004D000D021FFF7B5FED021204674220023BDE8CD
:1004E0001040FFF7ADBE00BF00B585B004AB0022E1
:1004F00001214FF4244003F8082DC4F200000091BC
:100500007522D021FFF7C2FE9DF80830682B00D07D
:10051000FEE705B000BD00BFF0B585B004AC002318
:1005200004F8083D01254FF42440D0211922234628
:100530000095C4F20000FFF7A9FE4FF42440D0213B
:100540001A220095C4F2000023469DF80860FFF7C8
:100550009DFE9DF80800032800F05E822E460125CE
:100560004FF42440D0211B2223460095C4F2000002
:10057000FFF78CFE9DF8087000954FF42440D021C1
:100580001C222346C4F20000FFF780FE042F18BF90
:100590002E464FF424409DF808700095D0211D226E
:1005A0002346C4F20000FFF771FE042F18BF2E4649
:1005B0004FF424409DF808700095D0211E22234658
:1005C000C4F20000FFF762FE002F18BF2E464FF462
:1005D00024409DF808700095D0211F222346C4F2C4
:1005E0000000FFF753FE002F18BF2E464FF42440A3
:1005F0009DF808700095D02120222346C4F2000007
:10060000FFF744FE002F18BF2E464FF424409DF8FC
:1006100008700095D02121222346C4F20000FFF784
:1006200035FE002F18BF2E464FF424409DF8087069
:100630000095D02123462222C4F20000FFF726FEB7
:10064000002F18BF2E464FF424409DF808700095E7
:10065000D02123462322C4F20000FFF717FE002F0B
:1006600018BF2E464FF424409DF808700095D02105
:1006700024222346C4F20000FFF708FE002F18BF13
:100680002E464FF424409DF808700095D021252275
:100690002346C4F20000FFF7F9FD002F18BF2E46D5
:1006A0004FF424409DF808700095D021262223465F
:1006B000C4F20000FFF7EAFD002F18BF2E464FF4EA
:1006C00024409DF808700095D02127222346C4F2CB
:1006D0000000FFF7DBFD002F18BF2E464FF424402B
:1006E0009DF808700095D02128222346C4F200000E
:1006F000FFF7CCFD002F18BF2E464FF424409DF885
:1007000008700095D02129222346C4F20000FFF78B
:10071000BDFD002F18BF2E464FF424409DF80870F1
:100720000095D0212A222346C4F20000FFF7AEFD37
:10073000002F18BF2E464FF424409DF808700095F6
:10074000D0212B222346C4F20000002F18BF2E46D2
:10075000FFF79CFD9DF8087000954FF42440D021D0
:100760002C222346C4F20000FFF790FD002F18BF93
:100770002E464FF424409DF808700095D0212D227C
:100780002346C4F20000FFF781FD002F18BF2E465C
:100790004FF424409DF808700095D0212E22234666
:1007A000C4F20000FFF772FD002F18BF2E464FF471
:1007B00024409DF808700095D0212F222346C4F2D2
:1007C0000000FFF763FD002F18BF2E464FF42440B2
:1007D0009DF808700095D02130222346C4F2000015
:1007E000FFF754FD002F18BF2E464FF424409DF80C
:1007F00008700095D02131222346C4F20000FFF793
:1008000045FD002F18BF2E464FF424409DF8087078
:100810000095D02132222346C4F20000FFF736FDB6
:10082000002F18BF2E464FF424409DF80870009505
:100830002346D0213322C4F20000002F18BF2E46D9
:10084000FFF724FD4FF424409DF808700095D02157
:1008500034222346C4F20000FFF718FD4FF4244071
:10086000002F18BF2E46D0219DF808700095352224
:100870002346C4F20000FFF709FD4FF42440002F87
:1008800018BF2E46D0219DF80870009537222346C8
:10089000C4F20000FFF7FAFC4FF42440002F18BF09
:1008A0002E46D0219DF80870009538222346C4F2C8
:1008B0000000FFF7EBFC4FF42440002F18BF2E463A
:1008C000D0219DF80870009563222346C4F20000F1
:1008D000FFF7DCFC4FF42440002F18BF2E46D02138
:1008E0009DF80870009564222346C4F20000FFF7CB
:1008F000CDFC4FF42440002F18BF2E46D0219DF888
:100900000870009565222346C4F20000FFF7BEFC84
:100910004FF42440002F18BF2E4666229DF8087021
:1009200000952346D021C4F20000FFF7AFFC4FF43E
:100930002440002F18BF2E462346D0219DF8087072
:1009400000956722C4F20000FFF7A0FC4FF424409A
:10095000002F18BF2E46D0219DF808700095682200
:100960002346C4F20000FFF791FC4FF42440002F0F
:1009700018BF2E46D0219DF80870009569222346A5
:10098000C4F20000FFF782FC4FF42440002F18BF90
:100990002E46D0219DF8087000956A222346C4F2A5
:1009A0000000FFF773FC4FF42440002F18BF2E46C1
:1009B000D0219DF8087000956B222346C4F20000F8
:1009C000FFF764FC4FF42440002F18BF2E46D021BF
:1009D0009DF8087000956C222346C4F20000FFF7D2
:1009E00055FC4FF42440022F18BF2E46D0219DF80D
:1009F0000870009523467422C4F20000FFF746FCFD
:100A00009DF80810002F0CBF34462C4600290CBF5F
:100A10002046284605B0F0BD761B18BF01269EE58E
:100A20002DE9F04FDFF874B1DFF874A1DFF87491AD
:100A300000220023CBE90023CAE90023C9E90023EF
:100A400083B041F2883801244FF42440D02143225E
:100A5000494B0094C4F20000FFF718FC4FF4244007
:100A6000D0214422454B0094C4F20000FFF70EFC55
:100A70004FF42440D0214522414B0094C4F20000A1
:100A8000FFF704FC4FF42440D02146223D4B009454
:100A9000C4F20000FFF7FAFB4FF42440D0214722B4
:100AA000394B0094C4F20000FFF7F0FB4FF42440F0
:100AB000D02148220094354BC4F20000FFF7E6FB3A
:100AC00040F22101C2F2000140F22600C2F2000011
:100AD0000F7890F800C040F2280640F21A0540F264
:100AE000220440F21901DBE90023C2F20006C2F23F
:100AF0000005C2F20004C2F2000147EA0C2796F892
:100B000000E028780E782578D21946EA052143EBD3
:100B1000E773DAE90067D9E9004540EA0E203618A4
:100B200047EBE077641845EBE175B8F10108CBE9D4
:100B30000023CAE90067C9E9004584D11046194677
:100B400041F28832002304F0C1F9114B41F288329E
:100B5000188039460023304604F0B8F90D4941F2B7
:100B60008832088000232046294604F0AFF90A4A5B
:100B7000108003B0BDE8F08F260000202100002087
:100B8000280000201A000020220000201900002068
:100B9000D6010020400200200002002018020020A0
:100BA00028020020380200202DE9F04FDFF874B150
:100BB000DFF874A1DFF8749100220023CBE9002351
:100BC000CAE90023C9E9002383B041F2883801242F
:100BD0004FF42440D0213B22494B0094C4F2000042
:100BE000FFF754FB4FF42440D0213C22454B0094A6
:100BF000C4F20000FFF74AFB4FF42440D0213D220D
:100C0000414B0094C4F20000FFF740FB4FF4244036
:100C1000D0213E223D4B0094C4F20000FFF736FB8A
:100C20004FF42440D0213F22394B0094C4F20000FD
:100C3000FFF72CFB4FF42440D02140220094354B89
:100C4000C4F20000FFF722FB40F22001C2F20001D3
:100C500040F22500C2F200000F7890F800C040F288
:100C6000230640F2240540F2180440F22701DBE994
:100C70000023C2F20006C2F20005C2F20004C2F272
:100C8000000147EA0C2796F800E028780E782578CE
:100C9000D21946EA052143EBE773DAE90067D9E99F
:100CA000004540EA0E20361847EBE077641845EB24
:100CB000E175B8F10108CBE90023CAE90067C9E989
:100CC000004584D11046194641F28832002304F0D1
:100CD000FDF8114B41F28832188039460023304626
:100CE00004F0F4F80D4941F28832088000232046D0
:100CF000294604F0EBF80A4A108003B0BDE8F08FF3
:100D000025000020200000202300002024000020D7
:100D10001800002027000020D4010020300200200D
:100D2000F8010020E0010020F0010020080200206E
:100D30002DE9F04F4FF4244483B040F2250BC4F268
:100D400000040125C2F2000B40F2200A5B46D021CC
:100D50003B22C2F2000A0095204640F22309FFF729
:100D600095FAC2F200095346D0213C220095204654
:100D700040F22408FFF78AFAC2F200084B46D0215D
:100D80003D220095204640F21807FFF77FFAC2F295
:100D900000074346D0213E220095204640F2270618
:100DA000FFF774FAC2F200063B46D0213F220095BD
:100DB0002046FFF76BFA334600952046D0214022AB
:100DC000FFF764FA40F2F811C2F2000140F2D412C7
:100DD00040F23023C2F20002C2F2000399F8000090
:100DE0009BF800C0B1F8009096F800B09AF800A007
:100DF00098F800803F7815881E8840F2DA1140F29A
:100E0000FA1240F2102348EA0024C2F200014AEA32
:100E10000C2CC2F20002C2F20003C9F500504BEAEA
:100E20000727C5EB0C05A41BC0190D801480188082
:100E300003B0BDE8F08F00BF2DE9F04F2DED048B1E
:100E40004FF4244483B040F2260B0125C4F2000481
:100E5000C2F2000B40F2210AD02143225B46C2F2CB
:100E6000000A0095204640F22809FFF70FFAC2F267
:100E70000009D021442253460095204640F21A082A
:100E8000FFF704FAC2F20008D02145224B46009534
:100E9000204640F22207FFF7F9F9C2F20007D021FD
:100EA000462243460095204640F21906FFF7EEF928
:100EB000C2F20006D02147223B4600952046FFF7AC
:100EC000E5F948223346D02100952046FFF7DEF9A8
:100ED00040F2402240F20023C2F20002C2F20003BC
:100EE000307898F800E03D7899F8004011881E8825
:100EF0009AF800209BF800C04EEA042340EA052738
:100F00005C1ABD1B42EA0C2C1FFA84FEAFB20FFA2A
:100F10008CF00FFA8EF13EB209EE100A08EE901A2C
:100F200008EE106ADFED487AB8EEC90AF8EEE80A72
:100F3000B8EEC81A9FED457AC0EEA78A40F2202885
:100F400040F2482640F2D81540F2E814C2F20008F8
:100F5000C2F20006C2F20005C2F2000440F2EC1236
:100F600040F2502140F24423C2F20002C2F20003D8
:100F700081EE078AC2F20001A6F800C0A5F800E0E1
:100F80002780D8F8000040F24C27C2F2000740F258
:100F9000FC16C2F2000680EE279A83ED008A82EDED
:100FA000009AC1ED008A03F02BFC044619EE100AEA
:100FB0000D4603F025FC22A3D3E9002303F074FCC3
:100FC00002460B462046294603F0BCFA03F02EFFEA
:100FD000C8F80000386803F013FC044618EE900AC5
:100FE0000D4603F00DFC16A3D3E9002303F05CFCCF
:100FF00002460B462046294603F0A4FA03F016FFEA
:101000003860306803F0FCFB044618EE100A0D4609
:1010100003F0F6FB0AA3D3E9002303F045FC0246E4
:101020000B462046294603F08DFA03F0FFFE3060A0
:1010300003B0BDEC048BBDE8F08F00BFAFF30080C0
:101040007B14AE47E17A643F000085420000834292
:101050002DE9F04F144685B01D468046DDE90E238C
:101060002046294603F020FCD8E90A2303F06AFA57
:1010700098E8C0000090019182468946DDE90001B0
:1010800007F1004BCDF808A0CDF80C90C8E90A0193
:1010900032465B46DDE9020103F078FE00283DD1CF
:1010A0005046324649463B4603F08EFE28B1324652
:1010B0003B46C8E90A23B246B946D8E9022320468E
:1010C000294603F0F1FBD8E9042306460F465046B3
:1010D000494603F0E9FB02460B463046394603F029
:1010E00031FAD8E9082306460F462046294603F080
:1010F00027FADDE90E2303F001FDD8E9062303F00A
:10110000D3FB02460B463046394603F01BFAC8E9CA
:101110000845C8E90C0105B0BDE8F08F32465B46D2
:10112000B246C8E90A23D946C7E700BF70B5022016
:1011300000210422012301F0DFFD01210A460220E3
:10114000002301F0D9FD40F20003C2F200034FF486
:101150004044C4F200044FF41655002205262046F0
:1011600019469D604FF480551A705A601A735E7369
:10117000DA811D829A74DA741A7502F07FFB41F6E7
:10118000FF70A064E16C4FF46143CEF200030825C8
:10119000102241F00400E0643146C3F8805120463B
:1011A000C3F880211D601A6040F203536365BDE8F7
:1011B000704002F033BB00BF094BD3F80821002A6E
:1011C000FBD0D3F80001185CD3F800114A1CD1B24F
:1011D000C3F80011D3F80821511EC3F80811704755
:1011E000840200200E4BD3F80821511CB1F5807FFA
:1011F000F9D8D3F804219854D3F80401411CCAB299
:10120000C3F80421D3F808014FF44042C4F20002AD
:10121000411CC3F80811D36C43F00200D06470473E
:10122000C4000020B1F5807F70B44FD8284BD3F8AC
:1012300008218A18B2F5807FF9D8002939D00246F2
:10124000D3F8044112F8015B1D55D3F80441451849
:101250000134C0434019E4B2AA42C3F8044100F08B
:10126000010026D060B1D3F8040112F8014B1C54E0
:10127000D3F804010130C0B2AA42C3F8040118D067
:101280001046D3F8044110F8016B1E55D3F8044101
:101290000134E4B2C3F80441D3F8044152781A553A
:1012A000D3F80441621CD4B2421CAA42C3F80441E0
:1012B000E6D1D3F808014FF44042C4F20002091805
:1012C000C3F80811D36C43F00200D06470BC7047BF
:1012D000C4000020294BD3F808218A4230B40446C8
:1012E00041D319B9D3F80811002945D0D3F800210A
:1012F000985C2070D3F80021501CC0B2C3F80001E4
:1013000001204A1E814202F0010225D962B1D3F8C0
:1013100000011A5C6270D3F80001421C0220D2B2B4
:101320008142C3F8002117D9D3F800515A5D2254E5
:10133000D3F800516A1CD5B2C3F80051D3F800515C
:10134000421C585DA054D3F80051681CC5B2501C13
:101350008142C3F80051E7D8D3F80821511AC3F8E5
:10136000081130BC7047D3F808018142B9D9D3F8CD
:1013700008018142F7D8B4E70846EDE7840200206F
:101380004FF44040C4F2000008B503691B0600D4C6
:1013900008BD02F0F1FA0F49D1F804218854D1F8C0
:1013A0000401431CDAB2C1F80421D1F80801431C3E
:1013B000C1F80831D1F80821B2F5807F02D90120A7
:1013C00081F80C014FF44041C4F2000104238B6406
:1013D00008BD00BF840200204FF44040C4F200006A
:1013E00010B503695A060ED5124CD4F8081159B934
:1013F000D4F808313BB94FF44041C4F20001CA6C43
:1014000022F00200C86410BDD4F80021A15C02F0F3
:10141000B9FAD4F80001431CD9B2C4F80011D4F8C9
:101420000821501EC4F80801D4F80831002BE2D07E
:10143000E9E700BFC400002030B587B0FFF776FEB3
:101440006E4C40F24B455820FFF7CCFE22682368D3
:10145000981AA842FBD92B20FFF7C4FE2B20FFF7D8
:10146000C1FE2B20FFF7BEFE64490A682368981A64
:10147000A842FBD902216846FFF72CFF9DF8001017
:101480004F2903D09DF801204B2ADCD103A85C49E9
:101490004F2204F079F85B4904A804F0A6F803A9E8
:1014A00004A804F095F804A80621FFF7BBFE0D2060
:1014B000FFF798FE20682368191A1329FBD9022127
:1014C00002A8FFF707FF9DF808204F2AE3D19DF8F7
:1014D00009004B28DFD103A84949002204F054F841
:1014E000494904A804F081F803A904A804F070F89D
:1014F000062104A8FFF796FE0D20FFF773FE216872
:1015000023685A1A132AFBD9022102A8FFF7E2FE28
:101510009DF808004F28E3D19DF809104B29DFD131
:1015200003A83749172204F02FF8384904A804F01B
:101530005CF803A904A804F04BF804A80621FFF7FF
:1015400071FE0D20FFF74EFE22682368981A1328BB
:10155000FBD9022102A8FFF7BDFE9DF808104F2914
:10156000E3D19DF809204B2ADFD103A824490122A9
:1015700004F00AF8264904A804F037F803A904A8DF
:1015800004F026F804A80621FFF74CFE0D20FFF713
:1015900029FE20682368191A1329FBD9022102A801
:1015A000FFF798FE9DF808204F2AE3D19DF8090027
:1015B0004B28DFD103A812494FF0FF3203F0E4FFBC
:1015C000144904A804F011F8042104A8FFF72AFE26
:1015D0000D20FFF707FE216823685A1A132AFBD94A
:1015E000022102A8FFF776FE9DF808004F28E7D1F8
:1015F0009DF809104B29E3D107B030BD94030020BA
:10160000E85D0000EC5D0000F45D0000FC5D0000A2
:10161000045E00000C5E00002DE9F8430023136017
:10162000904689460646FFF7C7FDFFF7C5FD04460D
:10163000FFF7C2FD0746FFF7BFFDFFF7BDFDC0196D
:10164000C7B2FFF7B9FD3918CFB2FFF7B5FD621F7A
:101650003B18B9F1000FD4B2DFB230DD34B3F04340
:10166000B14409EB0001CB0711D4FFF7A5FD3546C6
:10167000631E05F8010BD8F8001038184A1C4D45B8
:101680002E46DCB2C7B2C8F8002018D074B1FFF7FC
:1016900093FD06F8010BD8F80020013C531C3F18BD
:1016A00014F0FF04C8F80030FFB2DED1FFF784FD6C
:1016B000C7F1FF07874208D10120BDE8F883FFF793
:1016C0007BFDC7F1FF07874202D00020BDE8F88309
:1016D000002CF1D00020BDE8F88300BF4FF4C042D9
:1016E00040F29833C4F20002C2F200034FF480616A
:1016F0000120C2F81C111870704700BF4FF4C0429F
:1017000040F29933C4F20002C2F200034FF40071B8
:101710000120C2F81C111870704700BF40F29433CA
:10172000C2F200031A68501C1860704740F21C0394
:10173000C2F2000300224FF480611B68C4F2010270
:10174000C4F2010101209061D363D364CB63CB6405
:10175000704700BF2DE9F04F2020A9B0C0F204006F
:1017600000F024FB44F6D353C1F26203A3FB001044
:1017700081094E1EB6F1807F00D3FEE74EF21007BE
:101780004FF46D42CEF20002CEF200070024E023B7
:1017900007257E60204682F82330BC603D6002F061
:1017A0008DFE02F093FE4FF452400121C0F2020080
:1017B00000F08CFD48F210100121C0F2020000F090
:1017C00085FD4FF4A4400121C0F2020000F07EFD2F
:1017D0004FF4C4400121C0F2020000F077FD4FF445
:1017E00000700121C0F2020000F070FD0320012111
:1017F0000422234601F080FA03200221042223461A
:1018000001F07AFA032006210422234601F074FA3B
:10181000032004222946234601F06EFA01200246E5
:101820000921234601F068FA0120074602460A21F1
:10183000234601F061FA3846092122463B460097CB
:1018400001F0FEF93B460A2122463846009701F096
:10185000F7F94FF46141CEF200014FF40062022625
:10186000C1F8806120460E60C1F880210A6002F054
:101870003DF902F08DF8D34802F0AAFB384602F099
:1018800043FE032002F090F9FEF728FD02F080F8F5
:10189000384602F089F9FEF727FE02F079F8304663
:1018A00002F082F9FEF738FE002800F0F28102F023
:1018B0006FF8042002F078F9FFF7B2F8FFF774F937
:1018C000FFF7BAFD02F064F8022002F01DFEDFF817
:1018D00030B3DFF80CA3DFF82C93BB4DBB4CDFF823
:1018E0002883BB4FBB4E00210020C3F6E07141ECC2
:1018F000170B00204FF0804141EC100B002100201D
:10190000C3F6E07141EC110B4FF08041002041EC37
:10191000120B8DED0E7B8DED127B8DED107B8DED21
:101920000C0B8DED1C1B8DED201B8DED1E1B8DED0D
:101930001A2BFFF781FAFFF7FBF9A74802F048FBE3
:10194000BBF9000002F030F9DAF8000040F2E731AC
:10195000DAF800301A1A8A42FAD902F019F89F48C8
:1019600002F036FB40F2D810C2F20000B0F90000DD
:1019700002F01AF99A49086840F2E732DAF80030C2
:10198000191A9142FAD902F003F8964802F020FBA6
:10199000B9F9000002F008F99148016840F2E73215
:1019A000DAF80030581A9042FAD901F0F1FF8E4867
:1019B00002F00EFBB5F9000002F0F6F8884908685D
:1019C00040F2E732DAF80030191A9142FAD901F000
:1019D000DFFF864802F0FCFAB4F9000002F0E4F8F8
:1019E0007F48016840F2E732DAF80030581A904236
:1019F000FAD901F0CDFF7E4802F0EAFAB8F900000A
:101A000002F0D2F87649086840F2E732DAF800309E
:101A1000191A9142FAD901F0BBFFB7F90020B5F9C4
:101A20000000801A02F0DAFE0B4600210246C3F6DF
:101A3000F071002041EC130B0CA88DED003BFFF77B
:101A400007FBB6F90030B4F90010C81A02F0C6FE60
:101A50000B4600210246C3F6F071002041EC140B46
:101A60001AA88DED004BFFF7F3FA624802F0B0FAC6
:101A7000DDE9180103F0B2F902F096F85848016860
:101A800040F2E732DAF80030581A9042FAD901F001
:101A90007FFF594802F09CFADDE9260103F09EF928
:101AA00002F082F84E49086840F2E732DAF8003076
:101AB000191A9142FAD901F06BFF40F29930C2F243
:101AC00000000278002A3FF40EAF4C4DDFF83CB125
:101AD0000F2002F019FD28686968B5F808C095F86C
:101AE0000AE005AB03C30024C4F2010400264FF44E
:101AF0008065C4F201052046314605AAA3F800C05E
:101B000083F802E001278BF8006001F0A9FD284668
:101B1000314605AA01F0A4FD2046394605AA8DF8F4
:101B2000167001F09DFD2846394605AA01F098FD82
:101B3000A16A41F440303843A062A26A42F44033C3
:101B400043F00201A162A86A40F480223A43AA62EB
:101B5000AB6A43F4802141F0020248F21010AA62FD
:101B6000C0F2020000F022F948F21F59C5F2EB1949
:101B7000A9FB0020C30948F21010E361C0F2020083
:101B800000F014F9A9FB0031CA0943F2B060EA6120
:101B9000E063E064E863E864E16808964FF4614359
:101BA000CEF20003394309960A968DF82C608DF821
:101BB00020708DF821702046E160042408A91C6083
:101BC00026E000BF205E0000DA010020FA010020BC
:101BD000D401002030020020285E0000305E0000AA
:101BE00094030020385E0000405E0000485E000064
:101BF000505E0000585E0000605E0000145E000051
:101C000048020020E8010020100200209903002073
:101C1000284E01F0ADFC284608A901F0A9FC356862
:101C2000DAF80070781BF928FAD9234DDFF88CB068
:101C30002C4643F66B1846F6A4279BF800600EBBB3
:101C4000FFF7BAFA7E28F8D1012104AA02A88DF87C
:101C500008600496FFF7E0FC0028EED09DF80830FD
:101C6000752B1CD0642BE8D128684045E5DD0120A8
:101C700002F04AFC2668A6F52F729BF800602260ED
:101C8000002EDDD00D4900220F200A7002F03CFC2E
:101C9000FEE701F07DFE052001F086FF0CE62968D5
:101CA000B942CADC0F2002F02FFC236803F52F7025
:101CB0002060C2E7940300201C000020980300204D
:101CC000FEE700BF00F00F00411E08B5042917D839
:101CD000DFE801F01D30425403004FF40043C4F22A
:101CE0000C03DA6A02F46030B0F5803F50D0B0F5F2
:101CF000003F4FD0B0F5004F0CBF0820012008BDB9
:101D0000294840F25651FFF7DBFF002008BD4FF491
:101D10000042C4F20C02D16A01F47050B0F5805F49
:101D200038D0B0F5005F33D0B0F5006F0CBF0420A1
:101D3000052008BD4FF40041C4F20C01886A00F090
:101D40000300022825D003282BD0012822D08B6A3B
:101D5000D80311D5092008BD4FF40040C4F20C008F
:101D6000816A01F00C03082B12D00C2B19D0042B24
:101D700010D0826AD102EDD4012008BD4FF4004199
:101D8000C4F20C010B6813F0805205D1072008BD86
:101D9000022008BD032008BD002A14BF082001202E
:101DA00008BD062008BD00BF685E000000F4781082
:101DB000B0F5602F08B500F0478116D9B0F5B01F17
:101DC00000F0FD8044D9B0F5D01F00F09580B0F54B
:101DD000E01F00F01381B0F5C01F7ED0BC484FF467
:101DE0009761FFF76DFF002008BDB0F5C02F00F030
:101DF00018815BD9B0F5202F00F0C280B0F5402FDC
:101E000000F09880B0F5002FE8D14FF40040C4F204
:101E10000C00836A03F00302022A00F09D81032A6A
:101E200000F0D581012A00F018824FF40041C4F27D
:101E30000C01886A000C01D002F0E6FA4FF400436E
:101E4000C4F20C039A6EC2F3031120FA01F008BD2C
:101E5000B0F5901F00F03E81B0F5A01F00F0198191
:101E6000B0F5801FBAD14FF40042C4F20C02906A60
:101E700000F00301022900F06681032900F0DF81F0
:101E8000012900F0D9814FF40043C4F20C039A6A8F
:101E9000100C01D002F0B8FA4FF40042C4F20C0268
:101EA000916E01F0030320FA03F008BDB0F5003F86
:101EB00000F02981B0F5802F00F0218100288DD11C
:101EC00002F01EFA4FF40042C4F20C021168C1F392
:101ED00082335A1CB0FBF2F008BD0420C0F2180097
:101EE000FFF7F0FE072807D00828E9D0784840F22D
:101EF0006111FFF7E5FE76E74FF40040C4F20C00F5
:101F0000416901F4E063B3F5007F00F0A98140F27C
:101F10000C81B3F5C06F00F0AD81B3F5E06F00F058
:101F2000A481B3F5407F7FF45EAF44F24020C0F25D
:101F30000F0008BD4FF40043C4F20C03986A00F090
:101F40000302022A00F0FC80032A00F06B81012AC0
:101F500000F06581996A0B0C40F0988100204FF4E5
:101F60000042C4F20C021023916EB3FA83F2D3B292
:101F7000C3F11F02C1F30131531820FA03F008BD69
:101F80004FF40040C4F20C00826A02F003010229FF
:101F900000F0DC80032900F02E81012900F0288167
:101FA000836A180C01D002F02FFA4FF40041C4F2FA
:101FB0000C018B6EC3F3032220FA02F008BD4FF42C
:101FC0000040C4F20C00826AC2F38101022900F0D1
:101FD000C080032900F01981012900F00681836A7D
:101FE000180D01D002F010FA4FF40041C4F20C01B8
:101FF0000B6FC3F3011220FA02F008BD42F2053064
:10200000C0F21C00FFF75EFE032800F09580082850
:1020100000F0B68002287FF4E6AEBDE8084002F08A
:10202000F7B94FF40043C4F20C03986A00F00301BF
:102030000229F2D0032900F0988001297CD09B6A04
:10204000180C3FF4D1AE56E04FF40040C4F20C003F
:10205000816A01F00303022B00F08480032B00F05F
:102060009F80012B00F09980826A100C01D002F051
:10207000CBF94FF40043C4F20C039A6ED96FC2F34C
:10208000013201F0070320FA02F0591CB0FBF1F015
:1020900008BD4FF40041C4F20C01886AC0F381020C
:1020A000022A5CD0032A00F08880012A00F0828096
:1020B0008B6A1B0D40F0E78000204FF40042C4F211
:1020C0000C02136F03F0030120FA01F008BD00BFFA
:1020D000685E00004FF40043C4F20C03986AC0F33A
:1020E0008102022A99D0032A3FD0012A24D0996A7A
:1020F000080D3FF479AEBDE8084002F085B9BDE8AF
:10210000084002F07DB802F0FBF84FF40043C4F23F
:102110000C031A689968C2F382335A1CB0FBF2F0C0
:1021200001F00F0120FA01F008BD002B2CD149F677
:102130008070C0F2D50008BDBDE8084002F060B96B
:1021400002F066F90BE702F063F9A5E602F060F928
:102150002BE702F05DF947E702F05AF96EE602F06C
:1021600057F9AAE702F054F983E75868C20503D487
:102170001B685B0040F1838002F042F8800808BDD4
:10218000BDE8084002F0BCB8B3F5807F7FF42BAE09
:102190004DF6C000C0F2A70008BD02F031F968E7B3
:1021A0004168CA0502D4006843007ED502F028F8D1
:1021B00080085EE702F024F97FE74868C00502D492
:1021C0000968490075D502F01BF8800875E7436877
:1021D000D80506D44FF40042C4F20C02116849003D
:1021E0006BD502F00DF8800828E602F009F9FBE64D
:1021F00002F006F9D9E64268D20502D4006843002D
:102200005FD501F0FDFF8008CFE64268D20502D419
:10221000006843003DD501F0F3FF8008E4E602F0DA
:10222000EFF89CE65868C00502D41B68590034D505
:1022300001F0E6FF800892E602F0E2F82CE6506832
:10224000C00506D44FF40041C4F20C010B685900DC
:1022500027D501F0D5FF80081EE602F0D1F8EDE5A4
:102260004CF6C070C0F26A0008BD46F64070C0F27D
:10227000401008BD4FF47C50C0F2AB1008BD01F017
:10228000BFFF400808BD02F0BFF816E702F0BCF837
:1022900065E601F0B5FF4008A6E601F0B1FF400891
:1022A0005DE601F0ADFF4008F6E501F0A9FF40084A
:1022B000DFE601F0A5FF4008FFE601F0A1FF4008BE
:1022C000BCE501F09DFF40086FE600BF30B5C0F3EC
:1022D00003230446581E83B005280FD8DFE800F01A
:1022E000161A1F2B3D034FF47072C1F2E402C4F3BF
:1022F00004341419A400216003B030BD2B4840F20F
:102300000E4103B0BDE83040FFF7DABC4022C1F215
:10231000E402ECE74FF40872C1F2E402E7E751206F
:102320000191FFF7CFFC042801991CD04FF40072F3
:10233000C1F2E402DBE74FF43072C1F2E4020120A3
:102340004FF40045C4F20C05C4F304346B6DDB0795
:10235000CFD42B6D1842FCD1CBE74FF44072C1F2C1
:10236000E4021020ECE7019102F038F84FF400414C
:10237000C4F20C0101254A6802F00F0305FA03F1CB
:102380004FF49042B0FBF1F0C0F2E8129042019994
:10239000CCD97820A023C4F29030C4F290334FF40B
:1023A00000720560C1F2E4021D60A0E7685E0000F3
:1023B00038B5C0F30313013B0C46042B63D8DFE8A8
:1023C00013F069007E00CD00050105004C1E072CAE
:1023D00004D9B5484FF44271FFF772FC0020C4F2F3
:1023E0000C00436803F00702052A0AD8012101FA0C
:1023F00002F515F02C0F00F0828123F0070040F069
:1024000005030025C4F20C054FF40042C4F20C028F
:102410006B60116821F4E03040EA8434146001F00C
:10242000EFFE4FF49042C0F2E81290426B680AD976
:1024300003F007018A1E23F00703012A94BF43F02B
:10244000050343F004034DF6FF32CFF60B7242F260
:10245000FF318218C0F2F4018A4200F2CD8003F00D
:102460000700052823F0070306D8012202FA00F12D
:1024700011F02C0F40F0BD8043F001030020C4F2A6
:102480000C00436038BD884840F2B931BDE838409F
:10249000FFF716BC4D1EB5F5007F80F0C480B4FA7E
:1024A00084F44FF40043C4F20C03E1B29A68C1F122
:1024B0001F0422F00F0044EA0001996038BDB1F515
:1024C000007F00F269810023C4F20C035B6803F013
:1024D000070005280AD8012101FA00F212F02C0F9A
:1024E00000F0048123F0070040F005030021C4F24E
:1024F0000C0151204B60FFF7E5FB042800F0A5819B
:102500007820A021C4F29030C4F2903100230360FF
:102510000B60621EB2F5004F03D363488821FFF7BA
:10252000CFFBB4FA84F44FF40040C4F20C00E1B2E3
:102530004368C1F11F0423F00F0244EA0201416025
:1025400001F05EFE00234FF49042C4F20C03C0F28F
:10255000E81290425B687FF676AF69E742F230435B
:10256000C0F20A03984200F01D816AD841F230415E
:10257000C0F20801884270D1B4F5004F04D94A482E
:1025800040F25231FFF79CFB4FF40042C4F20C02C0
:10259000506DC30702D4136D5807FCD4611EB1F50A
:1025A000004F03D340488821FFF78AFBB4FA84F236
:1025B0004FF40040C4F20C00D3B2826EC3F11F018D
:1025C00022F0F00343EA0112826638BD4FF4A8639B
:1025D000C0F21403984269D04FF4AA51C0F2160118
:1025E000884241D0304840F2B331BDE83840FFF76F
:1025F00067BB43F0030341E74FF41051C0F2F4010D
:1026000088423FF63BAF03F00700052823F007039D
:102610003FF634AF012202FA00F111F02C0F18BF7F
:1026200043F002032AE7204840F21B31FFF748FB42
:10263000B5F5004FFFF433AF1B488821FFF740FB8F
:102640002DE73021C0F20C01884277D04FF4866329
:10265000C0F21003984200F0CF8013484FF463712A
:10266000BDE83840FFF72CBB082C61D84FF400427E
:10267000C4F20C02506DC00702D4136D5906FCD48D
:10268000611EB1F5004F4ED2B4FA84F24FF400400F
:10269000C4F20C00D3B2026FC3F11F0122F0300369
:1026A00043EA0112026738BD685E0000082934D889
:1026B0004FF40040C4F20C00416DC90702D4036D11
:1026C0005B06FCD4621EB2F5004F21D2B4FA84F04E
:1026D0004FF40043C4F20C03C1B21A6FC1F11F00E2
:1026E00022F0030140EA01021A6738BD12F0130F0D
:1026F0003FF4FCAE23F0070343F00403F6E615F0C5
:10270000130F3FF47EAE23F0070343F0040378E693
:1027100058488821FFF7D4FAD8E7564840F2963156
:10272000FFF7CEFAC4E753488821FFF7C9FAABE7B1
:10273000504840F2A531FFF7C3FA97E7A4F1100023
:10274000702804D94B4840F26F31FFF7B9FA4FF4C3
:102750000042C4F20C02516DC80702D4136D590730
:10276000FCD4601EB0F5004F03D342488821FFF728
:10277000A7FAB4FA84F44FF40043C4F20C03102116
:102780009A6EB1FA81F0C1B2E4B2081B22F4405251
:1027900042EA0031996638BD364840F22331FFF7EE
:1027A0008FFA90E6B1F5004F04D932484FF45871D2
:1027B000FFF786FA4FF40040C4F20C00436DD907CE
:1027C00002D4026D5307FCD4611EB1F5004F03D350
:1027D00028488821FFF774FAB4FA84F04FF40043D4
:1027E000C4F20C03C1B29A6EC1F11F0022F47061F1
:1027F00041EA00229A6638BD082C04D91D4840F2EF
:102800007E31FFF75DFA4FF40042C4F20C02506DC6
:10281000C30702D4116D4807FCD4631EB3F5004F03
:1028200003D314488821FFF74BFAB4FA84F24FF42B
:102830000040C4F20C00D1B2836EC1F11F0123F03D
:10284000030241EA0203836638BD01F0C7FD4FF47D
:102850009042B0FBF4F0C0F2E81290427FF650AE26
:102860007821A023C4F29031C4F2903301220A608F
:102870001A604EE6685E000038B500F00F04631E73
:10288000042B39D8DFE803F02A1B1B1003000329AF
:1028900042D0082974D002295CD08F4840F26B6185
:1028A000BDE83840FFF70CBA07292CD0082948D0DA
:1028B000894840F23C61BDE83840FFF701BA013970
:1028C000082900F2F280DFE811F0CE00E000F70006
:1028D000F000F0000901F000F00023018A1E072A31
:1028E00000F21C81DFE812F0210127012B014901D0
:1028F0001A011A011A015600774840F27361BDE8C7
:102900003840FFF7DDB94FF40043C4F20C031868F8
:1029100020F080521A6038BD4FF40042C4F20C021D
:1029200040241462D06A4FF400440106C4F20C043F
:10293000F8D500F079F960216162E36A9A03FCD569
:1029400038BD4FF40040C4F20C00026842F08051E0
:10295000016038BD4FF40042C4F20C024FF48070A5
:102960001062D16A4FF400448B05C4F20C04F8D510
:1029700000F05AF940236362E26AD003FCD538BD07
:102980004FF40040C4F20C0020214162C36A1904D4
:10299000FCD538BD504840F2C251FFF791F90325EC
:1029A000012002224FF40044C4F20C0421462062AC
:1029B000CB6A1A42FCD000F037F90020C4F20C00B8
:1029C000436803F00702052A0DD8012404FA02F136
:1029D00011F02C0F40F0EA8011F0130F03D023F018
:1029E000070343F0040300244FF40042C4F20C0236
:1029F000C4F20C046360556200F016F901F000FCAB
:102A00004FF49041C0F2E811884263680AD903F09C
:102A10000702911E23F00703012994BF43F0050329
:102A200043F004034DF6FF32CFF60B7242F2FF3152
:102A30008218C0F2F4018A4200F2A18003F007007C
:102A4000052823F0070300F2C380012202FA00F1F7
:102A500011F02C0F00F0BC8043F003030020C4F2FF
:102A60000C00436038BD002003460146022C00F0F4
:102A7000A2804FF40042C4F20C02916A21F4801348
:102A800023F00C010843906238BD4FF40041C4F2BA
:102A90000C014FF480730B62C86A8305FCD500F00B
:102AA000C3F8082000230221E0E70B4840F211613F
:102AB000BDE83840FFF704B94FF40041C4F20C01FF
:102AC00040200862CA6A1006FCD500F0ADF8042068
:102AD00000230121CAE700BF685E00004FF40163D4
:102AE000C4F2903301251D6001F08AFB4FF490423F
:102AF000C0F2E812904274D97822A023C4F2903335
:102B0000C4F290320C20156003211D600023ADE754
:102B10004FF480104FF480330021A7E7334840F290
:102B2000C751BDE83840FFF7CBB804254FF480709B
:102B30004FF4007236E703254020802232E701F08F
:102B40004DFC4FF490454FF40044C0F2E815C4F238
:102B50000C04A84223683ED943F0804242F060054D
:102B60002560246CE20604D5A023C4F29033012131
:102B7000196002250420082214E7012510E74FF40C
:102B80001051C0F2F40188423FF668AF03F007002D
:102B9000052823F007033FF661AF012202FA00F196
:102BA00011F02C0F18BF43F0020357E723F0070082
:102BB00040F0050317E74FF40042C4F20C020B4348
:102BC000906A20F4803121F003000343936238BD02
:102BD00043F0010342E723F0600141F02000206050
:102BE000C7E70C200023032140E700BF685E000018
:102BF000802810B504460ED84FF40043C4F20C03ED
:102C00009A6D110706D4D86F04F0070420F007016D
:102C10000C43DC6710BD03484FF4F461FFF750F834
:102C2000EAE700BF685E00004FF40042C4F20C0205
:102C300040F25423D06AC2F200031880704700BFEC
:102C400005282DE9F04105460C461746984639D827
:102C50000F2937D8072C3BD94FF4C041C4F20001EB
:102C6000A4F108039E00D1F804010F2202FA06F233
:102C700020EA020305FA06F51D43C1F804514FF49A
:102C800004664FF406624FF40861C1F28306C1F294
:102C90008302C1F28301A319A0184FF4C046621841
:102CA0009D0091008000C4F2000601239DF81820C9
:102CB0002F6003FA04F4C0F80080C6F81C410A60D3
:102CC000BDE8F08197210B48FEF7FAFF072CC3D827
:102CD0004FF4C046C4F20006A200D6F800010F214E
:102CE00001FA02F120EA010305FA02F51D43C6F8D4
:102CF0000051C4E77C5E00000528F8B504460D4687
:102D000016461F4631D80F292FD8E2005EB1002F9A
:102D10003DD01019830003F1804101F5C04001232B
:102D200003FA05F303611119880000F1804303F5EC
:102D3000C041AB00072D1DD848684FF00F0C0CFAAE
:102D400003FC20EA0C0006FA03F3184348605EB95E
:102D5000121947BB46F210019300C4F20001581843
:102D6000012202FA05F54560F8BD1448CC21FEF7B2
:102D7000A7FFCAE78868203B4FF00F0C0CFA03FC52
:102D800020EA0C0006FA03F318438860DFE7111904
:102D900046F210038800C4F20003C318012101FAAF
:102DA00005F15960BFE7910001F1804303F5C04090
:102DB000012202FA05F50561F8BD00BF7C5E000046
:102DC0004FF42043C4F2000398422DE9F041044639
:102DD0000D460AD04FF42440C4F20000844204D0CF
:102DE00024484FF48F71FEF76BFF697895F80C80DB
:102DF00004F104777A014FF6CF76C0F20106002085
:102E000081F00103606326635360AE6868682EB387
:102E1000216821F440722260236843EA082121607E
:102E200008B3154A236812F80810A0EB86009A0729
:102E300006FB01F6B0FBF6F60CD4B6F5007F03D323
:102E40000C48F821FEF73CFF26612B787F013B60A0
:102E5000BDE8F081002EF0D10126F5E70548DC2120
:102E6000FEF72EFFF1E748F21010C0F20200FEF765
:102E70009DFFD6E7945E0000905E00004FF4204274
:102E8000C4F2000290422DE9F843034600F0E180CD
:102E90004FF42440C4F20000834208D0914840F22D
:102EA0007111FEF70DFF6FF00300BDE8F8838E4A45
:102EB0009468402505264FF0000C0327996A11F409
:102EC000C06F40F0EB80107808287AD8DFE800F077
:102ED000678D7EA9563D35150500C9055CD54FF4B3
:102EE0008071196350780921117040B200210128C6
:102EF000596300F0B080BDE8F88388064CD511799D
:102F00005088DD6904EBC1042189814240F2C1800F
:102F10006668441CA4B2A1423554548040F2B98082
:102F200004200129586003D001398C4200F0C6808A
:102F30001078092830D15078D7E7080600F1B98019
:102F4000490629D51D631670B8E71179508804EB3E
:102F5000C108B8F80890814500F2B4800131C9B2C7
:102F600011716088A2F802C000F004081FFA88F806
:102F7000B8F1000F00F0828017709FE7080600F19B
:102F80009880490608D561881D6301F0040081B26C
:102F90000029D8D0072313700120BDE8F883618889
:102FA00001F0100080B2002859D02188080A00F0F2
:102FB000060141F0F00001211170586259600120B2
:102FC000EBE7FB200921507011708EE7080670D4E2
:102FD0004906E1D561881D6301F0020081B2002934
:102FE0000CBF30463846107068E7080661D44906C1
:102FF000D2D561881D6301F0100080B200286BD12A
:1030000001F0020188B200289DD0117904EBC104BF
:103010000720218910700129BED108225A600120A1
:10302000BBE7608800F0100189B219B32188090A52
:1030300001F0060141F0F00100F0040080B208B197
:1030400041F001010420107001225A6001205962F0
:10305000A3E7264A2CE751700846BDE8F88320888C
:1030600001F0020189B200F0FE000029A3D040F077
:103070000100A0E7218801F0FE01DDE7C00702D4CE
:1030800001297FF61BAF0821117002225A6001202E
:1030900083E70129F7D108215960F4E7880502D5B3
:1030A000FD2050701FE749057FF51CAFFE205070D2
:1030B00019E78021FF2019635070E4E70821596067
:1030C000107836E7D8F80410095C013059620623FD
:1030D00050801370012060E721780220107059623F
:1030E00001205AE7945E000064020020580200208C
:1030F00038B54FF42043C4F20003984204460D460D
:103100000AD04FF42440C4F20000844204D0254881
:1031100040F2EA21FEF7D4FD002D3DD04FF42041CE
:10312000C4F200018C4235D04FF42442C4F20002B4
:1031300094422CD11C4BA068C20701D520216160AC
:103140006A8802F0020081B209B12889F8B102F060
:10315000040291B209B1288AC8B1002201211A7172
:103160001A705A8059709D60C0236360A06A8206FD
:1031700048BFE2694FF6CF71C0F201014FF4FC6322
:10318000204621636363BDE83840FFF777BE6FF0E8
:10319000030038BD054BCEE7024840F2EB21FEF7B5
:1031A0008FFDBBE7945E00006402002058020020FF
:1031B000F8B54FF42043C4F2080304465D68F8B143
:1031C0006068E16894F808C0677A268A22784FF42C
:1031D000204325F48305C4F20803014325F01F05AD
:1031E0002943186841EA0C01394320F001003143BA
:1031F000186059601AB11A6842F001011960F8BDEF
:1032000002484321FEF75CFDDAE700BFA85E00003C
:103210004FF42043C4F208034FF420425968B0F53C
:10322000803F21F48033C4F2080208BF43F48033A6
:10323000536070474FF42043C4F208039A6819B9E9
:1032400022EA00009860704710439860704700BF02
:10325000072870B504460D4616460FDC272D07DCFF
:10326000072C1DD8DFE804F0232D39454F5B67108C
:103270003B484FF48871FEF723FDF1E7384840F2F0
:103280000911FEF71DFDE9E71F2DD4BF4FF4D863E8
:103290004FF4BC63C1F2C503E81881000E6070BD35
:1032A0002F4840F28B11BDE87040FEF709BD1F2D7D
:1032B0004DDC4FF40073C1F2C503E81881000E60C5
:1032C00070BD1F2DD4BF4FF408714FF42071C1F2AF
:1032D000C5016A1893001E6070BD1F2DD4BF4FF446
:1032E00010724FF42872C1F2C502AB189800066044
:1032F00070BD1F2D2BDD4FF43073C1F2C503E818EC
:1033000081000E6070BD1F2DD4BF4FF4CC604FF410
:10331000B060C1F2C50029188A00166070BD1F2D6B
:10332000D4BF4FF4D0614FF4B461C1F2C5016A1843
:1033300093001E6070BD1F2DD4BF4FF4D4624FF4B4
:10334000B862C1F2C502AB189800066070BD4FF4B8
:103350001870C1F2C50029188A00166070BD00BF40
:10336000A85E0000072870B504460D46164607DC27
:10337000072C18D8DFE804F01E2A35414C5A670A9A
:10338000384840F2A511FEF79BFCF1E74FF42043CB
:10339000C4F208032E40D3F8D82022EA05053543AD
:1033A000C3F8D85070BD2F484FF4F371BDE870409A
:1033B000FEF786BC4FF42040C4F208002E40016C9A
:1033C00021EA050346EA0305056470BD4FF4204376
:1033D000C4F208032E405A6C22EA050535435D64A9
:1033E00070BD4FF42043C4F208032E40986C20EACD
:1033F000050146EA01059D6470BD4FF42041C4F209
:1034000008012E40CA6C22EA05053543CD6470BD23
:103410004FF42041C4F208012E40D1F8CC3023EA09
:10342000050046EA0005C1F8CC5070BD4FF42040BD
:10343000C4F208002E40D0F8D02022EA050535431A
:10344000C0F8D05070BD4FF42040C4F208002E40A8
:10345000D0F8D41021EA050346EA0305C0F8D45099
:1034600070BD00BFA85E0000072870B504460D4679
:10347000164614DC072C11D8DFE804F017232E3A87
:10348000455360044FF42043C4F208032E40D3F8A0
:10349000C02022EA05053543C3F8C05070BD2E4850
:1034A00040F2FF11FEF70CFCE4E74FF42040C4F2B9
:1034B00008002E40016D21EA050346EA0305056573
:1034C00070BD4FF42043C4F208032E405A6D22EA27
:1034D000050535435D6570BD4FF42043C4F2080314
:1034E0002E40986D20EA050146EA01059D6570BDF4
:1034F0004FF42041C4F208012E40CA6D22EA0505AE
:103500003543CD6570BD4FF42041C4F208012E4013
:10351000D1F8B43023EA050046EA0005C1F8B450FA
:1035200070BD4FF42040C4F208002E40D0F8B820FF
:1035300022EA05053543C0F8B85070BD4FF420406D
:10354000C4F208002E40D0F8BC1021EA050346EA78
:103550000305C0F8BC5070BDA85E00004FF42043C6
:10356000C4F208035A6822F4E01108435860704717
:103570002DE9F04F0023C4F20103984283B00546C1
:103580000C4615D04FF48060C4F2010085420FD084
:103590004FF40061C4F201018D4209D04FF4406242
:1035A000C4F20102954203D02C484F21FEF788FB5C
:1035B00023780BB902266E6094F803B094F802A049
:1035C00094F8089094F80680227994F807C06778F8
:1035D000667AA07A00924FEA0B4B4BEA0A6B4BEAF1
:1035E000090949EA88286279E17A019248EA0C2CB3
:1035F000002F14BF40270027002E14BF802600266E
:103600004CEA070747EA0602002814BF20200020E2
:1036100042EA0006002914BF10210021009A247BF1
:103620000E430199002A14BF4FF40050002046EACF
:103630000002002914BF4FF0805600263243002CB0
:1036400014BF082400241443002068622C600BB1CE
:1036500001236B6003B0BDE8F08F00BFBC5E0000CB
:103660002DE9F84F0023C4F20103984205460E46A7
:10367000144615D04FF48060C4F2010085420FD08B
:103680004FF40061C4F201018D4209D04FF4406251
:10369000C4F20102954203D021488821FEF710FBB5
:1036A000022E37D86278237894F806B094F802A0F6
:1036B00094F8039094F8048094F805C0E779207A90
:1036C000617AA47A120642EA836343EA0B0242EA71
:1036D0000A4343EA093242EA882343EA0C23002FD3
:1036E00014BF4FF4001700273B43002814BF4FF4CA
:1036F000801000200343002914BF1021002103364D
:103700000B43002C14BF0422002236011343AB519B
:10371000BDE8F88F02488921FEF7D2FAC2E700BF60
:10372000BC5E0000F8B5174604460D461E46002A4A
:1037300031D0002D35D0402E3CD007D9602E49D055
:103740003548C821BDE8F840FEF7BABA002E3CD093
:10375000202EF5D1B7EBD50F58D8082307FB03F778
:10376000AD0005EB5705B5FBF7F2101F4FF6C07320
:103770008701C0F21F039F4243D8216821F06002F5
:10378000226020684FF6C073C0F21F033B4006431F
:1037900026606361F8BD20488D21FEF791FA002D67
:1037A000C9D148F21010C0F20200FEF7FFFA402E15
:1037B0000546C2D14AF6AB20CAF6AA20A0FB0521D5
:1037C000B7EB910F17D80623C8E7B7EB151F06D83C
:1037D0001023C3E7B7EB950F07D80423BEE70E48C5
:1037E000B321FEF76DFA1023B8E70B48C221FEF7AC
:1037F00067FA0423B2E70848BD21FEF761FA062301
:10380000ACE70548D721FEF75BFAB6E70248B821D6
:10381000FEF756FA0823A1E7205F000038B54FF401
:103820004043C4F20003984204460D461CD04FF4B6
:103830004440C4F20000844216D04FF44841C4F220
:1038400000018C4210D04FF46042C4F20002944256
:103850000AD04FF46443C4F200039C4204D00648EB
:1038600040F20121FEF72CFAE84300F005014A007E
:10387000E260E56038BD00BF205F0000F8B54FF49E
:103880004043C4F20003984204460D465FD04FF413
:103890004447C4F20007B84246D04FF44843C4F24C
:1038A0000003984240D04FF46043C4F200039842B2
:1038B0000FD04FF46440C4F20000844209D02D4878
:1038C00040F22721FEF7FCF92A4840F22E31FEF79C
:1038D000F7F9002140F6AA6241F2050641F6F977B0
:1038E000E26021606660A1606161E164A764616576
:1038F000A165AB7C1BB1206840F080412160EA7C6F
:103900001AB12E7D46F01007A7652F8A687BEE89D5
:103910002B7B6968AA683843304360602046FFF714
:1039200001FF2B78E360F8BD002040F6AA6241F267
:10393000050141F6F9760027E26020606160A06031
:103940006061E064A6646065A065E765D1E700207A
:1039500040F6AA6241F2050141F6F976E260206084
:103960006160A0606061E064A66460652065A06538
:10397000BFE700BF205F000003691A06FCD5C069DD
:10398000C0B2704703695A06FCD54163704700BF57
:1039900010B54FF47044CFF20F04002002462146C8
:1039A000FFF7E0FC012021460022FFF7DBFC0220AC
:1039B00021460022FFF7D6FC032021460022FFF714
:1039C000D1FC042021460022FFF7CCFC0520214633
:1039D0000022FFF7C7FC062021460022FFF7C2FCA9
:1039E000072021460022FFF7BDFC00200246FF21F0
:1039F000FFF73AFD0120FF210022FFF735FD0220ED
:103A0000FF210022FFF730FD0320FF210022FFF7F6
:103A10002BFD0420FF210022FFF726FD0520FF21BA
:103A20000022FFF721FD0620FF210022FFF71CFDE9
:103A30000720FF210022BDE81040FFF715BD00BFA1
:103A40004FF4604110B50C46CFF20F04072000225E
:103A5000C5F20F01FFF786FC062021460022FFF782
:103A600081FC052021460022FFF77CFC0420214632
:103A70000022FFF777FC032021460022FFF772FCAB
:103A8000022021460022FFF76DFC01202146002282
:103A9000FFF768FC002002464FF02041FFF762FC70
:103AA000072001460022FFF7DFFC06200721002245
:103AB000FFF7DAFC052007210022FFF7D5FC0420E0
:103AC00007210022FFF7D0FC032007210022FFF787
:103AD000CBFC022007210022FFF7C6FC01200721B2
:103AE0000022BDE81040FFF7BFBC00BF10B5044680
:103AF0004FF48640C0F204000121FEF7E7FB0220EC
:103B0000C0F206000321FEF7B7FE30204021C0F2CC
:103B10000C00FEF74DFC0120FFF76AF84FF45050FF
:103B20000121C0F20E00FEF7D1FB4FF42043C4F296
:103B300008031C489A6A00229A62FFF739FB0820A2
:103B40000121FFF777FB10200121FFF773FB802095
:103B50000121FFF76FFB4FF480700121FFF76AFB33
:103B60004FF400700121FFF765FB4CB9FFF710FF20
:103B70004FF42042C4F20802506E0028FCD110BD60
:103B80004FF44020FFF7EAFC4FF48030FFF740FB92
:103B90004FF40040C4F20C00C16F41F00803C3674A
:103BA000E4E700BF7860000042F20E7398422DE90E
:103BB000F041054600F337814FF61940CFF6FF700C
:103BC0008542B8BF054680F2FB81284601F074FCAF
:103BD000012605464FF42042C4F20802546E4FF409
:103BE0002043C4F20803002CF8D101271F66384691
:103BF00078212246FFF738FC022078212246FFF781
:103C000033FC032078212246FFF72EFC0420782184
:103C10002246FFF729FC052078212246FFF724FCE5
:103C2000062078212246FFF71FFC07207821224634
:103C3000FFF71AFC46F26761C6F2666181FB051068
:103C40004FEAE578C8EBA00202EB8204A5EB44033F
:103C500099B2CB4F37F81140E30700F1E88004F048
:103C6000020082B2002A40F0ED8004F0040399B211
:103C7000002940F0F28004F0080082B2002A40F0EF
:103C8000F78004F0100399B2002940F0FC8004F0A2
:103C9000200082B2002A40F0018104F04004A3B267
:103CA000002B40F0068146F26760C6F2666080FB3A
:103CB0000512C8EBA20480FB0413E117C1EBA300BB
:103CC00000EB8002A4EB4204A3B237F81340E007F4
:103CD00000F1708104F0020188B2002840F0648194
:103CE00004F0040293B2002B40F0588104F0080164
:103CF00088B2002840F04C8104F0100293B2002BEF
:103D000040F0408104F0200188B2002840F0318169
:103D100004F04004A2B2002A40F0258148F21F536B
:103D2000C5F2EB1383FB052146F26760C8EB611413
:103D3000C6F2666080FB0412E317C3EBA20101EB3D
:103D40008100A4EB4004A2B237F81240E10700F171
:103D5000048104F0020399B2002940F0F88004F0D5
:103D6000040082B2002A40F0EC8004F0080399B20B
:103D7000002940F0E08004F0100082B2002A40F0F8
:103D8000D48004F0200399B2002940F0C88004F0E8
:103D90004004A0B2002840F0BC8044F6D352C1F2E7
:103DA000620282FB052546F26763C8EBA518C6F2DE
:103DB000666383FB08144FEAE871C1EBA40000EBD3
:103DC0008002A8EB4203002E40F0FF809CB237F83F
:103DD0001440E20700F1978004F0020188B2002845
:103DE00040F08B8004F0040293B2002B7FD104F0EA
:103DF000080188B2002874D104F0100293B2002B9D
:103E000069D104F0200188B200285ED104F040049A
:103E1000A4B2002C53D14FF42043C4F20803002273
:103E20001A66BDE8F081002642F20F75D2E607203F
:103E300001222321FFF70CFA04F0020082B2002ACB
:103E40003FF413AF232105200122FFF701FA04F00C
:103E5000040399B200293FF40EAF0220012223216E
:103E6000FFF7F6F904F0080082B2002A3FF409AF28
:103E7000012023210246FFF7EBF904F0100399B269
:103E800000293FF404AF032001222321FFF7E0F9CA
:103E900004F0200082B2002A3FF4FFAE0620232166
:103EA000012204F04004FFF7D3F9A3B2002B3FF442
:103EB000FAAE042023210122FFF7CAF9F3E6042019
:103EC00026210122FFF7C4F9A5E7062026210122B9
:103ED000FFF7BEF99AE7032026210122FFF7B8F980
:103EE0008FE7012026210246FFF7B2F984E702207E
:103EF00026210122FFF7ACF979E7052026210122CE
:103F0000FFF7A6F96EE7072026210122FFF7A0F9A7
:103F100062E7042025210122FFF79AF93DE70620F8
:103F200025210122FFF794F931E703202521012201
:103F3000FFF78EF925E7012025210246FFF788F9D2
:103F400019E7022025210122FFF782F90DE705205C
:103F500025210122FFF77CF901E707202521012215
:103F6000FFF776F9F5E6042024210122FFF770F926
:103F7000D4E6062024210122FFF76AF9C8E600BF33
:103F8000345F0000032024210122FFF761F9B9E624
:103F9000012024210246FFF75BF9ADE6022024212F
:103FA0000122FFF755F9A1E6052024210122FFF7A0
:103FB0004FF995E6072024210122FFF749F989E608
:103FC0000026002DBFF606AEFFE51024FFE600BF79
:103FD0002DE9F843804601F010FB4FF420420746DC
:103FE000C4F20802566E4FF42043C4F20803002EB8
:103FF000F8D101201866FFF723FD594CDFF86491D2
:1040000066E018F80610203939F811502078A17BA5
:10401000EA0700F1A08005F0020293B2E17B60782C
:10402000002B40F0948005F0040082B2217CA0783F
:10403000002A40F0888005F008018BB2E078617CAE
:10404000002B7CD105F0100082B2A17C2079002ADF
:1040500071D105F020018BB26079E17C002B66D133
:1040600005F0400082B2217DA079002A5BD105F0E5
:1040700080018BB2E079617D002B50D105F4807016
:1040800082B2A17D207A002A45D105F400718BB25D
:10409000607AE17D002B3AD105F4806082B2217E06
:1040A000A07A82BB05F400618BB2E07A617E33BBFB
:1040B00005F4805082B2A17E207BE2B905F4005560
:1040C000ADB2E17E607B3DB901361C34072E0AD0CB
:1040D000B74296DC002197E701220136FFF7B8F8D6
:1040E0001C34072EF4D14FF42041C4F20801002300
:1040F0000B66BDE8F8830122FFF7AAF8DEE701228C
:10410000FFF7A6F8D4E70122FFF7A2F8CAE70122D9
:10411000FFF79EF8C0E70122FFF79AF8B5E7012202
:10412000FFF796F8AAE70122FFF792F89FE701222E
:10413000FFF78EF894E70122FFF78AF889E701225A
:10414000FFF786F87EE70122FFF782F873E7012286
:10415000FFF77EF867E70122FFF77AF85BE700BF19
:10416000585F00008C600000074880470749084AF4
:10417000084B9B1A40F30580043BC858D0503FF7CA
:10418000FBAF054800470000E9430000A4610000C0
:1041900000000020A400002055010000FEE7FEE71B
:1041A000FEE7FEE7FEE7FEE7FEE7FEE7FEE7FEE7E7
:1041B000FEE7FEE7FEE7FEE7FEE7FEE7FEE7FEE7D7
:1041C000FEE7FEE7FEE7FEE7FEE7FEE7FEE7FEE7C7
:1041D000FEE7FEE7FEE7FEE7FEE7FEE7FEE7FEE7B7
:1041E000FEE7FEE7FEE7FEE7FEE7FEE7FEE7FEE7A7
:1041F000FEE7FEE7FEE7FEE7FEE7FEE7FEE7FEE797
:104200004FF40043C4F20C03DA6A02F47050B0F5C4
:10421000805F37D0B0F5005F31D0B0F5006F1AD0B5
:10422000D96801F4E063B3F5007F39D02DD8002BB5
:104230003BD148F2B010C0F6E07044F24022C16CAD
:104240004FF49F43C0F20F02C0F21203B1F1985F26
:1042500028BF1A4601E0274802684FF40043C4F221
:104260000C0318685968C0F38233581CB2FBF0F293
:1042700001F00F01204B22FA01F0186070471F492E
:104280000A68EAE74FF40042E7E7B3F5806F2BD006
:10429000B3F5A06F1ED0B3F5407F20D00022DCE73D
:1042A0004DF6C002C0F2A702D7E7B3F5807FF5D183
:1042B00048F2B010C0F6E0704CF6C072C16C4BF220
:1042C0004053C0F26A02C0F26403B1F1985F28BFA4
:1042D0001A46C2E74FF47C52C0F2AB12BDE749F672
:1042E0008072C0F2D502B8E746F64072C0F24012C2
:1042F000B3E700BF300000209C0300202C0000200A
:104300004FF40043C4F20C03DA6A02F47050B0F5C3
:10431000805F2AD0B0F5005F24D0B0F5006F1ED0CA
:10432000D96801F4E063B3F5007F2CD020D8002BCE
:104330002ED0B3F5807F24D148F2B010C0F6E070E3
:104340004CF6C072C16C4BF24053C0F26A02C0F22C
:104350006403B1F1985F34BF1046184670471D489A
:10436000006870471C4A106870474FF4004070475F
:10437000B3F5806F29D0B3F5A06F1CD0B3F5407FA3
:104380001ED0002070474DF6C000C0F2A700704755
:1043900048F2B010C0F6E07044F24022C16C4FF415
:1043A0009F43C0F20F02C0F21203B1F1985F34BF15
:1043B0001046184670474FF47C50C0F2AB1070475F
:1043C00049F68070C0F2D500704746F64070C0F2E2
:1043D00040107047300000202C00002040F23003D5
:1043E000C2F20003186870474FF46D43CEF2000329
:1043F000D3F8882042F47000C3F88800704700BFEB
:104400004FF40040704700BF4FF47A70704700BF10
:1044100040F22C03C2F200031868704730B546F230
:104420004414C0F200040FCC87B06D460FC594E869
:10443000030040F2702240F27423C2F20002C2F282
:10444000000385E8030048F2101000240121C0F2A7
:10445000020014601C60FDF739FF4FF45240012147
:10446000C0F20200FDF732FF4FF460454FF44850B0
:10447000C4F200050121C0F20200FDF727FF284623
:104480006946FFF7FBF90420024621460123FEF7A7
:1044900033FC01210A460B460420FEF72DFC0520C3
:1044A000072104220123FEF727FC686D40F4817187
:1044B00041F001026A65204607B030BD08B54307E8
:1044C00001D5FFF7ABFF002008BD00BF48F2101078
:1044D00008B50121C0F20200FDF7F8FE4FF452408A
:1044E0000121C0F20200FDF7F1FE04200246022184
:1044F0000023FEF701FC0420024603210023FEF7FF
:10450000FBFB002008BD00BF4FF4C043C4F2000312
:104510000422C10754BFC3F8A420C3F8A0204FF45D
:10452000C043C4F20003082281074CBFC3F8A02097
:10453000C3F8A4200020704781F0004102E000BFD2
:1045400083F0004330B54FEA41044FEA430594EA53
:10455000050F08BF90EA020F1FBF54EA000C55EA8E
:10456000020C7FEA645C7FEA655C00F0E2804FEA5F
:104570005454D4EB5555B8BF6D420CDD2C4480EA41
:10458000020281EA030382EA000083EA010180EA71
:10459000020281EA0303362D88BF30BD11F0004FBF
:1045A0004FEA01314FF4801C4CEA113102D04042F5
:1045B00061EB410113F0004F4FEA03334CEA133330
:1045C00002D0524263EB430394EA050F00F0A78048
:1045D000A4F10104D5F1200E0DDB02FA0EFC22FA43
:1045E00005F2801841F1000103FA0EF2801843FA37
:1045F00005F359410EE0A5F120050EF1200E012A28
:1046000003FA0EFC28BF4CF0020C43FA05F3C01865
:1046100051EBE37101F0004507D54FF0000EDCF1DE
:10462000000C7EEB00006EEB0101B1F5801F1BD387
:10463000B1F5001F0CD349085FEA30004FEA3C0C8B
:1046400004F101044FEA445212F5800F80F09A8081
:10465000BCF1004F08BF5FEA500C50F1000041EB85
:10466000045141EA050130BD5FEA4C0C404141EB89
:10467000010111F4801FA4F10104E9D191F0000FB0
:1046800004BF01460020B1FA81F308BF2033A3F133
:104690000B03B3F120020CDA0C3208DD02F1140C2A
:1046A000C2F10C0201FA0CF021FA02F10CE002F165
:1046B0001402D8BFC2F1200C01FA02F120FA0CFC5E
:1046C000DCBF41EA0C019040E41AA2BF01EB0451A7
:1046D000294330BD6FEA04041F3C1CDA0C340EDCA5
:1046E00004F11404C4F1200220FA04F001FA02F3E8
:1046F00040EA030021FA04F345EA030130BDC4F1A6
:104700000C04C4F1200220FA02F001FA04F340EA9A
:104710000300294630BD21FA04F0294630BD94F04B
:10472000000F83F4801306BF81F480110134013D32
:104730004EE77FEA645C18BF7FEA655C29D094EAA3
:10474000050F08BF90EA020F05D054EA000C04BF21
:104750001946104630BD91EA030F1EBF002100200C
:1047600030BD5FEA545C05D14000494128BF41F0AB
:10477000004130BD14F580043CBF01F5801130BD0F
:1047800001F0004545F0FE4141F470014FF000009A
:1047900030BD7FEA645C1ABF194610467FEA655C4B
:1047A0001CBF0B46024650EA013406BF52EA0335ED
:1047B00091EA030F41F4002130BD00BF90F0000FDB
:1047C00004BF0021704730B54FF4806404F1320417
:1047D0004FF000054FF0000150E700BF90F0000FD0
:1047E00004BF0021704730B54FF4806404F13204F7
:1047F00010F0004548BF40424FF000013EE700BFC7
:1048000042004FEAE2014FEA31014FEA02701FBF56
:1048100012F07F4393F07F4F81F06051704792F028
:10482000000F14BF93F07F4F704730B54FF46074A2
:1048300001F0004521F0004120E700BF50EA0102ED
:1048400008BF704730B54FF000050AE050EA01029A
:1048500008BF704730B511F0004502D5404261EB0A
:1048600041014FF4806404F132045FEA915C3FF44B
:10487000DCAE4FF003025FEADC0C18BF03325FEAE4
:10488000DC0C18BF033202EBDC02C2F1200300FA99
:1048900003FC20FA02F001FA03FE40EA0E0021FABE
:1048A00002F11444C1E600BF70B54FF0FF0C4CF4A8
:1048B000E06C1CEA11541DBF1CEA135594EA0C0F5E
:1048C00095EA0C0F00F0DEF82C4481EA030621EA99
:1048D0004C5123EA4C5350EA013518BF52EA0335D4
:1048E00041F4801143F4801338D0A0FB02CE4FF086
:1048F0000005E1FB02E506F00042E0FB03E54FF0B6
:104900000006E1FB03569CF0000F18BF4EF0010EAD
:10491000A4F1FF04B6F5007F64F5407404D25FEAA9
:104920004E0E6D4146EB060642EAC62141EA55515C
:104930004FEAC52040EA5E504FEACE2EB4F1FD0C9E
:1049400088BFBCF5E06F1ED8BEF1004F08BF5FEA1C
:10495000500E50F1000041EB045170BD06F00046CE
:1049600046EA010140EA020081EA0301B4EB5C047B
:10497000C2BFD4EB0C0541EA045170BD41F4801173
:104980004FF0000E013C00F3AB8014F1360FDEBF98
:10499000002001F0004170BDC4F10004203C35DA74
:1049A0000C341BDC04F11404C4F1200500FA05F3F7
:1049B00020FA04F001FA05F240EA020001F0004298
:1049C00021F0004110EBD37021FA04F642EB06010E
:1049D0005EEA430E08BF20EAD37070BDC4F10C0438
:1049E000C4F1200500FA04F320FA05F001FA04F2FC
:1049F00040EA020001F0004110EBD37041F10001E8
:104A00005EEA430E08BF20EAD37070BDC4F12005F2
:104A100000FA05F24EEA020E20FA04F301FA05F25A
:104A200043EA020321FA04F001F0004121FA04F202
:104A300020EA020000EBD3705EEA430E08BF20EAD2
:104A4000D37070BD94F0000F0FD101F0004640000C
:104A500041EB010111F4801F08BF013CF7D041EA8E
:104A6000060195F0000F18BF704703F00046520092
:104A700043EB030313F4801F08BF013DF7D043EA63
:104A80000603704794EA0C0F0CEA135518BF95EA19
:104A90000C0F0CD050EA410618BF52EA4306D1D1A0
:104AA00081EA030101F000414FF0000070BD50EABF
:104AB000410606BF1046194652EA430619D094EA49
:104AC0000C0F02D150EA013613D195EA0C0F05D133
:104AD00052EA03361CBF104619460AD181EA030187
:104AE00001F0004141F0FE4141F470014FF000003F
:104AF00070BD41F0FE4141F4780170BD70B54FF0DA
:104B0000FF0C4CF4E06C1CEA11541DBF1CEA135559
:104B100094EA0C0F95EA0C0F00F0A7F8A4EB05043B
:104B200081EA030E52EA03354FEA013100F0888032
:104B30004FEA03334FF0805545EA131343EA1263FB
:104B40004FEA022245EA111545EA10654FEA0026B0
:104B50000EF000419D4208BF964244F1FD0404F569
:104B6000407402D25B084FEA3202B61A65EB0305C5
:104B70005B084FEA32024FF480104FF4002CB6EB82
:104B8000020E75EB030E22BFB61A754640EA0C0002
:104B90005B084FEA3202B6EB020E75EB030E22BF42
:104BA000B61A754640EA5C005B084FEA3202B6EB83
:104BB000020E75EB030E22BFB61A754640EA9C0042
:104BC0005B084FEA3202B6EB020E75EB030E22BF12
:104BD000B61A754640EADC0055EA060E18D04FEAD0
:104BE000051545EA16754FEA06164FEAC30343EA70
:104BF00052734FEAC2025FEA1C1CC0D111F4801F3D
:104C00000BD141EA00014FF000004FF0004CB6E735
:104C100011F4801F04BF01430020B4F1FD0C88BFD4
:104C2000BCF5E06F3FF6AFAEB5EB030C04BFB6EBDF
:104C3000020C5FEA500C50F1000041EB045170BDD2
:104C40000EF0004E4EEA113114EB5C04C2BFD4EBFF
:104C50000C0541EA045170BD41F480114FF0000E83
:104C6000013C90E645EA060E8DE60CEA135594EAFF
:104C70000C0F08BF95EA0C0F3FF43BAF94EA0C0F02
:104C80000AD150EA01347FF434AF95EA0C0F7FF477
:104C900025AF104619462CE795EA0C0F06D152EACB
:104CA00003353FF4FDAE1046194622E750EA4106AF
:104CB00018BF52EA43067FF4C5AE50EA41047FF4C0
:104CC0000DAF52EA43057FF4EBAE12E74FF0FF3C25
:104CD00006E000BF4FF0010C02E000BF4FF0010CF6
:104CE0004DF804CD4FEA410C7FEA6C5C4FEA430C6F
:104CF00018BF7FEA6C5C1BD001B050EA410C0CBFBE
:104D000052EA430C91EA030F02BF90EA020F00201F
:104D1000704710F1000F91EA030F58BF994208BF86
:104D200090422CBFD8176FEAE37040F00100704743
:104D30004FEA410C7FEA6C5C02D150EA013C07D19A
:104D40004FEA430C7FEA6C5CD6D152EA033CD3D0E5
:104D50005DF8040B704700BF8446104662468C46DF
:104D60001946634600E000BF01B5FFF7B7FF002812
:104D700048BF10F1000F01BD4DF808EDFFF7F4FF3B
:104D80000CBF012000205DF808FB00BF4DF808EDC6
:104D9000FFF7EAFF34BF012000205DF808FB00BFE9
:104DA0004DF808EDFFF7E0FF94BF012000205DF80B
:104DB00008FB00BF4DF808EDFFF7CEFF94BF0120C0
:104DC00000205DF808FB00BF4DF808EDFFF7C4FFB9
:104DD00034BF012000205DF808FB00BF4FEA41020C
:104DE00012F5001215D211D56FF47873B3EB62523D
:104DF00012D94FEAC12343F0004343EA505311F064
:104E0000004F23FA02F018BF404270474FF00000F5
:104E1000704750EA013005D111F0004008BF6FF033
:104E2000004070474FF00000704700BF4FEA41025A
:104E3000B2F1E04324BFB3F5001CDCF1FE5C0DD9F8
:104E400001F0004C4FEAC0024CEA5070B2F1004F42
:104E500040EB830008BF20F00100704711F0804F45
:104E600021D113F13872BCBF01F00040704741F40A
:104E700080114FEA5252C2F11802C2F1200C10FA0E
:104E80000CF320FA02F018BF40F001004FEAC123F2
:104E90004FEAD32303FA0CFC40EA0C0023FA02F396
:104EA0004FEA4303CCE77FEA625307D150EA01336C
:104EB0001EBF4FF0FE4040F44000704701F000403C
:104EC00040F0FE4040F40000704700BF73B96AB97B
:104ED000002908BF0028BCBF00204FF00041C4BF1C
:104EE0006FF000414FF0FF3000F038B882B0EC4670
:104EF0002DE9005000F006F8DDF804E002B00CBC2B
:104F0000704700BFF8B5164604460D461F4600F030
:104F100027F806FB01F300FB0737A6FB0023FB186D
:104F2000A21A65EB0303069CC4E90023F8BD00BF89
:104F3000F8B5164604460D461F4600F06FF900FB13
:104F400007F7A0FB062306FB0177FB18A21A65EB07
:104F50000303069CC4E90023F8BD00BF704700BFEF
:104F600000292DE9F00F1D46C0F29D800024002D80
:104F7000C0F2948080460F4694461E46E3BB8A42A8
:104F800055D9B2FA82F747B1C7F1200520FA05F6E4
:104F900001FA07F1BA403143B840170CB1FBF7F6FC
:104FA000030C1FFA82FC07FB16110CFB06F543EA03
:104FB00001439D4208D9711E9B1880F013819D42C8
:104FC00040F21081023E9B18591BB1FBF7F507FB1D
:104FD000151380B20CFB05FC40EA03418C4507D950
:104FE0006B1E8A1880F00081944540F2FD80023DDE
:104FF00045EA0641002503E08B420CD900252946ED
:105000000A462B4614B1524263EB4303104619463D
:10501000BDE8F00F7047B3FA83F5002D40F08780AC
:105020008B4201D38242EAD800250121E8E712B978
:105030000126B6FBF2F2B2FA82F6002E39D18E1AB0
:10504000130C1FFA82FC0125B6FBF3F703FB176173
:105050004FEA10490CFB07F849EA0146B04506D96A
:10506000791EB61802D2B04500F2D3800F46C8EBC5
:105070000606B6FBF3F103FB116380B20CFB01FCE7
:1050800040EA03439C4506D94E1E9A1802D2944525
:1050900000F2C280314641EA0741B1E7E44352429F
:1050A00063EB430366E7404261EB41014FF0FF349D
:1050B0005DE7B240C6F1200921FA09F720FA09F5A7
:1050C000130C01FA06F1B7FBF3F845EA01091FFAE0
:1050D00082FC03FB18774FEA19410CFB08F541EA03
:1050E0000747B040BD420AD9BF1808F1FF3680F02B
:1050F0008E80BD4240F28B80A8F10208BF18791B58
:10510000B1FBF3F503FB15171FFA89F90CFB05F644
:1051100049EA07418E4206D96F1E891871D28E4224
:105120006FD9023D89188E1B45EA08458CE7C5F109
:10513000200122FA01F306FA05F61E4327FA01F2CE
:105140004FEA164907FA05F720FA01F1B2FBF9F820
:105150000F433B0C1FFA86FA09FB18220AFB08FBD7
:1051600043EA024293450CFA05FC08D9921908F16A
:10517000FF314AD2934548D9A8F102089219CBEBE6
:105180000203B3FBF9F109FB1132BFB20AFB01FACA
:1051900047EA02439A4506D94A1E9B1933D29A45DB
:1051A00031D902399B1941EA08410F0C1FFA8CF8DA
:1051B00008FB07F68AB24FEA1C4C08FB02F80CFB0E
:1051C000026202EB18420CFB07FC964288BF0CF50A
:1051D000803CCAEB03030CEB124C63450ED305D0A5
:1051E00000250DE70E46EFE61D4601E71FFA88F899
:1051F00000FA05F008EB0245A842F1D2013900257A
:10520000FEE63D468FE71146CDE78846B7E7B04654
:1052100075E7023FB6182AE702393CE72DE9F007A7
:10522000144605460E46002B3DD18A4249D9B2FAB2
:1052300082F747B1C7F1200120FA01F206FA07F61A
:10524000BC401643BD40220CB6FBF2F02F0CA1B2BD
:1052500002FB106601FB00F347EA0646B34208D999
:10526000471E361980F0F880B34240F2F5800238CC
:105270003619F61AB6FBF2F302FB1362ADB201FB6C
:1052800003F145EA0242914207D95E1E121980F0ED
:10529000E580914240F2E280023B43EA0040002177
:1052A000BDE8F00770478B4243D8B3FA83F4002C73
:1052B00042D18B4202D3824200F2DF8000210120E2
:1052C000EEE712B90127B7FBF2F4B4FA84F2002A30
:1052D00040F088800A1B230CA7B20121B2FBF3F631
:1052E00003FB16224FEA154C07FB06F04CEA02427C
:1052F000904207D9121906F1FF3C02D2904200F207
:10530000CE806646121AB2FBF3F003FB1023ADB257
:1053100007FB00F745EA03439F4207D9421E1B19CA
:1053200080F09E809F4240F29B80023840EA064017
:10533000B6E700210846B3E7C4F1200622FA06F5D5
:1053400003FA04F32B434FEA134C21FA06F501FA52
:1053500004F120FA06F6B5FBFCF746EA010A1FFA4B
:1053600083F80CFB17554FEA1A4108FB07F941EA8D
:105370000545A94502FA04F203D97E1EED187FD334
:105380003746C9EB0501B1FBFCF60CFB16151FFAFD
:105390008AFA08FB06F84AEA0541884503D9751ED2
:1053A000C91873D32E4646EA0746370C1FFA82FC0B
:1053B0000CFB07F5120CB3B20CFB03FC02FB03530E
:1053C00003EB1C4302FB07F29D4288BF02F58032CB
:1053D000C8EB010102EB134291424BD342D030465D
:1053E00000215DE79440C2F1200521FA05F6230C67
:1053F00020FA05F701FA02F1B6FBF3FC39430D0C74
:10540000A7B203FB1C6645EA064607FB0CF8B0454D
:1054100000FA02F508D936190CF1FF303DD2B0453B
:105420003BD9ACF1020C3619C8EB0602B2FBF3F023
:1054300003FB10268AB242EA064207FB00F19142C2
:1054400006D9461E121926D2914224D902381219C1
:10545000521A40EA0C4141E738460AE733461CE756
:10546000104663E71FFA8CFC00FA04F00CEB0343D0
:105470009842B4D2701E002112E7214620460FE761
:10548000A9457FF67DAF023FED187AE7884589D9B7
:10549000023EC91887E73046DAE78446C4E7023E91
:1054A00012192FE710B5034C14B1AFF3008010BDF3
:1054B000204610BD000000000028B8BF40427047E1
:1054C00008B5084B04461BB10021AFF3008001E092
:1054D00000F00CF804480068816A01B18847204652
:1054E00000F06CFC000000006061000070B5084B2B
:1054F000084CE01A841003EB84060025043D1CB11F
:1055000072599047013CF9E7BDE8704000F05EBC7D
:10551000A0000020A400002038B50E4D0E4BE81A64
:1055200085100024AC4205D00B4951F82420904747
:105530000134F7E700F044FC0849094A541AA51061
:105540000024AC4205D0054B53F8240080470134B9
:10555000F7E738BD9C0000209C0000209C00002044
:10556000A000002010B50023934203D0CC5CC454AB
:105570000133F9E710BD82180346934202D003F8C5
:10558000011BFAE7704700000EB400B59CB01DABDC
:10559000029006906FF00040049007904FF4027163
:1055A0000A4853F8042BADF814104FF6FF71ADF80C
:1055B00016100068019302A900F07EF8029B0022F9
:1055C0001A701CB05DF804EB03B07047980000201F
:1055D00010B50446224601341378002BFAD1CC5C76
:1055E000D4540133002CFAD110BD034611F8012B1D
:1055F00003F8012B002AF9D17047034613F8012B59
:10560000002AFBD1181A013870472DE9F843936836
:10561000064689461446002B41D1928912F4906FB8
:105620003DD0616923692768032502204D43FF1A95
:1056300095FBF0F5791C02F48062A94211B2A8BF73
:105640003D18304679B1294600F008FB8046A0B1EC
:105650003A462169FFF786FFA38923F4906040F062
:105660008002A28113E019462A4600F04FFB8046D3
:1056700068B93046216900F0ADFAA0890C2340F0EA
:10568000400233604FF0FF30A281BDE8F88308EBA1
:1056900007016561ED1BC4F810802160A560A36857
:1056A000002B06DD206800F8019BA2682060511ED7
:1056B000A1600020BDE8F8832DE9F0479CB00D46BD
:1056C00003938B8903F0800114460AB2064662B147
:1056D0002B6953B9402100F0C1FA2860286110B944
:1056E0000C213160D3E04020686100272021302266
:1056F00009978DF829108DF82A2023461F4613F8A4
:10570000010B28B9B7EB040A16D04FF000090DE0E1
:105710002528F3D1F6E7304614F809102A46FFF79A
:1057200074FF013000F0AC8009F10109D145F2DBD2
:10573000099901EB0A0209923B78002B00F0A08046
:1057400000244FF0FF3004940794059006948DF8E0
:1057500053401A9407F101094C464F4F21783846BF
:10576000052200F0C5FA09F10109049B30B1C41B00
:10577000012707FA04F73B430493EDE7D90602D566
:1057800020218DF853101A0702D52B228DF85320B3
:1057900020782A2802D0079B27460EE0039A176834
:1057A000101D002F039001DB079704E0794243F0BE
:1057B00002030791049301340AE03C460137217843
:1057C0003039092903D80A2404FB0313F5E70793AA
:1057D00022782E2A19D160782A2809D103980368E3
:1057E000021D0234002B0392B8BF4FF0FF330BE0D1
:1057F000671C00233C46013721783039092903D83A
:105800000A2404FB0313F5E70593244F2178384657
:10581000032200F06DFA38B1049BC71B402101FA46
:1058200007F10B430493013414F8011B1C488DF855
:105830002810062200F05CFA88B11A4A32B9039F98
:10584000FB1D23F007000830039014E003A900912A
:10585000304604A92A46144BAFF3008007E003A8A2
:10586000009004A930462A460F4B00F08FF8B0F1A3
:10587000FF3F804604D0099A02EB080109913CE7FA
:10588000AB8903F0400002B20AB9099801E04FF079
:10589000FF301CB0BDE8F087646100006A61000061
:1058A0006E610000000000000B5600002DE9F0477B
:1058B000154699468A680B69DDF820A09A42A8BF70
:1058C00013462B60804691F843000C4608B1591CE2
:1058D00029602668B20602D52A68931C2B602068CE
:1058E00010F0060618D094F8437020683E1C18BFCC
:1058F000012683061AD5A119302281F8432094F895
:105900004530023681F8443010E04046617E4A4618
:10591000D047013006D00136E1682A688B1A9E42D2
:10592000F3DBE0E74FF0FF30BDE8F0870027B74238
:1059300009DAE119404691F843104A46D047013050
:10594000F0D00137F3E721682868E668236901F0A1
:105950000602042A08BFC0EB0605A6680CBF25EAAC
:10596000E57500259E42C4BFC3EB0603ED18002673
:10597000AE4207DA4046A17E4A46D0470130D1D038
:105980000136F5E70020BDE8F08700002DE9F0437F
:105990000C4685B0257E0C996E2D9046074699469B
:1059A00004F1430200F0AA8012D8632D24D009D854
:1059B000002D00F0BB80582D40F0CB8084F845507E
:1059C000824D57E0642D20D0692D40F0C2801CE04C
:1059D000732D00F0AF8009D86F2D2FD0702D40F0BF
:1059E000B880256845F0200626603FE0752D25D05B
:1059F000782D40F0AE8039E00868021D0A60016829
:105A000004F1420684F84210A7E020680B6810F009
:105A1000800F02D01E1D0E6008E003F1040510F097
:105A2000400F0D6002D0B3F9001000E019680029A2
:105A30003CDA2D20494284F8430037E025680E689F
:105A400015F0800F02D0331D0B6007E006F1040053
:105A500015F0400F086001D0318800E03168267EE3
:105A60005A4D6F2E14BF0A2308231BE07820584D8F
:105A700084F8450020680B6810F0800F03F10406DD
:105A80000E6003D1410601D5198800E01968C607E8
:105A900044BF40F02000206019B9206820F02003A6
:105AA00023601023002084F8430001E0474D0A23BF
:105AB0006668002EA66003DB206820F004002060EA
:105AC00001B96EB104F14200B1FBF3FE03FB1E11FC
:105AD0000646695C00F8011971460029F4D100E01E
