:10000000001000209D1F0000CF1F0000D11F000026
:10001000CD1F0000CD1F0000CD1F0000CD1F000030
:10002000CD1F0000CD1F0000CD1F0000D31F00001A
:10003000CD1F0000CD1F0000D51F0000D50100001E
:10004000D91F0000DB1F0000DD1F0000DF1F0000C4
:10005000E11F0000E31F0000E51F0000E71F000094
:10006000E91F0000EB1F0000ED1F0000EF1F000064
:10007000B5130000F31F0000F51F0000F71F00007C
:10008000F91F000000000000000000000000000058
:100090000000000000000000000000000000000060
:1000A0000000000000000000000000000000000050
:1000B0000000000000000000000000000000000040
:1000C0000000000000000000000000000000000030
:1000D0000000000000000000000000000000000020
:1000E0000000000000000000000000000000000010
:1000F0000000000000000000000000000000000000
:1001000010B5064C2378002B07D10548002802D0F3
:10011000044800E000BF0121217010BD8C000020C8
:1001200000000000143A000008B5084B002B03D073
:100130000748084900E000BF07480168002903D0CC
:10014000064A002A00D0904708BDC04600000000C3
:10015000143A0000900000208C00002000000000F5
:10016000164B002B00D1144B9D46402292029A1A46
:10017000924600218B460F461348144A121A02F089
:100180006EFA0F4B002B00D098470E4B002B00D07F
:1001900098470020002104460D4600200C4900220B
:1001A000002302F0C3F802F0E1F92046294600F0EE
:1001B00019F802F0C7F8C04600000800001000203F
:1001C00000000000000000008C00002078030020E8
:1001D00041250000024B1A6801321A607047C04680
:1001E000DC010020F8B55F4656464D464446F0B463
:1001F0000421012000F09EFB002002F009F802F02B
:100200000FF8504800F05EFAFA21890002F03EF83B
:100210004D4B0138984200D9FEE74C4B4C4A586090
:10022000106AC0210002000A09060143116200227F
:100230009A6007221A6000F039FE01F041F90028A7
:1002400000D0FEE7434802F013FA434C434B2268C8
:100250002168891A9942FBD9414802F009FA012321
:100260009846002599463F4B3F48291C9B4602F083
:10027000FFF9434600270026AA46002B2CD0013761
:100280003A4802F0F5F90E2F2CDC002F01D10123A2
:1002900098464B46002B2AD00136092D4EDC122EF3
:1002A00033DC002E01D1012399460135642D31D074
:1002B0005346002B3AD0002001F0CEFF00239A468F
:1002C000226823689B1A632BFBD92748291C02F05C
:1002D000CFF94346002BD2D1013F254802F0C8F99F
:1002E0000E2FD2DD002398464B46002BD4D1013E81
:1002F00058460A2D20DD02F0BBF9584602F0B8F945
:10030000584602F0B5F9122ECBDD0023013599468F
:10031000642DCDD1124802F0ABF9012399469846DD
:100320005346002700260025002BC4D10F2001F0E2
:1003300093FF01239A46C3E702F09AF9584602F068
:1003400097F9ACE720000400FFFFFF0010E000E099
:1003500000ED00E068330000DC010020CF07000062
:1003600088330000983300008C3300009033000085
:100370009433000000B5FEE708B50F2203091340CF
:10038000022B1FD008D8012B22D0B8211A4889008F
:10039000FFF7F0FF012008BD032B0AD0042BF4D196
:1003A000164B984220D014481549FFF7E3FF01206F
:1003B000F1E7144B984211D00F481349FFF7DAFFC9
:1003C0000120E8E7114B5868024001209040E2E725
:1003D0000E4988680240181C9040DCE70B4B986E71
:1003E000024001209040D6E7084B03201B6F1840C5
:1003F00001238340181CCEE7203400004005140080
:10040000D902000030040800BF02000000800C4048
:10041000030670B51B0F0C1C022B1DD006D8012B38
:1004200050D076487649FFF7A5FF70BD032B09D061
:10043000042BF6D1734B984272D070487249FFF783
:1004400099FFF2E7714B984200D18DE0E3216B48B0
:100450008900FFF78FFFE8E780239B00994200D9CE
:10046000ADE06B4B07225B68111C1940012940D994
:10047000674A5360674B621E9A4200D99AE0002C8B
:1004800000DAA8E080231B0600225B080132234229
:10049000FBD01F20801A604B0F215A688A43024309
:1004A0005A6001F0ABFD5D4A594B81185C4A5B68AC
:1004B000914200D988E00722934301221343544A12
:1004C0005360B2E7574B4D1E9D421CD8002C00DAFA
:1004D00083E080231B0600225B0801322342FBD00D
:1004E0001F20801A4C4B0F219A688A4302439A605E
:1004F0009BE7934301221343454A5360454B621ED9
:100500009A42BCD956E03D4E4749301CFFF732FFB6
:10051000404B9D42DAD9301C8821FFF72BFFD5E7ED
:10052000082903D935484149FFF724FF3A494B6D63
:10053000DA0703D440220B6D1A42FCD1354B621E00
:100540009A424CD8002C56DB80231B0600225B0805
:1005500001322342FBD01F20801A2F4B03211A6F38
:100560008A4302431A6760E780231B02994203D93A
:1005700022482F49FFF7FEFE27494B6DDA0703D4C7
:1005800004220B6D1A42FCD1224B621E9A422BD8D8
:10059000002C2EDB80231B0600225B080132234245
:1005A000FBD01F20801A1C4B0F219A6E8A430243F6
:1005B0009A663AE711488821FFF7DCFE5FE70F48AB
:1005C0001C49FFF7D7FE4CE71B4A904200D976E75B
:1005D0000722934373E71F205DE71F2082E7074848
:1005E0008821FFF7C7FEADE704488821FFF7C2FE68
:1005F000CEE71F20D7E71F20AFE7C046203400001A
:10060000B903000040051400B303000030040800E3
:1006100000000C40FF7F000000800C40FFDB0BFF60
:10062000FF23F400FF0100001B03000096030000FD
:1006300052030000230300000024F400030570B5FA
:100640001B0F062B04D915481549FFF793FE70BD03
:10065000144A9B00D3589F46134AC003C00E136828
:1006600001248440A3438140181C08431060EEE736
:100670000E4AF2E70E4AF0E70E4AEEE70E4A012470
:100680000E4DC0036B6DC00EDE07E8D42B6D234208
:10069000FCD1E4E710240A4AF2E7C0462034000007
:1006A0000E0400009C33000078800C4008800C4051
:1006B00044800C4040800C4058800C4000800C402E
:1006C00060800C4008B5F8239B03184080231B036F
:1006D000984200D187E022D9A0235B0398424AD0F8
:1006E00027D9C0235B03984200D16EE0D0235B037F
:1006F000984222D15D4BE0215B69C90080220B400A
:100700009200934200D1ACE000D882E0C022920077
:10071000934200D1A3E08B4214D1554808E08023D6
:100720009B02984257D00FD8002806D101F0BEFC9A
:1007300008BD90235B03984233D097214D48C900F0
:10074000FFF718FE0020F3E78023DB02984239D040
:10075000C023DB029842F0D1444A0321936A0B4044
:10076000022B6BD0032B65D0012B5AD0936A00204B
:100770001B0CDDD023E03D4A936A1B079B0F022B25
:100780005FD0032B60D0012B4ED0936A00201B0D4D
:1007900001D001F0DFFC354B03221B6F1340D84022
:1007A000C6E7324A936A1B079B0F022B46D0032BE6
:1007B00040D0012B35D0936A00201B0DB8D001F03A
:1007C000C9FCB5E701F01AFCB2E72A482A49FFF74D
:1007D000D1FD0020ACE701F069FC244B0F229B689F
:1007E0001340D840A4E7214A0321936A0B40022B0F
:1007F00032D0032B2CD0012B19D0936A00201B0C74
:1008000001D001F0A7FC194B0F229B6E1340D8407A
:100810008EE7002B27D080225200934292D11748B6
:1008200086E701F093FC83E701F090FCB3E701F069
:100830008DFCE8E701F0E2FB400879E701F08EFC6F
:1008400076E701F08BFCA6E701F0D8FB4008A2E7B1
:1008500001F0D4FB4008D6E701F080FCD3E708485C
:1008600066E7084864E7084862E7C04600800C4035
:10087000406F40012034000061010000C0D8A70093
:1008800040420F00C0CF6A00809FD50008B50F23FB
:10089000184002281DD007D8012829D02148224914
:1008A000FFF768FD002008BD032803D00428F5D118
:1008B0000120F8E71D4A0C21936A0B40082B2DD02C
:1008C0000C2B2DD0042B27D0936A0920DA02EAD40E
:1008D000EEE7164A0321936A0B40022B1ED0032B2E
:1008E0001ED0012B18D0936A0920DA03DBD4DFE78E
:1008F0000E4BF020DB6A8001184080235B01984298
:100900000AD080239B01984208D0094A80184342AC
:1009100043410520C01AC6E70320C4E70220C2E70E
:100920000620C0E7203400005605000000800C407F
:1009300000F8FFFF38B50F240440012C0FD0002C25
:1009400004D14F484F49FFF715FD38BD032CF8D8A7
:1009500009290FD94A484C49FFF70CFDF5E7092949
:1009600004D947484949FFF705FDEEE7484B8900A0
:100970005B589F46474B89005B589F46464B042275
:1009800019680A431A6003210C220023022C6FD03D
:10099000424B4349986A01400A439A62D5E73F496E
:1009A00040230B628022CB6A1A42FCD000F0BEF8D2
:1009B000042200230121E9E78022802352035B0205
:1009C0000021E3E72E483749FFF7D4FC0325012334
:1009D000022232490B62CB6A1342FCD000F0A6F827
:1009E000314B07225B68111C1940012902D893433F
:1009F000012213432C4C6360284B5D6200F096F893
:100A000001F0FCFA294A63688118294A914229D8E1
:100A10000722934301221343234A536095E71F495A
:100A200080235B0080220B629200CB6A1342FCD0D1
:100A300000F07CF8082200230221A7E7002200230F
:100A40000021A3E70125C2E7022504230822C0E70D
:100A5000032540238022BCE78023802204255B00FD
:100A60009200B6E7134A9042D6D807229343D3E7C1
:100A70000A4A0B43906A104908400343936264E7B3
:100A8000203400007306000011060000C7050000B6
:100A9000B8330000E033000040800C4000800C4080
:100AA000F3FFEFFFC205000000000C40FFDB0BFF6F
:100AB000FF23F4000024F400FCFFFEFF08B5052826
:100AC00004D916481649FFF755FC08BD154B8000A0
:100AD0001B589F4610232020002910D012490B627A
:100AE000002A03D00A1CD36A0342FCD000F01EF88F
:100AF000EBE7802380205B0080000029EED10A4BC9
:100B0000186200F013F8E0E740238020E4E70423B4
:100B10000820E1E701230220DEE7C0462034000080
:100B2000F70700000834000000800C40024BDA6A2E
:100B3000024B1A807047C04600800C40A80000207D
:100B4000F8B54F464646C0B4041C0D1C161C1F1CAD
:100B5000052833D80F2931D8E200002E09D0E20051
:100B600001211319A9409B00002F42D025481B18D2
:100B7000196113199B00072D25D822495B18586865
:100B8000A90081460F2088408846494681438C460B
:100B9000301C41468840614601435960002E09D10E
:100BA0000123AB4012191D1C9200002F25D11648BD
:100BB000121853600CBC90469946F8BD1348CC21DE
:100BC000FFF7D8FBC8E70F481B18996889461049FA
:100BD0006818800080460F20011C4046814048462E
:100BE000884384464146301C8840614601439960F1
:100BF000D4E705481B185960BBE7024BD2181561B2
:100C0000D8E7C04600600040106000403434000067
:100C1000F8FFFF3FF8B52E4B041C0D1C984203D083
:100C20002C482D49FFF7A6FB236CDA0703D40222D8
:100C3000636C1A42FCD10A236360636C002BFCD105
:100C40000123236423682A7B1C218B4313436A7B83
:100C5000AF681343AA7B6E6813432360002F27D02D
:100C6000002E0BD11A4B9C4204D01A481B49FFF7A7
:100C700081FB13E01A48FFF725FD061C7001391CA3
:100C800001F004FB174B061C203EF6009E4214D8D0
:100C9000144B1E40236CDA0705D5E6602B786360A1
:100CA00000232364F8BD0422636C1A42FCD1F4E7EC
:100CB00008480D49FFF75EFBD2E7A121054849002E
:100CC000FFF758FB074B1E40236CDA07E5D4EAE731
:100CD0000040084048340000CD010000350100000C
:100CE00040051400F87F00000901000038B5041C1D
:100CF0000D1C01280CD90848A721FFF73BFB002C4D
:100D000002D1064B1D6038BD012CFCD1044BF9E724
:100D10000B0EF4D0EFE7C046603400000800084036
:100D20000C000840034B01211A688A4310431860E5
:100D30007047C0460000084000B5002802D1034BB0
:100D4000186200BD014B01221A62FAE70000084058
:100D5000427800B50378002A01D00222134382783A
:100D6000002A01D004221343014A136000BDC0468B
:100D700000000840F8B53A4B041C0D1C984255D0B1
:100D8000384E3949301CFFF7F5FA301C3749FFF768
:100D9000F1FA374B374AE360002323606260364A3A
:100DA000A3606361E364A2646365A3652A8A012387
:100DB0001343AA7B2168501E824192020B431343C6
:100DC0002360AB7C21685A1E93412A7D1B01501E73
:100DD000824152070B43134323602A7B80235B012C
:100DE000AE68134363606F68002E34D0002F2DD09F
:100DF000701E7F00311CC01901F048FA8601403E88
:100E0000FF23321C9A431D4B9A4204D9F221154804
:100E10004900FFF7AFFA1A4B1E4066616B7B002B4F
:100E200001D01023E3602B78E360F8BD104B114A2A
:100E3000C3600023036042600F4A83604361C36460
:100E40008264436503658365C365AFE70D48FFF7BB
:100E500039FC071CCCE703480B49FFF78BFAC5E7C1
:100E600000C4004074340000620200002E03000041
:100E7000AA0E000005100000F91F0000C0FF1F00AF
:100E800000FF1F0010810200B501000000B54022E4
:100E900003691A42FCD0416300BDC04600B5402240
:100EA00003691A42FCD0C16300BDC0460A4B10B5AD
:100EB0001A78002A0ED1094C01221A702368002BDF
:100EC00008D0043402E008CC002B03D09847002857
:100ED000F9D010BD0020FCE7E00000200000002059
:100EE00008B50A4B1B78002B01D1094808BD002822
:100EF00001DD0848FAE72C235843074B2C221B1826
:100F0000081C191C01F0A2FB0020EFE7E000002004
:100F10000500118002001180B400002008B50C4BC0
:100F2000011C1B78002B01D10A4808BD0A4A13682E
:100F3000002B01DD0948F8E7581C10602C204343C2
:100F400007482C22C01801F081FB0020EDE7C046C5
:100F5000E000002005001180B00000200100118099
:100F6000B400002010B5802901D0094810BD0949FE
:100F7000094C0868120182188034A24203D9002269
:100F80001A600648F2E718600A600020EEE7C046E3
:100F90000200118008000020E40000200100118000
:100FA000004870470400118008B500F045F900F0D2
:100FB000FDF8002008BDC046F0B557464E464546F0
:100FC000E0B4042082B00D1C0B210B9F00F058F9F7
:100FD000062000F037F90A9B6E4601339BB20636B5
:100FE0001A029A4601231343301C0221338000F079
:100FF00003F9002F25D07A1E90460123FF220024FA
:101000009A4491460DE0524613191B024A46134377
:101010009BB2301C02210134338000F0EDF8BC4259
:101020000FD0281C102100F0E7F81035A045EAD1B8
:101030000B4B301C02210134338000F0DDF8BC4240
:10104000EFD1022000F0FEF80B21042000F038F967
:10105000002002B01CBC90469946A246F0BDC04696
:10106000FFFF000070B51E1C0D1C0024002B08D0D3
:10107000281C00211022013401F0F1FA1035B4428D
:10108000F6D1002070BDC04608B50020002908D167
:101090000A2100F015F90020082100F011F90020C4
:1010A00008BD082100F0ECF80A21002000F0E8F863
:1010B000F5E7C04610B58CB000F0BEF800F076F849
:1010C00000F0C6F80F2100220023022000F0CAF829
:1010D000072100220023032000F0C4F80B21002286
:1010E0000023042000F0BEF8082100220023002085
:1010F00000F0B8F80A2100220023002000F0B2F826
:10110000002100220023002000F0ACF804200A2176
:10111000402200F0F5F8041E02D0201C0CB010BDD7
:101120001B4A01A801920122027480224260C2601F
:101130008260184A44744261174A8261174AC26148
:10114000174A0262174A4262174A8262FFF7E6FEB6
:10115000041EE2D10821002000F092F80A210020AC
:1011600000F08EF80B21042000F08AF8062000F031
:1011700069F86846042302210230038000F03CF83D
:10118000022000F05FF80B21042000F099F8C4E77A
:101190008834000089100000650F0000A10F0000D6
:1011A000B90F000065100000A90F000030B50D4A0E
:1011B00087B06B4623CA23C323CA23C30A4801212D
:1011C000FFF73CFA094D0A4B281C02936C460D238D
:1011D00069462373FFF7CEFD064B00206B6507B011
:1011E00030BDC046A03400000032020000C4004000
:1011F000E06735000A03000070B5041C0D1C0126D1
:10120000012D09D934420ED021780A48013DFFF75B
:101210003DFE0134012DF5D8064920220B691A4202
:10122000FCD0002070BD21880248FFF737FE023D48
:101230000234E5E700C4004008B500F0A3FD00203B
:1012400008BDC04608B500F099FE002008BDC046A4
:1012500008B503480121FFF7F1F9002008BDC04699
:101260000072020008B5002A05D1C0B20422FFF7BF
:1012700067FC002008BD0148FCE7C0460100138060
:1012800038B5C3B2041C0D1C052B01D80F2903D996
:1012900008480949FFF76EF8FF231C400123AB40C3
:1012A0001D1CE3001C19054BA400E4182561002057
:1012B00038BDC046BC3400000B0200000060004096
:1012C00038B5C3B2041C0D1C052B01D80F2903D956
:1012D00008480949FFF74EF8FF231C400123AB40A3
:1012E0001D1CE3001C19054BA400E41865600020D8
:1012F00038BDC046BC340000DF0100001060004073
:1013000030B5234B83B01860224BC0B21960151C56
:1013100000230422FFF714FC1F4901AC201C1831E4
:10132000032201F093F91D4B1B6C5A0703D41C4890
:101330000121FFF783F91B480921FFF7FBFA1A483F
:101340000121FFF765F801211748FFF777F900231E
:1013500023706370201C0123A370FFF7F9FC12486F
:10136000FFF7B0F9291C00F091FF411E0020FFF7A4
:10137000BDFC0E4B802252011A600D4B0222D9692E
:1013800001200A43DA61FFF7CDFC002003B030BD35
:101390006801002064010020A034000000800C409F
:1013A00000230400020006003004080000E100E011
:1013B0000000084038B50E4B02229A610D4B1C68A4
:1013C0000D4B1D68E3B2052B01D80F2D03D90B4837
:1013D0000B49FEF7CFFFFF231C400123AB401D1C30
:1013E000E3001C19074BA400E418A56138BDC046F2
:1013F000000008406801002064010020BC340000A7
:1014000022020000006000400020704700B5FEE7A7
:1014100080239B0100204B607047C046012070472D
:101420000020704770B50E1C151C0024002A04D142
:101430000BE030550134A54205D000F063F8431CA1
:10144000F7D1002C01D0201C70BD01246442FAE7C2
:1014500070B50C1C161C8D18002A05DD207801348F
:1014600000F054F8AC42F9D1301C70BD104A38B5C8
:101470001368002B07D01818EFF30881884205D8AD
:101480001060181C38BD0B4B1360F4E70A4B1B6847
:10149000986800F06FFF094C051C201C01F0E8F96A
:1014A000211C021C281CFFF7D3FF012000F04AFF7B
:1014B0006C01002078030020800000200C35000023
:1014C00010B58EB0002003A9FFF70AFD041E02D05C
:1014D000201C0EB010BD01A801230849019404711D
:1014E000437100F061FB041EF2D1054B00211B6823
:1014F00002229868002301F0E7F8E9E77001002074
:1015000080000020012040427047C046064B10B5C5
:10151000041C1868002804D0211C00F0DFFB201CEC
:1015200010BD01204042FBE770010020F0B5564697
:101530004D4644465F46F0B487B005918900061CCD
:10154000C56B8846006BA649824600278946012460
:101550005146002900D13EE1337D00229C46604681
:101560000023BC46039006E0012800D1A7E0013229
:10157000063352457ED2776C40463958CB46885C5C
:10158000E3445F46385C049003980028ECD1049F44
:101590003C4200D09BE0DF10EF1907200397184072
:1015A0003F78211C814003988F430770049F591C8A
:1015B00078088B46044200D09CE0C9108A465F46FA
:1015C00007210F40AA44211CB94057463F784008E4
:1015D0008F4351460F70C0B29F1CBB46044200D0DF
:1015E0009BE0FF10BA46594607273940AA44271CFA
:1015F0008F40514609784008B94357463970D91C85
:101600008B46044200D09AE0C9108A465F46072103
:101610000F40AA44211CB94057463F7840088F43E9
:1016200051460F701F1DBB46044200D099E0FF10C9
:10163000BA46594607273940AA44271C8F405146CD
:101640000978B943574639700227591D074200D01F
:1016500098E0C810072739402818271C8F400178C8
:10166000B9430170316B307D8A46013203900633F5
:10167000524580D3039B67469C466346012B00D1AD
:101680008AE0F0686437C308ED18C8239B009F42C6
:1016900000D05DE7059F5446FA0063000092534472
:1016A00008220192301DF16B5B00746A0022A04792
:1016B00007B03CBC90469946A246AB46F0BD0499A3
:1016C000C843C0B20490049F3C4200D163E7DF10DE
:1016D000EF1903970398072119400078271C8F40C2
:1016E00038430399049F0870591C78088B460442BC
:1016F00000D162E7CF10BA4607273940AA44271C19
:101700008F405146097840080F4351460F70C0B2D0
:101710009F1CBB46044200D163E7F9108A460721AB
:101720000F40AA44211CB94057463F78400839432E
:1017300057463970D91C8B46044200D164E7CF105C
:10174000BA4607273940AA44271C8F4051460978DA
:1017500040080F4351460F701F1DBB46044200D185
:1017600065E7F9108A4607210F40AA44211CB940B9
:1017700057463F783943574639700227591D07426B
:1017800000D166E70F1CC81007210F402818211C44
:10179000B9400778394364E753009A185200072389
:1017A00013400DD06046D110984049190138824647
:1017B00008788B4651460140083258460170D21ACB
:1017C000B168D0108A1AD2082818FF2100F047FF0C
:1017D000326B924655E7327D944600224DE7C04673
:1017E00040350000F0B5474680B45423C35C82B056
:1017F000041C012B3BD0002B06D00020022B3ED036
:1018000002B004BC9046F0BD437D002B37D1436B42
:10181000002B08D00025291C201CFFF787FE636BD6
:101820000135AB42F7D82269DB0093421FD2237DFA
:10183000002B26D1A368E06BDA08002100F00FFF2F
:10184000626B2369D5009D4211D20126271DB04647
:10185000424601920095381CE16B0022A368666A3B
:10186000B0470028CCD122690135AA42F0D8637D67
:10187000002B04D1216D201CFFF758FEC0E705485E
:10188000BEE7012BFBD1A668E06BF208FF2100F058
:10189000E6FED5E704001280F0B5474680B40E1C82
:1018A000071C5F4C1B2950D0237800201B2B02D033
:1018B00004BC9046F0BD631C1D1C01335A1E1278F7
:1018C000002AF9D12E70201C00F0D2FF554E051CC5
:1018D000311C201C2A1C00F0D2FF002840D0321DF1
:1018E0009046111C201C2A1C00F0C9FF00284CD077
:1018F00008239B19201C191C2A1C984600F0BFFFC6
:1019000000285FD00C2292199046111C201C2A1C22
:1019100000F0B5FF002863D010239B19201C191C70
:101920002A1C984600F0ABFF002869D01436201C12
:10193000311C2A1C00F0A3FF002835D0201C0021F8
:10194000042200F08CFE0020B2E70422201C0021BB
:1019500000F085FE032254232670FA540120A7E7E5
:10196000301C03225423FA5400F082FFA8420ED008
:10197000032D01D001209BE7201C0021042200F050
:101980006EFE5423FD54012092E74046E9E7002310
:101990003B65FB640422201C002100F060FE032252
:1019A0005423FA54012083E703225423FA54301CB1
:1019B00000F05EFFA842DBD1FB6C002BEAD0013BBC
:1019C000FB64E7E703225423FA54404600F050FF3B
:1019D000A842CDD13B6D002BDCD0013B3B65D9E764
:1019E00003225423FA54404600F042FFA842BFD1DC
:1019F0007A6B3B6D013A9342CCD201333B65C9E728
:101A000003225423FA54404600F032FFA842AFD1DB
:101A10003A6BFB6C013A9342BCD20133FB64B9E7E9
:101A20007401002028350000F0B5474680B4041C3E
:101A30000D1E0A2D5AD00D2955D0082947D0201C3B
:101A4000291CFFF729FF00283ED1564B68221B684E
:101A500000215B195B788846934302D0203DEDB2AC
:101A6000A846E36C226B93426BD2216D606B884277
:101A700022D83825655D002D00D17BE0012800D1FA
:101A80008DE000260027636C0136D859B700D9597C
:101A900000F0DCFD636B226B013B9E42F3D3666C6E
:101AA0009B009859002100F0DAFD616B0023013999
:101AB0005422E3642165A354626C89005258414664
:101AC000D154E36C0133E36404BC9046F0BD037D64
:101AD000012BB4D94923C25CFF2A46D0FF22C2544D
:101AE0004A23C254F0E70023C364EDE7036D0022EC
:101AF000C264426B013303659342E5D33823C55C6E
:101B0000002D24D0012A48D000250026636C013521
:101B10009859AE009959226B00F098FD636B013B18
:101B20009D42F3D3616C9B005858226B002100F05A
:101B300096FD626B0023013A22655422E364A354AC
:101B4000C2E7216D00230131E36421658EE7436C18
:101B5000002BB9D0066B00217243006C00F07FFDB2
:101B60005423E5642565E554AEE70022C2544A23B8
:101B7000C254A9E7666C002E0CD042430021206CB1
:101B800000F06DFD5423E554E5642565626C002387
:101B9000002193E78900002290E70023C2E7002399
:101BA0007DE7C04618000020F0B5474680B4444C9D
:101BB0005523E35C051C0E1C002B03D0414804BCDC
:101BC0009046F0BD221D111C00689046FFF788F971
:101BD000021EF4D1637D002B5ED0E26321697F2970
:101BE00001D83948EBE7A2687D2AFAD9102363634C
:101BF000152323632F68354B3548636420642760C1
:101C000029793822A15469793922A154021C15324C
:101C10005A60021C2A329A60021C3F32DA60021CAF
:101C200054321A61021C69325A61021C7E329A6176
:101C3000021C9332DA61021CA8321A62021CBD3205
:101C40005A62021CD2329A62021CE732DA622149DD
:101C5000021CFC3293271A637F0042181E495A6304
:101C6000C2199A634218DA6318604822FF23A3540A
:101C70004922A3544A22A354A8225200002100F072
:101C8000EEFC00235422A354E36423650122552370
:101C9000E2540020346092E7231C3C334046A168A4
:101CA0000822E769B847002800D088E74046E16B82
:101CB000A2680823A76AB84700288FD07FE7C046EC
:101CC00078010020050012800200128030030020FD
:101CD000E0010020110100003B01000038B5552350
:101CE000C35C041C0D1C002B01D1254838BD427D6E
:101CF000531E9A4101325423C2543822825C002A76
:101D00001CD0C26C002A04D1416B006D013988429D
:101D10001AD00C2D1AD03923E35C002B01D00A2DE8
:101D200028D0201C291CFFF77FFE5423E35C0020F1
:101D3000032BDBD0201CFFF755FDD7E7C16C002932
:101D4000E7D1026D002AE4D1E254E2E7626C002A96
:101D500009D0236B626B206C5A43002100F07FFC9A
:101D60000023E364236500225423E254201CFFF780
:101D700039FDBBE7201C0D21FFF756FED1E7C04619
:101D800006001280F0B55F464D4656464446F0B414
:101D900089B007AD7049281C032200F057FC6F4B37
:101DA00000211B6C8B465A0700D4CEE06C48FEF72E
:101DB0006DFD6A4C4022E36A03211A400190684895
:101DC0009046FEF7B7FD6748FEF7D6FA80218246B7
:101DD00049006448FEF71CFBA36D0027D90700D417
:101DE000ADE072B6604C23685A1C01D00133236009
:101DF0005E4B1A68D10700D47EE01A689968029297
:101E0000DA680391D9690492002205911A60DA61B7
:101E100007229A618021564AC02349015B00D150B4
:101E2000012291460023281CAB70FEF791FF514917
:101E300080235B014D4A0B600B685B000B600BD08D
:101E4000506853689842FCD0484B58680B68013B77
:101E5000FDD853689842EFD00B68444A5B080B608A
:101E60000E680825760814D00B6833430B60506861
:101E700053689842FCD03D4B58680B68013BFDD835
:101E80005368984202D00B68B3430B60013D002DAC
:101E9000E8D12368002B03D0013B2360002B4CD0FA
:101EA0004A46002A31D051462E48FEF7B1FA0120A9
:101EB000FEF742FF03992D4B049A9960DA6002996C
:101EC000059A19600020DA61FEF736FF002F21D154
:101ED000019B032B25D14146002929D05A46002ACF
:101EE00003D025480021FEF7A9FB09B03CBC904671
:101EF0009946A246AB46F0BD00230021002205937F
:101F000004910392029399468CE70020FEF70AFFA2
:101F1000002FDDD013480021FEF790FB019B032B1F
:101F2000D9D0191C0E48FEF705FD41460029D5D130
:101F300001200022FEF7C2FDD0E762B6B0E70948F3
:101F40000121FEF77BFB01274BE70B480121FEF740
:101F500075FB01239B4629E76038000000800C4098
:101F60000200060030040800AC0000200000084019
:101F700000E100E00C00002000230400064B882252
:101F80001202003250431A68C00AD20A5043800934
:101F900001D00138FDD870470C000020064880476A
:101FA0000649074A074B9B1A03DD043BC858D0502B
:101FB000FBDC05480047000049210000203A0000F2
:101FC000000000208C00002061010000FEE7FEE719
:101FD000FEE7FEE7FEE7FEE7FEE7FEE7FEE7FEE7D9
:101FE000FEE7FEE7FEE7FEE7FEE7FEE7FEE7FEE7C9
:101FF000FEE7FEE7FEE7FEE7FEE7C046224AF023E3
:10200000D16A9B010B40802100B549018B4226D04B
:10201000802189018B421FD0802109018B4210D081
:10202000D268E023DB00134080229200934223D049
:1020300018D8002B22D08022520093421AD1134A82
:1020400001E0134B1A68104B0F205B681840114BCE
:10205000C240101C1A6000BD0F4B1A68F3E78022C3
:102060001202F0E7C022920093420BD08022D200ED
:10207000934205D00022E6E7084AE4E7084AE2E78F
:10208000084AE0E7084ADEE700800C4040B56400FB
:10209000140000207003002010000020C0D8A7000A
:1020A000804F1200406F4001809FD5001E4AF023F0
:1020B000D16A9B010B40802100B549018B421ED0A3
:1020C000802189018B4217D0802109018B4210D0D9
:1020D000D268E023DB0013408022920093421BD0A1
:1020E00010D8002B1AD080225200934212D10F48F0
:1020F00001E00F4B186800BD0E4B1868FBE780200D
:102100000002F8E7C022920093420BD08022D20056
:10211000934205D00020EEE70748ECE70748EAE7DE
:102120000748E8E70748E6E700800C4040B5640050
:102130001400002010000020C0D8A700804F12001B
:10214000406F4001809FD5007047C046802000024C
:102150007047C046FA2080007047C046014B18689F
:102160007047C0461000002030B5204B85B06A464D
:1021700023CB23C21B681E4813601E4A0023136032
:102180001D4A01211360FEF759FA1C480121FEF790
:1021900055FA1B480121FEF751FA1A480121FEF7B2
:1021A0004DFA194D19480621FEF7C4FBE1235B02E5
:1021B000281C69460293FEF72DFD0320042104220A
:1021C0000123FEF7BDFC0320052101220123FEF7B8
:1021D000B7FC0020092104220123FEF7B1FC6A6D3F
:1021E0000323134300206B6505B030BD6438000045
:1021F00010810200D0010020D401002000720200F2
:1022000040051400002304000040084003001200B1
:1022100008B5430701D5FFF7A7FF002008BDC0465A
:1022200008B50B480121FEF709FA0A480121FEF71B
:1022300005FA02200A2104220023FEF781FC022075
:102240000B2104220023FEF77BFC002008BDC046C2
:102250001081020000720200802200B5D200C30784
:1022600009D4094BDA6580221201830709D5064B90
:102270009A65002000BD044B9A65802212018307F5
:10228000F5D4014BDA65F4E700600040002934D052
:102290000123002210B488422CD301242407A14238
:1022A00004D2814202D209011B01F8E7E400A142F5
:1022B00004D2814202D249005B00F8E7884201D390
:1022C000401A1A434C08A04202D3001B5C08224368
:1022D0008C08A04202D3001B9C082243CC08A042D9
:1022E00002D3001BDC082243002803D01B0901D0C5
:1022F0000909E3E7101C10BC7047002801D000203A
:10230000C04307B4024802A14018029003BDC04672
:10231000190000000029F0D003B5FFF7B9FF0EBC8B
:102320004243891A1847C0467047C04610B5044C4E
:10233000002C02D000E000BF00E0201C10BDC04611
:1023400000000000094B10B5041C002B03D0002135
:1023500000E000BF01E000F0F3F805480068816A82
:10236000002900D08847201CFFF750F8000000002B
:10237000DC39000038B50F4D041C2868002804D053
:102380008369002B01D100F071F80B48844202D11F
:102390002B685C680AE009498C4202D12D68AC6860
:1023A00004E0074A944201D12C68E4680E23E05E01
:1023B00038BDC04680000020783900009839000000
:1023C000B8390000F8B5041C071C4C34002C13D09D
:1023D000A5686668013E0DD40C22AB5E002B07D0C9
:1023E0000E22A85E431C03D0381C291C00F00CFEF2
:1023F0006835EFE72468E9E7F8BD000010B5002371
:10240000041C03604360836081814366C281036171
:1024100043618361191C08225C3000F020F90548F3
:102420000549064A064B24626062A162E2622363A8
:1024300010BDC046D927000001280000392800003F
:102440006528000070B568254D430E1C291C0C3111
:1024500000F0B2F8041E07D00C3000212160666045
:10246000A0602A1C00F0FBF8201C70BD70B58569C7
:10247000041C002D20D1114B012683628661C564A6
:102480000565456500F01CF86060201C00F018F838
:10249000A060201C00F014F80421E0602A1C606891
:1024A000FFF7ACFFA0680921321CFFF7A7FFE06827
:1024B00012210222FFF7A2FF70BDC046C523000013
:1024C000F8B51E4B071C1E68B269002A02D1301CE9
:1024D000FFF7CCFF4C36B4687368013B05D40C227F
:1024E000A55E002D11D06834F7E73068002801D0D0
:1024F0003668F0E7381C0421FFF7A4FF306000289D
:10250000F6D10C213960041C15E001225042E08113
:102510000126201CA68165662560A5606560256191
:102520006561A5615C30291C082200F098F865639C
:10253000A563A564E564201CF8BDC046DC39000035
:1025400038B5084B084C1D1CE01A8410002C06D02E
:10255000A1006A18043A13689847013CF6E700F0B6
:10256000FDFE38BD880000208C00002070B50E4BA9
:102570000E4D0024E81A85101E1CAC4204D0A100A8
:10258000725890470134F8E700F0E2FE0849094A22
:102590000E1C541AA5100024AC4204D0A300F0581D
:1025A00080470134F8E770BD8400002084000020DB
:1025B000840000208800002070B50323CD1C9D43BB
:1025C0000835061C0C2D01D20C2501E0002D2DDB59
:1025D0008D422BD31C4A1368111C1C1C002C12D0DA
:1025E0002068421B0CD40B2A02D92260A41815E0E3
:1025F000A34202D166680E601CE065685D6019E068
:10260000231C6468EAE7301C291C00F04BF8421CCC
:102610000CD0C41C03218C43844201D1256009E005
:10262000211A301C00F03EF80130F7D10C24346040
:10263000002008E0201C0B300722211D9043431A84
:1026400001D05D42E55070BDD801002010B50023D7
:10265000934203D0CC5CC4540133F9E710BD00B5FC
:102660008218031C934202D019700133FAE700BDAF
:102670000FB40B4B13B51C68002C05D0A0690028C3
:1026800002D1201CFFF7F2FE05ABA168201C049AC2
:10269000019300F021F916BC08BC04B01847C046ED
:1026A0008000002038B5074C0023051C081C23605F
:1026B000FEF7DCFE431C03D12168002900D029600D
:1026C00038BDC04674030020F7B53E4F041C38687F
:1026D0000E1C01921D1C002804D08269002A01D121
:1026E000FFF7C4FE384B9C4202D13B685C680AE0AD
:1026F0003648844202D13A68946804E034498C42F6
:1027000001D13C68E4680198022858D8002D56DBB6
:10271000211C386800F078FCA28900216160A16169
:10272000120603D53868216900F018FDA3898320BB
:1027300001998343A381022913D0002E25D1002DB6
:1027400001D18025ED00281C00F0B4FD061E18D133
:102750008026F00000F0AEFD061E10D10125684273
:1027600000E00020A3890227211C47313B430026BB
:102770000122A381A66021602161626121E08022A3
:10278000D500A38980200343A3810199012904D1A5
:10279000A2896B420A43A281A3613F680D48B862D7
:1027A00026602661A68965610020320709D50321CC
:1027B0000E407242564172421540A56001E001246C
:1027C0006042FEBD8000002078390000983900008A
:1027D000B8390000C523000038B50C1C0E25495F30
:1027E00000F07EFD002803DB616D0D18656503E0D8
:1027F000A289024B1340A38138BDC046FFEFFFFF03
:10280000F8B51E1C8B89051C0C1C171CDA0505D598
:102810000E23C95E0022022300F0E8FCA2890548CD
:10282000331C1040A0810E22A15E281C3A1C00F02F
:1028300059FBF8BDFFEFFFFF38B50C1C0E25495FB3
:1028400000F0D4FCA389421C03D1054D2B40A38189
:1028500004E0802251010B43A381606538BDC0466E
:10286000FFEFFFFF08B50E23C95E00F0BBFB08BDFC
:102870000023C25C0133002AFBD1581E7047031CA1
:10288000002010B5824211D01C780878A04201D1F6
:10289000012A03D11A780978501A07E0013A002872
:1028A000F8D001330131002AEED1F3E710BD93686F
:1028B00010B5013B9360002B05DA9469A34208DB55
:1028C000CBB20A2B05D01468C8B221700134146051
:1028D00001E000F0A9FA10BDF0B5A1B0061C04910A
:1028E000171C0793002804D08169002901D1FFF744
:1028F000BDFD804B049A9A4202D1726804920BE0AB
:102900007D48049C844201D1B36804E07B4D049966
:10291000A94201D1F36804930498848922070AD557
:102920000569002D07D008AD002120233022696100
:102930006B76AA7640E0301C049900F0E7FA002894
:10294000F1D001204042D2E0079F3A68381D07903D
:10295000002A00DA82E00B92013423782E2B00D17A
:102960008DE0674F2178381C032200F0ADFC002871
:1029700006D0C11B2B6840208840184328600134D2
:102980002178604806222976671C00F09DFC00280B
:1029900000D199E05C4A002A00D08CE02A68079CAC
:1029A0000723D10500D484E0E4189C43083407943D
:1029B0000D9905980C180D943C1C2078002804D122
:1029C000E11B069118D003970EE02528F8D00134BA
:1029D000F3E70399301C0978049AFFF768FF039B1B
:1029E0000133039301307CD0039B069AD81B90429D
:1029F000EFDB0D9FB9180D912378002B71D00122C8
:102A0000694600205742633101342860E8606F60F6
:102A1000A8600870A8653D4F2178381C052200F099
:102A200053FC002807D02A68C71B0123BB4013436F
:102A30002B600134EFE72B68D90603D56A462020C6
:102A4000633210701A0703D56F462B216337397034
:102A500020782A2800D177E70B9B05E00227514216
:102A60003B43E9602B6077E72278303A092A04D8A3
:102A70000A214B4301349B18F6E70B936DE760780E
:102A80002A2809D1079B02341F68181D0790002FC0
:102A90000DDA012257420AE0013400272278303A49
:102AA000092A04D80A214F430134BF18F6E70997D1
:102AB00057E7073479E707A90091301C291C049ACD
:102AC000134B00E000BF07E007AC0094301C291C4A
:102AD000049A0F4B00F08EF805900598421C00D028
:102AE00066E7049DAE89720600D52AE70D9821B0ED
:102AF000F0BDC0467839000098390000B8390000B0
:102B0000E6390000EA39000000000000E03900006A
:102B1000AF280000F7B5151C01930A698B68009077
:102B20000C1C934200DA131C201C2B6043300178EC
:102B3000002901D001332B602668B00602D52F682A
:102B400002372F602268062616401CD0261C43360A
:102B5000377822683E1C731E9E4192061CD5A3192D
:102B6000181C40303021271CC17045373A7841335A
:102B7000DA70023610E0617E0098019A089FB8472B
:102B8000013006D00136E3682868191A8E42F2DB5C
:102B9000DCE7012040422CE00027B7420ADAE119C5
:102BA000433109780098019A089B98470130F0D08A
:102BB0000137F2E72B68256806212940E6680025E1
:102BC000042903D1F01AC743FD170540A2682669FE
:102BD000B24201DD931BED180027AF4208DAA17E57
:102BE0000098019A089EB0470130D2D00137F4E72F
:102BF0000020FEBDF0B50D1C8BB04335079305904A
:102C0000069204950A7E0C1C109B6E2A00D1A8E047
:102C100012D8632A24D009D8002A00D1B1E0582A5A
:102C200000D0C1E045310A707D4D51E0642A1FD0CB
:102C3000692A00D0B8E01BE0732A00D1A5E009D8CA
:102C40006F2A2BD0702A00D0AEE00A6820261643E7
:102C50000E6038E0752A21D0782A00D0A4E032E056
:102C600018680E1C051D1D600368423633709EE017
:102C700026681F68300606D4750604D5381D18600E
:102C800000203D5E02E03D1D1D603D68644B002D4F
:102C90003BDA04992D226D420A7036E027681E68DF
:102CA0003D0605D4780603D5351D1D60358802E044
:102CB000311D196035685A4B207E039308276F2811
:102CC0001ED00A271CE0271C45377820554D387048
:102CD0001A682668111D03951960300603D475061D
:102CE00001D5158800E01568F00702D520231E43A2
:102CF00026601027002D03D12668202086432660F9
:102D0000261C43360022327001E003930A276168D3
:102D1000A160002903DB2068042398432060002D74
:102D200002D1049E00290ED0049E281C391CFFF7F6
:102D3000F1FA039A013E515C281C3170391CFFF7EF
:102D4000A5FA051EF1D1049B9A1B2261082F33D1ED
:102D50002768F80730D5606890422DDC0132626048
:102D60002AE008681E684969050606D4450604D5A8
:102D7000351D1D603368198003E0321D1A60376805
:102D8000396000202061049E16E01E68311D196024
:102D90003668301CFFF76CFD65682061A84200D9D9
:102DA00025612369636004E0261C423632700121EC
:102DB0002161049F00223A7007990598009109AAA1
:102DC000211C069BFFF7A6FE01300CD0351C2269A2
:102DD000AB1B93420ADA29780598069A079FB847F1
:102DE00001350130F3D10122504217E02668B107C6
:102DF00005D4099BE068984210DA181C0EE0002503
:102E0000E7680998391A8D42F3DA617E0598069AC7
:102E1000079EB0470130E6D00135F1E70BB0F0BDB9
:102E2000F1390000023A000070B5051C0E1C141C9C
:102E3000002804D08169002901D1FFF717FB264B38
:102E40009C4201D16C6808E02448844201D1AC68FE
:102E500003E0234A944200D1EC68A169A389A160F0
:102E6000190702D5206900280CD1281C211C00F06C
:102E70004DF8002806D0A68940210E43A6810924DA
:102E80002C600DE0216822696069F6B28B1A8342DA
:102E900009DB281C211C00F0B7F80023984202D05F
:102EA00001256E4215E0A16822680139A160167003
:102EB0006069013201332260834204D0A389D907BB
:102EC00007D50A2E05D1281C211C00F09DF80028EA
:102ED000E6D1301C70BDC04678390000983900003A
:102EE000B839000038B5084C051C00202060081CCB
:102EF000111C1A1CFEF7ACFA431C03D12368002BEB
:102F000000D02B6038BDC0467403002070B5314D31
:102F1000061C28680C1C002804D08169002901D1F6
:102F2000FFF7A4FA2C4B9C4202D129684C680AE0B6
:102F30002A48844202D12D68AC6804E0284A9442B1
:102F400001D12C68E468A3891A071ED4D90602D4DB
:102F5000012148423CE05A0713D5616B002908D093
:102F6000201C4430814202D0301C00F0F7F80022CF
:102F70006263A589242120698D430023A5816360B4
:102F80002060A58908221543A581216900290BD15C
:102F9000A389A020850080221D4091008D4203D08E
:102FA000301C211C00F036F9A6890123334005D0DE
:102FB000656900206A42A060A26103E0B10700D405
:102FC0006369A36024690020844201D13206BFD422
:102FD00070BDC0468000002078390000983900009C
:102FE000B839000038B5074C0023051C081C2360C5
:102FF000FEF70AFA431C03D12168002900D029609A
:1030000038BDC04674030020F7B50C1C0969051CC7
:1030100000293ED0002804D08269002A01D1FFF7A0
:1030200025FA4B4B9C4201D16C6808E04948844228
:1030300001D1AC6803E0484EB44200D1EC68A389EA
:10304000002B26D01F0766D4802210016768184322
:10305000A081002F02DC266C002E1ADDE76A002F0B
:1030600017D08022002152012E681A40296001D019
:10307000626D16E0281C216A0123B847021C431C1C
:103080000FD12B68002B0CD01D2B01D0162B02D199
:103090002E6000205BE0A58940200543A581101C1F
:1030A00055E0A7897F0706D56168636B521A002B2C
:1030B00001D0206C121A216A281C0023E76AB84745
:1030C000411C0DD12A68002A0AD01D2A08D0162AD0
:1030D00006D0A68940252E43A6810124604236E011
:1030E0002369A789002161602360FF0405D5411C85
:1030F00002D12A68002A00D16065616B2E60002928
:10310000C7D0201C4430814202D0281C00F026F891
:10311000002060631BE02669002EBAD027680022D9
:10312000B91B01912660990700D16269A2600198DC
:103130000028AEDD281C216A321C019BA76AB84713
:103140000028C6DD019B3618191A0191EFE7FEBD74
:103150007839000098390000B839000030B50029EE
:1031600040D004390B68002B00DAC9181E4A1368D6
:10317000141C002B02D14B60116033E099420FD236
:103180000D684A199A4205D110682B1855680B60D2
:103190004D6000E04B60216024E08A4203D8131C9C
:1031A0005A68002AF9D11D685C198C420BD10C6851
:1031B0002D1958191D60904214D1116852686C186D
:1031C0001C605A600EE08C4202D90C21016009E0BB
:1031D00008680D18954203D11468526800190860F8
:1031E0004A60596030BDC046D801002038B5084C4F
:1031F000051C00202060081C111C1A1CFEF710F989
:10320000431C03D12368002B00D02B6038BDC0467F
:1032100074030020F0B58B8991B0051C0C1C9A0733
:1032200025D40E23C95E002906DAA78980263740F7
:103230000FD0002740260EE001AA00F065F8002814
:10324000F3DBF02702983902184A01408F187B42BD
:103250005F418023DE00281C311CFFF7ADF90028F8
:103260000CD1A789BA051FD402263743A781211C98
:103270004731012321602161636115E00C498022FF
:10328000A962A38920601343A38120616661002F96
:103290000AD00E23E15E281C00F048F8002803D075
:1032A000A58901200543A58111B0F0BD00E0FFFF15
:1032B000C523000008B5034B011C1868FFF77CF913
:1032C00008BDC0468000002000B5C9B282189042F7
:1032D00004D003788B4202D00130F8E7002000BD13
:1032E00038B5084C051C00202060081C111C1A1C55
:1032F000FEF798F8431C03D12368002B00D02B6005
:1033000038BDC0467403002038B5074C0023051CA7
:10331000081C111C2360FEF77BF8431C03D12168B5
:10332000002900D0296038BD7403002038B5074C4F
:103330000023051C081C2360FEF770F8431C03D112
:103340002168002900D0296038BDC04674030020E0
:10335000F8B5C046F8BC08BC9E467047F8B5C046F4
:10336000F8BC08BC9E46704748656C6C6F2C2045C5
:10337000464D3332205A65726F204765636B6F206C
:10338000776F726C642100000C000000256400005F
:103390001B4200001B4100001B44000046060000C9
:1033A0007006000074060000780600007C0600002D
:1033B000940600005806000062090000620900003F
:1033C000580A0000500A0000480A0000440A0000A1
:1033D000620900006209000062090000C4090000DF
:1033E000540900003C0A00001E0A00009E0900006B
:1033F00054090000540900007C0900005409000031
:1034000054090000B8090000F20A0000080B00008F
:103410000E0B0000140B0000D40A0000CA0A0000C2
:103420002E2E2F656D6C69622F656D5F636D752E35
:10343000630000002E2E2F656D6C69622F656D5F35
:103440006770696F2E6300002E2E2F656D6C6962A8
:103450002F656D5F6C65756172742E6300000000EE
:103460002E2E2F656D6C69622F656D5F7274632EF1
:10347000630000002E2E2F656D6C69622F656D5FF5
:1034800075736172742E63005368617270204C53BF
:1034900030313342374448303320233100000000BC
:1034A000050000000000000040420F000501000080
:1034B000000000000000000001000100433A5C53DE
:1034C000696C69636F6E4C6162735C53696D706C9B
:1034D000696369747953747564696F5C76325C648E
:1034E0006576656C6F7065725C73646B735C656642
:1034F0006D33325C76322F656D6C69622F696E6355
:103500002F656D5F6770696F2E6800004865617098
:1035100020616E6420737461636B20636F6C6C69EF
:1035200073696F6E0A0000001B5B48001B480000B7
:103530001B4100001B4200001B4300001B44000015
:1035400000040A0A04030606080200000000000046
:103550000E040E1F081F0C1F0E0E00001000010E9F
:103560000E0E0F0E071F1F0E110E1C110111110E52
:103570000F0E0F1E1F11111111111F0E000E04004E
:103580000200010010000C00010408010600000008
:1035900000000000020000000000000C0406000013
:1035A0000000000000040A0A1E13090404040404B5
:1035B00000000000110611080C010210111106068E
:1035C000080002111011111109010111110408095B
:1035D000011B11111111110104111111111110020E
:1035E00000080A00040001001000121E0100000182
:1035F00004000000000000000200000000000002C3
:10360000040802000000000000040A1F010805026F
:103610000208150400000010190410040A0F010824
:1036200011110606041F04101011110111010101EE
:1036300011040805011513111111110104111111C3
:103640000A11080201081100080E0D0E160E0211D3
:103650000D060C09040B0D0E0F160D0E071111119E
:1036600011111F0204081500000000000004000AE8
:103670000E04020002080E1F001F000815040808AF
:1036800009100F040E1E00000200080816110F0199
:10369000110F0F1D1F040803011515110F110F0E37
:1036A00004111115040A040202080000001013019D
:1036B0001911071113040805041513111119130129
:1036C000021111110A110801041008000000000085
:1036D0000000001F10021500020815040600000477
:1036E000130404101F10110211100606041F040415
:1036F000151F110111010111110408050111191102
:1037000001150510041111150A0402020408000035
:10371000001E1101111F021E1104080304151111CE
:103720000F1E010E02111115041E040204080000F0
:10373000000000000000000A0F190900040404043E
:1037400004000602110402110811110211080604F6
:1037500008000200151111110901011111040909D4
:10376000011111110109091004110A1511040102B6
:1037700008080000001111111101021011040905BF
:10378000041111110110011012190A150A10020278
:1037900004080000000000000004000A04181600DD
:1037A00008020000020006010E0E1F0E080E0E0297
:1037B0000E060002100001040E110F0E071F010E6D
:1037C000110E06111F11110E0116110F040E040A1D
:1037D00011041F0E100E001F001E0F0E1E0E020EF3
:1037E000110E06090E11110E0110010F0C16040A1C
:1037F000110E1F0C04060000000000000000000075
:1038000000000000000000000000000000000000B8
:1038100000000000000000000000000000000000A8
:103820000000000000000000000000000000000098
:103830000000000000000000000000000000000088
:103840000000000000000000000000000000000078
:103850000000000000000000000000000000000068
:1038600001000100050000000000000080250000AC
:1038700000000000002020202020202020202828D8
:103880002828282020202020202020202020202020
:103890002020202020881010101010101010101060
:1038A0001010101010040404040404040404041090
:1038B000101010101010414141414141010101011E
:1038C00001010101010101010101010101010101E8
:1038D00010101010101042424242424202020202F4
:1038E00002020202020202020202020202020202B8
:1038F0001010101020000000000000000000000068
:1039000000000000000000000000000000000000B7
:1039100000000000000000000000000000000000A7
:103920000000000000000000000000000000000097
:103930000000000000000000000000000000000087
:103940000000000000000000000000000000000077
:103950000000000000000000000000000000000067
:103960000000000000000000000000000000000057
:103970000000000000000000000000000000000047
:103980000000000000000000000000000000000037
:103990000000000000000000000000000000000027
:1039A0000000000000000000000000000000000017
:1039B0000000000000000000000000000000000007
:1039C00000000000000000000000000000000000F7
:1039D0000000000000000000430000001C00002068
:1039E000232D302B2000686C4C00656667454647E8
:1039F000003031323334353637383941424344456B
:103A000046003031323334353637383961626364D9
:083A10006566000000000000E3
:083A180048C7FF7F0100000018
:103A2000B510000000000000E400002000100000BD
:103A30000080000000366E017438000000000000B5
:103A40007839000098390000B83900000000000003
:103A5000000000000000000000000000D839000055
:103A60000000000000000000000000000000000056
:103A70000000000000000000000000000000000046
:103A80000000000000000000000000000000000036
:103A90000000000000000000000000000000000026
:0C3AA0001C0000202901000001010000B2
:0400000300001F9D3D
:00000001FF
