:1000000000100020693400009B3400009D34000083
:1000100099340000993400009934000099340000AC
:100020009934000099340000993400009F34000096
:100030009934000099340000A134000091180000A8
:10004000A5340000DD1D0000A9340000AB34000021
:10005000AD340000AF340000F91D0000B3340000DF
:10006000B5340000B7340000B9340000BB340000E0
:10007000FD310000BF340000C1340000C334000073
:10008000C534000000000000000000000000000077
:100090000000000000000000000000000000000060
:1000A0000000000000000000000000000000000050
:1000B0000000000000000000000000000000000040
:1000C0000000000000000000000000000000000030
:1000D0000000000000000000000000000000000020
:1000E0000000000000000000000000000000000010
:1000F0000000000000000000000000000000000000
:1001000010B5064C2378002B07D10548002802D0F3
:10011000044800E000BF0121217010BDCC00002088
:1001200000000000D058000008B5084B002B03D099
:100130000748084900E000BF07480168002903D0CC
:10014000064A002A00D0904708BDC04600000000C3
:10015000D0580000D0000020CC000020000000009B
:10016000164B002B00D1144B9D46402292029A1A46
:10017000924600218B460F461348144A121A03F088
:1001800072FB0F4B002B00D098470E4B002B00D07A
:1001900098470020002104460D4600200C4900220B
:1001A000002303F0F7FA03F02FFB2046294601F065
:1001B00073FB03F0FBFAC0460000080000100020AB
:1001C0000000000000000000CC000020FC0A00201D
:1001D000DD37000008B5124B02225A605A6A114BF3
:1001E0001149187880004250187810498000405812
:1001F000824202D91878800042501A78042A0BD023
:1002000004221A7019780A4801F0F6FF044B002204
:100210005A6201225A6008BD03221A70F2E7C046F2
:1002200000040140E8000020EC0000200000002055
:1002300000100040054B8000C258C158044BC35801
:100240008808101A83428041404270470000002015
:10025000EC00002030B5164B87B001A90A1C1833FA
:1002600031CB31C211CB11C2124B8022986852009F
:1002700002439A60586C162202435A640E4B0F4A8E
:100280000F4C1A600F4A201CDA610F4A1A640F4B98
:10029000802292021A6101230B704B703023CB60D5
:1002A00001F068FF201C01F0B9FF07B030BDC04667
:1002B0005C3A000000800C40000401400000010A8C
:1002C00000100040FFFF00000100100000C00C40C3
:1002D00010B5074B1A7B002A09D15A68141806D4A6
:1002E00019684968521810187F2800DC5C6010BD3E
:1002F0002801002000B5094B1A7B002A0DD0084ABE
:1003000011684968C80F4118506892684910013A4D
:1003100041189A60002259601A7300BD380100200C
:1003200028010020F0B5474680B482B001F08AFC75
:10033000CB4A0220022101F0DDFACA4B01AF1C6852
:1003400000233B70201C0A2103F0B8F96E463031BF
:1003500003363170201C0A2103F06CF90A21041CB9
:1003600003F0ACF96A4630319170201C0A2103F089
:1003700061F90A21804603F0A1F96C46303101345D
:10038000217040460A2103F055F90A2103F096F93D
:100390003031C9B26B461970302917D1231C0020A7
:1003A00000E0101C191C0D78421C0133302DF8D0D0
:1003B00004239A1A904600D19FE04246684603F013
:1003C00049FA00AB1A1C4244002313702420022176
:1003D0006A4601F08FFA3D200221A34A01F08AFA11
:1003E000A24B0A211A680023101C3B70904603F0B0
:1003F00065F93031317040460A2103F01BF90A21BA
:10040000061C03F05BF96B4630319970301C0A21F1
:1004100003F010F90A21051C03F050F93031217066
:10042000281C0A2103F006F90A2103F047F96A465D
:10043000303111706720022101F05CFA8C4C237B73
:10044000002B5FD0237F002B64D02C23E35C002B98
:1004500069D03C23E35C002B00D16EE04C23E35CCD
:10046000002B00D173E05C23E35C002B00D178E02B
:100470006C23E35C002B00D17DE07C23E35C002B4C
:1004800000D182E08C23E35C002B00D187E09C2329
:10049000E35C002B00D18FE0AC23E35C002B00D1A8
:1004A00097E0BC23E35C002B00D19FE0CC23E35C0E
:1004B000002B00D1A7E0DC23E35C002B00D1AFE0F0
:1004C000EC23E35C002B00D1B7E06A4B1A7B002AD7
:1004D00000D1BFE0684B1A7B002A04D158689968A4
:1004E0001A6801F0C9FA654B586899681A6801F0F2
:1004F000C3FA02B004BC9046F0BD00AA0123111853
:1005000098465AE76068A168226801F0B5FA237F2F
:10051000002B9AD16069A169226901F0ADFA2C2300
:10052000E35C002B95D1606AA16A226A01F0A4FA0B
:100530003C23E35C002B00D090E7606BA16B226B47
:1005400001F09AFA4C23E35C002B00D08BE7606C3F
:10055000A16C226C01F090FA5C23E35C002B00D0CC
:1005600086E7606DA16D226D01F086FA6C23E35C75
:10057000002B00D081E7606EA16E226E01F07CFA44
:100580007C23E35C002B00D07CE7606FA16F226FBF
:1005900001F072FA8C23E35C002B00D077E7842310
:1005A000E0588823E1588023E25801F065FA9C2343
:1005B000E35C002B00D06FE79423E0589823E158C8
:1005C0009023E25801F058FAAC23E35C002B00D0F2
:1005D00067E7A423E058A823E158A023E25801F0DC
:1005E0004BFABC23E35C002B00D05FE7B423E05858
:1005F000B823E158B023E25801F03EFACC23E35C83
:10060000002B00D057E7C423E058C823E158C0238B
:10061000E25801F031FADC23E35C002B00D04FE715
:10062000D423E058D823E158D023E25801F024FA2B
:10063000EC23E35C002B00D047E7E423E058E823F9
:10064000E158E023E25801F017FA0A4B1A7B002A1E
:1006500000D03FE7586899681A6801F00DFA39E749
:10066000A03A000028000020A83A0000480100201D
:100670005001002038010020100100202801002036
:10068000F0B55F4656464D464446F0B4DC4BDD4976
:100690001A680968013287B01A608A4271DDDA4C43
:1006A000DA480022616866691A600368676AF218AE
:1006B000CD18616B666C6261FA186262676DCA1868
:1006C0006263616EF2186264666FFA186265CA1836
:1006D0006266F21862678422A7586560F918A15013
:1006E0009422A658F118A150A422A758F918A15095
:1006F000B422A658F118A150C422A758F918A15045
:10070000D422A658F118A150E4216758DA19625092
:10071000732A00DC11E25B420360A3680433A36028
:10072000A3690433A361A36A0433A362A36B0433F4
:10073000A363A36C0433A364A36D0433A365A36E06
:100740000433A366A36F0433A3678823E2580432FB
:10075000E2509823E2580432E250A823E2580432CF
:10076000E250B823E2580432E250C823E25804327F
:10077000E250D823E2580432E250E823E25804322F
:10078000E250A34B1A6801321A600A2A00D1DEE156
:10079000A04B1A6801321A60022A01D100F035FE1E
:1007A0009D4D287B9D4B1A7B002A00D1BBE300287E
:1007B00000D18BE39A4E9B4A336812680133336051
:1007C000934200DDE6E3904C207B217F031C5A1E00
:1007D000934183468A465A1C002900D0A3E12C226B
:1007E000A25C91464D465A1C002D00D091E13C225E
:1007F000A25C904646465A1C002E00D07FE14C2257
:10080000A25C944667465A1C002F00D06DE15C2222
:10081000A25C009200985A1C002800D05BE16C2278
:10082000A25C019201995A1C002900D049E17C2266
:10083000A25C0292029D5A1C002D00D037E18C224E
:10084000A25C0392039E5A1C002E00D025E19C223C
:10085000A25C0492049F5A1C002F00D013E1AC222A
:10086000A25C059205985A1C002800D003E1BC2226
:10087000A65C5A1C002E00D0F5E0CC22A55C5A1CC8
:10088000002D00D0E7E0DC22A15C5A1C002900D03A
:10089000D9E0EC22A25C581C002A00D0CDE0022056
:1008A0000F2B00D1C2E05F460023002F06D1236842
:1008B000A0689B68C318D843C01703405746002F51
:1008C00007D12769B8688246A0698244534500DA97
:1008D0008EE34F46002F07D1276AB8688146A06A89
:1008E00081444B4500DA9DE34746002F07D1276B33
:1008F000B8688046A06B8044434500DA90E36746C1
:10090000002F07D1276CB8688446A06C84446345E7
:1009100000DA83E3009F002F06D1206DA76D806869
:100920003818834200DA77E30198002806D1206E58
:10093000A76E80683818834200DA6BE302980028BB
:1009400006D1206FA76F80683818834200DA5FE312
:100950000398002808D1802020588827E75980680C
:100960003818834200DA51E3049F002F08D1902009
:1009700020589827E75980683818834200DA43E303
:100980000598002808D1A0202058A827E75980689A
:100990003818834200DA35E3002E08D1B020205801
:1009A000B826A65980683018834200DA28E3002D63
:1009B00008D1C0202058C82565598068281883426E
:1009C00000DA1BE3002908D1D0216158D820205833
:1009D000896841188B4200DA0EE3002A08D1E02230
:1009E000A258E821615892688A18934200DA01E31C
:1009F0000D4A012092689A4218DB002016E0C0469A
:100A0000240100202C0000205001002020000020A4
:100A1000200100200C0100201001002038010020DE
:100A20004C010020240000202801002007B03CBC1D
:100A300090469946A246AB46F0BD031C02200F2B00
:100A400000D030E7F2E7131CEC22A25C581C002A0D
:100A500000D124E7F1E7131CDC22A15C5A1C002919
:100A600000D116E7EFE7131CCC22A55C5A1C002D21
:100A700000D108E7EFE7131CBC22A65C5A1C002E2D
:100A800000D1FAE6EFE7131CAC22A25C05920598B0
:100A90005A1C002800D1EAE6EDE7131C9C22A25C58
:100AA0000492049F5A1C002F00D1D8E6EBE7131CD8
:100AB0008C22A25C0392039E5A1C002E00D1C6E633
:100AC000EBE7131C7C22A25C0292029D5A1C002DB3
:100AD00000D1B4E6EBE7131C6C22A25C01920199F1
:100AE0005A1C002900D1A2E6EBE7131C5C22A25C91
:100AF000009200985A1C002800D190E6EBE7131CE6
:100B00004C22A25C944667465A1C002F00D17EE618
:100B1000EBE7131C3C22A25C904646465A1C002E72
:100B200000D16CE6EBE7131C2C22A25C91464D46EB
:100B30005A1C002D00D15AE6EBE7002D00DCEAE557
:100B4000CF4B1A6801321A600A2A00D020E6CD4C39
:100B5000002226680C241A60A419CB4BA146CB4C6A
:100B60001B68277B1A1C191C181C24320C313030CE
:100B70001836002F18D127689F4201D100F0A6FC3B
:100B8000974201D100F0E8FC8F4201D100F0E7FC70
:100B9000B84201D100F02AFD4F4501D100F059FDC6
:100BA000BE4201D100F061FC277F002F18D12769D8
:100BB0009F4201D100F087FC974201D100F0C9FCAF
:100BC0008F4201D100F0D1FCB84201D100F01AFDF2
:100BD0004F4501D100F04BFDBE4201D100F05EFC5B
:100BE0002C27E75D002F18D1276A9F4201D100F022
:100BF00064FC974201D100F0A7FC8F4201D100F0C4
:100C0000B1FCB84201D100F0F4FC4F4501D100F035
:100C100006FDBE4201D100F045FC3C27E75D002FF8
:100C200018D1276B9F4201D100F066FC974201D199
:100C300000F077FC8F4201D100F0A4FCB84201D152
:100C400000F0CEFC4F4501D100F0ECFCBE4201D1DA
:100C500000F02CFC4C27E75D002F17D1276C9F423A
:100C600001D100F043FC974201D100F060FC8F42BB
:100C700001D100F08AFCB84201D100F0B4FC4F452C
:100C800001D100F0E0FCBE4200D1E8E35C27E75D63
:100C9000002F17D1276D9F4201D100F02AFC974207
:100CA00001D100F03BFC8F4201D100F07BFCB84247
:100CB00001D100F092FC4F4501D100F0C7FCBE42CB
:100CC00000D1CFE36C27E75D002F17D1276E9F423D
:100CD00001D100F009FC974201D100F025FC8F42C0
:100CE00001D100F055FCB84201D100F06DFC4F4538
:100CF00001D100F0A2FCBE4200D1ADE37C27E75D4C
:100D0000002F16D1276F9F4200D1E8E3974201D10F
:100D100000F010FC8F4201D100F041FCB84201D13B
:100D200000F058FC4F4501D100F09AFCBE4200D1C2
:100D3000A8E38C27E75D002F18D18025AC462F1C37
:100D400065599D4200D1DDE3954200D1E4E38D4237
:100D500001D100F00DFCA84201D100F056FC4D4538
:100D600001D100F062FCAE4200D18EE39C27E75D2A
:100D7000002F17D19025AC462F1C65599D4200D1FC
:100D8000BDE3954200D1C5E38D4200D1F7E3A8420F
:100D900001D100F034FC4D4501D100F04AFCAE42D7
:100DA00000D175E3AC27E75D002F17D1A025AC4635
:100DB0002F1C65599D4200D182E3954200D1C6E3C4
:100DC0008D4200D1D8E3A84201D100F015FC4D4579
:100DD00001D100F048FCAE4200D15CE3BC27E75DE6
:100DE000002F16D1B025AC462F1C65599D4200D16D
:100DF00077E3954200D1A0E38D4200D1D5E3A8422C
:100E000000D1DDE34D4501D100F005FCAE4200D13B
:100E100032E3CC27E75D002F16D1C025AC462F1C4E
:100E200065599D4200D157E3954200D18AE38D4236
:100E300000D1C0E3A84200D1C0E34D4501D100F08C
:100E40000BFCAE4200D11AE3DC27E75D002F1FD177
:100E5000D025AC462F1C65599D4200D155E39542E3
:100E600000D155E38D4200D1A2E3A84200D1A9E30D
:100E70004D4500D1CCE3AE4200D1FAE208E0C046D5
:100E80002001002030000020380000205001002008
:100E9000EC27E75D002F00D07AE4E025AC462F1C5C
:100EA00065599D4200D114E3954200D147E38D423C
:100EB00000D170E3854200D189E34D4500D1BFE305
:100EC000B54200D064E44B46E35161E4A9686B6825
:100ED0000131A960002B05DB2A68546818197F28A6
:100EE00000DCA1E001222A73B44A107B002800D064
:100EF00069E42C68506866689D19854200DA62E4EE
:100F000015686F68C019834200DB5CE49368AA68C7
:100F10009A18914200DD56E4A268012089188B429C
:100F200000DB50E482E59C685A68A04602246442D3
:100F3000A04446469E60002A04DB19684F68D41915
:100F40007F2C7ADD9E4C0121197321680A2901DD6D
:100F50000A3921609B4C1968277B002F75D14F6897
:100F60006668BF18B146B7426FDB26687768B4463B
:100F7000B9444A4569DAA668B1466646B768BC46D0
:100F8000CC44E04561DC8F68BC46C444E1455CDA92
:100F9000002107E202F070FC0301181A8A4902F0EE
:100FA00049FB884C0301E218127B011C002A08D07F
:100FB000481C0F2102F082FB0B01E218127B002A71
:100FC000F6D1824AE1581268E3180C322A604A6866
:100FD000D00F82185868521082186A609A688B681D
:100FE000D3180133AB6000232B733360FFF7ECFBA6
:100FF00053466EE4131CFBE40B1CEEE4031CE1E41B
:10100000031CD4E4031CC7E4031CB9E4031CABE4D5
:10101000031C9DE4031C91E4031C85E4634679E40E
:1010200043466CE44B465FE4002900DA5AE79268D5
:101030008A187F2A00DD55E756E7002E82DB896893
:1010400041447F2900DD7DE784E7277F002F1AD107
:101050004F686669BF18B146B74214DB26697768E6
:10106000B446B9444A450EDAA669B1466646B76841
:10107000BC46CC44E04506DC8F68BC46C444E14530
:1010800001DA01218EE12C27E75D002F1AD14F688C
:10109000666ABF18B146B74214DB266A7768B44661
:1010A000B9444A450EDAA66AB1466646B768BC46F8
:1010B000CC44E04506DC8F68BC46C444E14501DA17
:1010C00002216FE13C27E75D002F1AD14F68666B64
:1010D000BF18B146B74214DB266B7768B446B944F3
:1010E0004A450EDAA66BB1466646B768BC46CC44A4
:1010F000E04506DC8F68BC46C444E14501DA0321C3
:1011000050E14C27E75D002F1AD14F68666CBF187D
:10111000B146B74214DB266C7768B446B9444A45F9
:101120000EDAA66CB1466646B768BC46CC44E045CC
:1011300006DC8F68BC46C444E14501DA042131E194
:101140005C27E75D002F1AD14F68666DBF18B14666
:10115000B74214DB266D7768B446B9444A450EDAC7
:10116000A66DB1466646B768BC46CC44E04506DC91
:101170008F68BC46C444E14501DA052112E16C27C1
:10118000E75D002F24D14F68666EBF18B146B742A5
:101190001EDB266E7768B446B9444A4518DAA66E57
:1011A000B1466646B768BC46CC44E04510DC8F6863
:1011B000BC46C444E1450BDA0621F3E028010020D7
:1011C0004801002050010020FFFFFF7F3000002079
:1011D0007C27E75D002F1AD14F68666FBF18B146B4
:1011E000B74214DB266F7768B446B9444A450EDA35
:1011F000A66FB1466646B768BC46CC44E04506DCFF
:101200008F68BC46C444E14501DA0721CAE08C2757
:10121000E75D002F1DD18427E6594F68B146BF18FE
:10122000B74216DB8026A6597768B446B9444A45CA
:101230000FDA8827E659B1466646B768BC46CC4403
:10124000E04506DC8F68BC46C444E14501DA08216C
:10125000A8E09C27E75D002F1DD19427E6594F6831
:10126000B146BF18B74216DB9026A6597768B44638
:10127000B9444A450FDA9827E659B1466646B76839
:10128000BC46CC44E04506DC8F68BC46C444E1451E
:1012900001DA092186E0AC27E75D002F1DD1A427E4
:1012A000E6594F68B146BF18B74216DBA026A659CB
:1012B0007768B446B9444A450FDAA827E659B146DB
:1012C0006646B768BC46CC44E04506DC8F68BC4641
:1012D000C444E14501DA0A2164E0BC27E75D002F40
:1012E0001DD1B427E6594F68B146BF18B74216DB87
:1012F000B026A6597768B446B9444A450FDAB827EC
:10130000E659B1466646B768BC46CC44E04506DCC3
:101310008F68BC46C444E14501DA0B2142E0CC278A
:10132000E75D002F1DD1C427E6594F68B146BF18AD
:10133000B74216DBC026A6597768B446B9444A4579
:101340000FDAC827E659B1466646B768BC46CC44B2
:10135000E04506DC8F68BC46C444E14501DA0C2157
:1013600020E0DC27E75D002F27D1D427E6594F681E
:10137000B146BF18B74220DBD026A6597768B446DD
:10138000B9444A4519DAD827E659B1466646B768DE
:10139000BC46CC44E04510DC8F68BC46C444E14503
:1013A0000BDA0D2101221A730901B44B6418227360
:1013B0001A6814321A60FFF7FAF9EC27E75D002F7C
:1013C00001D0FFF7F4F9E427E6594F68B146BF189A
:1013D000B74201DAFFF7EBF9E026A6597768B9447E
:1013E0004A4501DBFFF7E3F9E822A258B768D719AD
:1013F000B84501DDFFF7DBF9896847467E180E2105
:10140000B24201DBFFF7D3F9CCE700229C4D1A6012
:10141000287B002801D0FFF7C5F99A4A2B6812688B
:10142000934200D126E1111C24318B4242D0111C81
:101430000C3130328B423DD093420AD0924A12682E
:10144000111C0C3118328B4234D0934201D0FFF77B
:10145000A9F92960FFF7A6F94D4625664EE44D46E9
:10146000256413E44F4627652CE44D462560FFF7BD
:101470009BFB4D46E5510BE54D46E551C9E44D4614
:10148000E551E1E44F46276753E44D46E5516DE4ED
:101490004D46E55186E44D46E5519FE44F462761B0
:1014A000FFF79EFB4D462562FFF7B7FB4F462763CC
:1014B000FFF7D0FB2A60FFF775F92262FFF7ADFB5B
:1014C0006746E2518AE42261FFF78AFB2260FFF758
:1014D0006BFBE251FFF75CF96746E251B4E4226727
:1014E00027E46746E25194E4226607E42264FFF7AA
:1014F000CDFB2265FFF7E6FB2263FFF7ABFB6746F8
:10150000E2514FE46746E25130E46746E251BFE4FE
:10151000E351BDE4E35145E4E35127E42365FFF7DC
:10152000D1FB2363FFF796FB2366FFF7E7FB2364FA
:10153000FFF7ACFB2367FFF7FCFBE35169E4E351E2
:10154000FFF726F9E3517FE42362FFF766FBE351DF
:1015500044E42361FFF744FB2360FFF725FB206091
:10156000FFF722FB2062FFF758FB2061FFF738FBF3
:101570006746E051FFF7FAFB6746E0512EE4674605
:10158000E0510FE42063FFF765FB2064FFF77EFB6B
:101590002066FFF7B3FB6746E051FFF7F9F82067D5
:1015A000FFF7C7FB2065FFF78DFB6746E05130E48E
:1015B0006746E0516CE46746E05145E4E15143E49D
:1015C000E15126E4E15163E42166FFF797FBE15125
:1015D000FFF7DEF82167FFF7ACFB2165FFF772FB31
:1015E0002163FFF737FB2164FFF750FB2160FFF712
:1015F000DBFA2162FFF711FBE151FFF7EFFBE1514D
:10160000FFF7D0FB2161FFF7EBFAE151FFF7AEFBEB
:101610006746E6513CE46746E651FFF7FAFB26626F
:10162000FFF7FBFA2663FFF715FB6746E651FFF766
:101630009DFB6746E651FFF7B5FB2666FFF75EFBAD
:10164000E651FFF7A5F82664FFF720FB2665FFF7B4
:1016500039FB2660FFF7A8FA6746E651FFF7F4FB6F
:101660002667FFF766FB6746E651FFF7B7FB266183
:10167000FFF7B6FA24332B60FFF794F848010020F7
:10168000100100203800002030000020F0B5714B20
:101690005F4619685646704B4D464446F0B40A22E0
:1016A0001E2690465A60B44600225E610D1C2C2610
:1016B0000F249A5524355A269C601D619C619C62BA
:1016C0001D639C635E649C6446254C245C269A558D
:1016D0005D631A553C250C243026641876185A553B
:1016E0004546A1465D65B2461E6665466C263227B4
:1016F0001C655D6619249A557C254E461960196251
:101700005F6219649C659C661A731A771E675A5546
:101710008025AB465E4655469D518426B2465546C9
:1017200046265E5188255C518C255A559025AA463F
:1017300056464D469D519426B1464D465A265E5119
:1017400098255C519C679C2418311A55A024195186
:101750004546A4241D51A82623249C51AC269A5505
:10176000B0269951B426B046454666465E51B82526
:101770005C51BC255A55C0255951C4255F515F673E
:10178000D826C827DC519C51CC27DC26DA559A553F
:10179000D027E026D9519951E4215A265E50E821FC
:1017A0005C50D427EC2146255A54DD512B4B0121A6
:1017B0001C682B4B1C6019735A609A60294B0C34BF
:1017C000197329491C605A609A600968274B19608F
:1017D00039215960752199601A73254B18600528C5
:1017E00017D9244B05221A60234B00221A600128C6
:1017F00002D1224B00221A60214A00231360214AA1
:101800001360214A13603CBC90469946A246AB4601
:10181000F0BD1E4A8300D3589F460A22154B1A601A
:10182000154B02221A60E7E7124B64221A60124B32
:1018300006221A60114B00221A60DDE70D4B4B2285
:101840001A600D4B04221A60D6E73222E6E719220D
:10185000E4E7C0463800002050010020300000209E
:1018600038010020100100203C0000202801002049
:1018700028000020240000202C0000204801002027
:10188000200100204C01002024010020883A0000A3
:1018900008B500F06DFA08BD08B50421012000F07C
:1018A000A3FF104800F068FEFA21890001F0C2FE93
:1018B0000D4B0138984200D9FEE70C4B0C4A58609A
:1018C000106AC0210002000A0906014311620022C9
:1018D0009A6007221A6000F09DFA00F0E5FA0020F5
:1018E00008BDC04620000400FFFFFF0010E000E03C
:1018F00000ED00E0F0B54D465F4656464446F0B474
:1019000013788BB081460891002B7FD05549013266
:101910000E6807927100891949008B465249F00000
:10192000096807220591514904900968012506912B
:1019300008999246C90109915F461A1C203A5E2A0D
:1019400000D92023002E59DD09980899203B8346B1
:1019500000220393CB4402910192311C019801F0C3
:10196000B7FE642358430399414A4018105C002F86
:1019700029DD069B0024002B4FD13B1C9846371CC9
:10198000061C391C201C01F0A3FE311C01410D4234
:1019900014D05B46E218D317484621185B0F9B18FA
:1019A000CA17520F8918504601408A1A291C9140C3
:1019B0000A1C3049DB10C85C0243CA540134444558
:1019C000DFD13E1C474602990598CA17520F51189D
:1019D000CB10C318504601408A1A291C91400A1C9A
:1019E000197880200A431A70019A029B04990132E7
:1019F00001330192029383448A42AEDB079BB944D0
:101A000001330793013B1B78002B96D10BB03CBCF4
:101A100090469946A246AB46F0BD3B1C9846371C03
:101A2000061C201C391C01F053FE321C02411542D9
:101A300014D05B46E218D317484621185B0F9B1859
:101A4000CA17520F891850460140891A09482A1CA2
:101A5000DB108A40111CC25C8A43C25401344445E5
:101A6000DFD1AEE7440000203400002060020020F7
:101A7000B03A000064020020F0B544465F46564686
:101A80004D46F0B48046906883B000285BDD314B52
:101A90008A461B6830480093CB019946012653467D
:101AA000F31AC14400218446072701935568002397
:101AB000002D2EDD10680401E418E017400F834666
:101AC0005C448B46E3445846E410045DA3463C1C4A
:101AD0001C4058462041064218D04C461D199B46D2
:101AE000EC17C3445846640F6419C5176D0FAB4417
:101AF00058463840451B301CA84083461748E41020
:101B0000055D584605431548055555680133AB42F8
:101B1000D0DB5346DC17640FE5180098EB103D400E
:101B2000C3182C1B301C1D78A040041C2C431C70B7
:101B3000019C0120231C534482449068802412316C
:101B4000A1449842B2DC03B03CBC90469946A24600
:101B5000AB46F0BD34000020D045000064020020F8
:101B6000F0B556465F464D464446F0B4844683B0D1
:101B70009A46994238DA2C4B2C481B68CF010193C6
:101B80008946072301218046944517DA0C9C002CD6
:101B900031D1644600923E19F5176D0FAD19E61765
:101BA000760FA2191A40961BED100A1CB240465D32
:101BB00001349643009A46559442ECD14C46E517C1
:101BC0006D0F2E19F410A346019C1E40751BA344F3
:101BD0000C1CAC40251C5C462678803735432570AC
:101BE0000124A144D145CFD103B03CBC90469946D5
:101BF000A246AB46F0BD644600923E19F5176D0F44
:101C0000AD19E617760FA2191A40961B0A1CB240AE
:101C1000ED10161C4246525D01341643424656559D
:101C2000009A9442E9D1C9E7340000206402002000
:101C300008B58022011C1201014801F00BFE08BD0D
:101C40006402002008B5802202480349120101F015
:101C500001FE08BD64020020D03D0000F0B54D46F5
:101C60005F4656464446F0B4894683B000286BD19F
:101C70003C493D4B0722002400203C4E88469346B9
:101C800001259A4615E0414609688A5C1A411542C9
:101C900017D100280AD0231A019000934846190151
:101CA000514400224368076AB84700200134802C61
:101CB0000BD03768E2105B46B95C234019410D42F6
:101CC000E1D001340130802CF3D100280BD0241A4C
:101CD000254923014A46C918536801900094146AA3
:101CE00048460022A04747463368386803213B60D6
:101CF00043423060194032D0002300251022C554E1
:101D00000133D41A9942FAD81022521A95089446EF
:101D1000AF000AD0411800220026013240C1AA4279
:101D2000FBD3DB19E41BBC4507D0C2180019C3184C
:101D30000021117001329A42FBD103B03CBC9046A5
:101D40009946A246AB46F0BD00224B680092802225
:101D500001920C6A081C00220349A047EDE71024F9
:101D60000023D1E74000002064020020340000205E
:101D700008B5134B1B78002B12D0124B1A68013296
:101D80001A60052A17D0104B1A680132142A08D09D
:101D90001A600E4B1A68002A02DD1A68013A1A60AE
:101DA00008BD00221A600A4B1A780A4B1A700A4BB7
:101DB00001221A70EDE700221A60FEF70BFAE2E743
:101DC000980A0020640A00209C0A0020940A00203F
:101DD000EF0A0020ED0A0020F00A0020044A8021CA
:101DE0008E2349005B00D150024B01221A707047CC
:101DF00000600040EE0A0020044A80218E23890002
:101E00005B00D150024B01221A7070470060004005
:101E1000EC0A002030B583B000F094FF00201C498C
:101E200000F0AAFF041E30D11A48012100F060FB27
:101E3000022008210122002300F03AFE01250220A1
:101E400009210122002300F033FE02200821002294
:101E50000123009500F0CEFD02200921002201237C
:101E6000009500F0C7FD0C4BC021490002225A50DA
:101E70001A6040225A501A60FEF7ECF9074B1C70AA
:101E80001A78074B1A70074B1D7003B030BDC0465F
:101E9000680A00200072020000E100E0ED0A002064
:101EA000EF0A0020980A0020F0B55F4656464D46DE
:101EB0004446F0B4012285B09C4B02929C4A9B465A
:101EC00090469C4B9C4A9D4C9D4F994692460025BE
:101ED00004262378002B16D025703B780A2BF8D8DF
:101EE0009B005A46D3589F4652461368002BF0D1A8
:101EF0004A461370934A13704246137001230293AB
:101F00002378002BE8D1904B1A69B2431A6130BF95
:101F1000DFE74A461378002BDBD01570FEF702FA94
:101F200001208A49FFF79AFE062342461370D0E744
:101F30008748FFF77DFE04206021864AFFF7DAFC20
:101F400004206821844AFFF7D5FC04207021834ACD
:101F5000FFF7D0FC824A2E205021FFF7CBFC012056
:101F60007A49FFF77BFE082342461370B1E74A46E1
:101F70001378002B76D01570072342461370A8E71C
:101F800052461368002BA4D14A46137006234246DA
:101F900013709EE70320FEF74DF9002854D0694ADC
:101FA0004B461D70157002234246137091E76D4831
:101FB000FFF73EFE01206549FFF750FE0123424630
:101FC000137086E74A461378002B82D0434615707B
:101FD0001E707EE75E48FFF72BFE042060215D4AFD
:101FE000FFF788FC042068215B4AFFF783FC5B4A0B
:101FF00004207021FFF77EFC01205449FFF72EFEDC
:1020000003234246137064E70298FFF73FFBFEF795
:1020100089F901204D49FFF721FEFA239B00524622
:10202000136005234246137053E752461368002B92
:1020300000D04EE7029A013202924A461370414A9A
:10204000137043461E7044E70420FEF7F3F800289F
:10205000A5D14A461378002BA1D13A4A1378002B18
:102060009DD136E70320FEF7E5F8002804D00420D0
:10207000FEF7E0F8002842D00420FEF7DBF8002845
:1020800033D1304A1378002B11D1FEF7F9FA0390BF
:10209000FEF748F9039B012B14D0022B33D0062303
:1020A0004246137000202949FFF7D8FD11E715704B
:1020B000FEF720F9FEF7E4FA0390FEF733F9039BED
:1020C000012BEAD14523232039215D220095FFF71A
:1020D00047FD254A25203B21FFF70CFC234B5246A8
:1020E0001360092342461370DCE70320FEF7A2F8D1
:1020F0000028C6D101204042FEF7EAF8C1E70120DE
:10210000FEF7E6F8BDE74523232039215722009545
:10211000FFF726FD164A25203B21FFF7EBFB134B6B
:10212000524613600A2342461370BBE7CC460000B8
:10213000EF0A0020EE0A0020940A0020F00A002096
:10214000ED0A0020EC0A002000ED00E0680A002003
:10215000F8460000F85600000C5700002457000015
:1021600050570000F84E000038570000DC05000012
:102170004457000038B51D4B051C0C1C984203D079
:102180001B48632100F050F8E2683F2A28D86368B2
:102190000F2B04D91648692100F046F8636861786E
:1021A00022788907D207607A0A43217A000109025E
:1021B000014311431A060B1C1343E2682B60130200
:1021C0000C4AE17A1A43A37A09041B070B43134311
:1021D0006B602B6801229343227C13432B6038BD34
:1021E0000348662100F020F8D1E7C0460010004007
:1021F00058570000B000000138B5041C0D1E072D13
:1022000003D90548922100F00FF8626807231D40AA
:102210009A431543656038BD585700000268012392
:10222000134303607047C04600B5FEE708B50F22B0
:1022300003091340022B1FD008D8012B22D0B8214C
:102240001A488900FFF7F0FF012008BD032B0AD0D0
:10225000042BF4D1164B984220D014481549FFF7AF
:10226000E3FF0120F1E7144B984211D00F481349C6
:10227000FFF7DAFF0120E8E7114B58680240012020
:102280009040E2E70E4988680240181C9040DCE765
:102290000B4B986E024001209040D6E7084B03207C
:1022A0001B6F184001238340181CCEE7F057000035
:1022B00040051400D902000030040800BF020000ED
:1022C00000800C40030670B51B0F0C1C022B1DD0A8
:1022D00006D8012B50D076487649FFF7A5FF70BD90
:1022E000032B09D0042BF6D1734B984272D070485F
:1022F0007249FFF799FFF2E7714B984200D18DE0E8
:10230000E3216B488900FFF78FFFE8E780239B00FC
:10231000994200D9ADE06B4B07225B68111C194054
:10232000012940D9674A5360674B621E9A4200D91F
:102330009AE0002C00DAA8E080231B0600225B084C
:1023400001322342FBD01F20801A604B0F215A68B4
:102350008A4302435A6001F0B7F85D4A594B81182D
:102360005C4A5B68914200D988E0072293430122CE
:102370001343544A5360B2E7574B4D1E9D421CD83D
:10238000002C00DA83E080231B0600225B08013268
:102390002342FBD01F20801A4C4B0F219A688A439E
:1023A00002439A609BE7934301221343454A5360DB
:1023B000454B621E9A42BCD956E03D4E4749301CFF
:1023C000FFF732FF404B9D42DAD9301C8821FFF7DE
:1023D0002BFFD5E7082903D935484149FFF724FFEA
:1023E0003A494B6DDA0703D440220B6D1A42FCD1F7
:1023F000354B621E9A424CD8002C56DB80231B06BC
:1024000000225B0801322342FBD01F20801A2F4B91
:1024100003211A6F8A4302431A6760E780231B0275
:10242000994203D922482F49FFF7FEFE27494B6DF9
:10243000DA0703D404220B6D1A42FCD1224B621E30
:102440009A422BD8002C2EDB80231B0600225B082F
:1024500001322342FBD01F20801A1C4B0F219A6EA1
:102460008A4302439A663AE711488821FFF7DCFE67
:102470005FE70F481C49FFF7D7FE4CE71B4A904225
:1024800000D976E70722934373E71F205DE71F20FB
:1024900082E707488821FFF7C7FEADE70448882197
:1024A000FFF7C2FECEE71F20D7E71F20AFE7C046E9
:1024B000F0570000B903000040051400B30300000A
:1024C0003004080000000C40FF7F000000800C403A
:1024D000FFDB0BFFFF23F400FF0100001B030000E4
:1024E0009603000052030000230300000024F400C0
:1024F000030570B51B0F062B04D915481549FFF7C6
:1025000093FE70BD144A9B00D3589F46134AC003E4
:10251000C00E136801248440A3438140181C084363
:102520001060EEE70E4AF2E70E4AF0E70E4AEEE7D9
:102530000E4A01240E4DC0036B6DC00EDE07E8D4B9
:102540002B6D2342FCD1E4E710240A4AF2E7C0468F
:10255000F05700000E0400006C57000078800C401B
:1025600008800C4044800C4040800C4058800C4057
:1025700000800C4060800C4008B5F8239B03184095
:1025800080231B03984200D187E022D9A0235B035C
:1025900098424AD027D9C0235B03984200D16EE00D
:1025A000D0235B03984222D15D4BE0215B69C900D7
:1025B00080220B409200934200D1ACE000D882E030
:1025C000C0229200934200D1A3E08B4214D155481F
:1025D00008E080239B02984257D00FD8002806D1EC
:1025E00000F0CAFF08BD90235B03984233D09721C7
:1025F0004D48C900FFF718FE0020F3E78023DB02F7
:10260000984239D0C023DB029842F0D1444A0321DA
:10261000936A0B40022B6BD0032B65D0012B5AD051
:10262000936A00201B0CDDD023E03D4A936A1B0710
:102630009B0F022B5FD0032B60D0012B4ED0936AEF
:1026400000201B0D01D000F0EBFF354B03221B6F68
:102650001340D840C6E7324A936A1B079B0F022BF0
:1026600046D0032B40D0012B35D0936A00201B0DA0
:10267000B8D000F0D5FFB5E700F026FFB2E72A4852
:102680002A49FFF7D1FD0020ACE700F075FF244B8D
:102690000F229B681340D840A4E7214A0321936A84
:1026A0000B40022B32D0032B2CD0012B19D0936A74
:1026B00000201B0C01D000F0B3FF194B0F229B6EC2
:1026C0001340D8408EE7002B27D08022520093423F
:1026D00092D1174886E700F09FFF83E700F09CFF48
:1026E000B3E700F099FFE8E700F0EEFE400879E775
:1026F00000F09AFF76E700F097FFA6E700F0E4FE0F
:102700004008A2E700F0E0FE4008D6E700F08CFFAA
:10271000D3E7084866E7084864E7084862E7C04628
:1027200000800C40406F4001F05700006101000044
:10273000C0D8A70040420F00C0CF6A00809FD500DC
:1027400008B50F23184002281DD007D8012829D02A
:1027500021482249FFF768FD002008BD032803D067
:102760000428F5D10120F8E71D4A0C21936A0B409B
:10277000082B2DD00C2B2DD0042B27D0936A0920A9
:10278000DA02EAD4EEE7164A0321936A0B40022BE1
:102790001ED0032B1ED0012B18D0936A0920DA0318
:1027A000DBD4DFE70E4BF020DB6A8001184080238A
:1027B0005B0198420AD080239B01984208D0094AC5
:1027C0008018434243410520C01AC6E70320C4E7EE
:1027D0000220C2E70620C0E7F057000056050000BF
:1027E00000800C4000F8FFFF38B50F240440012C96
:1027F0000FD0002C04D14F484F49FFF715FD38BDCD
:10280000032CF8D809290FD94A484C49FFF70CFD89
:10281000F5E7092904D947484949FFF705FDEEE7DF
:10282000484B89005B589F46474B89005B589F4641
:10283000464B042219680A431A6003210C22002324
:10284000022C6FD0424B4349986A01400A439A6276
:10285000D5E73F4940230B628022CB6A1A42FCD065
:1028600000F0BEF8042200230121E9E78022802342
:1028700052035B020021E3E72E483749FFF7D4FCFF
:1028800003250123022232490B62CB6A1342FCD09A
:1028900000F0A6F8314B07225B68111C1940012992
:1028A00002D89343012213432C4C6360284B5D6292
:1028B00000F096F800F008FE294A63688118294A5A
:1028C000914229D80722934301221343234A53609C
:1028D00095E71F4980235B0080220B629200CB6A40
:1028E0001342FCD000F07CF8082200230221A7E765
:1028F000002200230021A3E70125C2E702250423CB
:102900000822C0E7032540238022BCE780238022E1
:1029100004255B009200B6E7134A9042D6D80722FE
:102920009343D3E70A4A0B43906A10490840034394
:10293000936264E7F0570000730600001106000080
:10294000C705000088570000B057000040800C40C9
:1029500000800C40F3FFEFFFC205000000000C40B8
:10296000FFDB0BFFFF23F4000024F400FCFFFEFF5D
:1029700008B5052804D916481649FFF755FC08BDC7
:10298000154B80001B589F4610232020002910D093
:1029900012490B62002A03D00A1CD36A0342FCD0FE
:1029A00000F01EF8EBE7802380205B008000002908
:1029B000EED10A4B186200F013F8E0E740238020C4
:1029C000E4E704230820E1E701230220DEE7C04614
:1029D000F0570000F7070000D857000000800C40B7
:1029E000024BDA6A024B1A807047C04600800C40E6
:1029F000A00A0020F0B5454657464E46E0B41F1CDD
:102A000008AB051C0C1C90461E78052838D80F29E9
:102A100036D8224A072C3AD982235B00D1589A46ED
:102A20008946211C083989000F23181C88404B4611
:102A300083438D40291C1D1C50460D431550184DD5
:102A400001202B68A040C1434246A2400B401343E3
:102A5000144A2B6015683B1C0D40A3402F1C1F43DC
:102A600017608E230D4A5B00D0500F4BA6401A68AA
:102A70001140314319601CBC90469946A246F0BDF6
:102A80000A489721FFF7D0FB044A072CC4D88023BB
:102A90005B00D0589A468146A100C5E7006000401F
:102AA000086100400C6100401061004004580000C3
:102AB000F8B54F464646C0B4041C0D1C161C1F1C1E
:102AC000052833D80F2931D8E200002E09D0E200C2
:102AD00001211319A9409B00002F42D025481B1843
:102AE000196113199B00072D25D822495B185868D6
:102AF000A90081460F2088408846494681438C467C
:102B0000301C41468840614601435960002E09D17E
:102B10000123AB4012191D1C9200002F25D116482D
:102B2000121853600CBC90469946F8BD1348CC214E
:102B3000FFF77AFBC8E70F481B18996889461049C8
:102B40006818800080460F20011C4046814048469E
:102B5000884384464146301C884061460143996061
:102B6000D4E705481B185960BBE7024BD218156122
:102B7000D8E7C046006000401060004004580000E4
:102B8000F8FFFF3F38B5041C0D1C01280CD908487C
:102B9000A721FFF749FB002C02D1064B1D6038BD71
:102BA000012CFCD1044BF9E70B0EF4D0EFE7C04643
:102BB00018580000080008400C000840034B012191
:102BC0001A688A43104318607047C04600000840E6
:102BD00000B5002802D1034B186200BD014B012251
:102BE0001A62FAE700000840427800B50378002A2C
:102BF00001D0022213438278002A01D00422134319
:102C0000014A136000BDC04600000840F8B53A4BC9
:102C1000041C0D1C984255D0384E3949301CFFF722
:102C200003FB301C3749FFF7FFFA374B374AE360A5
:102C3000002323606260364AA3606361E364A26498
:102C40006365A3652A8A01231343AA7B2168501E6A
:102C5000824192020B4313432360AB7C21685A1ECE
:102C600093412A7D1B01501E824152070B4313439F
:102C700023602A7B80235B01AE68134363606F6827
:102C8000002E34D0002F2DD0701E7F00311CC019B3
:102C900000F0D0FC8601403EFF23321C9A431D4BBE
:102CA0009A4204D9F22115484900FFF7BDFA1A4BA0
:102CB0001E4066616B7B002B01D01023E3602B78F4
:102CC000E360F8BD104B114AC3600023036042600B
:102CD0000F4A83604361C36482644365036583650F
:102CE000C365AFE70D48FFF747FC071CCCE7034877
:102CF0000B49FFF799FAC5E700C400402C580000C3
:102D0000620200002E030000AA0E00000510000061
:102D1000F91F0000C0FF1F0000FF1F00108102000C
:102D2000B501000000B5402203691A42FCD041639E
:102D300000BDC04600B5402203691A42FCD0C16301
:102D400000BDC0460A4B10B51A78002A0ED1094CB6
:102D500001221A702368002B08D0043402E008CC4A
:102D6000002B03D098470028F9D010BD0020FCE7C5
:102D7000D80A00204800002008B50A4B1B78002B19
:102D800001D1094808BD002801DD0848FAE72C23D5
:102D90005843074B2C221B18081C191C00F05AFD25
:102DA0000020EFE7D80A0020050011800200118002
:102DB000AC0A002008B50C4B011C1B78002B01D17C
:102DC0000A4808BD0A4A1368002B01DD0948F8E7E4
:102DD000581C10602C20434307482C22C01800F0D8
:102DE00039FD0020EDE7C046D80A0020050011801B
:102DF000A80A002001001180AC0A002008B500F0EC
:102E00003FF900F0F7F8002008BDC046F0B557467E
:102E10004E464546E0B4042082B00D1C0B210B9FAA
:102E200000F052F9062000F031F90A9B6E4601339A
:102E30009BB206361A029A4601231343301C022124
:102E4000338000F0FDF8002F25D07A1E9046012334
:102E5000FF2200249A4491460DE0524613191B02AA
:102E60004A4613439BB2301C02210134338000F0E8
:102E7000E7F8BC420FD0281C102100F0E1F8103513
:102E8000A045EAD10B4B301C02210134338000F005
:102E9000D7F8BC42EFD1022000F0F8F80B21042053
:102EA00000F032F9002002B01CBC90469946A246C0
:102EB000F0BDC046FFFF000070B51E1C0D1C0024B5
:102EC000002B08D0281C00211022013400F0CBFC7C
:102ED0001035B442F6D1002070BDC04608B50020C0
:102EE000002908D10A2100F00FF90020082100F084
:102EF0000BF9002008BD082100F0E6F80A210020A7
:102F000000F0E2F8F5E7C04610B58CB000F0B8F874
:102F100000F070F800F0C0F80F210022002302201A
:102F200000F0C4F8072100220023032000F0BEF8BF
:102F30000B2100220023042000F0B8F80821002211
:102F40000023002000F0B2F80A2100220023002014
:102F500000F0ACF8002100220023002000F0A6F8C9
:102F600004200A21402200F0EFF8041E02D0201CA9
:102F70000CB010BD1A4A01A80192012202748022ED
:102F80004260C2608260174A44744261164A84619A
:102F90000262164AC4614262154A8262FFF70AFF62
:102FA000041EE4D10821002000F08EF80A21002040
:102FB00000F08AF80B21042000F086F8062000F0CB
:102FC00065F86846042302210230038000F038F8D7
:102FD000022000F05BF80B21042000F095F8C6E712
:102FE00040580000DD2E00000D2E0000B92E00001C
:102FF000FD2D000030B50D4A87B06B4623CA23C3B0
:1030000023CA23C30A480121FFF772FA094D0A4B6C
:10301000281C02936C460D2369462373FFF7F6FDC7
:10302000064B00206B6507B030BDC0465858000005
:103030000032020000C40040E06735000A030000CF
:1030400070B5041C0D1C0126012D09D934420ED087
:1030500021780A48013DFFF765FE0134012DF5D8BE
:10306000064920220B691A42FCD0002070BD21883D
:103070000248FFF75FFE023D0234E5E700C400406E
:1030800008B500F0E5F8002008BDC04608B500F01E
:10309000DBF9002008BDC04608B503480121FFF751
:1030A00027FA002008BDC0460072020008B5002AB9
:1030B00005D1C0B20422FFF7FBFC002008BD014887
:1030C000FCE7C0460100138038B5C3B2041C0D1CD8
:1030D000052B01D80F2903D908480949FFF7A4F89F
:1030E000FF231C400123AB401D1CE3001C19054BB2
:1030F000A400E4182561002038BDC04674580000C3
:103100000B0200000060004038B5C3B2041C0D1C67
:10311000052B01D80F2903D908480949FFF784F87E
:10312000FF231C400123AB401D1CE3001C19054B71
:10313000A400E4186560002038BDC0467458000043
:10314000DF0100001060004030B5234B83B01860F1
:10315000224BC0B21960151C00230422FFF7A8FC03
:103160001F4901AC201C1831032200F073FB1D4BDA
:103170001B6C5A0703D41C480121FFF7B9F91B48FF
:103180000921FFF731FB1A480121FFF79BF80121C4
:103190001748FFF7ADF9002323706370201C01234B
:1031A000A370FFF721FD1248FFF7E6F9291C00F094
:1031B00041FA411E0020FFF7E5FC0E4B8022520130
:1031C0001A600D4B0222D96901200A43DA61FFF728
:1031D000F5FC002003B030BDE00A0020DC0A00202E
:1031E0005858000000800C40002304000200060034
:1031F0003004080000E100E00000084038B50E4B44
:1032000002229A610D4B1C680D4B1D68E3B2052B21
:1032100001D80F2D03D90B480B49FFF705F8FF2301
:103220001C400123AB401D1CE3001C19074BA400EC
:10323000E418A56138BDC04600000840E00A00203F
:10324000DC0A0020745800002202000000600040E8
:10325000F0B55F464D4656464446F0B489B007ADDA
:103260007049281C032200F0F5FA6F4B00211B6CFB
:103270008B465A0700D4CEE06C48FFF761FA6A4CDF
:103280004022E36A03211A40019068489046FFF704
:10329000ABFA6748FEF7CAFF8021824649006448BE
:1032A000FFF710F8A36D0027D90700D4ADE072B680
:1032B000604C23685A1C01D0013323605E4B1A68AE
:1032C000D10700D47EE01A6899680292DA68039107
:1032D000D9690492002205911A60DA6107229A6185
:1032E0008021564AC02349015B00D15001229146FA
:1032F0000023281CAB70FFF777FC514980235B014A
:103300004D4A0B600B685B000B600BD05068536834
:103310009842FCD0484B58680B68013BFDD8536875
:103320009842EFD00B68444A5B080B600E68082592
:10333000760814D00B6833430B605068536898428A
:10334000FCD03D4B58680B68013BFDD85368984250
:1033500002D00B68B3430B60013D002DE8D1236818
:10336000002B03D0013B2360002B4CD04A46002A9F
:1033700031D051462E48FEF7A5FF0120FFF728FC6B
:1033800003992D4B049A9960DA600299059A1960A5
:103390000020DA61FFF71CFC002F21D1019B032BD9
:1033A00025D14146002929D05A46002A03D0254874
:1033B0000021FFF79DF809B03CBC90469946A24613
:1033C000AB46F0BD00230021002205930491039237
:1033D000029399468CE70020FFF7F0FB002FDDD029
:1033E00013480021FFF784F8019B032BD9D0191C47
:1033F0000E48FFF7F9F941460029D5D101200022F6
:10340000FFF7B6FAD0E762B6B0E709480121FFF747
:103410006FF801274BE70B480121FFF769F80123FB
:103420009B4629E7C458000000800C4002000600BB
:1034300030040800A40A00200000084000E100E079
:103440005000002000230400064B882212020032A4
:1034500050431A68C00AD20A5043800901D001388B
:10346000FDD8704750000020064880470649074AAB
:10347000074B9B1A03DD043BC858D050FBDC0548C2
:103480000047000015360000DC5800000000002056
:10349000CC00002061010000FEE7FEE7FEE7FEE74A
:1034A000FEE7FEE7FEE7FEE7FEE7FEE7FEE7FEE7F4
:1034B000FEE7FEE7FEE7FEE7FEE7FEE7FEE7FEE7E4
:1034C000FEE7FEE7FEE7C046224AF023D16A9B01F1
:1034D0000B40802100B549018B4226D08021890113
:1034E0008B421FD0802109018B4210D0D268E0238B
:1034F000DB00134080229200934223D018D8002B87
:1035000022D08022520093421AD1134A01E0134B79
:103510001A68104B0F205B681840114BC240101CFA
:103520001A6000BD0F4B1A68F3E780221202F0E721
:10353000C022920093420BD08022D200934205D049
:103540000022E6E7084AE4E7084AE2E7084AE0E73B
:10355000084ADEE700800C4040B5640058000020B7
:10356000F40A002054000020C0D8A700804F1200A9
:10357000406F4001809FD5001E4AF023D16A9B0115
:103580000B40802100B549018B421ED0802189016A
:103590008B4217D0802109018B4210D0D268E023E2
:1035A000DB0013408022920093421BD010D8002BE6
:1035B0001AD080225200934212D10F4801E00F4BE3
:1035C000186800BD0E4B1868FBE780200002F8E782
:1035D000C022920093420BD08022D200934205D0A9
:1035E0000020EEE70748ECE70748EAE70748E8E786
:1035F0000748E6E700800C4040B564005800002012
:1036000054000020C0D8A700804F1200406F400136
:10361000809FD5007047C046802000027047C0469A
:10362000FA2080007047C046014B18687047C046BA
:1036300054000020002934D00123002210B4884215
:103640002CD301242407A14204D2814202D20901D1
:103650001B01F8E7E400A14204D2814202D24900F2
:103660005B00F8E7884201D3401A1A434C08A04295
:1036700002D3001B5C0822438C08A04202D3001B2B
:103680009C082243CC08A04202D3001BDC08224342
:10369000002803D01B0901D00909E3E7101C10BC66
:1036A0007047002801D00020C04307B4024802A19F
:1036B0004018029003BDC046D90000000029F0D098
:1036C00003B5FFF7B9FF0EBC4243891A1847C0463D
:1036D000002941D010B4041C4C40A4460123002210
:1036E000002900D54942002800D5404288422CD309
:1036F00001242407A14204D2814202D209011B0104
:10370000F8E7E400A14204D2814202D249005B0002
:10371000F8E7884201D3401A1A434C08A04202D36A
:10372000001B5C0822438C08A04202D3001B9C08AB
:103730002243CC08A04202D3001BDC08224300280D
:1037400003D01B0901D00909E3E7101C6446002CD3
:1037500000D5404210BC7047002806D003DB002093
:10376000C043400801E08020000607B4024802A1DF
:103770004018029003BDC046190000000029EBD09C
:1037800003B5FFF7A7FF0EBC4243891A1847C0468E
:103790007047C04610B5044C002C02D000E000BFBA
:1037A00000E0201C10BDC04600000000094B10B511
:1037B000041C002B03D0002100E000BF01E000F05A
:1037C0000DF805480068816A002900D08847201C50
:1037D00000F014F900000000CC58000038B5084B88
:1037E000084C1D1CE01A8410002C06D0A1006A1899
:1037F000043A13689847013CF6E700F029F938BD10
:10380000C8000020CC00002070B50E4B0E4D0024E7
:10381000E81A85101E1CAC4204D0A10072589047D3
:103820000134F8E700F00EF90849094A0E1C541A51
:10383000A5100024AC4204D0A300F0588047013406
:10384000F8E770BDC4000020C4000020C4000020C0
:10385000C800002010B50023934203D0CC5CC454B0
:103860000133F9E710BD00B58218031C934202D062
:1038700019700133FAE700BD38B5194C2568AB6BF8
:10388000002B17D1182000F037F8A8632068154ADC
:10389000816B154B0A80154A8B800B23144D0A81CE
:1038A0008B810122002313480A614B614D8005255D
:1038B000C8804D812468094B074AA56B286969694E
:1038C00000F09EF801230024C0186141286169615D
:1038D0004900480838BDC0462D7F954C2DF45158FD
:1038E000C00000200E33000034120000ECDEFFFFA9
:1038F000CDABFFFF6DE6FFFF08B5034B011C186859
:1039000000F004F808BDC046C000002070B50323D5
:10391000CD1C9D430835061C0C2D01D20C2501E061
:10392000002D2DDB8D422BD31C4A1368111C1C1C4F
:10393000002C12D02068421B0CD40B2A02D9226022
:10394000A41815E0A34202D166680E601CE0656809
:103950005D6019E0231C6468EAE7301C291C00F054
:103960001FF8421C0CD0C41C03218C43844201D19B
:10397000256009E0211A301C00F012F80130F7D15F
:103980000C243460002008E0201C0B300722211D8D
:103990009043431A01D05D42E55070BDE40A002017
:1039A00038B5074C0023051C081C236000F00AF8FA
:1039B000431C03D12168002900D0296038BDC046CE
:1039C000F80A00200A4A00B51368002B0CD018181A
:1039D0006946884202D81060181C00BD054B0C22B5
:1039E00001201A604342F7E7034B1360EFE7C0463C
:1039F000E80A0020F80A0020000B002000B5FEE7CE
:103A00009C460304F0B51B0C17043F0C150C1E1C40
:103A1000041C000C7E436B4347434543FB18300CAA
:103A20001818874202D980277B02ED18070CED1980
:103A300067467C434A433604330CA11800044919F5
:103A4000C018F0BDF8B5C046F8BC08BC9E4670472B
:103A5000F8B5C046F8BC08BC9E467047FF000000A1
:103A6000FF000000FF000000FF000000FF0000005A
:103A7000FF00000000000000070000000705030031
:103A80003D00000001000000E217000028180000BF
:103A90003C1800004A1800004E1800001A180000D8
:103AA0004C4556454C00000053434F52453A0000E8
:103AB00000040A0A040306060802000000000000D1
:103AC0000E040E1F081F0C1F0E0E00001000010E2A
:103AD0000E0E0F0E071F1F0E110E1C110111110EDD
:103AE0000F0E0F1E1F11111111111F0E000E0400D9
:103AF0000200010010000C00010408010600000093
:103B000000000000020000000000000C040600009D
:103B10000000000000040A0A1E130904040404043F
:103B200000000000110611080C0102101111060618
:103B300008000211101111110901011111040809E5
:103B4000011B111111111101041111111111100298
:103B500000080A00040001001000121E010000010C
:103B6000040000000000000002000000000000024D
:103B7000040802000000000000040A1F01080502FA
:103B80000208150400000010190410040A0F0108AF
:103B900011110606041F0410101111011101010179
:103BA000110408050115131111111101041111114E
:103BB0000A11080201081100080E0D0E160E02115E
:103BC0000D060C09040B0D0E0F160D0E0711111129
:103BD00011111F0204081500000000000004000A73
:103BE0000E04020002080E1F001F0008150408083A
:103BF00009100F040E1E00000200080816110F0124
:103C0000110F0F1D1F040803011515110F110F0EC1
:103C100004111115040A0402020800000010130127
:103C200019110711130408050415131111191301B3
:103C3000021111110A11080104100800000000000F
:103C40000000001F10021500020815040600000401
:103C5000130404101F10110211100606041F04049F
:103C6000151F11011101011111040805011119118C
:103C700001150510041111150A04020204080000C0
:103C8000001E1101111F021E110408030415111159
:103C90000F1E010E02111115041E0402040800007B
:103CA000000000000000000A0F19090004040404C9
:103CB0000400060211040211081111021108060481
:103CC000080002001511111109010111110409095F
:103CD000011111110109091004110A151104010241
:103CE000080800000011111111010210110409054A
:103CF000041111110110011012190A150A10020203
:103D000004080000000000000004000A0418160067
:103D100008020000020006010E0E1F0E080E0E0221
:103D20000E060002100001040E110F0E071F010EF7
:103D3000110E06111F11110E0116110F040E040AA7
:103D400011041F0E100E001F001E0F0E1E0E020E7D
:103D5000110E06090E11110E0110010F0C16040AA6
:103D6000110E1F0C040600000000000000000000FF
:103D70000000000000000000000000000000000043
:103D80000000000000000000000000000000000033
:103D90000000000000000000000000000000000023
:103DA0000000000000000000000000000000000013
:103DB0000000000000000000000000000000000003
:103DC00000000000000000000000000000000000F3
:103DD00000000000000000000000000000000000E3
:103DE00000000000000000000000000000000000D3
:103DF00000000000000000000000000000000000C3
:103E000000000000000000000000000000000000B2
:103E100000000000000000000000000000000000A2
:103E20000000000000000000000000000000000092
:103E30000000000000000000000000000000000082
:103E40000000000000000000000000000000000072
:103E50000000000000000000000000000000000062
:103E60000000000000000000000000000000000052
:103E7000000000080000000000000000000000003A
:103E80000000000000000000000000000000000032
:103E900000000000000000400000000000000000E2
:103EA0000000000000000000000000000000000012
:103EB0000000000000000000000000000000000002
:103EC00000000000000000000000000000000000F2
:103ED00000000000000000000000000000000000E2
:103EE00000000000000000000000000000000000D2
:103EF0000000000000000000000000800000000042
:103F000000000000000000000000000000000000B1
:103F100000000000000000000000000000000000A1
:103F20000000000000000000000000000000000091
:103F30000000010000000000000000000000000080
:103F40000000000000000000000000000000000071
:103F50000000000000000000000000000000000061
:103F60000000000000000000000000000000000051
:103F70000000000001000000000000000000000040
:103F80000000000000000000000000000000000031
:103F90000000000000000000000000000000000021
:103FA000000000000000000000000000000002000F
:103FB0000000000000000000000001000000000000
:103FC00000000000000000000000000000000000F1
:103FD00000000000000000000000000000000000E1
:103FE00000000000000000000000000000000000D1
:103FF00000000000000000000000000000000000C1
:1040000000000000000000000000000000000000B0
:1040100000000000000000000000000000000000A0
:10402000000000000000000400000000000000008C
:104030000000000000000000000000000000000080
:104040000000000000000000000000000000000070
:104050000000000000000000000000000000000060
:104060000000000000000000000000000000000050
:104070000000000000000000000000000000000040
:10408000000000020000000000000000000000002E
:104090000000000000000000000000000000000020
:1040A0000000000000000000000000000000000010
:1040B0000000000000000000000000000000000000
:1040C00000000000000000000000000000000000F0
:1040D00000000000000000000000000000000000E0
:1040E00000000000000000000000040000000000CC
:1040F00000000000000000000000000000000000C0
:1041000000000000000000000000000000080000A7
:10411000000000000000000000000000000000009F
:10412000000000000000000000000000000000008F
:10413000000000000000000000000000000000007F
:10414000000000000000000000000000000000006F
:10415000000000000010000000000000000000004F
:10416000000000000000000000000000000000004F
:10417000000000000000000000000000000000003F
:10418000000000000000000000000000000000002F
:1041900000200000000000000000000000000000FF
:1041A000000000000000000000000000000000000F
:1041B00000000000000000000000000000000000FF
:1041C00000000000000000000000000000000000EF
:1041D00000000000000000000000000000000000DF
:1041E00000000000000000000000000000000000CF
:1041F00000000000000000000000000000000000BF
:10420000000000000000000000000000008000002E
:104210000000000000000000080000000000000096
:10422000000000000000000000000000000000008E
:10423000000000000000000000000000000000007E
:10424000000000000000000000000000000000006E
:10425000000000000000000000000000000000005E
:10426000000000000000000000000000000000004E
:10427000000000000000000000000000000000003E
:10428000000000000000000000000000000000002E
:10429000000000000000000000000000000000001E
:1042A000000000000000000000000000000000000E
:1042B00000000000000000000000000000000000FE
:1042C00000000000000000000000000200000000EC
:1042D00000000000000000000000000000000000DE
:1042E00000000000000000000000000000000000CE
:1042F000000000000080000000000000000000003E
:1043000000000000000000000000000000000000AD
:10431000000000000000000000000000000000009D
:10432000000000000000000000000000000000008D
:10433000000000000000000000000000000000007D
:10434000000000000000000000000000000000006D
:10435000000000000000000000000000000000005D
:10436000000000000000000000000000000000004D
:10437000000000000000000000000000000000003D
:10438000000020000000000000000000000000000D
:1043900000000000000000000000000000002000FD
:1043A000000000000000000000000000000000000D
:1043B00000000000000000000000000000000000FD
:1043C00000000000000000000000000000000000ED
:1043D00000000000000000000000000000000000DD
:1043E00020000000000000000000000000000000AD
:1043F000000000000000000000000040000000007D
:1044000000000000000000000000000000000000AC
:10441000000000000000000000000000000000009C
:10442000000000000000000000000000000000008C
:10443000000000000000000000000000000000007C
:10444000000000000000000010000000000000005C
:10445000000000000000000000000000000000005C
:10446000000000000000000000000000000000004C
:10447000000000000000000000000000000000003C
:104480000000000000040000000000000000000028
:10449000000000000000000000000000000000001C
:1044A000000000000000000000000000000000000C
:1044B00000000000000000000000000000000000FC
:1044C00000000000000000000000000000000000EC
:1044D00000000000000000000000000000000000DC
:1044E00000000000000000000000000000000000CC
:1044F00000000000000000000000000000000000BC
:1045000000000000000000000000000000000000AB
:10451000000000000000000000000000000000009B
:10452000000000000000000000000000000000008B
:10453000000000000000000000000000000000007B
:10454000000000000000000000000000000000006B
:10455000000000000000000000000000000000005B
:10456000000000000000000000000000000000004B
:10457000000000000000000000000000000000003B
:10458000000000000000000000000000000000002B
:10459000000000000000000000000000000000001B
:1045A000000000000000000000000000000000000B
:1045B000FFFFFFFFFFFFFFFFFFFFFFFFFFFFFFFF0B
:1045C000FFFFFFFFFFFFFFFFFFFFFFFFFFFFFFFFFB
:1045D0000401F00018000401F000010001000400D3
:1045E00040008800FE073C008904FE07010002002D
:1045F0000200E000FC01FF0F7E00FD05FF0F01003F
:1046000004000100E0007603670EDB007707670E09
:10461000010002000200FE0FFF07FF0FFF00FF076F
:10462000FF0F000001000400FF1FFD05980124009A
:10463000FE039C03000002000200FF1F05056C033F
:104640005A0004016606000004000100FF1FD800A4
:10465000030CA50002020C03000000000000FF1F75
:10466000000000000B000000080000000100000036
:104670000C0000000800000002000000080000001C
:1046800008000000030000000B000000080000000C
:10469000040000000C0000000800000005000000FD
:1046A00001000000040000000600000003000000FC
:1046B00007000000070000000300000007000000E2
:1046C000080000000D00000008000000AE1F000000
:1046D000941F0000D41F0000C41F00000820000029
:1046E000801F00006E1F0000301F0000121F00001E
:1046F000E81E00002A20000000000000000000006A
:1047000000000000000000000000000000000000A9
:104710000000000000000000000000000000000099
:104720000000000000000000000000000000000089
:104730000000000000000000000000000000000079
:104740000000000000000000000000000000000069
:104750000000000000000000000000000000000059
:104760000000000000000000000000000000000049
:104770000000000000000000000000000000000039
:104780000000000000000000000000000000000029
:1047900000000000000000000000000000000030E9
:1047A0000000000000000000000000000000C00148
:1047B00000000000001000000000000000001E00CB
:1047C00000FC030000C000000000000000E0010049
:1047D000F0FFFF000080030000000000003C00002C
:1047E000FFFFFF0F00000F0000000000C00700F0F7
:1047F000FFFFFF3F00001F0000000000FC0000FC66
:10480000FFFFFF7F00003F00000000003F0000FFAF
:10481000FFFFFF7F00007F00000000E00F0080FF2F
:10482000FFFFFF7F0080FF00000000FC0300E0FFAF
:10483000FFFFFF3F00E0FF01000000FF0000F0FF6E
:10484000FFFFFF1F00F0FF010000C07F0000F8FF26
:10485000FFFFFF0700FCFF010000F03F0000FCFF2E
:10486000FFFFFFFF00FFFF010000F81F0000FEFF39
:10487000FFFFFFFFFFFFFF010000FE0F0000FEFF34
:10488000FFFFFFFFFFFFFF010080FF070000FEFFAB
:10489000010000F0FFFFFF0100C0FF070000FE0362
:1048A00000000000FFFFFF0000E0FF0700003C00E9
:1048B00000000000F8FFFF0000F0FF070000F80113
:1048C00000000000E0FF7F0000F8FF070000C0FFCD
:1048D0007F00000080FF3F0000FCFF0F000000FE93
:1048E000FF07000000FF1F0000FEFF1F0000000088
:1048F000003F000000FF0F0000FFFF3F000000002E
:1049000000F0000000FF070000FFFFFF01000000B3
:1049100000F8010000FF010080FFFFFF1F00000002
:10492000C0FF030000FF000080FFFFFFFF0700C083
:10493000FFFF0300007F000080FFFFFFFFFFFFFF7E
:10494000FFFF0300801F000080FFFF0FFFFFFFFF3E
:10495000FFFF0300C007000080FFFF03F0FFFFFF21
:10496000FFFF0100F001000080FFFF00C0FFFFFF1C
:10497000FFFF00007800000000FF7F00E0FFFFFF66
:10498000FF3F00001C00000000FF3F00F0FFFFFFA2
:10499000FF1F00000700000000FE0F00F0FFFFFFF8
:1049A000FF0700C00000000000FC0F00E0FFFFFF59
:1049B000FF0100300000000000F80700C0FFFFFF0B
:1049C0007F0000040000000000F0070000FFFFFF70
:1049D0000F0080000000000000E00F0000F0FF7FEB
:1049E000000008000000000000800F000000000030
:1049F000000000000000000000001E000000000099
:104A00000000000000000000000030000000000076
:104A10000000000000000000000000000000000096
:104A20000000000000000000000000000000000086
:104A30000000000000000000000000000000000076
:104A40000000000000000000000000000000000066
:104A50000000000000000000000000000000000056
:104A600000000000000000003C40800004F08003D3
:104A7000880000012080073C244080000488400416
:104A800088000001208008240440800004084004BD
:104A900098000001208008040440800004084004BD
:104AA000980000015080080404408000040840047D
:104AB00098000001508008040C4080000408400465
:104AC000A80000015080080C184080000408400431
:104AD000A8000001508007183040800004084004FE
:104AE000A8000001508007302040800004084004E6
:104AF000A8000001888008202040800004084004AD
:104B0000A80000018880082020408000040840049C
:104B1000C8000001F88008202440800004084004F8
:104B2000C8000001888008242440800004884004D4
:104B3000C8000001888008243C40800704F08003FE
:104B40008800000F8880073C000000000000000083
:104B50000000000000000000000000000000000055
:104B60000000000000000000000000000000000045
:104B70000000000000000000000000000000000035
:104B80000000000000000000000000000000000025
:104EF0000000000000000000FFFFFFFFFFFFFFFFBA
:104F0000FFFFFFFFFFFFFFFFFFFFFFFFFFFFFFFFB1
:104F1000FFFFFFFFFFFFFFFFFFFFFFFFFFFFFFFFA1
:104F2000FFFFFFFFFFFFFFFFFFFFFFFFFFFFFFFF91
:104F3000FFFFFFFFFFFFFFFFFFFFFFFFFFFFFFFF81
:104F4000FFFFFFFFFFFFFFC7FFFFFFFFFFFFFFFFA9
:104F5000FFFFFFFFFFFFFFC7FF81FFFFFFFF07FE10
:104F6000FFFFFFFFFFFFFFC77F00FEFFC7FF033C00
:104F7000FEFFFF3FFEFFFFC31F00FCFFC7FF013C1A
:104F8000FEFFFF3FFEFFFFE30F7EFEFFC7FFF03C8B
:104F9000FEFFFF3FFEFFFFE30FFFFFE000FFF8070C
:104FA000F830CE00F8C11FE287FF3FC000FFF807CE
:104FB00038004E00788007E0C7031F8000FFE0073D
:104FC00038000E00380007E0E3010F8FE3FF811F78
:104FD0001F1E071F1F1EC3E1E3818F87E1FF070F1D
:104FE0001F1F870F1F0FE3F1E39F07C0F1FF1F8E05
:104FF0008F1FC78F0F80F1F1E38F07F0F1FF3F8E16
:105000008F1FC78F0FE0F1F1C38FC7FFF1FF3F8EF6
:105010008F0FC78F8FFFF1F083C7C7E7F03F1F8661
:105020008F03C7878FCF71F007C007E0C03F00072D
:105030000E80E3070EC001F80FC00FE0C13F800FE4
:105040001E80E30F1EC003F83FF01FF8E3FFE01FD0
:105050001F8CE31F3FF0C7F8FFFFFFFFFFFFFFFFBD
:10506000FFFFFFFFFFFFFFFFFFFFFFFFFFFFFFFF50
:10507000FFFFFFFFFFFFFFFFFFFFFFFFFFFFFFFF40
:10508000FFFFFFFFFFFFFFFFFFFFFFFFFFFFFFFF30
:10509000FFFFFFFFFFFFFFFFFFFFFFFFFFFBFFFF24
:1050A000FFFFF7FDFFDBDFFEFFFFFFFFFFFFFFFF5F
:1050B000FFFFF7FFFFFBFFFEE7786674819B337FFE
:1050C000CE811B058EDB59B8DBB6B5AD6D6BDBBE93
:1050D000B56DEBB56DDBD6D6C336B4AD6DEBDBBECF
:1050E000B76D9BB56DDBDED6FBB6B7AD6D6BDBBECA
:1050F000B56D7DB56DDBD6D6C77674DC6D9B3B7721
:10510000CE6D8DB58DDBD9ECFFFFBFDDFFFFFFFF5F
:10511000FFFFFFFFEFFFFFEFFFFF7FEEFFFFFFFF50
:10512000FFFFFFFFEFFFFFF7FFFFFFFFFFFFFFFFA7
:10513000FFFFFFFFFFFFFFFFFFFFFFFFFFFFFFFF7F
:10514000FFFFFFFFFFFFFFFFFFFFFFFFFFFFFFFF6F
:10515000FFFFFFFFFFFFFFFFFFFFFFFFFFFFFFFF5F
:10516000FFFFFFFFFFFFFFFFFFFFFF0100C0F1FF99
:10517000C77F0000F0FFFFFFFFFFFF0100C0F1FF4E
:10518000C77F0000F0FFFFFFFFFFFF0100C0F1FF3E
:10519000C77F0000F0FFFFFFFFFFFFF1FFC7FFFF2A
:1051A000FF71FCFFF1FFFFFFFFFFFFF1FFC7FFFFF4
:1051B000FF71FCFFF1FFFFFFFFFFFFF1FFC7FFFFE4
:1051C000FF71FCFFF1FFFFFFFFFFFF7100C7F1FF61
:1051D000F8711CC0F1FFFFFFFFFFFF7100C7F1FF77
:1051E000F8711CC0F1FFFFFFFFFFFF7100C7F1FF67
:1051F000F8711CC0F1FFFFFFFFFFFF7100C70FFC3C
:10520000C0711CC0F1FFFFFFFFFFFF7100C70FFC63
:10521000C0711CC0F1FFFFFFFFFFFF7100C70FFC53
:10522000C0711CC0F1FFFFFFFFFFFF7100C77FFCD3
:10523000C77F1CC0F1FFFFFFFFFFFF7100C77FFCAE
:10524000C77F1CC0F1FFFFFFFFFFFF7100C77FFC9E
:10525000C77F1CC0F1FFFFFFFFFFFFF1FFC7F11F7A
:10526000C771FCFFF1FFFFFFFFFFFFF1FFC7F11F59
:10527000C771FCFFF1FFFFFFFFFFFFF1FFC7F11F49
:10528000C771FCFFF1FFFFFFFFFFFF0100C0711CB2
:10529000C7710000F0FFFFFFFFFFFF0100C0711C9E
:1052A000C7710000F0FFFFFFFFFFFF0100C0711C8E
:1052B000C7710000F0FFFFFFFFFFFFFFFFFF0FE0E0
:1052C00007F0FFFFFFFFFFFFFFFFFFFFFFFF0FE004
:1052D00007F0FFFFFFFFFFFFFFFFFFFFFFFF0FE0F4
:1052E00007F0FFFFFFFFFFFFFFFFFF71FC07FEE37B
:1052F000FFF1E3C7F1FFFFFFFFFFFF71FC07FEE3D4
:10530000FFF1E3C7F1FFFFFFFFFFFF71FC07FEE3C3
:10531000FFF1E3C7F1FFFFFFFFFFFF8F1FFF71FCEE
:10532000070EE0F8F1FFFFFFFFFFFF8F1FFF71FC8B
:10533000070EE0F8F1FFFFFFFFFFFF8F1FFF71FC7B
:10534000070EE0F8F1FFFFFFFFFFFF81FF00F01FF6
:10535000000EFCC7F1FFFFFFFFFFFF81FF00F01F02
:10536000000EFCC7F1FFFFFFFFFFFF81FF00F01FF2
:10537000000EFCC7F1FFFFFFFFFFFFF11FF8711CDC
:10538000FF71FCF8F1FFFFFFFFFFFFF11FF8711C39
:10539000FF71FCF8F1FFFFFFFFFFFFF11FF8711C29
:1053A000FF71FCF8F1FFFFFFFFFFFF711C00801F82
:1053B000FF71E0FFFFFFFFFFFFFFFF711C00801F79
:1053C000FF71E0FFFFFFFFFFFFFFFF711C00801F69
:1053D000FF71E0FFFFFFFFFFFFFFFF0F1C387EFCA8
:1053E0003870E0FFF1FFFFFFFFFFFF0F1C387EFC6E
:1053F0003870E0FFF1FFFFFFFFFFFF0F1C387EFC5E
:105400003870E0FFF1FFFFFFFFFFFF01FC070EE038
:1054100038FE1FF8F1FFFFFFFFFFFF01FC070EE062
:1054200038FE1FF8F1FFFFFFFFFFFF01FC070EE052
:1054300038FE1FF8F1FFFFFFFFFFFF7FE03F70FC2A
:105440003F001C38FEFFFFFFFFFFFF7FE03F70FCC7
:105450003F001C38FEFFFFFFFFFFFF7FE03F70FCB7
:105460003F001C38FEFFFFFFFFFFFF8103C0F1FF7D
:10547000FF0100F8F1FFFFFFFFFFFF8103C0F1FF15
:10548000FF0100F8F1FFFFFFFFFFFF8103C0F1FF05
:10549000FF0100F8F1FFFFFFFFFFFFFFFFFF8103A8
:1054A000F8F11FF8F1FFFFFFFFFFFFFFFFFF810390
:1054B000F8F11FF8F1FFFFFFFFFFFFFFFFFF810380
:1054C000F8F11FF8F1FFFFFFFFFFFF0100C08103AC
:1054D000C0711CFFF1FFFFFFFFFFFF0100C0810350
:1054E000C0711CFFF1FFFFFFFFFFFF0100C0810340
:1054F000C0711CFFF1FFFFFFFFFFFFF1FFC7FF1FA0
:1055000007F01FF8F1FFFFFFFFFFFFF1FFC7FF1FCD
:1055100007F01FF8F1FFFFFFFFFFFFF1FFC7FF1FBD
:1055200007F01FF8F1FFFFFFFFFFFF7100C78FE3D8
:105530003F00003FFEFFFFFFFFFFFF7100C78FE34B
:105540003F00003FFEFFFFFFFFFFFF7100C78FE33B
:105550003F00003FFEFFFFFFFFFFFF7100C7FF039B
:105560003FF01F07FEFFFFFFFFFFFF7100C7FF03B4
:105570003FF01F07FEFFFFFFFFFFFF7100C7FF03A4
:105580003FF01F07FEFFFFFFFFFFFF7100C701E0B5
:1055900007801F07F0FFFFFFFFFFFF7100C701E05B
:1055A00007801F07F0FFFFFFFFFFFF7100C701E04B
:1055B00007801F07F0FFFFFFFFFFFFF1FFC7FFFF9F
:1055C000C701E0F8FFFFFFFFFFFFFFF1FFC7FFFF8D
:1055D000C701E0F8FFFFFFFFFFFFFFF1FFC7FFFF7D
:1055E000C701E0F8FFFFFFFFFFFFFF0100C0F11F51
:1055F000FF81FFF8F1FFFFFFFFFFFF0100C0F11F78
:10560000FF81FFF8F1FFFFFFFFFFFF0100C0F11F67
:10561000FF81FFF8F1FFFFFFFFFFFFFFFFFFFFFF2D
:10562000FFFFFFFFFFFFFFFFFFFFFFFFFFFFFFFF8A
:10563000FFFFFFFFFFFFFFFFFFFFFFFFFFFFFFFF7A
:10564000FFFFFFFFFFFFFFFFFFFFFFFFFFFFFFFF6A
:10565000FFFFFFFFFFFFFFFFFFFFE1FFFFFFFFDF98
:10566000FF7FFFFFFEFFFFFFFFFFDDFFFFFFFFDF0D
:10567000FF7FFFFFFEFFFFFFFFFFDDCC888FD1DD47
:105680006637E6C78EEEFFFFFFFFE136F7BFAD5E80
:10569000DB7ADBB7BEF5FFFFFFFFFD86CC8FAD1ECB
:1056A000C37ADBB78EF5FFFFFFFFFDF6BBB7AD5E3C
:1056B000FB7ADBB7B6F5FFFFFFFFFD0EC4876DDF9A
:1056C000C67DE6C786FBFFFFFFFFFFFFFFFF7FFFF3
:1056D000FFFDFFF7FFFBFFFFFFFFFFFFFFFFBFFF28
:1056E000FFFEFFF7FFFDFFFFFFFFFFFFFFFFFFFFD5
:1056F000FFFFFFFFFFFFFFFF5042302020203A2036
:10570000506C61792F5061757365000050423120F3
:1057100020203A2046697265206D697373696C6553
:1057200000000000546F756368203A204D6F766565
:105730002074616E6B00000047414D45204F564577
:1057400052000000564943544F52592100000000B6
:1057500050415553454400002E2E2F656D6C6962F3
:105760002F656D5F61636D702E630000FA24000089
:1057700024250000282500002C25000030250000ED
:10578000482500000C2500001628000016280000FF
:105790000C29000004290000FC280000F828000063
:1057A000162800001628000016280000782800009F
:1057B00008280000F0280000D2280000522800002D
:1057C00008280000082800003028000008280000F1
:1057D000082800006C280000A6290000BC29000051
:1057E000C2290000C8290000882900007E29000085
:1057F0002E2E2F656D6C69622F656D5F636D752E42
:10580000630000002E2E2F656D6C69622F656D5F41
:105810006770696F2E6300002E2E2F656D6C6962B4
:105820002F656D5F7274632E630000002E2E2F654E
:105830006D6C69622F656D5F75736172742E6300A4
:105840005368617270204C533031334237444830D2
:10585000332023310000000005000000000000009C
:1058600040420F00050100000000000000000000A1
:1058700001000100433A5C53696C69636F6E4C61CF
:1058800062735C53696D706C696369747953747584
:1058900064696F5C76325C646576656C6F706572A6
:1058A0005C73646B735C65666D33325C76322F6556
:1058B0006D6C69622F696E632F656D5F6770696FCC
:1058C0002E68000001000100430000005C00002081
:0458D00000000000D4
:0858D4008CA8FF7F0100000019
:1058DC0001000000010000000100000001000000B8
:1058EC0001000000010000000100000001000000A8
:1058FC00010000000A000000010000000A00000086
:10590C009C4600005002002060460000C04600008B
:10591C004002002001000000092F000000000000E0
:10592C00001000000080000000366E010000000036
:10593C00000000000000000000000000000000005B
:10594C00000000000000000000000000C85800002B
:10595C00000000000000000000000000000000003B
:10596C00000000000000000000000000000000002B
:10597C00000000000000000000000000000000001B
:10598C00000000000000000000000000000000000B
:0C599C005C000020290100000101000057
:04000003000034695C
:00000001FF
