:100000000010002075050000A7050000A9050000EC
:10001000A5050000A5050000A5050000A505000038
:10002000A5050000A5050000A5050000AB05000022
:10003000A5050000A5050000AD050000D5010000E4
:10004000B1050000B3050000B5050000B7050000CC
:10005000B9050000BB050000BD050000BF0500009C
:10006000C1050000C3050000C5050000C70500006C
:10007000C9050000CB050000CD050000CF0500003C
:10008000D10500000000000000000000000000009A
:100090000000000000000000000000000000000060
:1000A0000000000000000000000000000000000050
:1000B0000000000000000000000000000000000040
:1000C0000000000000000000000000000000000030
:1000D0000000000000000000000000000000000020
:1000E0000000000000000000000000000000000010
:1000F0000000000000000000000000000000000000
:1001000010B5064C2378002B07D10548002802D0F3
:10011000044800E000BF0121217010BD74000020E0
:10012000000000008809000008B5084B002B03D030
:100130000748084900E000BF07480168002903D0CC
:10014000064A002A00D0904708BDC04600000000C3
:1001500088090000780000207400002000000000E2
:10016000164B002B00D1144B9D46402292029A1A46
:10017000924600218B460F461348144A121A00F08B
:10018000C5FB0F4B002B00D098470E4B002B00D027
:1001900098470020002104460D4600200C4900220B
:1001A000002300F053FB00F08BFB2046294600F0B3
:1001B00019F800F057FBC0460000080000100020AE
:1001C00000000000000000007400002098000020E3
:1001D00095080000024B1A6801321A607047C04649
:1001E0009000002038B5144800F076F8FA21890014
:1001F00000F0DCFA114B0138984200D9FEE7104BB1
:10020000104A5860106AC0210002000A0906014322
:10021000116200229A6007221A6000F091FA0A4CDB
:1002200000250135281C00F0A7FA226823689B1AD4
:10023000F92BFBD9F5E7C04620000400FFFFFF00C3
:1002400010E000E000ED00E09000002000B5FEE7C7
:10025000030570B51B0F062B04D915481549FFF788
:10026000F5FF70BD144A9B00D3589F46134AC00344
:10027000C00E136801248440A3438140181C084326
:100280001060EEE70E4AF2E70E4AF0E70E4AEEE79C
:100290000E4A01240E4DC0036B6DC00EDE07E8D47C
:1002A0002B6D2342FCD1E4E710240A4AF2E7C04652
:1002B000580900000E0400003C09000078800C4042
:1002C00008800C4044800C4040800C4058800C401A
:1002D00000800C4060800C4008B5F8239B03184058
:1002E00080231B03984200D187E022D9A0235B031F
:1002F00098424AD027D9C0235B03984200D16EE0D0
:10030000D0235B03984222D15D4BE0215B69C90099
:1003100080220B409200934200D1ACE000D882E0F2
:10032000C0229200934200D1A3E08B4214D15548E1
:1003300008E080239B02984257D00FD8002806D1AE
:1003400000F0A0F908BD90235B03984233D09721B9
:100350004D48C900FFF77AFF0020F3E78023DB0256
:10036000984239D0C023DB029842F0D1444A03219D
:10037000936A0B40022B6BD0032B65D0012B5AD014
:10038000936A00201B0CDDD023E03D4A936A1B07D3
:100390009B0F022B5FD0032B60D0012B4ED0936AB2
:1003A00000201B0D01D000F0C1F9354B03221B6F5B
:1003B0001340D840C6E7324A936A1B079B0F022BB3
:1003C00046D0032B40D0012B35D0936A00201B0D63
:1003D000B8D000F0ABF9B5E700F0FCF8B2E72A4876
:1003E0002A49FFF733FF0020ACE700F04BF9244B1C
:1003F0000F229B681340D840A4E7214A0321936A47
:100400000B40022B32D0032B2CD0012B19D0936A36
:1004100000201B0C01D000F089F9194B0F229B6EB4
:100420001340D8408EE7002B27D080225200934201
:1004300092D1174886E700F075F983E700F072F96A
:10044000B3E700F06FF9E8E700F0C4F8400879E797
:1004500000F070F976E700F06DF9A6E700F0BAF861
:100460004008A2E700F0B6F84008D6E700F062F9CD
:10047000D3E7084866E7084864E7084862E7C046EB
:1004800000800C40406F40015809000061010000ED
:10049000C0D8A70040420F00C0CF6A00809FD5009F
:1004A000F8B54F464646C0B4041C0D1C161C1F1C54
:1004B000052833D80F2931D8E200002E09D0E200F8
:1004C00001211319A9409B00002F42D025481B1879
:1004D000196113199B00072D25D822495B1858680C
:1004E000A90081460F2088408846494681438C46B2
:1004F000301C41468840614601435960002E09D1B5
:100500000123AB4012191D1C9200002F25D1164863
:10051000121853600CBC90469946F8BD1348CC2184
:10052000FFF794FEC8E70F481B18996889461049E1
:100530006818800080460F20011C404681404846D4
:10054000884384464146301C884061460143996097
:10055000D4E705481B185960BBE7024BD218156158
:10056000D8E7C04600600040106000406C09000001
:10057000F8FFFF3F064880470649074A074B9B1A8A
:1005800003DD043BC858D050FBDC054800470000A1
:1005900021070000940900000000002074000020E2
:1005A00061010000FEE7FEE7FEE7FEE7FEE7FEE78B
:1005B000FEE7FEE7FEE7FEE7FEE7FEE7FEE7FEE713
:1005C000FEE7FEE7FEE7FEE7FEE7FEE7FEE7FEE703
:1005D000FEE7C046224AF023D16A9B010B408021EE
:1005E00000B549018B4226D0802189018B421FD062
:1005F000802109018B4210D0D268E023DB00134038
:1006000080229200934223D018D8002B22D080223F
:10061000520093421AD1134A01E0134B1A68104B4F
:100620000F205B681840114BC240101C1A6000BDBF
:100630000F4B1A68F3E780221202F0E7C022920003
:1006400093420BD08022D200934205D00022E6E7ED
:10065000084AE4E7084AE2E7084AE0E7084ADEE732
:1006600000800C4040B5640004000020940000208D
:1006700000000020C0D8A700804F1200406F40014A
:10068000809FD5001E4AF023D16A9B010B40802138
:1006900000B549018B421ED0802189018B4217D0C1
:1006A000802109018B4210D0D268E023DB00134087
:1006B0008022920093421BD010D8002B1AD08022A7
:1006C0005200934212D10F4801E00F4B186800BD51
:1006D0000E4B1868FBE780200002F8E7C02292006A
:1006E00093420BD08022D200934205D00020EEE747
:1006F0000748ECE70748EAE70748E8E70748E6E77E
:1007000000800C4040B56400040000200000002080
:10071000C0D8A700804F1200406F4001809FD500D5
:100720007047C046802000027047C046FA20800013
:100730007047C046014B18687047C0460000002053
:1007400008B50B480121FFF783FD0A480121FFF797
:100750007FFD02200A2104220023FFF7A1FE0220D0
:100760000B2104220023FFF79BFE002008BDC0469A
:100770001081020000720200802200B5D200C3077F
:1007800009D4094BDA6580221201830709D5064B8B
:100790009A65002000BD044B9A65802212018307F0
:1007A000F5D4014BDA65F4E700600040002934D04D
:1007B0000123002210B488422CD301242407A14233
:1007C00004D2814202D209011B01F8E7E400A142F0
:1007D00004D2814202D249005B00F8E7884201D38B
:1007E000401A1A434C08A04202D3001B5C08224363
:1007F0008C08A04202D3001B9C082243CC08A042D4
:1008000002D3001BDC082243002803D01B0901D0BF
:100810000909E3E7101C10BC7047002801D0002034
:10082000C04307B4024802A14018029003BDC0466D
:10083000190000000029F0D003B5FFF7B9FF0EBC86
:100840004243891A1847C0467047C04610B5044C49
:10085000002C02D000E000BF00E0201C10BDC0460C
:1008600000000000094B10B5041C002B03D0002130
:1008700000E000BF01E000F00DF805480068816A63
:10088000002900D08847201C00F04AF80000000032
:100890008409000038B5084B084C1D1CE01A841070
:1008A000002C06D0A1006A18043A13689847013C4E
:1008B000F6E700F03DF838BD70000020740000201D
:1008C00070B50E4B0E4D0024E81A85101E1CAC426C
:1008D00004D0A100725890470134F8E700F022F8E4
:1008E0000849094A0E1C541AA5100024AC4204D031
:1008F000A300F05880470134F8E770BD6C00002079
:100900006C0000206C0000207000002000B58218F0
:10091000031C934202D019700133FAE700BD0000B6
:1009200000B5FEE7F8B5C046F8BC08BC9E46704767
:10093000F8B5C046F8BC08BC9E4670475A02000095
:1009400084020000880200008C0200009002000077
:10095000A80200006C0200002E2E2F656D6C6962EB
:100960002F656D5F636D752E630000002E2E2F6561
:100970006D6C69622F656D5F6770696F2E63000033
:0C09800043000000080000200000000000
:08098C00D4F7FF7F0100000019
:100994000080000000366E0100000000000000002E
:1009A4000000000000000000000000000000000043
:1009B40000000000000000008009000000000000AA
:1009C4000000000000000000000000000000000023
:1009D4000000000000000000000000000000000013
:1009E4000000000000000000000000000000000003
:1009F40000000000000000000000000029010000C9
:040A040001010000EC
:04000003000005757F
:00000001FF
