:1000000000000220252300005B2300005D23000088
:100010005F230000612300006323000059230000D8
:1000200059230000592300005923000065230000D4
:100030006723000059230000692300006B230000A0
:100040006D2300006F230000712300007323000064
:100050007523000077230000792300007B23000034
:100060007D2300007F230000812300008323000004
:100070008523000087230000892300008B230000D4
:100080008D2300008F2300009123000093230000A4
:100090009523000097230000E5060000A10700005B
:1000A0009D2300009F230000A1230000A323000044
:1000B000A5230000A7230000A9230000AB23000014
:1000C000AD230000AF230000B1230000B3230000E4
:1000D000B5230000B7230000B92300000000000092
:1000E0000000000000000000000000000000000010
:1000F0000000000000000000000000000000000000
:1001000010B5054C237833B9044810B10448AFF357
:1001100000800121217010BD90000020000000002F
:100120006438000008B5064B1BB106480649AFF31A
:1001300000800648016811B1054A02B1904708BD28
:1001400000000000643800009400002090000020AF
:1001500000000000154B002B08BF134B9D46A3F574
:10016000803A00218B460F461348144A121A03F0B6
:100170002FFB0F4B002B00D098470E4B002B00D0CD
:1001800098470020002104460D4600200C4900221B
:10019000002303F0C1FA03F0F5FA2046294600F0E7
:1001A000B5F803F0C3FA00BF000008000000022009
:1001B000000000000000000090000020DC02002091
:1001C0005937000080B483B000AF0346FB714FF491
:1001D0006143CEF2000397F907204FEA5212F979F2
:1001E00001F01F014FF0010000FA01F143F8221065
:1001F00007F10C07BD4680BC704700BF80B483B0D8
:1002000000AF0346FB714FF46143CEF2000397F950
:1002100007204FEA5212F97901F01F014FF0010057
:1002200000FA01F102F1600243F8221007F10C0715
:10023000BD4680BC704700BF80B582B000AF48F2B9
:10024000FC13C0F6E0731B687B603B46184601F068
:1002500077FE7B684FEA1363102B10D17B78032B5A
:100260000DD148F2C003C4F20C0348F2C002C4F23C
:100270000C02126822F0500242F010021A6007F1DC
:100280000807BD4680BD00BF80B400AF4FF46D438A
:10029000CEF200034FF46D42CEF20002126922F05A
:1002A00004021A6130BFBD4680BC704780B483B081
:1002B00000AF786039607B683A689A6407F10C0790
:1002C000BD4680BC704700BF80B483B000AF78608B
:1002D00039607B68DA6C3B686FEA03031A407B681D
:1002E000DA6407F10C07BD4680BC704780B483B068
:1002F00000AF786039607B68DA6C3B681A437B68D2
:10030000DA6407F10C07BD4680BC704780B5C2B007
:1003100000AFFFF791FF00F0D1F900F05DF84FF06A
:10032000020002F097F94FF001004FF0010102F0D6
:100330007BFA02F073F943F63C03C0F200031B683A
:1003400043F2FC70C0F20000194600F0EDF800E046
:1003500000BFFFF799FF40F2C813C2F2000393F801
:100360000C31DBB2002B13D040F2C813C2F20003F1
:100370004FF0000283F80C2143F64003C0F2000363
:100380001B6843F62800C0F20000194600F0CCF8C4
:1003900040F2C813C2F20003D3F8043103F1FF3373
:1003A000DAB240F2C813C2F200039B5CDBB22E2B20
:1003B000CED107F1040318464FF0000100F01CF9FC
:1003C0000346C7F80431D7F8043107F10402104698
:1003D000194600F0A9F8BBE780B500AF4FF45240D2
:1003E000C0F202004FF0010100F082FC4FF001006A
:1003F0004FF009014FF004024FF0010301F0CAFC75
:100400004FF001004FF00A014FF001024FF00003DE
:1004100001F0C0FC40F20403C2F200034FF00002FE
:100420001A7040F20403C2F200034FF000025A6057
:1004300040F20403C2F200034FF4E1329A6040F24A
:100440000403C2F200034FF000021A7340F20403E7
:10045000C2F200034FF005025A7340F20403C2F2E5
:1004600000034FF00002DA8140F20403C2F20003FD
:100470004FF480521A8240F20403C2F200034FF09C
:1004800000029A7440F20403C2F200034FF000022B
:10049000DA7440F20403C2F200034FF000021A754E
:1004A00040F20003C2F200031B68184640F2040148
:1004B000C2F2000101F030FE40F20003C2F200037C
:1004C0001B68184641F6FF71FFF7F0FE40F200038B
:1004D000C2F200031B6818464FF00401FFF706FF45
:1004E0004FF01600FFF78AFE4FF01700FFF786FE69
:1004F0004FF01600FFF766FE4FF01700FFF762FEA1
:1005000040F20003C2F200031B6840F203225A6566
:1005100040F20003C2F200031B6818464FF00501C9
:1005200001F0DEFD80BD00BF80B584B000AF786013
:1005300039604FF00003FB603B68B3F5807F56D80D
:1005400040F2AC03C2F20003D3F808213B68D31891
:10055000B3F5807F2ED900BF40F2AC03C2F2000396
:10056000D3F808213B68D318B3F5807FF4D821E095
:1005700040F2AC03C2F20003D3F804217968FB68AF
:10058000CB18197840F2AC03C2F20003995440F240
:10059000AC03C2F20003D3F8043103F10103DAB271
:1005A00040F2AC03C2F20003C3F80421FB6803F17C
:1005B0000103FB60FA683B689A42D9D340F2AC036E
:1005C000C2F20003D3F808213B68D21840F2AC0312
:1005D000C2F20003C3F8082140F20003C2F2000394
:1005E0001B6818464FF00201FFF780FE00E000BFD5
:1005F00007F11007BD4680BD80B485B000AF7860BC
:1006000039604FF00003FB6040F2C813C2F20003F0
:10061000D3F808213B689A4209D200BF40F2C813C0
:10062000C2F20003D3F808213B689A42F6D33B6834
:10063000002B2AD140F2C813C2F20003D3F80831CC
:100640003B6022E07A68FB68D21840F2C813C2F21D
:100650000003D3F8001140F2C813C2F200035B5C40
:10066000DBB2137040F2C813C2F20003D3F80031BA
:1006700003F10103DAB240F2C813C2F20003C3F877
:100680000021FB6803F10103FB60FA683B689A42B2
:10069000D8D340F2C813C2F20003D3F808213B6854
:1006A000D21A40F2C813C2F20003C3F80821FB6853
:1006B000184607F11407BD4680BC704780B500AFEF
:1006C00048F21010C0F202004FF0010100F010FBE0
:1006D0004FF48440C0F202004FF0010100F008FB2B
:1006E00080BD00BF80B582B000AF40F20003C2F20F
:1006F00000031B681B6903F08003002B4BD040F202
:100700000003C2F200031B68184601F0E1FD034636
:10071000FB7140F2C813C2F20003D3F8042140F287
:10072000C813C2F20003F979995440F2C813C2F217
:100730000003D3F8043103F10103DAB240F2C81325
:10074000C2F20003C3F8042140F2C813C2F200034E
:10075000D3F8083103F1010240F2C813C2F20003DA
:10076000C3F8082140F2C813C2F20003D3F80831DD
:10077000B3F5807F07D940F2C813C2F200034FF0EF
:10078000010283F80C214FF46440C4F200004FF0E2
:100790000401FFF78BFD07F10807BD4680BD00BFD0
:1007A00080B500AF40F20003C2F200031B681B6972
:1007B00003F04003002B4BD040F2AC03C2F2000325
:1007C000D3F80831002B31D040F20003C2F200030D
:1007D0001A6840F2AC03C2F20003D3F8001140F2F1
:1007E000AC03C2F200035B5CDBB21046194601F0B9
:1007F00083FD40F2AC03C2F20003D3F8003103F1F1
:100800000103DAB240F2AC03C2F20003C3F80021E4
:1008100040F2AC03C2F20003D3F8083103F1FF3217
:1008200040F2AC03C2F20003C3F8082140F2AC036B
:10083000C2F20003D3F80831002B09D140F20003C3
:10084000C2F200031B6818464FF00201FFF73CFD9F
:1008500080BD00BF80B487B000AFF860B9607A6037
:10086000FB6803F104734FEAC302BB68D3184FEA75
:1008700083037B617B697A681A6007F11C07BD46B8
:1008800080BC704790B486B000AF78607B683B61F5
:100890003B69B3FA83F4FC60FB68DBB2C3F11F036E
:1008A0007B617B69184607F11807BD4690BC70470D
:1008B00080B483B000AF78607B684FF0010202FA29
:1008C00003F3184607F10C07BD4680BC704700BF14
:1008D00080B582B000AF42F20530C0F21C0000F0DB
:1008E000CDFB0346FB70FB78032B07D0082B09D008
:1008F000022B0BD101F046FE78600BE001F032FED6
:10090000786007E001F094FD786003E04FF00003A9
:100910007B6000BF7B68184607F10807BD4680BDB5
:1009200080B483B000AF4FF40043C4F20C035B69A2
:1009300003F4E063B3F5007F17D0B3F5007F05D86B
:10094000002B1ED0B3F5807F15D02CE0B3F5C06F1F
:1009500023D0B3F5E06F1AD0B3F5407F23D144F232
:100960004023C0F20F037B6021E04CF6C073C0F25D
:100970006A037B601BE04DF6C003C0F2A7037B60F7
:1009800015E049F68073C0F2D5037B600FE046F6B0
:100990004073C0F240137B6009E04FF47C53C0F217
:1009A000AB137B6003E04FF000037B6000BF7B680C
:1009B000184607F10C07BD4680BC704780B582B071
:1009C00000AF4FF00400C0F2180000F057FB0346E0
:1009D000FB70FB78072B14D0082B16D101F028FDF3
:1009E00078604FF40043C4F20C031B6803F4E03357
:1009F0004FEA933303F101037A68B2FBF3F37B60B0
:100A000007E0FFF78DFF786003E04FF000037B60A5
:100A100000BF7B68184607F10807BD4680BD00BFD0
:100A200080B584B000AF78604FF40043C4F20C038B
:100A30009A6A7B684FEA430322FA03F303F0030345
:100A4000032B49D801A252F823F000BFAD0A0000E1
:100A50005D0A0000650A00006D0A000001F082FDD9
:100A6000F8603DE001F08EFDF86039E04FF400439E
:100A7000C4F20C035B6803F48073002B08D14FF4BD
:100A80000043C4F20C031B6803F08043002B06D024
:100A900001F0A2FC03464FEA9303FB6020E001F063
:100AA0009BFC03464FEA5303FB6019E04FF40043FD
:100AB000C4F20C039A6A7B6803F104034FEA8303D0
:100AC00022FA03F3002B03D001F054FDF86007E095
:100AD0004FF00003FB6003E04FF00003FB6000BF3A
:100AE000FB68184607F11007BD4680BD80B483B08F
:100AF00000AF78604FF40043C4F20C035B6D03F069
:100B00000103002B0AD100BF4FF40043C4F20C03D1
:100B10001A6D7B681340002BF6D100E000BF07F18F
:100B20000C07BD4680BC704790B585B000AF7860BB
:100B30007B684FEA131303F00F03BB60BB6803F13C
:100B4000FF33042B00F2CA8001A252F823F000BF49
:100B50007F0B0000990B0000B30B00007F0C00001E
:100B6000650B00004FF40043C4F20C031B6803F450
:100B7000E0334FEA933303F10103FB60B2E04FF43B
:100B80000043C4F20C039B6803F00F03FB60F8689A
:100B9000FFF78EFEF860A5E04FF40043C4F20C03AB
:100BA0005B6803F00F03FB60F868FFF781FEF860F5
:100BB00098E07B6842F23042C0F20A02934228D0A9
:100BC00042F23042C0F20A02934206D841F2304269
:100BD000C0F2080293420DD04CE04FF03002C0F258
:100BE0000C02934224D04FF48662C0F2100293426A
:100BF00033D03FE04FF40043C4F20C039B6E03F08C
:100C0000F0034FEA1313FB60F868FFF751FEF8603A
:100C100034E04FF40043C4F20C039B6E03F47063A2
:100C20004FEA1323FB60F868FFF742FEF86025E007
:100C30004FF40043C4F20C039B6E03F440534FEA9D
:100C400013344FF01000FFF71DFE0346E318FB605E
:100C5000F868FFF72DFEF86010E04FF40043C4F28F
:100C60000C039B6E03F00303FB60F868FFF720FEA4
:100C7000F86003E04FF00103FB6000BF32E07A68E8
:100C80004FF4A863C0F214039A4206D04FF4AA535B
:100C9000C0F216039A420DD01BE04FF40043C4F299
:100CA0000C031B6F03F00303FB60F868FFF700FE03
:100CB000F86012E04FF40043C4F20C031B6F03F022
:100CC00030034FEA1313FB60F868FFF7F1FDF8609B
:100CD00003E04FF00103FB6000BF03E04FF00103AE
:100CE000FB6000BFFB68184607F11407BD4690BDC6
:100CF00090B587B000AF78600B46FB704FF00003F3
:100D00003B617B684FEA132303F00F0303F1FF33CA
:100D1000052B7AD801A252F823F000BF350D000050
:100D2000410D00004D0D0000B30D0000C50D000089
:100D3000D70D000048F20803C4F20C037B6151E0B8
:100D400048F24403C4F20C037B614BE048F24003D9
:100D5000C4F20C037B614FF0510000F08FF90346A1
:100D6000042B3ED101F0ECFB04464FF02000C0F212
:100D70000400FFF7D9FE0346B4FBF3F24FF49043AF
:100D8000C0F2E8139A422CD94FF40040C4F20C0090
:100D90004FF01E014FF00102FFF75CFD48F2040026
:100DA000C4F20C004FF008014FF00102FFF752FDB2
:100DB00017E048F25803C4F20C037B614FF00103C3
:100DC0003B610FE048F26003C4F20C037B614FF01B
:100DD00010033B6106E048F27803C4F20C037B6128
:100DE00000E000BF7B684FEA133303F01F03FB6092
:100DF0003B69002B02D03869FFF778FEFB787869F1
:100E0000F9681A46FFF726FD00E000BF07F11C074E
:100E1000BD4690BD90B585B000AF78607B6803F4A7
:100E20007813B3F5602F00F0B880B3F5602F19D8B0
:100E3000B3F5C02F6CD0B3F5C02F08D8B3F5003F81
:100E400044D0B3F5802F5FD0002B2CD00CE1B3F54C
:100E5000202F76D0B3F5402F00F08680B3F5002F19
:100E60005CD001E1B3F5B01F00F0DF80B3F5B01F37
:100E70000CD8B3F5901F00F0C180B3F5A01F00F0AF
:100E8000C380B3F5801F00F0A880EDE0B3F5D01F5C
:100E900000F0E280B3F5E01F00F0E280B3F5C01F80
:100EA00000F0D680E0E001F0C3FAF8604FF40043B0
:100EB000C4F20C031B6803F4E0334FEA933303F1ED
:100EC0000103FA68B2FBF3F3FB60D1E001F0B0FA82
:100ED000F8604FF40043C4F20C031B6803F4E033E2
:100EE0004FEA933303F10103FA68B2FBF3F3FB60BB
:100EF0004FF40043C4F20C039B6803F00F03FA683D
:100F000022FA03F3FB60B3E001F066FAF860AFE0A9
:100F10004FF00000FFF784FDF860A9E04FF00000FB
:100F2000FFF77EFDF8604FF40043C4F20C039B6EA4
:100F300003F0F0034FEA1313FA6822FA03F3FB609D
:100F400096E04FF00000FFF76BFDF8604FF40043B0
:100F5000C4F20C039B6E03F470634FEA1323FA6828
:100F600022FA03F3FB6083E04FF00000FFF758FD27
:100F7000F8604FF40043C4F20C039B6E03F440533B
:100F80004FEA13344FF01000FFF77CFC0346E318E0
:100F9000FA6822FA03F3FB606AE04FF00000FFF703
:100FA0003FFDF8604FF40043C4F20C039B6E03F462
:100FB00040534FEA1333FA6822FA03F3FB604FF40D
:100FC0000043C4F20C03DB6F03F0070303F10103DA
:100FD000FA68B2FBF3F3FB604AE04FF00000FFF762
:100FE0001FFDF8604FF40043C4F20C039B6E03F046
:100FF0000303FA6822FA03F3FB6039E04FF00100C3
:10100000FFF70EFDF86033E04FF00100FFF708FD39
:10101000F8604FF40043C4F20C031B6F03F00303AA
:10102000FA6822FA03F3FB6022E04FF00100FFF7B9
:10103000F7FCF8604FF40043C4F20C031B6F03F09D
:1010400030034FEA1313FA6822FA03F3FB600FE050
:10105000FFF7B4FCF8600BE0FFF762FCF86007E014
:10106000FFF736FCF86003E04FF00003FB6000BFC1
:10107000FB68184607F11407BD4690BD80B485B0E3
:1010800000AF78604FF00103FB737B6803F00F0340
:10109000BB60BB6803F1FF33042B00F2B68001A2F2
:1010A00052F823F0B9100000FD1000004D110000AF
:1010B0009D110000C91100004FF40043C4F20C035D
:1010C000DB6A03F47053B3F5805F0AD0B3F5005FB9
:1010D00003D0B3F5006F08D00BE04FF00203FB73B1
:1010E0000BE04FF00303FB7307E04FF00403FB73C7
:1010F00003E04FF00503FB7300BF8AE04FF40043A9
:10110000C4F20C039B6A03F00303022B07D0032BEA
:1011100009D0012B0BD14FF00303FB7315E04FF007
:101120000203FB7311E04FF00603FB730DE04FF475
:101130000043C4F20C039B6A03F48033002B03D0FA
:101140004FF00903FB7300E000BF62E04FF400437F
:10115000C4F20C039B6A03F00C03082B07D00C2B82
:1011600009D0042B0BD14FF00303FB7315E04FF0B4
:101170000203FB7311E04FF00603FB730DE04FF425
:101180000043C4F20C039B6A03F48013002B03D0CA
:101190004FF00903FB7300E000BF3AE04FF4004357
:1011A000C4F20C031B6803F08053002B03D0B3F18F
:1011B000805F04D007E04FF00703FB7303E04FF0BC
:1011C0000803FB7300BF24E04FF40043C4F20C0398
:1011D000DB6A03F46033B3F5803F09D0B3F5003F19
:1011E0000AD0B3F5004F0BD14FF00803FB730BE0AF
:1011F0004FF00203FB7307E04FF00303FB7303E0C0
:101200004FF00103FB7300BF03E04FF00003FB73DB
:1012100000BFFB7B184607F11407BD4680BC704732
:1012200080B487B000AFF860B9607A60FB6803F102
:1012300004734FEAC302BB68D3184FEA83037B6190
:101240007B697A681A6007F11C07BD4680BC70474D
:1012500080B584B000AF78604FF40043C4F200035F
:101260001B68FB60FB6843F08043FB607B68DA68C7
:101270007B685B7810464FF000011A4600F0B4FC22
:101280007B68DA687B689B7810464FF001011A464C
:1012900000F0AAFC7B68DA687B68DB7810464FF0C8
:1012A00002011A4600F0A0FC7B68DA687B681B79B3
:1012B00010464FF003011A4600F096FC7B68DA688E
:1012C0007B685B7910464FF004011A4600F08CFCF5
:1012D0007B68DA687B689B7910464FF005011A46F7
:1012E00000F082FC7B68DB6803F00203002B30D047
:1012F000FA684EF6FC63CFF6FC631340FB607B6834
:101300001B78FA681343FB607B685B7A4FEA034300
:10131000FA681343FB607B689B7A4FEA4343FA68A1
:101320001343FB607B68DB794FEA0363FA6813437E
:10133000FB607B681B7A4FEA0333FA681343FB6058
:101340007B6893F84C30002B03D0FB6843F4807328
:10135000FB607B68DB6803F00403002B32D0FA6883
:101360004DF6F353CFF6F3531340FB607B681B78C5
:101370004FEA8303FA681343FB607B685B7A4FEAAA
:101380008343FA681343FB607B689B7A4FEAC3434D
:10139000FA681343FB607B68DB794FEA4363FA68C2
:1013A0001343FB607B681B7A4FEA4333FA681343AD
:1013B000FB607B6893F84C30002B03D0FB6843F450
:1013C0000073FB607B68DB6803F00803002B32D0FE
:1013D000FA684BF6CF33CFF6CF331340FB607B6810
:1013E0001B784FEA0313FA681343FB607B685B7A50
:1013F0004FEA0353FA681343FB607B689B7A4FEA1A
:101400004353FA681343FB607B68DB794FEA8363DD
:10141000FA681343FB607B681B7A4FEA8333FA68F0
:101420001343FB607B6893F84C30002B03D0FB68C0
:1014300043F48063FB607B68DB6803F01003002BE0
:1014400032D0FA6847F23F73CFF23F731340FB602C
:101450007B681B784FEA8313FA681343FB607B6851
:101460005B7A4FEA8353FA681343FB607B689B7A8D
:101470004FEAC353FA681343FB607B68DB794FEA9A
:10148000C363FA681343FB607B681B7A4FEAC3337C
:10149000FA681343FB607B6893F84C30002B03D051
:1014A000FB6843F40063FB607B68D8687B68196A5B
:1014B0007B685A6A7B689B6A00F0A6F97B68D868EB
:1014C0007B6893F82C107B6893F82D207B6893F849
:1014D0002E3000F001F97B68D8687B68196B7B6857
:1014E0005A6B7B689B6B00F069FA7B68D9687B68F4
:1014F00093F83C207B6893F83D30084611461A4625
:1015000000F0ECF97B68D9687B685A697B689B6955
:10151000084611461A4600F001FB7B68DA687B68D2
:101520001B7F1046194600F0B3FA4FF40043C4F293
:101530000003FA681A607B681B78032B20D801A28D
:1015400052F823F06B1500005515000055150000EA
:101550006B15000048F21400C4F200004FF00501C2
:101560004FF00102FFF75CFE0AE048F21400C4F2FB
:1015700000004FF005014FF00002FFF751FE00BFE1
:101580004FF40043C4F200034FF40042C4F20002DF
:10159000526922F440317A68126C0A435A614FF45E
:1015A0000043C4F200034FF40042C4F20002526947
:1015B00022F4F8017A68526C0A435A614FF40043EE
:1015C000C4F200034FF40042C4F20002526922F058
:1015D000E0417A68926C0A435A61FB6803F07063D9
:1015E000002B0AD07B68DB7948F21400C4F20000BB
:1015F0004FF007011A46FFF713FE48F21400C4F239
:1016000000004FF000014FF00102FFF709FE7B6878
:101610001B6918464FF0010100F018F807F1100798
:10162000BD4680BD80B400AF4FF40043C4F2000358
:101630004FF000025A614FF40043C4F200034FF030
:1016400000021A60BD4680BC704700BF80B582B002
:1016500000AF78600B46FB707B6803F00203002B41
:1016600009D0FB7848F21400C4F200004FF00101E9
:101670001A46FFF7D5FD7B6803F00403002B09D061
:10168000FB7848F21400C4F200004FF002011A4641
:10169000FFF7C6FD7B6803F00803002B09D0FB7839
:1016A00048F21400C4F200004FF003011A46FFF79D
:1016B000B7FD7B6803F01003002B09D0FB7848F2DC
:1016C0001400C4F200004FF004011A46FFF7A8FD11
:1016D00007F10807BD4680BD80B582B000AF7860D5
:1016E000F970BA707B707B6803F00203002B1DD089
:1016F000FB7848F20800C4F200004FF01E011A46C1
:10170000FFF78EFDBB7848F20800C4F200004FF0EE
:101710001D011A46FFF784FD7B7848F20800C4F2E9
:1017200000004FF01C011A46FFF77AFD7B6803F0BA
:101730000403002B1DD0FB7848F21C00C4F200000B
:101740004FF01E011A46FFF76BFDBB7848F21C00F4
:10175000C4F200004FF01D011A46FFF761FD7B78CF
:1017600048F21C00C4F200004FF01C011A46FFF7BB
:1017700057FD7B6803F00803002B1DD0FB7848F26F
:101780002C00C4F200004FF01E011A46FFF748FD7E
:10179000BB7848F22C00C4F200004FF01D011A463D
:1017A000FFF73EFD7B7848F22C00C4F200004FF0BA
:1017B0001C011A46FFF734FD7B6803F01003002B71
:1017C0001DD0FB7848F23C00C4F200004FF01E012F
:1017D0001A46FFF725FDBB7848F23C00C4F2000032
:1017E0004FF01D011A46FFF71BFD7B7848F23C00C5
:1017F000C4F200004FF01C011A46FFF711FD07F17B
:101800000807BD4680BD00BF80B487B000AFF86058
:10181000B9607A603B607B684FEA0322BB681A4379
:101820003B684FEA034313437B61FB6803F0020309
:10183000002B0FD04FF40043C4F200034FF40042DA
:10184000C4F20002926822F0031222F47C527969F9
:101850000A439A60FB6803F00403002B0FD04FF497
:101860000043C4F200034FF40042C4F20002D26904
:1018700022F0031222F47C5279690A43DA61FB6890
:1018800003F00803002B0FD04FF40043C4F2000311
:101890004FF40042C4F20002D26A22F0031222F492
:1018A0007C5279690A43DA62FB6803F01003002B6B
:1018B0000FD04FF40043C4F200034FF40042C4F2CF
:1018C0000002D26B22F0031222F47C5279690A439F
:1018D000DA6307F11C07BD4680BC704780B582B053
:1018E00000AF786013460A46FA70BB707B6803F05D
:1018F0000203002B13D0FB7848F20C00C4F2000066
:101900004FF01D011A46FFF78BFCBB7848F20C0024
:10191000C4F200004FF01C011A46FFF781FC7B68FF
:1019200003F00403002B13D0FB7848F22000C4F22C
:1019300000004FF01D011A46FFF772FCBB7848F219
:101940002000C4F200004FF01C011A46FFF768FCAB
:101950007B6803F00803002B13D0FB7848F23000BB
:10196000C4F200004FF01D011A46FFF759FCBB7886
:1019700048F23000C4F200004FF01C011A46FFF795
:101980004FFC7B6803F01003002B13D0FB7848F268
:101990004000C4F200004FF01D011A46FFF740FC62
:1019A000BB7848F24000C4F200004FF01C011A4618
:1019B000FFF736FC07F10807BD4680BD80B487B04D
:1019C00000AFF860B9607A603B607B684FEA032241
:1019D000BB681A433B684FEA034313437B61FB68D0
:1019E00003F00203002B0FD04FF40043C4F20003B6
:1019F0004FF40042C4F20002D26822F0031222F433
:101A00007C5279690A43DA60FB6803F00403002B17
:101A10000FD04FF40043C4F200034FF40042C4F26D
:101A20000002126A22F0031222F47C5279690A43FE
:101A30001A62FB6803F00803002B0FD04FF4004339
:101A4000C4F200034FF40042C4F20002126B22F011
:101A5000031222F47C5279690A431A63FB6803F08B
:101A60001003002B0FD04FF40043C4F200034FF4D7
:101A70000042C4F20002126C22F0031222F47C52E3
:101A800079690A431A6407F11C07BD4680BC704798
:101A900080B582B000AF78600B46FB707B6803F0C6
:101AA0000203002B09D0FB7848F20400C4F20000C6
:101AB0004FF01C011A46FFF7B3FB7B6803F00403E9
:101AC000002B09D0FB7848F21800C4F200004FF058
:101AD0001C011A46FFF7A4FB7B6803F00803002BE8
:101AE00009D0FB7848F22800C4F200004FF01C0136
:101AF0001A46FFF795FB7B6803F01003002B09D013
:101B0000FB7848F23800C4F200004FF01C011A467E
:101B1000FFF786FB07F10807BD4680BD80B487B09C
:101B200000AFF860B9607A607B684FEA0322BB6857
:101B300013437B61FB6803F00203002B0FD04FF4CB
:101B40000043C4F200034FF40042C4F200025268A2
:101B500022F4407222F0030279690A435A60FB685A
:101B600003F00403002B0FD04FF40043C4F2000332
:101B70004FF40042C4F20002926922F4407222F053
:101B8000030279690A439A61FB6803F00803002B9A
:101B90000FD04FF40043C4F200034FF40042C4F2EC
:101BA0000002926A22F4407222F0030279690A4329
:101BB0009A62FB6803F01003002B0FD04FF4004330
:101BC000C4F200034FF40042C4F20002926B22F40C
:101BD000407222F0030279690A439A6307F11C07F5
:101BE000BD4680BC704700BF80B584B000AF786050
:101BF00013460A46FA70BB704FF00003FB604FF0CB
:101C00000003BB60BEE07B6803F00203002B07D03B
:101C100048F21003C4F20003BB604FF00203FB6004
:101C20007B6803F00403002B07D048F22403C4F2BE
:101C30000003BB604FF00403FB607B6803F0080304
:101C4000002B07D048F23403C4F20003BB604FF00E
:101C50000803FB607B6803F01003002B07D048F2F9
:101C60004403C4F20003BB604FF01003FB60FB7839
:101C70000A2B00F2808001A252F823F0A91C000078
:101C8000B91C0000C91C0000D91C0000E91C0000A0
:101C9000F91C0000091D00001F1D0000351D00007B
:101CA0004B1D0000611D0000BB78B8684FF00401B7
:101CB0001A46FFF7B5FA5FE0BB78B8684FF003014A
:101CC0001A46FFF7ADFA57E0BB78B8684FF002014B
:101CD0001A46FFF7A5FA4FE0BB78B8684FF001014C
:101CE0001A46FFF79DFA47E0BB78B8684FF000014D
:101CF0001A46FFF795FA3FE0BB78B8684FF0050148
:101D00001A46FFF78DFA37E0BB7848F27C00C4F240
:101D100000004FF004011A46FFF782FA2CE0BB786E
:101D200048F27C00C4F200004FF003011A46FFF7AE
:101D300077FA21E0BB7848F27C00C4F200004FF053
:101D400002011A46FFF76CFA16E0BB7848F27C00F5
:101D5000C4F200004FF001011A46FFF761FA0BE0F0
:101D6000BB7848F27C00C4F200004FF000011A4634
:101D7000FFF756FA00E000BFFB686FEA03037A68DA
:101D800013407B607B68002B7FF43DAF07F11007A9
:101D9000BD4680BD90B484B000AFB9607B6003469F
:101DA000FB731346BB73BB7B002B2DD07B68002BD2
:101DB00015D04FF4C042C4F20002F97BBB684FF06B
:101DC000010000FA03F318460B464FEAC3035B1801
:101DD0004FEA8303D31803F11003186014E04FF4A3
:101DE000C042C4F20002F97BBB684FF0010000FA68
:101DF00003F318460B464FEAC3035B184FEA83030D
:101E0000D31803F110035860BB68072B2BD84FF48D
:101E1000C042C4F20002F87B4FF4C041C4F200019A
:101E2000FC7B23464FEAC3031B194FEA8303CB18FD
:101E30005968BB684FEA83034FF00F0404FA03F3B9
:101E40006FEA03031940BC7BBB684FEA830304FAC3
:101E500003F3194303464FEAC3031B184FEA8303F6
:101E6000D318596036E04FF4C042C4F20002F87B48
:101E70004FF4C041C4F20001FC7B23464FEAC30388
:101E80001B194FEA8303CB1803F108031968BB68D9
:101E900003F18043A3F108034FEA83034FF00F04DB
:101EA00004FA03F36FEA03031940BC7BBB6803F138
:101EB0008043A3F108034FEA830304FA03F31943B1
:101EC00003464FEAC3031B184FEA8303D31803F1F9
:101ED00008031960BB7B002B2DD17B68002B15D02C
:101EE0004FF4C042C4F20002F97BBB684FF001001E
:101EF00000FA03F318460B464FEAC3035B184FEA98
:101F00008303D31803F11003186014E04FF4C042A8
:101F1000C4F20002F97BBB684FF0010000FA03F342
:101F200018460B464FEAC3035B184FEA8303D318E6
:101F300003F11003586007F11007BD4690BC7047CD
:101F400080B485B000AF78604FF6D073CEF20F0347
:101F50001B69DBB203F03F03DAB27B681A704FF6FD
:101F6000D073CEF20F039B69DBB223F00F03FB7338
:101F70004FF6D073CEF20F03DB6903F0F0034FEAA4
:101F80001313DAB2FB7B1343FB737B68FA7B5A7043
:101F900007F11407BD4680BC704700BF80B586B00E
:101FA00000AFF860B9607A60FB70BB68002B06D1A7
:101FB00048F21010C0F20200FEF72CFFB860FB7868
:101FC000402B11D0402B04DC002B05D0202B07D058
:101FD00012E0602B0CD00FE04FF010037B610CE09F
:101FE0004FF008037B6108E04FF006037B6104E0DB
:101FF0004FF004037B6100E030E0BB684FEA8302EE
:102000007B69796801FB03F34FEA5303D3183B6103
:102010007B697A6802FB03F33A69B2FBF3F33B6135
:102020003B69A3F104033B613B694FEA83133B61C6
:102030003A694FF6C073C0F21F0313403B61FB685F
:102040001B6823F06002FB681A60FB681A68FB7863
:102050001A43FB681A60FB683A695A6107F118076E
:10206000BD4680BD80B586B000AFF860B9607A60CB
:10207000BB68002B06D148F21010C0F20200FEF738
:10208000C9FEB860BB684FEA43037B617A687B692D
:10209000D31803F1FF337B617A697B68B2FBF3F3FA
:1020A0007B617B69A3F104037B617B694FEA831346
:1020B0007B617B6903F1C0037B617B6923F0FF03D4
:1020C0007B617A694FF6C073C0F21F0313407B61D6
:1020D000FB687A695A6107F11807BD4680BD00BFE9
:1020E00080B485B000AF78600B46FB70FB786FEA78
:1020F0000303FB60FB6803F00503FB60FB684FEA2A
:1021000043027B68DA60FA787B68DA6007F11407CB
:10211000BD4680BC704700BF80B582B000AF78601C
:102120003960786800F08AF83B689B7C002B05D00A
:102130007B681B6843F080427B681A603B68DB7CED
:10214000002B07D03B681B7D43F01003DBB21A461F
:102150007B689A653B685B7B1A463B681B8A1A431F
:102160003B68DB891A437B685A603B6859683B6867
:102170009A683B681B7B7868FFF710FF3B681B7809
:102180001A467B68DA6007F10807BD4680BD00BFCC
:1021900080B582B000AF78603960786800F04EF8A2
:1021A0007B681A683B681B8A43F001039BB219469F
:1021B0003B689B7B002B02D04FF4806301E04FF023
:1021C00000030B431A437B681A607B6819683B68FD
:1021D0009B7C002B02D04FF0100201E04FF0000278
:1021E0003B681B7D002B02D04FF0005301E04FF005
:1021F0000003134341EA03027B681A603B681B7BC0
:1022000043F480527B685A603B685A683B689B681D
:10221000786811461A46FFF725FF3B685B7B002B69
:1022200003D07B684FF01002DA603B681B781A46D7
:102230007B68DA6007F10807BD4680BD80B483B0D3
:1022400000AF78607B6840F6AA62DA607B684FF086
:1022500000021A607B6841F205025A607B684FF009
:1022600000029A607B684FF000025A617B684FF071
:102270000002DA647B6841F6F9729A647B684FF079
:1022800000025A657A684FF44043C4F200039A4250
:1022900003D17B684FF000021A657B684FF00002A3
:1022A0009A657A684FF44443C4F200039A4206D018
:1022B0007A684FF44843C4F200039A4203D17B6822
:1022C0004FF00002DA6507F10C07BD4680BC70478D
:1022D00080B483B000AF786000BF7B681B6903F0F7
:1022E0008003002BF9D07B68DB69DBB2184607F16D
:1022F0000C07BD4680BC704780B483B000AF7860E7
:102300000B46FB7000BF7B681B6903F04003002B8A
:10231000F9D0FA787B685A6307F10C07BD4680BC98
:10232000704700BF074880470749084A084B9B1A77
:1023300040F30580043BC858D0503FF7FBAF054839
:102340000047000059250000703800000000002000
:102350009000002055010000FEE7FEE7FEE7FEE7E3
:10236000FEE7FEE7FEE7FEE7FEE7FEE7FEE7FEE745
:10237000FEE7FEE7FEE7FEE7FEE7FEE7FEE7FEE735
:10238000FEE7FEE7FEE7FEE7FEE7FEE7FEE7FEE725
:10239000FEE7FEE7FEE7FEE7FEE7FEE7FEE7FEE715
:1023A000FEE7FEE7FEE7FEE7FEE7FEE7FEE7FEE705
:1023B000FEE7FEE7FEE7FEE7FEE700BF80B400AF02
:1023C00048F2B013C0F6E073DB6C4FEA1363DBB284
:1023D0001846BD4680BC704780B582B000AF00F0A3
:1023E00027F878604FF40043C4F20C031B6803F431
:1023F000E0334FEA933303F101037A68B2FBF3F35E
:102400007B604FF40043C4F20C035B6803F00F03DE
:102410007A6822FA03F37B6040F2D823C2F2000309
:102420007A681A607B68184607F10807BD4680BDC8
:1024300080B582B000AF4FF40043C4F20C03DB6AF6
:1024400003F47053B3F5805F0DD0B3F5005F03D094
:10245000B3F5006F0BD011E040F22003C2F200038D
:102460001B687B6066E04FF400437B6062E040F2F3
:102470001C03C2F200031B687B605BE04FF4004367
:10248000C4F20C03DB6803F4E063B3F5007F24D0EF
:10249000B3F5007F05D8002B36D0B3F5807F22D06E
:1024A00043E0B3F5806F0CD0B3F5A06F03D0B3F564
:1024B000407F0CD039E04FF47C53C0F2AB137B600B
:1024C00037E046F64073C0F240137B6031E049F6D6
:1024D0008073C0F2D5037B602BE04DF6C003C0F2E1
:1024E000A7037B6025E0FFF769FF0346122B05D9A0
:1024F0004BF24053C0F264037B601AE04CF6C073A9
:10250000C0F26A037B6014E0FFF758FF0346122B0A
:1025100005D94FF49F43C0F212037B6009E044F2F7
:102520004023C0F20F037B6003E04FF000037B60A9
:1025300000BF00BF7B68184607F10807BD4680BD95
:1025400080B400AF40F21C03C2F200031B681846BF
:10255000BD4680BC704700BF80B400AFBD4680BCA4
:10256000704700BF80B400AF4FF400431846BD462B
:1025700080BC704780B400AF4FF47A731846BD46F4
:1025800080BC704780B400AF40F22003C2F2000369
:102590001B681846BD4680BC704700BF80B483B03E
:1025A00000AF03463960FB714FF4C042C4F2000231
:1025B000F9793B684FF0010000FA03F318460B4627
:1025C0004FEAC3035B184FEA8303D31803F11003E8
:1025D000586007F10C07BD4680BC704780B483B0DB
:1025E00000AF03463960FB714FF4C042C4F20002F1
:1025F000F9793B684FF0010000FA03F318460B46E7
:102600004FEAC3035B184FEA8303D31803F11003A7
:10261000186007F10C07BD4680BC704780B500AF5D
:1026200040F2BC13C2F200031B68022B01D100F080
:10263000CBFA40F2BC13C2F200031B68012B01D19C
:1026400000F0D2FE4FF0010000F04AF84FF0000316
:10265000184680BD80B584B000AF78604FF00003AD
:10266000FB737B6803F00203002B0ED040F2BC1317
:10267000C2F200034FF002021A604FF0040000F0B3
:102680002FF800F0F9FB0346FB737B6803F00103AE
:10269000002B0ED040F2BC13C2F200034FF0010237
:1026A0001A604FF0030000F01BF800F075FF0346BE
:1026B000FB73FB7B83F00103DBB2002B00D0FEE752
:1026C0004FF00200C8F200004FF0000100F05EFA87
:1026D0004FF00003184607F11007BD4680BD00BF4C
:1026E00080B584B000AF0346FB714FF00003FB6080
:1026F0004FF45240C0F202004FF00101FEF7F8FA29
:1027000040F2C013C2F20003FA791A70FB7903F1A8
:10271000FF33032B5ED801A252F823F02D270000CF
:102720005727000081270000AB2700004FF0010071
:102730004FF00F014FF004024FF00103FFF72AFBA7
:102740004FF003004FF00D014FF004024FF0010372
:10275000FFF720FB42E04FF001004FF00F014FF078
:1027600004024FF00003FFF715FB4FF003004FF09A
:102770000D014FF004024FF00003FFF70BFB2DE0BB
:102780004FF001004FF00F014FF004024FF0010332
:10279000FFF700FB4FF003004FF00D014FF0040274
:1027A0004FF00003FFF7F6FA18E04FF001004FF08A
:1027B0000F014FF004024FF00003FFF7EBFA4FF068
:1027C00003004FF00D014FF004024FF00103FFF73B
:1027D000E1FA03E04FF0FF33FB6000BFFB681846EF
:1027E00007F11007BD4680BD80B582B000AF03463B
:1027F000FB71FB79002B08D04FF01400C8F20000E9
:102800004FF0010100F0C2F907E04FF01400C8F2E8
:1028100000004FF0000100F0B9F94FF00003184636
:1028200007F10807BD4680BD80B584B000AF024601
:102830000B46FA71BB714FF01800C8F2000000F0AF
:102840008DF90346FB81BB79002B00F0E280FB7918
:102850000D2B00F2738101A252F823F0952800009D
:102860009F280000B9280000D3280000DD280000C0
:102870000F290000512900005B2900007D2900007C
:102880008729000099290000BB290000DD290000EC
:10289000E7290000FB8943F40053FB814EE1FB89EB
:1028A00023F40053FB81FB8923F40063FB81FB8944
:1028B00043F48053FB8141E1FB8923F40053FB8106
:1028C000FB8923F48053FB81FB8943F40063FB8184
:1028D00034E1FB8943F48063FB812FE14FF0010079
:1028E00000F018FEFB8943F48073FB81FB8943F4FD
:1028F0000073FB81FB8923F00403FB81FB8923F038
:102900004003FB81FB8923F00203FB8116E14FF0BA
:10291000000000F0FFFDFB8943F00803FB81FB8909
:1029200043F01003FB81FB8943F48073FB81FB8937
:1029300023F40073FB81FB8923F00403FB81FB89F3
:1029400023F04003FB81FB8923F00203FB81F5E0C8
:10295000FB8943F08003FB81F0E0FB8943F04003F7
:10296000FB81FB8923F48073FB81FB8923F40073D3
:10297000FB814FF0030000F0CDFDDFE0FB8943F069
:102980002003FB81DAE0FB8923F01003FB81FB8944
:1029900043F00803FB81D1E0FB8943F00403FB8192
:1029A000FB8923F48073FB81FB8923F40073FB8193
:1029B0004FF0030000F0AEFDC0E0FB8943F00203DE
:1029C000FB81FB8923F48073FB81FB8923F4007373
:1029D000FB814FF0030000F09DFDAFE0FB8943F069
:1029E0000103FB81AAE04FF0020000F093FDFB8998
:1029F00043F48073FB81FB8923F00403FB81FB8993
:102A000023F04003FB81FB8923F00203FB8100BF1D
:102A100094E0FB790D2B00F2918001A252F823F093
:102A2000592A0000632A0000752A0000872A000046
:102A3000912A0000AB2A0000D52A0000DF2A0000FE
:102A4000E92A0000F32A0000052B00000F2B0000EC
:102A5000192B0000232B0000FB8923F40053FB817A
:102A60006CE0FB8943F40053FB81FB8923F4805322
:102A7000FB8163E0FB8943F40053FB81FB8923F472
:102A80000063FB815AE0FB8923F48063FB8155E0FE
:102A9000FB8923F48073FB81FB8923F40073FB81A2
:102AA0004FF0030000F036FD48E0FB8923F00803F7
:102AB000FB81FB8923F01003FB81FB8923F48073E6
:102AC000FB81FB8923F40073FB814FF0030000F0CE
:102AD00021FD33E0FB8923F08003FB812EE0FB899D
:102AE00023F04003FB8129E0FB8923F02003FB81D5
:102AF00024E0FB8923F01003FB81FB8923F008030A
:102B0000FB811BE0FB8923F00403FB8116E0FB89BA
:102B100023F00203FB8111E0FB8923F00103FB8119
:102B20000CE0FB8923F48073FB81FB8923F40073A1
:102B3000FB814FF0030000F0EDFC00BFFB894FF07C
:102B40001800C8F20000194600F020F84FF000030A
:102B5000184607F11007BD4680BD00BF80B582B0A2
:102B600000AF786040F2BC13C2F200031B68022B76
:102B700003D17B681B889BB203E0786800F038FDC6
:102B80000346184607F10807BD4680BD80B582B0F0
:102B900000AF78600B467B8040F2BC13C2F20003AA
:102BA0001B68022B03D17B687A881A8004E07B883B
:102BB0007868194600F06CFD4FF00003184607F1E5
:102BC0000807BD4680BD00BF80B500AF4FF00000D4
:102BD0004FF000014FF000024FF00003FFF7DAF86A
:102BE0004FF000004FF001014FF000024FF00003E2
:102BF000FFF7D0F84FF000004FF002014FF0000255
:102C00004FF00003FFF7C6F84FF000004FF003014C
:102C10004FF000024FF00003FFF7BCF84FF0000048
:102C20004FF004014FF000024FF00003FFF7B2F83D
:102C30004FF000004FF005014FF000024FF000038D
:102C4000FFF7A8F84FF000004FF006014FF0000228
:102C50004FF00003FFF79EF84FF000004FF00F0118
:102C60004FF000024FF00003FFF794F84FF001001F
:102C70004FF000014FF000024FF00003FFF78AF819
:102C80004FF001004FF001014FF000024FF0000340
:102C9000FFF780F84FF001004FF002014FF0000203
:102CA0004FF00003FFF776F84FF001004FF00301FB
:102CB0004FF000024FF00003FFF76CF84FF00100F7
:102CC0004FF004014FF000024FF00003FFF762F8ED
:102CD0004FF001004FF005014FF000024FF00003EC
:102CE000FFF758F84FF001004FF006014FF00002D7
:102CF0004FF00003FFF74EF84FF003004FF00901CB
:102D00004FF000024FF00003FFF744F84FF00300CC
:102D10004FF00A014FF000024FF00003FFF73AF8BE
:102D20004FF003004FF00B014FF000024FF0000393
:102D3000FFF730F84FF003004FF00C014FF00002A6
:102D40004FF00003FFF726F84FF004004FF00801A2
:102D50004FF000024FF00003FFF71CF84FF00400A3
:102D60004FF009014FF000024FF00003FFF712F897
:102D70004FF004004FF00A014FF000024FF0000343
:102D8000FFF708F84FF004004FF00B014FF000027E
:102D90004FF00003FEF7FEFF4FF004004FF00C0170
:102DA0004FF000024FF00003FEF7F4FF4FF0040075
:102DB0004FF00D014FF000024FF00003FEF7EAFF65
:102DC0004FF004004FF00E014FF000024FF00003EF
:102DD000FEF7E0FF4FF004004FF00F014FF000024C
:102DE0004FF00003FEF7D6FF4FF005004FF0020151
:102DF0004FF000024FF00003FEF7CCFF4FF005004C
:102E00004FF008014FF000024FF00003FEF7C2FF41
:102E10004FF005004FF009014FF000024FF00003A2
:102E2000FEF7B8FF4FF002004FF00B014FF0000229
:102E30004FF00003FEF7AEFF4FF005004FF0060124
:102E40004FF000024FF00003FEF7A4FF4FF0050023
:102E50004FF007014FF000024FF00003FEF79AFF1A
:102E6000FEF7E0FB4FF4A640C0F204004FF0000173
:102E7000FDF73EFF80BD00BF80B594B000AF3A467D
:102E80004FF0500310464FF000011A4600F0A0FC2E
:102E90004FF00203FB604FF002033B614FF0010370
:102EA000BB614FF00103BB634FF0010387F84C3067
:102EB0004FF4A640C0F204004FF00101FDF718FFE7
:102EC0004FF45240C0F202004FF00101FDF710FF35
:102ED0004FF000004FF000014FF004024FF00003EC
:102EE000FEF758FF4FF000004FF001014FF00402D1
:102EF0004FF00003FEF74EFF4FF000004FF00201CD
:102F00004FF004024FF00003FEF744FF4FF00000C3
:102F10004FF003014FF004024FF00003FEF73AFFB9
:102F20004FF000004FF004014FF004024FF0000397
:102F3000FEF730FF4FF000004FF005014FF00402A4
:102F40004FF00003FEF726FF4FF000004FF00601A0
:102F50004FF004024FF00003FEF71CFF4FF000009B
:102F60004FF00F014FF004024FF00003FEF712FF85
:102F70004FF001004FF000014FF004024FF000034A
:102F8000FEF708FF4FF001004FF001014FF004027F
:102F90004FF00003FEF7FEFE4FF001004FF002017C
:102FA0004FF004024FF00003FEF7F4FE4FF0010073
:102FB0004FF003014FF004024FF00003FEF7EAFE6A
:102FC0004FF001004FF004014FF004024FF00003F6
:102FD000FEF7E0FE4FF001004FF005014FF0040254
:102FE0004FF00003FEF7D6FE4FF001004FF0060150
:102FF0004FF004024FF00003FEF7CCFE4FF0030049
:103000004FF009014FF004024FF00103FEF7C2FE3A
:103010004FF003004FF00A014FF004024FF001039C
:10302000FEF7B8FE4FF003004FF00B014FF0040223
:103030004FF00103FEF7AEFE4FF003004FF00C011E
:103040004FF004024FF00103FEF7A4FE4FF004001E
:103050004FF008014FF004024FF00003FEF79AFE14
:103060004FF004004FF009014FF004024FF000034D
:10307000FEF790FE4FF004004FF00A014FF00402FB
:103080004FF00003FEF786FE4FF004004FF00B01F7
:103090004FF004024FF00003FEF77CFE4FF00400F7
:1030A0004FF00C014FF004024FF00003FEF772FEE8
:1030B0004FF004004FF00D014FF004024FF00003F9
:1030C000FEF768FE4FF004004FF00E014FF00402CF
:1030D0004FF00003FEF75EFE4FF004004FF00F01CB
:1030E0004FF004024FF00003FEF754FE4FF00500CE
:1030F0004FF002014FF001024FF00003FEF74AFECD
:103100004FF005004FF008014FF004024FF00003AC
:10311000FEF740FE4FF005004FF009014FF00402AA
:103120004FF00003FEF736FE4FF002004FF00B01A8
:103130004FF004024FF00003FEF72CFE4FF00500A5
:103140004FF006014FF004024FF00003FEF722FE9D
:103150004FF005004FF007014FF004024FF000035D
:10316000FEF718FE4FF00803FB604FF008033B61C9
:103170004FF001033B704FF00103BB704FF00103B0
:10318000FB714FF001033B724FF000037B724FF075
:1031900001033B774FF0010387F82D304FF40033E4
:1031A0003B644FF4B8037B644FF08053BB644FF033
:1031B0000003BB614FF000037B614FF004037B62AF
:1031C0004FF00003BB624FF000033B624FF002037D
:1031D0007B634FF00003BB634FF000033B633B4650
:1031E0001846FEF735F84FF00203FB604FF002037C
:1031F0003B614FF001033B704FF00103BB704FF098
:103200000003FB714FF001033B774FF0000387F899
:103210002D304FF001033B724FF00303BB614FF0C1
:1032200003037B614FF007037B624FF00303BB6234
:103230004FF003033B624FF007037B634FF0030340
:10324000BB634FF003033B633B461846FEF700F8B1
:103250004FF00403FB604FF004033B614FF00103A8
:10326000BB614FF001037B614FF007037B624FF0BE
:103270000303BB624FF003033B624FF002037B6327
:103280004FF00103BB634FF001033B633B4618461D
:10329000FDF7DEFF4FF01003FB604FF010033B61C2
:1032A0004FF001033B704FF00103BB704FF001037F
:1032B000FB714FF001033B774FF0000387F82D308F
:1032C0004FF001033B724FF00003BB614FF000036E
:1032D0007B614FF006037B624FF00003BB624FF04F
:1032E00000033B624FF005037B634FF00003BB63B9
:1032F0004FF000033B633B461846FDF7A9FF4FF034
:103300000100FFF771FA4FF000439B889AB24EF626
:1033100032739A4202D04FF0000301E04FF00103F4
:10332000184607F15007BD4680BD00BF80B584B088
:1033300000AF13460246FA710A46BA71BB804FF0DD
:1033400002004FF00501FFF729F9FB7903F00303B1
:10335000DAB2BB794FEAC303DBB21343DBB2DBB2B1
:103360004FF44840C4F200001946FEF7C5FF4FF481
:103370004840C4F20000FEF7ABFFBB88DBB24FF45D
:103380004840C4F200001946FEF7B6FF4FF448402B
:10339000C4F20000FEF79CFF0346FB81BB884FEAA6
:1033A00013239BB2DBB24FF44840C4F2000019462D
:1033B000FEF7A2FF4FF44840C4F20000FEF788FF7A
:1033C00003464FEA03239AB2FB8913439BB2FB8166
:1033D0004FF002004FF00501FFF700F9FB89184696
:1033E00007F11007BD4680BD80B500AF4FF44840DF
:1033F000C4F20000FEF722FF4FF002004FF002017E
:103400004FF000024FF00003FEF7C4FC4FF0020043
:103410004FF003014FF000024FF00003FEF7BAFC3B
:103420004FF002004FF004014FF000024FF0000394
:10343000FEF7B0FC4FF002004FF005014FF0000224
:103440004FF00003FEF7A6FC4FF40850C0F2020054
:103450004FF00001FDF74CFC80BD00BFB0B586B059
:1034600000AF43F64403C0F200033C461D460FCDB7
:103470000FC495E8030084E803004FF40850C0F23D
:1034800002004FF00101FDF733FC4FF002004FF056
:1034900002014FF004024FF00003FEF77BFC4FF0F7
:1034A00002004FF003014FF001024FF00003FEF75E
:1034B00071FC4FF002004FF004014FF004024FF096
:1034C0000003FEF767FC4FF002004FF005014FF0DC
:1034D00004024FF00103FEF75DFC4FF4D843C0F245
:1034E000DC237B604CF6C073C0F26A03BB603B46D2
:1034F0004FF44840C4F200001946FEF749FE4FF46D
:103500004843C4F200034FF00B025A6507F1180755
:10351000BD46B0BD80B582B000AF0346FB71FB79FC
:10352000032B35D801A252F823F000BF3D3500002F
:103530004F35000061350000733500004FF01A0070
:10354000C8F200004FF00001FFF720FB20E04FF031
:103550001A00C8F200004FF00101FFF717FB17E057
:103560004FF01A00C8F200004FF00201FFF70EFB07
:103570000EE04FF44440C4F20000FEF75FFE4FF44B
:103580009050C0F202004FF00001FDF7B1FB00BF08
:1035900007F10807BD4680BD80B582B000AF48F294
:1035A0001010C0F202004FF00101FDF7A1FB4FF433
:1035B0005240C0F202004FF00101FDF799FBFFF706
:1035C0004DFF4FF00400C8F2000000F011F8034670
:1035D000FB80FA884EF632739A4202D04FF0000315
:1035E00001E04FF00103184607F10807BD4680BD12
:1035F00080B584B000AF786040F2C413C2F200031B
:103600001B687A689A4222D07B689BB24FF0000018
:103610004FF000011A46FFF789FE7B684FEA13431B
:103620009BB2DBB29BB24FF001004FF000011A4693
:10363000FFF77CFE7B6803F040634FEA93639BB225
:103640004FF002004FF000011A46FFF76FFE4FF0F7
:1036500003004FF001014FF00002FFF767FE034641
:10366000FB814FF003004FF001014FF00002FFF724
:103670005DFE0346FB8140F2C413C2F200037A6888
:103680001A60FB89184607F11007BD4680BD00BFD0
:1036900080B582B000AF78600B467B8040F2C413E7
:1036A000C2F200031B687A689A4222D07B689BB200
:1036B0004FF000004FF000011A46FFF737FE7B681D
:1036C0004FEA13439BB2DBB29BB24FF001004FF0C5
:1036D00000011A46FFF72AFE7B6803F040634FEAB9
:1036E00093639BB24FF002004FF000011A46FFF7C0
:1036F0001DFE7B884FF003004FF000011A46FFF7D4
:1037000015FE40F2C413C2F200037A681A6007F192
:103710000807BD4680BD00BF10B5034C14B1AFF320
:10372000008010BD204610BD0000000008B5084B09
:1037300004461BB10021AFF3008001E000F00CF85B
:1037400004480068816A01B18847204600F048F8C3
:10375000000000006038000070B5084B084C0025E0
:10376000E01A841003EB8406043D1CB172599047A3
:10377000013CF9E7BDE8704000F03AB88C00002049
:103780009000002038B50E4D0E4B0024E81A85102D
:10379000AC4205D00B4951F8242090470134F7E79B
:1037A00000F020F80849094A541AA5100024AC4238
:1037B00005D0054B53F8240080470134F7E738BDA6
:1037C0008800002088000020880000208C00002055
:1037D00082180346934202D003F8011BFAE77047B0
:1037E000FEE700BFF8B500BFF8BC08BC9E467047B6
:1037F000F8B500BFF8BC08BC9E467047456E6572C0
:103800006779204D6963726F2052532D3233322015
:103810002D20506C65617365207072657373206133
:10382000206B65790A0000000A2D2D2D5258204F7B
:10383000564552464C4F572D2D2D0A0029000000A9
:1038400013000000050000000000000040420F00CF
:10385000050100000000000000000000430000001F
:0838600024000020000000001C
:08386800ECC8FF7F0100000025
:1038700000E40040050000000000000000C201005C
:10388000000500000010000000000000006CDC02D9
:1038900000800000000000000000000000000000A8
:1038A0000000000000000000000000000000000018
:1038B000000000005C380000000000000000000074
:1038C00000000000000000000000000000000000F8
:1038D00000000000000000000000000000000000E8
:1038E00000000000000000000000000000000000D8
:1038F00000000000000000002501000001010000A0
:0400000300002325B1
:00000001FF
